{
	"data": {
		"bytecode": {
			"linkReferences": {
				"lib/panoptic-v1-core/contracts/libraries/PanopticMath.sol": {
					"PanopticMath": [
						{
							"length": 20,
							"start": 9561
						}
					]
				}
			},
			"object": "60a06040526040516142d63803806142d683398101604081905261002291610033565b6001600160a01b0316608052610060565b5f60208284031215610043575f5ffd5b81516001600160a01b0381168114610059575f5ffd5b9392505050565b6080516142036100d35f395f81816105180152818161074101528181610bf301528181610cd201528181610db301528181610e4001528181610ec501528181610f2e01528181610faf015281816116b7015281816119c1015281816119f001528181611e23015261253201526142035ff3fe608060405234801561000f575f5ffd5b50600436106101dc575f3560e01c806383b7033511610109578063ced04c021161009e578063e830adb91161006e578063e830adb914610479578063f32202861461048c578063fa80f8f51461049f578063fd8c575e146104b2575f5ffd5b8063ced04c0214610418578063d27e5fa71461042b578063d88162e51461043e578063e0fb8ba314610466575f5ffd5b8063b8b551d6116100d9578063b8b551d614610390578063c4cc192f146103b0578063ca64f419146103f2578063cd775a7e14610405575f5ffd5b806383b70335146103375780639b82fff41461034a5780639bd25cad1461035d578063ad65d5b014610370575f5ffd5b806342189dee1161017f57806357fced971161014f57806357fced97146102eb57806366deb402146102fe57806371215b9c146103115780637da845be14610324575f5ffd5b806342189dee1461029f57806342df787e146102b257806345d6704d146102c55780634804b3fb146102d8575f5ffd5b80632228f0fa116101ba5780632228f0fa1461023e57806330da59f214610264578063321115d814610277578063346009011461028a575f5ffd5b806302bcbf30146101e057806306158ed51461020a5780630b69b2c61461022b575b5f5ffd5b6101e86104c5565b604080519283526001600160801b039091166020830152015b60405180910390f35b61021d610218366004613449565b61071c565b604051908152602001610201565b61021d6102393660046134bb565b6107fd565b61025161024c366004613565565b610834565b60405160029190910b8152602001610201565b610251610272366004613565565b610a0b565b61021d610285366004613449565b610bce565b61029d6102983660046135c5565b610c54565b005b61021d6102ad3660046135dc565b610c87565b61021d6102c0366004613651565b610cad565b61021d6102d33660046135dc565b610d46565b61021d6102e63660046135dc565b610d6a565b61021d6102f9366004613449565b610d8e565b61021d61030c366004613449565b610e1b565b61021d61031f366004613449565b610ea0565b61021d6103323660046136cc565b610f09565b61021d610345366004613449565b610f8a565b61021d6103583660046135dc565b610ff3565b61021d61036b366004613751565b611029565b61038361037e3660046135c5565b6115ef565b604051610201919061378f565b6103a361039e3660046138e1565b611908565b604051610201919061399c565b6103c36103be366004613a6d565b611cb7565b604080516001600160801b0390941684526001600160401b039283166020850152911690820152606001610201565b61021d6104003660046134bb565b611ddc565b61021d6104133660046136cc565b611dfe565b61021d610426366004613a9a565b611e7f565b61021d610439366004613afa565b611eae565b61045161044c366004613b39565b6121c0565b60408051928352602083019190915201610201565b61021d610474366004613a9a565b61241a565b610251610487366004613bb8565b61245a565b61021d61049a366004613449565b6124eb565b61021d6104ad366004613449565b6124fc565b61021d6104c0366004613bf7565b61250d565b5f8073275e8f09f090cf9b8e77008643e33d477fbb05e66d0f0000a50102000ae549883274bf6001836104f7836115ef565b6001600160801b03955090505f5b61050e84612592565b811015610713575f7f00000000000000000000000000000000000000000000000000000000000000006001600160a01b031663e53dec3884848151811061055757610557613c60565b6020026020010151602001518886868151811061057657610576613c60565b602002602001015160800151600288888151811061059657610596613c60565b602002602001015161010001516105ad9190613c9c565b8888815181106105bf576105bf613c60565b602002602001015160e001516105d59190613cd4565b60028989815181106105e9576105e9613c60565b602002602001015161010001516106009190613c9c565b89898151811061061257610612613c60565b602002602001015160e001516106289190613cf9565b6040518663ffffffff1660e01b8152600401610648959493929190613d1e565b602060405180830381865afa158015610663573d5f5f3e3d5ffd5b505050506040513d601f19601f820116820180604052508101906106879190613d55565b90505f816001600160801b03169050808484815181106106a9576106a9613c60565b602002602001015160600151866001600160801b03166106c99190613d6c565b1115610709575f60646106dd83605a613d6c565b6106e79190613d83565b9050886001600160801b0316816001600160801b03161015610707578098505b505b5050600101610505565b50505050509091565b60405163caa9a08d60e01b81526001600160a01b0388811660048301525f916107b9917f0000000000000000000000000000000000000000000000000000000000000000169063caa9a08d906024015b602060405180830381865afa158015610787573d5f5f3e3d5ffd5b505050506040513d601f19601f820116820180604052508101906107ab9190613d96565b6001600160401b0316820190565b90506107d58183858760016107ce8482613dbc565b8c8e61260d565b90506107f1816107e6846001613dbc565b85875f878b8e61260d565b98975050505050505050565b5f61080d8787878787875f610bce565b905061081f5f87878787876002610d8e565b6108299082613dbc565b979650505050505050565b5f5f856001600160a01b0316634f94c5306040518163ffffffff1660e01b8152600401602060405180830381865afa158015610872573d5f5f3e3d5ffd5b505050506040513d601f19601f820116820180604052508101906108969190613dcf565b6001600160a01b0316633850c7bd6040518163ffffffff1660e01b815260040160e060405180830381865afa1580156108d1573d5f5f3e3d5ffd5b505050506040513d601f19601f820116820180604052508101906108f59190613e00565b50505050509150505f6127108261090c9190613cd4565b905081620186a05b816109228a8a868b8b61261f565b61092f8b8b868c8c61261f565b6109399190613e96565b6109438585613cd4565b60020b6109538c8c878d8d61261f565b61095d9190613ebc565b6109679190613eeb565b8360020b6109759190613e96565b90935091506109848185613cf9565b60020b8260020b13806109a5575061099c8185613cd4565b60020b8260020b125b156109ba57620d89e719945050505050610a03565b5f6109d28a8a6109cb600187613cd4565b8b8b61261f565b13155f6109ec8b8b6109e5876001613cf9565b8c8c61261f565b1215036109fe57509250610a03915050565b610914565b949350505050565b5f5f856001600160a01b0316634f94c5306040518163ffffffff1660e01b8152600401602060405180830381865afa158015610a49573d5f5f3e3d5ffd5b505050506040513d601f19601f82011682018060405250810190610a6d9190613dcf565b6001600160a01b0316633850c7bd6040518163ffffffff1660e01b815260040160e060405180830381865afa158015610aa8573d5f5f3e3d5ffd5b505050506040513d601f19601f82011682018060405250810190610acc9190613e00565b50505050509150505f8190505f82612710610ae79190613cf9565b9050620186a05b81610afc8a8a868b8b61261f565b610b098b8b868c8c61261f565b610b139190613e96565b610b1d8585613cd4565b60020b610b2d8c8c878d8d61261f565b610b379190613ebc565b610b419190613eeb565b8360020b610b4f9190613e96565b9093509150610b5e8185613cf9565b60020b8260020b1380610b7f5750610b768185613cd4565b60020b8260020b125b15610b9357620d89e8945050505050610a03565b5f610ba48a8a6109cb600187613cd4565b13155f610bb78b8b6109e5876001613cf9565b121503610bc957509250610a03915050565b610aee565b60405163caa9a08d60e01b81526001600160a01b0388811660048301525f91610c22917f0000000000000000000000000000000000000000000000000000000000000000169063caa9a08d9060240161076c565b9050610c378183858760016107ce8482613dbc565b90506107f181610c48846001613dbc565b6001875f878b8e61260d565b610c5d8161263f565b5f5b610c6882612592565b811015610c8357610c798282612901565b5050600101610c5f565b5050565b5f610c9987878686865f600180610cad565b9050610829815f60018560015f8b8d61260d565b60405163caa9a08d60e01b81526001600160a01b0389811660048301525f91610d01917f0000000000000000000000000000000000000000000000000000000000000000169063caa9a08d9060240161076c565b9050610d1d8183858888610d16846001613dbc565b8d8f61260d565b9050610d3981610d2e846001613dbc565b858888878c8f612938565b9998505050505050505050565b5f610d57878787878660018061071c565b9050610829815f6001855f5f898d612938565b5f610d7b8787878786600180610f8a565b9050610829815f6001855f5f898d61260d565b60405163caa9a08d60e01b81526001600160a01b0388811660048301525f91610de2917f0000000000000000000000000000000000000000000000000000000000000000169063caa9a08d9060240161076c565b9050610dfe818385876001610df78482613dbc565b8c8e612938565b90506107f181610e0f846001613dbc565b6001875f878b8e612938565b60405163caa9a08d60e01b81526001600160a01b0388811660048301525f91610e6f917f0000000000000000000000000000000000000000000000000000000000000000169063caa9a08d9060240161076c565b9050610e84818360018781610df78482613dbc565b90506107f181610e95846001613dbc565b85875f878b8e612938565b60405163caa9a08d60e01b81526001600160a01b0388811660048301525f91610ef4917f0000000000000000000000000000000000000000000000000000000000000000169063caa9a08d9060240161076c565b90506107d58183600187816107ce8482613dbc565b60405163caa9a08d60e01b81526001600160a01b0389811660048301525f91610f5d917f0000000000000000000000000000000000000000000000000000000000000000169063caa9a08d9060240161076c565b9050610f79818385876001610f728482613dbc565b8c8f612938565b9050610d3981610e95846001613dbc565b60405163caa9a08d60e01b81526001600160a01b0388811660048301525f91610fde917f0000000000000000000000000000000000000000000000000000000000000000169063caa9a08d9060240161076c565b9050610e84818385876001610df78482613dbc565b5f61100d87876110038689613cf9565b888660015f61071c565b905061081f5f8761101e8688613cd4565b878660016002610f8a565b5f5f61103483612592565b90508060010361104757829150506115e8565b7ffffffffff3fffffffffff3fffffffffff3fffffffffff3ffffffffffffffffff831660605f600284900361110257506040805160028082526060820183529182906020830190803683370190505091506110b06001806110a9865f8061294b565b919061294b565b825f815181106110c2576110c2613c60565b60209081029190910101526110de5f60016110a986828461294b565b826001815181106110f1576110f1613c60565b602002602001018181525050611437565b836003036111ec575060408051600480825260a0820190925281602082016080803683370190505091506111416002806110a960018082895f8061294b565b825f8151811061115357611153613c60565b60209081029190910101526111736002806110a95f60018289828461294b565b8260018151811061118657611186613c60565b60209081029190910101526111a65f60026110a96001808289858761294b565b826002815181106111b9576111b9613c60565b60209081029190910101526111d9600160026110a9818382895f8061294b565b826003815181106110f1576110f1613c60565b5060408051600a80825261016082019092528160208201610140803683370190505091506112296003806110a960028082600180828c5f8061294b565b825f8151811061123b5761123b613c60565b602090810291909101015261125f6003806110a9600280825f6001828c828461294b565b8260018151811061127257611272613c60565b60209081029190910101526112966003806110a95f600282600180828c858761294b565b826002815181106112a9576112a9613c60565b60209081029190910101526112cd5f60036110a960028082600180828c888a61294b565b826003815181106112e0576112e0613c60565b60209081029190910101526113046003806110a960016002828183828c5f8061294b565b8260048151811061131757611317613c60565b602090810291909101015261133b600160036110a9600280828486828c5f8061294b565b8260058151811061134e5761134e613c60565b6020908102919091010152611372600260036110a9818382600180828c5f8061294b565b8260068151811061138557611385613c60565b60209081029190910101526113a9600260036110a98183825f6001828c828461294b565b826007815181106113bc576113bc613c60565b60209081029190910101526113e0600160036110a95f6002828486828c858761294b565b826008815181106113f3576113f3613c60565b60209081029190910101526114175f60036110a982600282816001828c888761294b565b8260098151811061142a5761142a613c60565b6020026020010181815250505b5f306001600160a01b031663d27e5fa78a855f8151811061145a5761145a613c60565b60209081029190910101516040516001600160e01b031960e085901b1681526001600160a01b039092166004830152602482015260028b900b6044820152606401602060405180830381865afa1580156114b6573d5f5f3e3d5ffd5b505050506040513d601f19601f820116820180604052508101906114da9190613d55565b90505f835f815181106114ef576114ef613c60565b602002602001015190505f600190505b838110156115da57306001600160a01b031663d27e5fa78c87848151811061152957611529613c60565b60209081029190910101516040516001600160e01b031960e085901b1681526001600160a01b039092166004830152602482015260028d900b6044820152606401602060405180830381865afa9250505080156115a3575060408051601f3d908101601f191682019092526115a091810190613d55565b60015b156115d257838110156115d0578582815181106115c2576115c2613c60565b602002602001015192508093505b505b6001016114ff565b5095506115e8945050505050565b9392505050565b60605f6115fb83612592565b90505f816001600160401b0381111561161657611616613853565b6040519080825280602002602001820160405280156116a557816020015b6116926040518061012001604052805f6001600160401b031681526020015f6001600160a01b031681526020015f81526020015f81526020015f81526020015f81526020015f81526020015f60020b81526020015f60020b81525090565b8152602001906001900390816116345790505b5090505f8490505f6001600160a01b037f000000000000000000000000000000000000000000000000000000000000000016633f8e156e876040516001600160e01b031960e084901b1681526001600160401b039091166004820152602401602060405180830381865afa15801561171f573d5f5f3e3d5ffd5b505050506040513d601f19601f820116820180604052508101906117439190613dcf565b90505f5b848110156118fd578284828151811061176257611762613c60565b60200260200101515f01906001600160401b031690816001600160401b0316815250508184828151811061179857611798613c60565b6020908102919091018101516001600160a01b039092169101526117bc8782612965565b8482815181106117ce576117ce613c60565b6020908102919091010151604001526117e7878261297b565b8482815181106117f9576117f9613c60565b602090810291909101015160600152611812878261298d565b84828151811061182457611824613c60565b60209081029190910101516080015261183d878261299f565b84828151811061184f5761184f613c60565b602090810291909101015160a0015261186887826129b1565b84828151811061187a5761187a613c60565b602090810291909101015160c001526118988782603002604c011c90565b8482815181106118aa576118aa613c60565b602090810291909101015160029190910b60e0909101526118cb87826129cd565b8482815181106118dd576118dd613c60565b602090810291909101015160029190910b61010090910152600101611747565b509195945050505050565b60605f82516001600160401b0381111561192457611924613853565b60405190808252806020026020018201604052801561195757816020015b60608152602001906001900390816119425790505b5090505f5b8351811015611cae5760408051600480825260a082019092525f91816020015b606081526020019060019003908161197c5790505090505f5b6119b78684815181106119aa576119aa613c60565b6020026020010151612592565b811015611c86575f7f00000000000000000000000000000000000000000000000000000000000000006001600160a01b031663e53dec387f00000000000000000000000000000000000000000000000000000000000000006001600160a01b0316633f8e156e611a3d8b8981518110611a3257611a32613c60565b602002602001015190565b6040516001600160e01b031960e084901b1681526001600160401b039091166004820152602401602060405180830381865afa158015611a7f573d5f5f3e3d5ffd5b505050506040513d601f19601f82011682018060405250810190611aa39190613dcf565b8a611ad0868c8a81518110611aba57611aba613c60565b602002602001015161298d90919063ffffffff16565b6002611afe888e8c81518110611ae857611ae8613c60565b60200260200101516129cd90919063ffffffff16565b611b089190613c9c565b611b34888e8c81518110611b1e57611b1e613c60565b60200260200101516129c390919063ffffffff16565b611b3e9190613cd4565b6002611b56898f8d81518110611ae857611ae8613c60565b611b609190613c9c565b611b76898f8d81518110611b1e57611b1e613c60565b611b809190613cf9565b6040518663ffffffff1660e01b8152600401611ba0959493929190613d1e565b602060405180830381865afa158015611bbb573d5f5f3e3d5ffd5b505050506040513d601f19601f82011682018060405250810190611bdf9190613d55565b6040805160028082526060820183529293505f929091602083019080368337019050509050816001600160801b0316815f81518110611c2057611c20613c60565b602002602001018181525050611c368260801c90565b6001600160801b031681600181518110611c5257611c52613c60565b60200260200101818152505080848481518110611c7157611c71613c60565b60209081029190910101525050600101611995565b5080838381518110611c9a57611c9a613c60565b60209081029190910101525060010161195c565b50949350505050565b6040805160018082528183019092525f91829182918291906020808301908036833701905050905084815f81518110611cf257611cf2613c60565b6020908102919091010152604051632ca8b09160e11b81525f906001600160a01b03891690635951612290611d2f908a9085908790600401613f17565b5f60405180830381865afa158015611d49573d5f5f3e3d5ffd5b505050506040513d5f823e601f3d908101601f19168201604052611d709190810190613f77565b925050505f815f81518110611d8757611d87613c60565b6020026020010151600160028110611da157611da1613c60565b6020020151905080611db38260801c90565b6040611dbf8460801c90565b6001600160801b0316901c95509550955050505093509350939050565b5f611dec8787878787875f610ea0565b905061081f5f87878787876002610e1b565b60405163caa9a08d60e01b81526001600160a01b0389811660048301525f91611e52917f0000000000000000000000000000000000000000000000000000000000000000169063caa9a08d9060240161076c565b9050611e6e818385876001611e678482613dbc565b8c8f61260d565b9050610d39816107e6846001613dbc565b5f611e90868685855f60018061250d565b9050611ea4815f60018560015f8a8c61260d565b9695505050505050565b604051633460090160e01b8152600481018390525f9030906334600901906024015f6040518083038186803b158015611ee5575f5ffd5b505afa925050508015611ef6575060015b611f0857506001600160801b036115e8565b6040805160018082528183019092525f91816020015b611f26613406565b815260200190600190039081611f1e57905050905083815f81518110611f4e57611f4e613c60565b60200260200101515f60028110611f6757611f67613c60565b6020020152805165ffffffffffff9082905f90611f8657611f86613c60565b6020026020010151600160028110611fa057611fa0613c60565b602002018181525050611fe384825f81518110611fbf57611fbf613c60565b6020026020010151600160028110611fd957611fd9613c60565b60200201516129e0565b156121b0575f856001600160a01b0316637594cdc36040518163ffffffff1660e01b8152600401602060405180830381865afa158015612025573d5f5f3e3d5ffd5b505050506040513d601f19601f820116820180604052508101906120499190613dcf565b6001600160a01b03166309e0851061dead86855f5f6040518663ffffffff1660e01b815260040161207e9594939291906140b4565b602060405180830381865afa158015612099573d5f5f3e3d5ffd5b505050506040513d601f19601f820116820180604052508101906120bd9190613d55565b90505f866001600160a01b0316634d7b09006040518163ffffffff1660e01b8152600401602060405180830381865afa1580156120fc573d5f5f3e3d5ffd5b505050506040513d601f19601f820116820180604052508101906121209190613dcf565b6001600160a01b03166309e0851061dead87865f5f6040518663ffffffff1660e01b81526004016121559594939291906140b4565b602060405180830381865afa158015612170573d5f5f3e3d5ffd5b505050506040513d601f19601f820116820180604052508101906121949190613d55565b90505f6121a383835f89612b02565b95506115e8945050505050565b506001600160801b0390506115e8565b5f5f5f5f5f8a6001600160a01b031663595161228b5f8a8a6040518563ffffffff1660e01b81526004016121f794939291906140ff565b5f60405180830381865afa158015612211573d5f5f3e3d5ffd5b505050506040513d5f823e601f3d908101601f191682016040526122389190810190613f77565b9250925092505f8b6001600160a01b0316637594cdc36040518163ffffffff1660e01b8152600401602060405180830381865afa15801561227b573d5f5f3e3d5ffd5b505050506040513d601f19601f8201168201806040525081019061229f9190613dcf565b6001600160a01b03166309e085108c8c8588886040518663ffffffff1660e01b81526004016122d29594939291906140b4565b602060405180830381865afa1580156122ed573d5f5f3e3d5ffd5b505050506040513d601f19601f820116820180604052508101906123119190613d55565b90505f8c6001600160a01b0316634d7b09006040518163ffffffff1660e01b8152600401602060405180830381865afa158015612350573d5f5f3e3d5ffd5b505050506040513d601f19601f820116820180604052508101906123749190613dcf565b6001600160a01b03166309e085108d8d8661238f8a60801c90565b6123998a60801c90565b6040518663ffffffff1660e01b81526004016123b99594939291906140b4565b602060405180830381865afa1580156123d4573d5f5f3e3d5ffd5b505050506040513d601f19601f820116820180604052508101906123f89190613d55565b905061240682828c8e612b02565b965096505050505050965096945050505050565b5f61243486868661242b8782613cf9565b8660015f61071c565b90506124505f86866124468782613cd4565b8660016002610f8a565b611ea49082613dbc565b604051632d60befd60e11b81526001600160a01b038316600482015263ffffffff821660248201525f9073__$456fadf283f3fd4e5988ce95e661c81a1f$__90635ac17dfa90604401602060405180830381865af41580156124be573d5f5f3e3d5ffd5b505050506040513d601f19601f820116820180604052508101906124e29190614153565b90505b92915050565b5f6107f18888888889898989610f09565b5f6107f18888888889898989611dfe565b60405163caa9a08d60e01b81526001600160a01b0388811660048301525f91612561917f0000000000000000000000000000000000000000000000000000000000000000169063caa9a08d9060240161076c565b905061257681838588886107ce846001613dbc565b90506107f181612587846001613dbc565b858888878c8e612938565b5f7afe0000000000fe0000000000fe0000000000fe00000000000000008216600160401b8110156125c557505f92915050565b600160701b8110156125da5750600192915050565b600160a01b8110156125ef5750600292915050565b600160d01b8110156126045750600392915050565b50600492915050565b5f610d3989898989895f8a8a8a612b26565b5f5f5f6126308888885f89896121c0565b90925090506107f18183613e96565b612649815f61297b565b5f03612670576040516393db026360e01b8152600160048201526024015b60405180910390fd5b77fffffffff200fffffffff200fffffffff200fffffffff200604082901c165f5b60048110156126d5576126a4838261297b565b5f036126da576040603082020183901c156126d5576040516393db026360e01b815260016004820152602401612667565b505050565b5f6126e484612592565b9050600182015b8181101561273a578060300284901c65ffffffffffff168360300285901c65ffffffffffff1603612732576040516393db026360e01b815260066004820152602401612667565b6001016126eb565b5061274584836129cd565b60020b5f0361276a576040516393db026360e01b815260056004820152602401612667565b620d89e71961277e8584603002604c011c90565b60020b14806127a05750620d89e861279b8584603002604c011c90565b60020b145b156127c0576040516393db026360e01b8152600481810152602401612667565b5f6127cb85846129b1565b90508281146128f757826127df86836129b1565b14612800576040516393db026360e01b815260036004820152602401612667565b61280a8584612965565b6128148683612965565b1415806128335750612826858461297b565b612830868361297b565b14155b15612854576040516393db026360e01b815260036004820152602401612667565b5f61285f868561299f565b90505f61286c878461299f565b90505f612879888761298d565b90505f612886898661298d565b9050828414801561289657508082145b156128b6576040516393db026360e01b8152600481810152602401612667565b82841415806128c55750836001145b80156128d15750808214155b156128f2576040516393db026360e01b815260056004820152602401612667565b505050505b5050600101612691565b5f8061292d6129158585603002604c011c90565b61291f86866129cd565b603087901c61ffff16612b97565b909590945092505050565b5f610d39898989898960018a8a8a612b26565b5f604a60308302016004845b06901b840190509392505050565b5f60026040603084020184901c5b069392505050565b5f60806041603084020184901c612973565b5f60026049603084020184901c612973565b5f60026048603084020184901c612973565b5f6004604a603084020184901c612973565b603002604c011c90565b5f6110006064603084020184901c612973565b5f5f5b6129ec84612592565b811015612af8575f808080612a018886612901565b915091505f612a32612a1284612c75565b6001600160a01b0316612a2484612c75565b6001600160a01b0316612f90565b9050805f03612a49575f96505050505050506124e5565b612a538987612965565b5f03612a8957612a63898761297b565b612a6d908961416e565b6001600160801b03169450612a828582612fee565b9350612aba565b612a93898761297b565b612a9d908961416e565b6001600160801b03169350612ab784600160601b8361301f565b94505b6001600160781b03851180612ad557506001600160781b0384115b15612ae8575f96505050505050506124e5565b50505050508060010190506129e3565b5060019392505050565b5f5f612b18868686612b1387612c75565b61305b565b915091505b94509492505050565b5f612b328a898b613118565b9050612b3f81888b613128565b9050612b4c81878b613138565b9050612b5981868b613148565b9050612b6681858b61294b565b905062ffffff8316604c60308b02011b81019050610fff8216606460308b02011b81019a9950505050505050505050565b5f808083600281900b620d89e71981612bb257612bb2613c74565b050290505f84600281900b620d89e881612bce57612bce613c74565b050290505f5f612bde8888613158565b818b0397508a810196509092509050600287810b9087900b81612c0357612c03613c74565b0760020b151580612c2b57508660020b8560020b81612c2457612c24613c74565b0760020b15155b80612c3b57508360020b8660020b125b80612c4b57508260020b8560020b135b15612c695760405163c82825f560e01b815260040160405180910390fd5b50505050935093915050565b5f5f5f8360020b12612c8a578260020b612c91565b8260020b5f035b9050620d89e8811115612cb7576040516333a3bdff60e21b815260040160405180910390fd5b5f816001165f03612ccc57600160801b612cde565b6ffffcb933bd6fad37aa2d162d1a5940015b70ffffffffffffffffffffffffffffffffff1690506002821615612d12576ffff97272373d413259a46990580e213a0260801c5b6004821615612d31576ffff2e50f5f656932ef12357cf3c7fdcc0260801c5b6008821615612d50576fffe5caca7e10e4e61c3624eaa0941cd00260801c5b6010821615612d6f576fffcb9843d60f6159c9db58835c9266440260801c5b6020821615612d8e576fff973b41fa98c081472e6896dfb254c00260801c5b6040821615612dad576fff2ea16466c96a3843ec78b326b528610260801c5b6080821615612dcc576ffe5dee046a99a2a811c461f1969c30530260801c5b610100821615612dec576ffcbe86c7900a88aedcffc83b479aa3a40260801c5b610200821615612e0c576ff987a7253ac413176f2b074cf7815e540260801c5b610400821615612e2c576ff3392b0822b70005940c7a398e4b70f30260801c5b610800821615612e4c576fe7159475a2c29b7443b29c7fa6e889d90260801c5b611000821615612e6c576fd097f3bdfd2022b8845ad8f792aa58250260801c5b612000821615612e8c576fa9f746462d870fdf8a65dc1f90e061e50260801c5b614000821615612eac576f70d869a156d2a1b890bb3df62baf32f70260801c5b618000821615612ecc576f31be135f97d08fd981231505542fcfa60260801c5b62010000821615612eed576f09aa508b5b7a84e1c677de54f3e99bc90260801c5b62020000821615612f0d576e5d6af8dedb81196699c329225ee6040260801c5b62040000821615612f2c576d2216e584f5fa1ea926041bedfe980260801c5b62080000821615612f49576b048a170391f7dc42444e8fa20260801c5b5f8460020b1315612f6857805f1981612f6457612f64613c74565b0490505b640100000000810615612f7c576001612f7e565b5f5b60ff16602082901c0192505050919050565b5f80805f19848609848602925082811083820303915050805f03612fb9575060601c90506124e5565b80600160601b11612fc8575f5ffd5b5f600160601b85870980840360601c9310909103600160a01b0291909117949350505050565b5f612ff98383612f90565b90505f600160601b83850911156124e5575f198110613016575f5ffd5b60010192915050565b5f61302b84848461319b565b90505f828061303c5761303c613c74565b84860911156115e8575f198110613051575f5ffd5b6001019392505050565b5f5f835f036130cc57613077856001600160801b031684613245565b61308a906001600160801b038816613dbc565b6130a66130978760801c90565b6001600160801b031685613245565b6130b08860801c90565b6001600160801b03166130c39190613dbc565b91509150612b1d565b6130df866001600160801b0316846132a1565b6130f2906001600160801b038716613dbc565b61310e6130ff8860801c90565b6001600160801b0316856132a1565b6130b08760801c90565b5f60416030830201608084612957565b5f60406030830201600284612957565b5f60486030830201600284612957565b5f60496030830201600284612957565b5f8060026131668486614190565b6131709190613c9c565b61318f61317d85876141af565b62ffffff166002808204910615150190565b915091505b9250929050565b5f80805f19858709858702925082811083820303915050805f036131cf575f84116131c4575f5ffd5b5082900490506115e8565b8084116131da575f5ffd5b5f848688095f868103871696879004966002600389028118808a02820302808a02820302808a02820302808a02820302808a02820302808a02909103029181900381900460010186841190950394909402919094039290920491909117919091029150509392505050565b5f6001600160801b036001600160a01b03831610156132805761327983600160c01b6002856001600160a01b03160a61319b565b90506124e5565b61327983600160801b61329c6001600160a01b038616806132ec565b61319b565b5f6001600160801b036001600160a01b03831610156132d057613279836002846001600160a01b03160a61334a565b613279836132e76001600160a01b038516806132ec565b6133a8565b5f80805f19848609848602925082811083820303915050805f03613315575060401c90506124e5565b80600160401b11613324575f5ffd5b5f600160401b85870980840360401c9310909103600160c01b0291909117949350505050565b5f80805f19848609848602925082811083820303915050805f03613373575060c01c90506124e5565b80600160c01b11613382575f5ffd5b5f600160c01b85870980840360c01c9310909103600160401b0291909117949350505050565b5f80805f19848609848602925082811083820303915050805f036133d1575060801c90506124e5565b80600160801b116133e0575f5ffd5b5f600160801b85870980840360801c9310909103600160801b0291909117949350505050565b60405180604001604052806002906020820280368337509192915050565b6001600160a01b0381168114613438575f5ffd5b50565b8060020b8114613438575f5ffd5b5f5f5f5f5f5f5f60e0888a03121561345f575f5ffd5b873561346a81613424565b9650602088013561347a8161343b565b9550604088013561348a8161343b565b9450606088013561349a8161343b565b9699959850939660808101359560a0820135955060c0909101359350915050565b5f5f5f5f5f5f60c087890312156134d0575f5ffd5b86356134db81613424565b955060208701356134eb8161343b565b945060408701356134fb8161343b565b9350606087013561350b8161343b565b9598949750929560808101359460a0909101359350915050565b5f5f83601f840112613535575f5ffd5b5081356001600160401b0381111561354b575f5ffd5b6020830191508360208260051b8501011115613194575f5ffd5b5f5f5f5f60608587031215613578575f5ffd5b843561358381613424565b9350602085013561359381613424565b925060408501356001600160401b038111156135ad575f5ffd5b6135b987828801613525565b95989497509550505050565b5f602082840312156135d5575f5ffd5b5035919050565b5f5f5f5f5f5f60c087890312156135f1575f5ffd5b86356135fc81613424565b9550602087013561360c8161343b565b9450604087013561361c8161343b565b9350606087013561362c8161343b565b9250608087013561363c8161343b565b9598949750929591949360a090920135925050565b5f5f5f5f5f5f5f5f610100898b031215613669575f5ffd5b883561367481613424565b975060208901356136848161343b565b965060408901356136948161343b565b955060608901356136a48161343b565b979a969950949760808101359660a0820135965060c0820135955060e0909101359350915050565b5f5f5f5f5f5f5f5f610100898b0312156136e4575f5ffd5b88356136ef81613424565b975060208901356136ff8161343b565b9650604089013561370f8161343b565b9550606089013561371f8161343b565b9450608089013561372f8161343b565b979a969950949793969560a0850135955060c08501359460e001359350915050565b5f5f5f60608486031215613763575f5ffd5b833561376e81613424565b9250602084013561377e8161343b565b929592945050506040919091013590565b602080825282518282018190525f918401906040840190835b818110156138485783516001600160401b03815116845260018060a01b03602082015116602085015260408101516040850152606081015160608501526080810151608085015260a081015160a085015260c081015160c085015260e081015161381760e086018260020b9052565b50610100810151905061383061010085018260020b9052565b506020939093019261012092909201916001016137a8565b509095945050505050565b634e487b7160e01b5f52604160045260245ffd5b604080519081016001600160401b038111828210171561388957613889613853565b60405290565b604051601f8201601f191681016001600160401b03811182821017156138b7576138b7613853565b604052919050565b5f6001600160401b038211156138d7576138d7613853565b5060051b60200190565b5f5f5f606084860312156138f3575f5ffd5b83356138fe81613424565b9250602084013561390e81613424565b915060408401356001600160401b03811115613928575f5ffd5b8401601f81018613613938575f5ffd5b803561394b613946826138bf565b61388f565b8082825260208201915060208360051b85010192508883111561396c575f5ffd5b6020840193505b8284101561398e578335825260209384019390910190613973565b809450505050509250925092565b5f602082016020835280845180835260408501915060408160051b8601019250602086015f5b82811015613a6157868503603f19018452815180518087526020918201918088019190600582901b8901015f5b82811015613a4857898203601f19018452845180518084526020918201918401905f5b81811015613a30578351835260209384019390920191600101613a12565b505060209687019695909501949250506001016139ef565b50975050506020948501949290920191506001016139c2565b50929695505050505050565b5f5f5f60608486031215613a7f575f5ffd5b8335613a8a81613424565b9250602084013561377e81613424565b5f5f5f5f5f60a08688031215613aae575f5ffd5b8535613ab981613424565b94506020860135613ac98161343b565b93506040860135613ad98161343b565b92506060860135613ae98161343b565b949793965091946080013592915050565b5f5f5f60608486031215613b0c575f5ffd5b8335613b1781613424565b9250602084013591506040840135613b2e8161343b565b809150509250925092565b5f5f5f5f5f5f60a08789031215613b4e575f5ffd5b8635613b5981613424565b95506020870135613b6981613424565b94506040870135613b798161343b565b93506060870135925060808701356001600160401b03811115613b9a575f5ffd5b613ba689828a01613525565b979a9699509497509295939492505050565b5f5f60408385031215613bc9575f5ffd5b8235613bd481613424565b9150602083013563ffffffff81168114613bec575f5ffd5b809150509250929050565b5f5f5f5f5f5f5f60e0888a031215613c0d575f5ffd5b8735613c1881613424565b96506020880135613c288161343b565b95506040880135613c388161343b565b969995985095966060810135965060808101359560a0820135955060c0909101359350915050565b634e487b7160e01b5f52603260045260245ffd5b634e487b7160e01b5f52601260045260245ffd5b634e487b7160e01b5f52601160045260245ffd5b5f8160020b8360020b80613cb257613cb2613c74565b627fffff1982145f1982141615613ccb57613ccb613c88565b90059392505050565b600282810b9082900b03627fffff198112627fffff821317156124e5576124e5613c88565b600281810b9083900b01627fffff8113627fffff19821217156124e5576124e5613c88565b6001600160a01b0395861681529390941660208401526040830191909152600290810b60608301529190910b608082015260a00190565b5f60208284031215613d65575f5ffd5b5051919050565b80820281158282048414176124e5576124e5613c88565b5f82613d9157613d91613c74565b500490565b5f60208284031215613da6575f5ffd5b81516001600160401b03811681146115e8575f5ffd5b808201808211156124e5576124e5613c88565b5f60208284031215613ddf575f5ffd5b81516115e881613424565b805161ffff81168114613dfb575f5ffd5b919050565b5f5f5f5f5f5f5f60e0888a031215613e16575f5ffd5b8751613e2181613424565b6020890151909750613e328161343b565b9550613e4060408901613dea565b9450613e4e60608901613dea565b9350613e5c60808901613dea565b925060a088015160ff81168114613e71575f5ffd5b60c08901519092508015158114613e86575f5ffd5b8091505092959891949750929550565b8181035f831280158383131683831282161715613eb557613eb5613c88565b5092915050565b8082025f8212600160ff1b84141615613ed757613ed7613c88565b81810583148215176124e5576124e5613c88565b5f82613ef957613ef9613c74565b600160ff1b82145f1984141615613f1257613f12613c88565b500590565b6001600160a01b038416815282151560208083019190915260606040830181905283519083018190525f918401906080840190835b81811015613f6a578351835260209384019390920191600101613f4c565b5090979650505050505050565b5f5f5f60608486031215613f89575f5ffd5b83516020850151604086015191945092506001600160401b03811115613fad575f5ffd5b8401601f81018613613fbd575f5ffd5b8051613fcb613946826138bf565b8082825260208201915060208360061b850101925088831115613fec575f5ffd5b6020840193505b8284101561398e5788601f850112614009575f5ffd5b614011613867565b80604086018b811115614022575f5ffd5b865b8181101561403c578051845260209384019301614024565b505083525060409390930192602090910190613ff3565b5f8151808452602084019350602083015f5b828110156140aa578151865f5b6002811015614091578251825260209283019290910190600101614072565b5050506040959095019460209190910190600101614065565b5093949350505050565b60018060a01b03861681528460020b602082015260a060408201525f6140dd60a0830186614053565b6001600160801b03948516606084015292909316608090910152949350505050565b6001600160a01b0385168152831515602082015260606040820181905281018290525f8360808301825b85811015614147578235825260209283019290910190600101614129565b50979650505050505050565b5f60208284031215614163575f5ffd5b81516115e88161343b565b6001600160801b038181168382160290811690818114613eb557613eb5613c88565b5f8260020b8260020b028060020b9150808214613eb557613eb5613c88565b62ffffff8181168382160290811690818114613eb557613eb5613c8856fea264697066735822122044f9b5857274fc5cf18cebf5b31fa7a3b02fa0f0d8b1143c81e9e69f0cadd80764736f6c634300081b0033",
			"opcodes": "PUSH1 0xA0 PUSH1 0x40 MSTORE PUSH1 0x40 MLOAD PUSH2 0x42D6 CODESIZE SUB DUP1 PUSH2 0x42D6 DUP4 CODECOPY DUP2 ADD PUSH1 0x40 DUP2 SWAP1 MSTORE PUSH2 0x22 SWAP2 PUSH2 0x33 JUMP JUMPDEST PUSH1 0x1 PUSH1 0x1 PUSH1 0xA0 SHL SUB AND PUSH1 0x80 MSTORE PUSH2 0x60 JUMP JUMPDEST PUSH0 PUSH1 0x20 DUP3 DUP5 SUB SLT ISZERO PUSH2 0x43 JUMPI PUSH0 PUSH0 REVERT JUMPDEST DUP2 MLOAD PUSH1 0x1 PUSH1 0x1 PUSH1 0xA0 SHL SUB DUP2 AND DUP2 EQ PUSH2 0x59 JUMPI PUSH0 PUSH0 REVERT JUMPDEST SWAP4 SWAP3 POP POP POP JUMP JUMPDEST PUSH1 0x80 MLOAD PUSH2 0x4203 PUSH2 0xD3 PUSH0 CODECOPY PUSH0 DUP2 DUP2 PUSH2 0x518 ADD MSTORE DUP2 DUP2 PUSH2 0x741 ADD MSTORE DUP2 DUP2 PUSH2 0xBF3 ADD MSTORE DUP2 DUP2 PUSH2 0xCD2 ADD MSTORE DUP2 DUP2 PUSH2 0xDB3 ADD MSTORE DUP2 DUP2 PUSH2 0xE40 ADD MSTORE DUP2 DUP2 PUSH2 0xEC5 ADD MSTORE DUP2 DUP2 PUSH2 0xF2E ADD MSTORE DUP2 DUP2 PUSH2 0xFAF ADD MSTORE DUP2 DUP2 PUSH2 0x16B7 ADD MSTORE DUP2 DUP2 PUSH2 0x19C1 ADD MSTORE DUP2 DUP2 PUSH2 0x19F0 ADD MSTORE DUP2 DUP2 PUSH2 0x1E23 ADD MSTORE PUSH2 0x2532 ADD MSTORE PUSH2 0x4203 PUSH0 RETURN INVALID PUSH1 0x80 PUSH1 0x40 MSTORE CALLVALUE DUP1 ISZERO PUSH2 0xF JUMPI PUSH0 PUSH0 REVERT JUMPDEST POP PUSH1 0x4 CALLDATASIZE LT PUSH2 0x1DC JUMPI PUSH0 CALLDATALOAD PUSH1 0xE0 SHR DUP1 PUSH4 0x83B70335 GT PUSH2 0x109 JUMPI DUP1 PUSH4 0xCED04C02 GT PUSH2 0x9E JUMPI DUP1 PUSH4 0xE830ADB9 GT PUSH2 0x6E JUMPI DUP1 PUSH4 0xE830ADB9 EQ PUSH2 0x479 JUMPI DUP1 PUSH4 0xF3220286 EQ PUSH2 0x48C JUMPI DUP1 PUSH4 0xFA80F8F5 EQ PUSH2 0x49F JUMPI DUP1 PUSH4 0xFD8C575E EQ PUSH2 0x4B2 JUMPI PUSH0 PUSH0 REVERT JUMPDEST DUP1 PUSH4 0xCED04C02 EQ PUSH2 0x418 JUMPI DUP1 PUSH4 0xD27E5FA7 EQ PUSH2 0x42B JUMPI DUP1 PUSH4 0xD88162E5 EQ PUSH2 0x43E JUMPI DUP1 PUSH4 0xE0FB8BA3 EQ PUSH2 0x466 JUMPI PUSH0 PUSH0 REVERT JUMPDEST DUP1 PUSH4 0xB8B551D6 GT PUSH2 0xD9 JUMPI DUP1 PUSH4 0xB8B551D6 EQ PUSH2 0x390 JUMPI DUP1 PUSH4 0xC4CC192F EQ PUSH2 0x3B0 JUMPI DUP1 PUSH4 0xCA64F419 EQ PUSH2 0x3F2 JUMPI DUP1 PUSH4 0xCD775A7E EQ PUSH2 0x405 JUMPI PUSH0 PUSH0 REVERT JUMPDEST DUP1 PUSH4 0x83B70335 EQ PUSH2 0x337 JUMPI DUP1 PUSH4 0x9B82FFF4 EQ PUSH2 0x34A JUMPI DUP1 PUSH4 0x9BD25CAD EQ PUSH2 0x35D JUMPI DUP1 PUSH4 0xAD65D5B0 EQ PUSH2 0x370 JUMPI PUSH0 PUSH0 REVERT JUMPDEST DUP1 PUSH4 0x42189DEE GT PUSH2 0x17F JUMPI DUP1 PUSH4 0x57FCED97 GT PUSH2 0x14F JUMPI DUP1 PUSH4 0x57FCED97 EQ PUSH2 0x2EB JUMPI DUP1 PUSH4 0x66DEB402 EQ PUSH2 0x2FE JUMPI DUP1 PUSH4 0x71215B9C EQ PUSH2 0x311 JUMPI DUP1 PUSH4 0x7DA845BE EQ PUSH2 0x324 JUMPI PUSH0 PUSH0 REVERT JUMPDEST DUP1 PUSH4 0x42189DEE EQ PUSH2 0x29F JUMPI DUP1 PUSH4 0x42DF787E EQ PUSH2 0x2B2 JUMPI DUP1 PUSH4 0x45D6704D EQ PUSH2 0x2C5 JUMPI DUP1 PUSH4 0x4804B3FB EQ PUSH2 0x2D8 JUMPI PUSH0 PUSH0 REVERT JUMPDEST DUP1 PUSH4 0x2228F0FA GT PUSH2 0x1BA JUMPI DUP1 PUSH4 0x2228F0FA EQ PUSH2 0x23E JUMPI DUP1 PUSH4 0x30DA59F2 EQ PUSH2 0x264 JUMPI DUP1 PUSH4 0x321115D8 EQ PUSH2 0x277 JUMPI DUP1 PUSH4 0x34600901 EQ PUSH2 0x28A JUMPI PUSH0 PUSH0 REVERT JUMPDEST DUP1 PUSH4 0x2BCBF30 EQ PUSH2 0x1E0 JUMPI DUP1 PUSH4 0x6158ED5 EQ PUSH2 0x20A JUMPI DUP1 PUSH4 0xB69B2C6 EQ PUSH2 0x22B JUMPI JUMPDEST PUSH0 PUSH0 REVERT JUMPDEST PUSH2 0x1E8 PUSH2 0x4C5 JUMP JUMPDEST PUSH1 0x40 DUP1 MLOAD SWAP3 DUP4 MSTORE PUSH1 0x1 PUSH1 0x1 PUSH1 0x80 SHL SUB SWAP1 SWAP2 AND PUSH1 0x20 DUP4 ADD MSTORE ADD JUMPDEST PUSH1 0x40 MLOAD DUP1 SWAP2 SUB SWAP1 RETURN JUMPDEST PUSH2 0x21D PUSH2 0x218 CALLDATASIZE PUSH1 0x4 PUSH2 0x3449 JUMP JUMPDEST PUSH2 0x71C JUMP JUMPDEST PUSH1 0x40 MLOAD SWAP1 DUP2 MSTORE PUSH1 0x20 ADD PUSH2 0x201 JUMP JUMPDEST PUSH2 0x21D PUSH2 0x239 CALLDATASIZE PUSH1 0x4 PUSH2 0x34BB JUMP JUMPDEST PUSH2 0x7FD JUMP JUMPDEST PUSH2 0x251 PUSH2 0x24C CALLDATASIZE PUSH1 0x4 PUSH2 0x3565 JUMP JUMPDEST PUSH2 0x834 JUMP JUMPDEST PUSH1 0x40 MLOAD PUSH1 0x2 SWAP2 SWAP1 SWAP2 SIGNEXTEND DUP2 MSTORE PUSH1 0x20 ADD PUSH2 0x201 JUMP JUMPDEST PUSH2 0x251 PUSH2 0x272 CALLDATASIZE PUSH1 0x4 PUSH2 0x3565 JUMP JUMPDEST PUSH2 0xA0B JUMP JUMPDEST PUSH2 0x21D PUSH2 0x285 CALLDATASIZE PUSH1 0x4 PUSH2 0x3449 JUMP JUMPDEST PUSH2 0xBCE JUMP JUMPDEST PUSH2 0x29D PUSH2 0x298 CALLDATASIZE PUSH1 0x4 PUSH2 0x35C5 JUMP JUMPDEST PUSH2 0xC54 JUMP JUMPDEST STOP JUMPDEST PUSH2 0x21D PUSH2 0x2AD CALLDATASIZE PUSH1 0x4 PUSH2 0x35DC JUMP JUMPDEST PUSH2 0xC87 JUMP JUMPDEST PUSH2 0x21D PUSH2 0x2C0 CALLDATASIZE PUSH1 0x4 PUSH2 0x3651 JUMP JUMPDEST PUSH2 0xCAD JUMP JUMPDEST PUSH2 0x21D PUSH2 0x2D3 CALLDATASIZE PUSH1 0x4 PUSH2 0x35DC JUMP JUMPDEST PUSH2 0xD46 JUMP JUMPDEST PUSH2 0x21D PUSH2 0x2E6 CALLDATASIZE PUSH1 0x4 PUSH2 0x35DC JUMP JUMPDEST PUSH2 0xD6A JUMP JUMPDEST PUSH2 0x21D PUSH2 0x2F9 CALLDATASIZE PUSH1 0x4 PUSH2 0x3449 JUMP JUMPDEST PUSH2 0xD8E JUMP JUMPDEST PUSH2 0x21D PUSH2 0x30C CALLDATASIZE PUSH1 0x4 PUSH2 0x3449 JUMP JUMPDEST PUSH2 0xE1B JUMP JUMPDEST PUSH2 0x21D PUSH2 0x31F CALLDATASIZE PUSH1 0x4 PUSH2 0x3449 JUMP JUMPDEST PUSH2 0xEA0 JUMP JUMPDEST PUSH2 0x21D PUSH2 0x332 CALLDATASIZE PUSH1 0x4 PUSH2 0x36CC JUMP JUMPDEST PUSH2 0xF09 JUMP JUMPDEST PUSH2 0x21D PUSH2 0x345 CALLDATASIZE PUSH1 0x4 PUSH2 0x3449 JUMP JUMPDEST PUSH2 0xF8A JUMP JUMPDEST PUSH2 0x21D PUSH2 0x358 CALLDATASIZE PUSH1 0x4 PUSH2 0x35DC JUMP JUMPDEST PUSH2 0xFF3 JUMP JUMPDEST PUSH2 0x21D PUSH2 0x36B CALLDATASIZE PUSH1 0x4 PUSH2 0x3751 JUMP JUMPDEST PUSH2 0x1029 JUMP JUMPDEST PUSH2 0x383 PUSH2 0x37E CALLDATASIZE PUSH1 0x4 PUSH2 0x35C5 JUMP JUMPDEST PUSH2 0x15EF JUMP JUMPDEST PUSH1 0x40 MLOAD PUSH2 0x201 SWAP2 SWAP1 PUSH2 0x378F JUMP JUMPDEST PUSH2 0x3A3 PUSH2 0x39E CALLDATASIZE PUSH1 0x4 PUSH2 0x38E1 JUMP JUMPDEST PUSH2 0x1908 JUMP JUMPDEST PUSH1 0x40 MLOAD PUSH2 0x201 SWAP2 SWAP1 PUSH2 0x399C JUMP JUMPDEST PUSH2 0x3C3 PUSH2 0x3BE CALLDATASIZE PUSH1 0x4 PUSH2 0x3A6D JUMP JUMPDEST PUSH2 0x1CB7 JUMP JUMPDEST PUSH1 0x40 DUP1 MLOAD PUSH1 0x1 PUSH1 0x1 PUSH1 0x80 SHL SUB SWAP1 SWAP5 AND DUP5 MSTORE PUSH1 0x1 PUSH1 0x1 PUSH1 0x40 SHL SUB SWAP3 DUP4 AND PUSH1 0x20 DUP6 ADD MSTORE SWAP2 AND SWAP1 DUP3 ADD MSTORE PUSH1 0x60 ADD PUSH2 0x201 JUMP JUMPDEST PUSH2 0x21D PUSH2 0x400 CALLDATASIZE PUSH1 0x4 PUSH2 0x34BB JUMP JUMPDEST PUSH2 0x1DDC JUMP JUMPDEST PUSH2 0x21D PUSH2 0x413 CALLDATASIZE PUSH1 0x4 PUSH2 0x36CC JUMP JUMPDEST PUSH2 0x1DFE JUMP JUMPDEST PUSH2 0x21D PUSH2 0x426 CALLDATASIZE PUSH1 0x4 PUSH2 0x3A9A JUMP JUMPDEST PUSH2 0x1E7F JUMP JUMPDEST PUSH2 0x21D PUSH2 0x439 CALLDATASIZE PUSH1 0x4 PUSH2 0x3AFA JUMP JUMPDEST PUSH2 0x1EAE JUMP JUMPDEST PUSH2 0x451 PUSH2 0x44C CALLDATASIZE PUSH1 0x4 PUSH2 0x3B39 JUMP JUMPDEST PUSH2 0x21C0 JUMP JUMPDEST PUSH1 0x40 DUP1 MLOAD SWAP3 DUP4 MSTORE PUSH1 0x20 DUP4 ADD SWAP2 SWAP1 SWAP2 MSTORE ADD PUSH2 0x201 JUMP JUMPDEST PUSH2 0x21D PUSH2 0x474 CALLDATASIZE PUSH1 0x4 PUSH2 0x3A9A JUMP JUMPDEST PUSH2 0x241A JUMP JUMPDEST PUSH2 0x251 PUSH2 0x487 CALLDATASIZE PUSH1 0x4 PUSH2 0x3BB8 JUMP JUMPDEST PUSH2 0x245A JUMP JUMPDEST PUSH2 0x21D PUSH2 0x49A CALLDATASIZE PUSH1 0x4 PUSH2 0x3449 JUMP JUMPDEST PUSH2 0x24EB JUMP JUMPDEST PUSH2 0x21D PUSH2 0x4AD CALLDATASIZE PUSH1 0x4 PUSH2 0x3449 JUMP JUMPDEST PUSH2 0x24FC JUMP JUMPDEST PUSH2 0x21D PUSH2 0x4C0 CALLDATASIZE PUSH1 0x4 PUSH2 0x3BF7 JUMP JUMPDEST PUSH2 0x250D JUMP JUMPDEST PUSH0 DUP1 PUSH20 0x275E8F09F090CF9B8E77008643E33D477FBB05E6 PUSH14 0xF0000A50102000AE549883274BF PUSH1 0x1 DUP4 PUSH2 0x4F7 DUP4 PUSH2 0x15EF JUMP JUMPDEST PUSH1 0x1 PUSH1 0x1 PUSH1 0x80 SHL SUB SWAP6 POP SWAP1 POP PUSH0 JUMPDEST PUSH2 0x50E DUP5 PUSH2 0x2592 JUMP JUMPDEST DUP2 LT ISZERO PUSH2 0x713 JUMPI PUSH0 PUSH32 0x0 PUSH1 0x1 PUSH1 0x1 PUSH1 0xA0 SHL SUB AND PUSH4 0xE53DEC38 DUP5 DUP5 DUP2 MLOAD DUP2 LT PUSH2 0x557 JUMPI PUSH2 0x557 PUSH2 0x3C60 JUMP JUMPDEST PUSH1 0x20 MUL PUSH1 0x20 ADD ADD MLOAD PUSH1 0x20 ADD MLOAD DUP9 DUP7 DUP7 DUP2 MLOAD DUP2 LT PUSH2 0x576 JUMPI PUSH2 0x576 PUSH2 0x3C60 JUMP JUMPDEST PUSH1 0x20 MUL PUSH1 0x20 ADD ADD MLOAD PUSH1 0x80 ADD MLOAD PUSH1 0x2 DUP9 DUP9 DUP2 MLOAD DUP2 LT PUSH2 0x596 JUMPI PUSH2 0x596 PUSH2 0x3C60 JUMP JUMPDEST PUSH1 0x20 MUL PUSH1 0x20 ADD ADD MLOAD PUSH2 0x100 ADD MLOAD PUSH2 0x5AD SWAP2 SWAP1 PUSH2 0x3C9C JUMP JUMPDEST DUP9 DUP9 DUP2 MLOAD DUP2 LT PUSH2 0x5BF JUMPI PUSH2 0x5BF PUSH2 0x3C60 JUMP JUMPDEST PUSH1 0x20 MUL PUSH1 0x20 ADD ADD MLOAD PUSH1 0xE0 ADD MLOAD PUSH2 0x5D5 SWAP2 SWAP1 PUSH2 0x3CD4 JUMP JUMPDEST PUSH1 0x2 DUP10 DUP10 DUP2 MLOAD DUP2 LT PUSH2 0x5E9 JUMPI PUSH2 0x5E9 PUSH2 0x3C60 JUMP JUMPDEST PUSH1 0x20 MUL PUSH1 0x20 ADD ADD MLOAD PUSH2 0x100 ADD MLOAD PUSH2 0x600 SWAP2 SWAP1 PUSH2 0x3C9C JUMP JUMPDEST DUP10 DUP10 DUP2 MLOAD DUP2 LT PUSH2 0x612 JUMPI PUSH2 0x612 PUSH2 0x3C60 JUMP JUMPDEST PUSH1 0x20 MUL PUSH1 0x20 ADD ADD MLOAD PUSH1 0xE0 ADD MLOAD PUSH2 0x628 SWAP2 SWAP1 PUSH2 0x3CF9 JUMP JUMPDEST PUSH1 0x40 MLOAD DUP7 PUSH4 0xFFFFFFFF AND PUSH1 0xE0 SHL DUP2 MSTORE PUSH1 0x4 ADD PUSH2 0x648 SWAP6 SWAP5 SWAP4 SWAP3 SWAP2 SWAP1 PUSH2 0x3D1E JUMP JUMPDEST PUSH1 0x20 PUSH1 0x40 MLOAD DUP1 DUP4 SUB DUP2 DUP7 GAS STATICCALL ISZERO DUP1 ISZERO PUSH2 0x663 JUMPI RETURNDATASIZE PUSH0 PUSH0 RETURNDATACOPY RETURNDATASIZE PUSH0 REVERT JUMPDEST POP POP POP POP PUSH1 0x40 MLOAD RETURNDATASIZE PUSH1 0x1F NOT PUSH1 0x1F DUP3 ADD AND DUP3 ADD DUP1 PUSH1 0x40 MSTORE POP DUP2 ADD SWAP1 PUSH2 0x687 SWAP2 SWAP1 PUSH2 0x3D55 JUMP JUMPDEST SWAP1 POP PUSH0 DUP2 PUSH1 0x1 PUSH1 0x1 PUSH1 0x80 SHL SUB AND SWAP1 POP DUP1 DUP5 DUP5 DUP2 MLOAD DUP2 LT PUSH2 0x6A9 JUMPI PUSH2 0x6A9 PUSH2 0x3C60 JUMP JUMPDEST PUSH1 0x20 MUL PUSH1 0x20 ADD ADD MLOAD PUSH1 0x60 ADD MLOAD DUP7 PUSH1 0x1 PUSH1 0x1 PUSH1 0x80 SHL SUB AND PUSH2 0x6C9 SWAP2 SWAP1 PUSH2 0x3D6C JUMP JUMPDEST GT ISZERO PUSH2 0x709 JUMPI PUSH0 PUSH1 0x64 PUSH2 0x6DD DUP4 PUSH1 0x5A PUSH2 0x3D6C JUMP JUMPDEST PUSH2 0x6E7 SWAP2 SWAP1 PUSH2 0x3D83 JUMP JUMPDEST SWAP1 POP DUP9 PUSH1 0x1 PUSH1 0x1 PUSH1 0x80 SHL SUB AND DUP2 PUSH1 0x1 PUSH1 0x1 PUSH1 0x80 SHL SUB AND LT ISZERO PUSH2 0x707 JUMPI DUP1 SWAP9 POP JUMPDEST POP JUMPDEST POP POP PUSH1 0x1 ADD PUSH2 0x505 JUMP JUMPDEST POP POP POP POP POP SWAP1 SWAP2 JUMP JUMPDEST PUSH1 0x40 MLOAD PUSH4 0xCAA9A08D PUSH1 0xE0 SHL DUP2 MSTORE PUSH1 0x1 PUSH1 0x1 PUSH1 0xA0 SHL SUB DUP9 DUP2 AND PUSH1 0x4 DUP4 ADD MSTORE PUSH0 SWAP2 PUSH2 0x7B9 SWAP2 PUSH32 0x0 AND SWAP1 PUSH4 0xCAA9A08D SWAP1 PUSH1 0x24 ADD JUMPDEST PUSH1 0x20 PUSH1 0x40 MLOAD DUP1 DUP4 SUB DUP2 DUP7 GAS STATICCALL ISZERO DUP1 ISZERO PUSH2 0x787 JUMPI RETURNDATASIZE PUSH0 PUSH0 RETURNDATACOPY RETURNDATASIZE PUSH0 REVERT JUMPDEST POP POP POP POP PUSH1 0x40 MLOAD RETURNDATASIZE PUSH1 0x1F NOT PUSH1 0x1F DUP3 ADD AND DUP3 ADD DUP1 PUSH1 0x40 MSTORE POP DUP2 ADD SWAP1 PUSH2 0x7AB SWAP2 SWAP1 PUSH2 0x3D96 JUMP JUMPDEST PUSH1 0x1 PUSH1 0x1 PUSH1 0x40 SHL SUB AND DUP3 ADD SWAP1 JUMP JUMPDEST SWAP1 POP PUSH2 0x7D5 DUP2 DUP4 DUP6 DUP8 PUSH1 0x1 PUSH2 0x7CE DUP5 DUP3 PUSH2 0x3DBC JUMP JUMPDEST DUP13 DUP15 PUSH2 0x260D JUMP JUMPDEST SWAP1 POP PUSH2 0x7F1 DUP2 PUSH2 0x7E6 DUP5 PUSH1 0x1 PUSH2 0x3DBC JUMP JUMPDEST DUP6 DUP8 PUSH0 DUP8 DUP12 DUP15 PUSH2 0x260D JUMP JUMPDEST SWAP9 SWAP8 POP POP POP POP POP POP POP POP JUMP JUMPDEST PUSH0 PUSH2 0x80D DUP8 DUP8 DUP8 DUP8 DUP8 DUP8 PUSH0 PUSH2 0xBCE JUMP JUMPDEST SWAP1 POP PUSH2 0x81F PUSH0 DUP8 DUP8 DUP8 DUP8 DUP8 PUSH1 0x2 PUSH2 0xD8E JUMP JUMPDEST PUSH2 0x829 SWAP1 DUP3 PUSH2 0x3DBC JUMP JUMPDEST SWAP8 SWAP7 POP POP POP POP POP POP POP JUMP JUMPDEST PUSH0 PUSH0 DUP6 PUSH1 0x1 PUSH1 0x1 PUSH1 0xA0 SHL SUB AND PUSH4 0x4F94C530 PUSH1 0x40 MLOAD DUP2 PUSH4 0xFFFFFFFF AND PUSH1 0xE0 SHL DUP2 MSTORE PUSH1 0x4 ADD PUSH1 0x20 PUSH1 0x40 MLOAD DUP1 DUP4 SUB DUP2 DUP7 GAS STATICCALL ISZERO DUP1 ISZERO PUSH2 0x872 JUMPI RETURNDATASIZE PUSH0 PUSH0 RETURNDATACOPY RETURNDATASIZE PUSH0 REVERT JUMPDEST POP POP POP POP PUSH1 0x40 MLOAD RETURNDATASIZE PUSH1 0x1F NOT PUSH1 0x1F DUP3 ADD AND DUP3 ADD DUP1 PUSH1 0x40 MSTORE POP DUP2 ADD SWAP1 PUSH2 0x896 SWAP2 SWAP1 PUSH2 0x3DCF JUMP JUMPDEST PUSH1 0x1 PUSH1 0x1 PUSH1 0xA0 SHL SUB AND PUSH4 0x3850C7BD PUSH1 0x40 MLOAD DUP2 PUSH4 0xFFFFFFFF AND PUSH1 0xE0 SHL DUP2 MSTORE PUSH1 0x4 ADD PUSH1 0xE0 PUSH1 0x40 MLOAD DUP1 DUP4 SUB DUP2 DUP7 GAS STATICCALL ISZERO DUP1 ISZERO PUSH2 0x8D1 JUMPI RETURNDATASIZE PUSH0 PUSH0 RETURNDATACOPY RETURNDATASIZE PUSH0 REVERT JUMPDEST POP POP POP POP PUSH1 0x40 MLOAD RETURNDATASIZE PUSH1 0x1F NOT PUSH1 0x1F DUP3 ADD AND DUP3 ADD DUP1 PUSH1 0x40 MSTORE POP DUP2 ADD SWAP1 PUSH2 0x8F5 SWAP2 SWAP1 PUSH2 0x3E00 JUMP JUMPDEST POP POP POP POP POP SWAP2 POP POP PUSH0 PUSH2 0x2710 DUP3 PUSH2 0x90C SWAP2 SWAP1 PUSH2 0x3CD4 JUMP JUMPDEST SWAP1 POP DUP2 PUSH3 0x186A0 JUMPDEST DUP2 PUSH2 0x922 DUP11 DUP11 DUP7 DUP12 DUP12 PUSH2 0x261F JUMP JUMPDEST PUSH2 0x92F DUP12 DUP12 DUP7 DUP13 DUP13 PUSH2 0x261F JUMP JUMPDEST PUSH2 0x939 SWAP2 SWAP1 PUSH2 0x3E96 JUMP JUMPDEST PUSH2 0x943 DUP6 DUP6 PUSH2 0x3CD4 JUMP JUMPDEST PUSH1 0x2 SIGNEXTEND PUSH2 0x953 DUP13 DUP13 DUP8 DUP14 DUP14 PUSH2 0x261F JUMP JUMPDEST PUSH2 0x95D SWAP2 SWAP1 PUSH2 0x3EBC JUMP JUMPDEST PUSH2 0x967 SWAP2 SWAP1 PUSH2 0x3EEB JUMP JUMPDEST DUP4 PUSH1 0x2 SIGNEXTEND PUSH2 0x975 SWAP2 SWAP1 PUSH2 0x3E96 JUMP JUMPDEST SWAP1 SWAP4 POP SWAP2 POP PUSH2 0x984 DUP2 DUP6 PUSH2 0x3CF9 JUMP JUMPDEST PUSH1 0x2 SIGNEXTEND DUP3 PUSH1 0x2 SIGNEXTEND SGT DUP1 PUSH2 0x9A5 JUMPI POP PUSH2 0x99C DUP2 DUP6 PUSH2 0x3CD4 JUMP JUMPDEST PUSH1 0x2 SIGNEXTEND DUP3 PUSH1 0x2 SIGNEXTEND SLT JUMPDEST ISZERO PUSH2 0x9BA JUMPI PUSH3 0xD89E7 NOT SWAP5 POP POP POP POP POP PUSH2 0xA03 JUMP JUMPDEST PUSH0 PUSH2 0x9D2 DUP11 DUP11 PUSH2 0x9CB PUSH1 0x1 DUP8 PUSH2 0x3CD4 JUMP JUMPDEST DUP12 DUP12 PUSH2 0x261F JUMP JUMPDEST SGT ISZERO PUSH0 PUSH2 0x9EC DUP12 DUP12 PUSH2 0x9E5 DUP8 PUSH1 0x1 PUSH2 0x3CF9 JUMP JUMPDEST DUP13 DUP13 PUSH2 0x261F JUMP JUMPDEST SLT ISZERO SUB PUSH2 0x9FE JUMPI POP SWAP3 POP PUSH2 0xA03 SWAP2 POP POP JUMP JUMPDEST PUSH2 0x914 JUMP JUMPDEST SWAP5 SWAP4 POP POP POP POP JUMP JUMPDEST PUSH0 PUSH0 DUP6 PUSH1 0x1 PUSH1 0x1 PUSH1 0xA0 SHL SUB AND PUSH4 0x4F94C530 PUSH1 0x40 MLOAD DUP2 PUSH4 0xFFFFFFFF AND PUSH1 0xE0 SHL DUP2 MSTORE PUSH1 0x4 ADD PUSH1 0x20 PUSH1 0x40 MLOAD DUP1 DUP4 SUB DUP2 DUP7 GAS STATICCALL ISZERO DUP1 ISZERO PUSH2 0xA49 JUMPI RETURNDATASIZE PUSH0 PUSH0 RETURNDATACOPY RETURNDATASIZE PUSH0 REVERT JUMPDEST POP POP POP POP PUSH1 0x40 MLOAD RETURNDATASIZE PUSH1 0x1F NOT PUSH1 0x1F DUP3 ADD AND DUP3 ADD DUP1 PUSH1 0x40 MSTORE POP DUP2 ADD SWAP1 PUSH2 0xA6D SWAP2 SWAP1 PUSH2 0x3DCF JUMP JUMPDEST PUSH1 0x1 PUSH1 0x1 PUSH1 0xA0 SHL SUB AND PUSH4 0x3850C7BD PUSH1 0x40 MLOAD DUP2 PUSH4 0xFFFFFFFF AND PUSH1 0xE0 SHL DUP2 MSTORE PUSH1 0x4 ADD PUSH1 0xE0 PUSH1 0x40 MLOAD DUP1 DUP4 SUB DUP2 DUP7 GAS STATICCALL ISZERO DUP1 ISZERO PUSH2 0xAA8 JUMPI RETURNDATASIZE PUSH0 PUSH0 RETURNDATACOPY RETURNDATASIZE PUSH0 REVERT JUMPDEST POP POP POP POP PUSH1 0x40 MLOAD RETURNDATASIZE PUSH1 0x1F NOT PUSH1 0x1F DUP3 ADD AND DUP3 ADD DUP1 PUSH1 0x40 MSTORE POP DUP2 ADD SWAP1 PUSH2 0xACC SWAP2 SWAP1 PUSH2 0x3E00 JUMP JUMPDEST POP POP POP POP POP SWAP2 POP POP PUSH0 DUP2 SWAP1 POP PUSH0 DUP3 PUSH2 0x2710 PUSH2 0xAE7 SWAP2 SWAP1 PUSH2 0x3CF9 JUMP JUMPDEST SWAP1 POP PUSH3 0x186A0 JUMPDEST DUP2 PUSH2 0xAFC DUP11 DUP11 DUP7 DUP12 DUP12 PUSH2 0x261F JUMP JUMPDEST PUSH2 0xB09 DUP12 DUP12 DUP7 DUP13 DUP13 PUSH2 0x261F JUMP JUMPDEST PUSH2 0xB13 SWAP2 SWAP1 PUSH2 0x3E96 JUMP JUMPDEST PUSH2 0xB1D DUP6 DUP6 PUSH2 0x3CD4 JUMP JUMPDEST PUSH1 0x2 SIGNEXTEND PUSH2 0xB2D DUP13 DUP13 DUP8 DUP14 DUP14 PUSH2 0x261F JUMP JUMPDEST PUSH2 0xB37 SWAP2 SWAP1 PUSH2 0x3EBC JUMP JUMPDEST PUSH2 0xB41 SWAP2 SWAP1 PUSH2 0x3EEB JUMP JUMPDEST DUP4 PUSH1 0x2 SIGNEXTEND PUSH2 0xB4F SWAP2 SWAP1 PUSH2 0x3E96 JUMP JUMPDEST SWAP1 SWAP4 POP SWAP2 POP PUSH2 0xB5E DUP2 DUP6 PUSH2 0x3CF9 JUMP JUMPDEST PUSH1 0x2 SIGNEXTEND DUP3 PUSH1 0x2 SIGNEXTEND SGT DUP1 PUSH2 0xB7F JUMPI POP PUSH2 0xB76 DUP2 DUP6 PUSH2 0x3CD4 JUMP JUMPDEST PUSH1 0x2 SIGNEXTEND DUP3 PUSH1 0x2 SIGNEXTEND SLT JUMPDEST ISZERO PUSH2 0xB93 JUMPI PUSH3 0xD89E8 SWAP5 POP POP POP POP POP PUSH2 0xA03 JUMP JUMPDEST PUSH0 PUSH2 0xBA4 DUP11 DUP11 PUSH2 0x9CB PUSH1 0x1 DUP8 PUSH2 0x3CD4 JUMP JUMPDEST SGT ISZERO PUSH0 PUSH2 0xBB7 DUP12 DUP12 PUSH2 0x9E5 DUP8 PUSH1 0x1 PUSH2 0x3CF9 JUMP JUMPDEST SLT ISZERO SUB PUSH2 0xBC9 JUMPI POP SWAP3 POP PUSH2 0xA03 SWAP2 POP POP JUMP JUMPDEST PUSH2 0xAEE JUMP JUMPDEST PUSH1 0x40 MLOAD PUSH4 0xCAA9A08D PUSH1 0xE0 SHL DUP2 MSTORE PUSH1 0x1 PUSH1 0x1 PUSH1 0xA0 SHL SUB DUP9 DUP2 AND PUSH1 0x4 DUP4 ADD MSTORE PUSH0 SWAP2 PUSH2 0xC22 SWAP2 PUSH32 0x0 AND SWAP1 PUSH4 0xCAA9A08D SWAP1 PUSH1 0x24 ADD PUSH2 0x76C JUMP JUMPDEST SWAP1 POP PUSH2 0xC37 DUP2 DUP4 DUP6 DUP8 PUSH1 0x1 PUSH2 0x7CE DUP5 DUP3 PUSH2 0x3DBC JUMP JUMPDEST SWAP1 POP PUSH2 0x7F1 DUP2 PUSH2 0xC48 DUP5 PUSH1 0x1 PUSH2 0x3DBC JUMP JUMPDEST PUSH1 0x1 DUP8 PUSH0 DUP8 DUP12 DUP15 PUSH2 0x260D JUMP JUMPDEST PUSH2 0xC5D DUP2 PUSH2 0x263F JUMP JUMPDEST PUSH0 JUMPDEST PUSH2 0xC68 DUP3 PUSH2 0x2592 JUMP JUMPDEST DUP2 LT ISZERO PUSH2 0xC83 JUMPI PUSH2 0xC79 DUP3 DUP3 PUSH2 0x2901 JUMP JUMPDEST POP POP PUSH1 0x1 ADD PUSH2 0xC5F JUMP JUMPDEST POP POP JUMP JUMPDEST PUSH0 PUSH2 0xC99 DUP8 DUP8 DUP7 DUP7 DUP7 PUSH0 PUSH1 0x1 DUP1 PUSH2 0xCAD JUMP JUMPDEST SWAP1 POP PUSH2 0x829 DUP2 PUSH0 PUSH1 0x1 DUP6 PUSH1 0x1 PUSH0 DUP12 DUP14 PUSH2 0x260D JUMP JUMPDEST PUSH1 0x40 MLOAD PUSH4 0xCAA9A08D PUSH1 0xE0 SHL DUP2 MSTORE PUSH1 0x1 PUSH1 0x1 PUSH1 0xA0 SHL SUB DUP10 DUP2 AND PUSH1 0x4 DUP4 ADD MSTORE PUSH0 SWAP2 PUSH2 0xD01 SWAP2 PUSH32 0x0 AND SWAP1 PUSH4 0xCAA9A08D SWAP1 PUSH1 0x24 ADD PUSH2 0x76C JUMP JUMPDEST SWAP1 POP PUSH2 0xD1D DUP2 DUP4 DUP6 DUP9 DUP9 PUSH2 0xD16 DUP5 PUSH1 0x1 PUSH2 0x3DBC JUMP JUMPDEST DUP14 DUP16 PUSH2 0x260D JUMP JUMPDEST SWAP1 POP PUSH2 0xD39 DUP2 PUSH2 0xD2E DUP5 PUSH1 0x1 PUSH2 0x3DBC JUMP JUMPDEST DUP6 DUP9 DUP9 DUP8 DUP13 DUP16 PUSH2 0x2938 JUMP JUMPDEST SWAP10 SWAP9 POP POP POP POP POP POP POP POP POP JUMP JUMPDEST PUSH0 PUSH2 0xD57 DUP8 DUP8 DUP8 DUP8 DUP7 PUSH1 0x1 DUP1 PUSH2 0x71C JUMP JUMPDEST SWAP1 POP PUSH2 0x829 DUP2 PUSH0 PUSH1 0x1 DUP6 PUSH0 PUSH0 DUP10 DUP14 PUSH2 0x2938 JUMP JUMPDEST PUSH0 PUSH2 0xD7B DUP8 DUP8 DUP8 DUP8 DUP7 PUSH1 0x1 DUP1 PUSH2 0xF8A JUMP JUMPDEST SWAP1 POP PUSH2 0x829 DUP2 PUSH0 PUSH1 0x1 DUP6 PUSH0 PUSH0 DUP10 DUP14 PUSH2 0x260D JUMP JUMPDEST PUSH1 0x40 MLOAD PUSH4 0xCAA9A08D PUSH1 0xE0 SHL DUP2 MSTORE PUSH1 0x1 PUSH1 0x1 PUSH1 0xA0 SHL SUB DUP9 DUP2 AND PUSH1 0x4 DUP4 ADD MSTORE PUSH0 SWAP2 PUSH2 0xDE2 SWAP2 PUSH32 0x0 AND SWAP1 PUSH4 0xCAA9A08D SWAP1 PUSH1 0x24 ADD PUSH2 0x76C JUMP JUMPDEST SWAP1 POP PUSH2 0xDFE DUP2 DUP4 DUP6 DUP8 PUSH1 0x1 PUSH2 0xDF7 DUP5 DUP3 PUSH2 0x3DBC JUMP JUMPDEST DUP13 DUP15 PUSH2 0x2938 JUMP JUMPDEST SWAP1 POP PUSH2 0x7F1 DUP2 PUSH2 0xE0F DUP5 PUSH1 0x1 PUSH2 0x3DBC JUMP JUMPDEST PUSH1 0x1 DUP8 PUSH0 DUP8 DUP12 DUP15 PUSH2 0x2938 JUMP JUMPDEST PUSH1 0x40 MLOAD PUSH4 0xCAA9A08D PUSH1 0xE0 SHL DUP2 MSTORE PUSH1 0x1 PUSH1 0x1 PUSH1 0xA0 SHL SUB DUP9 DUP2 AND PUSH1 0x4 DUP4 ADD MSTORE PUSH0 SWAP2 PUSH2 0xE6F SWAP2 PUSH32 0x0 AND SWAP1 PUSH4 0xCAA9A08D SWAP1 PUSH1 0x24 ADD PUSH2 0x76C JUMP JUMPDEST SWAP1 POP PUSH2 0xE84 DUP2 DUP4 PUSH1 0x1 DUP8 DUP2 PUSH2 0xDF7 DUP5 DUP3 PUSH2 0x3DBC JUMP JUMPDEST SWAP1 POP PUSH2 0x7F1 DUP2 PUSH2 0xE95 DUP5 PUSH1 0x1 PUSH2 0x3DBC JUMP JUMPDEST DUP6 DUP8 PUSH0 DUP8 DUP12 DUP15 PUSH2 0x2938 JUMP JUMPDEST PUSH1 0x40 MLOAD PUSH4 0xCAA9A08D PUSH1 0xE0 SHL DUP2 MSTORE PUSH1 0x1 PUSH1 0x1 PUSH1 0xA0 SHL SUB DUP9 DUP2 AND PUSH1 0x4 DUP4 ADD MSTORE PUSH0 SWAP2 PUSH2 0xEF4 SWAP2 PUSH32 0x0 AND SWAP1 PUSH4 0xCAA9A08D SWAP1 PUSH1 0x24 ADD PUSH2 0x76C JUMP JUMPDEST SWAP1 POP PUSH2 0x7D5 DUP2 DUP4 PUSH1 0x1 DUP8 DUP2 PUSH2 0x7CE DUP5 DUP3 PUSH2 0x3DBC JUMP JUMPDEST PUSH1 0x40 MLOAD PUSH4 0xCAA9A08D PUSH1 0xE0 SHL DUP2 MSTORE PUSH1 0x1 PUSH1 0x1 PUSH1 0xA0 SHL SUB DUP10 DUP2 AND PUSH1 0x4 DUP4 ADD MSTORE PUSH0 SWAP2 PUSH2 0xF5D SWAP2 PUSH32 0x0 AND SWAP1 PUSH4 0xCAA9A08D SWAP1 PUSH1 0x24 ADD PUSH2 0x76C JUMP JUMPDEST SWAP1 POP PUSH2 0xF79 DUP2 DUP4 DUP6 DUP8 PUSH1 0x1 PUSH2 0xF72 DUP5 DUP3 PUSH2 0x3DBC JUMP JUMPDEST DUP13 DUP16 PUSH2 0x2938 JUMP JUMPDEST SWAP1 POP PUSH2 0xD39 DUP2 PUSH2 0xE95 DUP5 PUSH1 0x1 PUSH2 0x3DBC JUMP JUMPDEST PUSH1 0x40 MLOAD PUSH4 0xCAA9A08D PUSH1 0xE0 SHL DUP2 MSTORE PUSH1 0x1 PUSH1 0x1 PUSH1 0xA0 SHL SUB DUP9 DUP2 AND PUSH1 0x4 DUP4 ADD MSTORE PUSH0 SWAP2 PUSH2 0xFDE SWAP2 PUSH32 0x0 AND SWAP1 PUSH4 0xCAA9A08D SWAP1 PUSH1 0x24 ADD PUSH2 0x76C JUMP JUMPDEST SWAP1 POP PUSH2 0xE84 DUP2 DUP4 DUP6 DUP8 PUSH1 0x1 PUSH2 0xDF7 DUP5 DUP3 PUSH2 0x3DBC JUMP JUMPDEST PUSH0 PUSH2 0x100D DUP8 DUP8 PUSH2 0x1003 DUP7 DUP10 PUSH2 0x3CF9 JUMP JUMPDEST DUP9 DUP7 PUSH1 0x1 PUSH0 PUSH2 0x71C JUMP JUMPDEST SWAP1 POP PUSH2 0x81F PUSH0 DUP8 PUSH2 0x101E DUP7 DUP9 PUSH2 0x3CD4 JUMP JUMPDEST DUP8 DUP7 PUSH1 0x1 PUSH1 0x2 PUSH2 0xF8A JUMP JUMPDEST PUSH0 PUSH0 PUSH2 0x1034 DUP4 PUSH2 0x2592 JUMP JUMPDEST SWAP1 POP DUP1 PUSH1 0x1 SUB PUSH2 0x1047 JUMPI DUP3 SWAP2 POP POP PUSH2 0x15E8 JUMP JUMPDEST PUSH32 0xFFFFFFFFF3FFFFFFFFFFF3FFFFFFFFFFF3FFFFFFFFFFF3FFFFFFFFFFFFFFFFFF DUP4 AND PUSH1 0x60 PUSH0 PUSH1 0x2 DUP5 SWAP1 SUB PUSH2 0x1102 JUMPI POP PUSH1 0x40 DUP1 MLOAD PUSH1 0x2 DUP1 DUP3 MSTORE PUSH1 0x60 DUP3 ADD DUP4 MSTORE SWAP2 DUP3 SWAP1 PUSH1 0x20 DUP4 ADD SWAP1 DUP1 CALLDATASIZE DUP4 CALLDATACOPY ADD SWAP1 POP POP SWAP2 POP PUSH2 0x10B0 PUSH1 0x1 DUP1 PUSH2 0x10A9 DUP7 PUSH0 DUP1 PUSH2 0x294B JUMP JUMPDEST SWAP2 SWAP1 PUSH2 0x294B JUMP JUMPDEST DUP3 PUSH0 DUP2 MLOAD DUP2 LT PUSH2 0x10C2 JUMPI PUSH2 0x10C2 PUSH2 0x3C60 JUMP JUMPDEST PUSH1 0x20 SWAP1 DUP2 MUL SWAP2 SWAP1 SWAP2 ADD ADD MSTORE PUSH2 0x10DE PUSH0 PUSH1 0x1 PUSH2 0x10A9 DUP7 DUP3 DUP5 PUSH2 0x294B JUMP JUMPDEST DUP3 PUSH1 0x1 DUP2 MLOAD DUP2 LT PUSH2 0x10F1 JUMPI PUSH2 0x10F1 PUSH2 0x3C60 JUMP JUMPDEST PUSH1 0x20 MUL PUSH1 0x20 ADD ADD DUP2 DUP2 MSTORE POP POP PUSH2 0x1437 JUMP JUMPDEST DUP4 PUSH1 0x3 SUB PUSH2 0x11EC JUMPI POP PUSH1 0x40 DUP1 MLOAD PUSH1 0x4 DUP1 DUP3 MSTORE PUSH1 0xA0 DUP3 ADD SWAP1 SWAP3 MSTORE DUP2 PUSH1 0x20 DUP3 ADD PUSH1 0x80 DUP1 CALLDATASIZE DUP4 CALLDATACOPY ADD SWAP1 POP POP SWAP2 POP PUSH2 0x1141 PUSH1 0x2 DUP1 PUSH2 0x10A9 PUSH1 0x1 DUP1 DUP3 DUP10 PUSH0 DUP1 PUSH2 0x294B JUMP JUMPDEST DUP3 PUSH0 DUP2 MLOAD DUP2 LT PUSH2 0x1153 JUMPI PUSH2 0x1153 PUSH2 0x3C60 JUMP JUMPDEST PUSH1 0x20 SWAP1 DUP2 MUL SWAP2 SWAP1 SWAP2 ADD ADD MSTORE PUSH2 0x1173 PUSH1 0x2 DUP1 PUSH2 0x10A9 PUSH0 PUSH1 0x1 DUP3 DUP10 DUP3 DUP5 PUSH2 0x294B JUMP JUMPDEST DUP3 PUSH1 0x1 DUP2 MLOAD DUP2 LT PUSH2 0x1186 JUMPI PUSH2 0x1186 PUSH2 0x3C60 JUMP JUMPDEST PUSH1 0x20 SWAP1 DUP2 MUL SWAP2 SWAP1 SWAP2 ADD ADD MSTORE PUSH2 0x11A6 PUSH0 PUSH1 0x2 PUSH2 0x10A9 PUSH1 0x1 DUP1 DUP3 DUP10 DUP6 DUP8 PUSH2 0x294B JUMP JUMPDEST DUP3 PUSH1 0x2 DUP2 MLOAD DUP2 LT PUSH2 0x11B9 JUMPI PUSH2 0x11B9 PUSH2 0x3C60 JUMP JUMPDEST PUSH1 0x20 SWAP1 DUP2 MUL SWAP2 SWAP1 SWAP2 ADD ADD MSTORE PUSH2 0x11D9 PUSH1 0x1 PUSH1 0x2 PUSH2 0x10A9 DUP2 DUP4 DUP3 DUP10 PUSH0 DUP1 PUSH2 0x294B JUMP JUMPDEST DUP3 PUSH1 0x3 DUP2 MLOAD DUP2 LT PUSH2 0x10F1 JUMPI PUSH2 0x10F1 PUSH2 0x3C60 JUMP JUMPDEST POP PUSH1 0x40 DUP1 MLOAD PUSH1 0xA DUP1 DUP3 MSTORE PUSH2 0x160 DUP3 ADD SWAP1 SWAP3 MSTORE DUP2 PUSH1 0x20 DUP3 ADD PUSH2 0x140 DUP1 CALLDATASIZE DUP4 CALLDATACOPY ADD SWAP1 POP POP SWAP2 POP PUSH2 0x1229 PUSH1 0x3 DUP1 PUSH2 0x10A9 PUSH1 0x2 DUP1 DUP3 PUSH1 0x1 DUP1 DUP3 DUP13 PUSH0 DUP1 PUSH2 0x294B JUMP JUMPDEST DUP3 PUSH0 DUP2 MLOAD DUP2 LT PUSH2 0x123B JUMPI PUSH2 0x123B PUSH2 0x3C60 JUMP JUMPDEST PUSH1 0x20 SWAP1 DUP2 MUL SWAP2 SWAP1 SWAP2 ADD ADD MSTORE PUSH2 0x125F PUSH1 0x3 DUP1 PUSH2 0x10A9 PUSH1 0x2 DUP1 DUP3 PUSH0 PUSH1 0x1 DUP3 DUP13 DUP3 DUP5 PUSH2 0x294B JUMP JUMPDEST DUP3 PUSH1 0x1 DUP2 MLOAD DUP2 LT PUSH2 0x1272 JUMPI PUSH2 0x1272 PUSH2 0x3C60 JUMP JUMPDEST PUSH1 0x20 SWAP1 DUP2 MUL SWAP2 SWAP1 SWAP2 ADD ADD MSTORE PUSH2 0x1296 PUSH1 0x3 DUP1 PUSH2 0x10A9 PUSH0 PUSH1 0x2 DUP3 PUSH1 0x1 DUP1 DUP3 DUP13 DUP6 DUP8 PUSH2 0x294B JUMP JUMPDEST DUP3 PUSH1 0x2 DUP2 MLOAD DUP2 LT PUSH2 0x12A9 JUMPI PUSH2 0x12A9 PUSH2 0x3C60 JUMP JUMPDEST PUSH1 0x20 SWAP1 DUP2 MUL SWAP2 SWAP1 SWAP2 ADD ADD MSTORE PUSH2 0x12CD PUSH0 PUSH1 0x3 PUSH2 0x10A9 PUSH1 0x2 DUP1 DUP3 PUSH1 0x1 DUP1 DUP3 DUP13 DUP9 DUP11 PUSH2 0x294B JUMP JUMPDEST DUP3 PUSH1 0x3 DUP2 MLOAD DUP2 LT PUSH2 0x12E0 JUMPI PUSH2 0x12E0 PUSH2 0x3C60 JUMP JUMPDEST PUSH1 0x20 SWAP1 DUP2 MUL SWAP2 SWAP1 SWAP2 ADD ADD MSTORE PUSH2 0x1304 PUSH1 0x3 DUP1 PUSH2 0x10A9 PUSH1 0x1 PUSH1 0x2 DUP3 DUP2 DUP4 DUP3 DUP13 PUSH0 DUP1 PUSH2 0x294B JUMP JUMPDEST DUP3 PUSH1 0x4 DUP2 MLOAD DUP2 LT PUSH2 0x1317 JUMPI PUSH2 0x1317 PUSH2 0x3C60 JUMP JUMPDEST PUSH1 0x20 SWAP1 DUP2 MUL SWAP2 SWAP1 SWAP2 ADD ADD MSTORE PUSH2 0x133B PUSH1 0x1 PUSH1 0x3 PUSH2 0x10A9 PUSH1 0x2 DUP1 DUP3 DUP5 DUP7 DUP3 DUP13 PUSH0 DUP1 PUSH2 0x294B JUMP JUMPDEST DUP3 PUSH1 0x5 DUP2 MLOAD DUP2 LT PUSH2 0x134E JUMPI PUSH2 0x134E PUSH2 0x3C60 JUMP JUMPDEST PUSH1 0x20 SWAP1 DUP2 MUL SWAP2 SWAP1 SWAP2 ADD ADD MSTORE PUSH2 0x1372 PUSH1 0x2 PUSH1 0x3 PUSH2 0x10A9 DUP2 DUP4 DUP3 PUSH1 0x1 DUP1 DUP3 DUP13 PUSH0 DUP1 PUSH2 0x294B JUMP JUMPDEST DUP3 PUSH1 0x6 DUP2 MLOAD DUP2 LT PUSH2 0x1385 JUMPI PUSH2 0x1385 PUSH2 0x3C60 JUMP JUMPDEST PUSH1 0x20 SWAP1 DUP2 MUL SWAP2 SWAP1 SWAP2 ADD ADD MSTORE PUSH2 0x13A9 PUSH1 0x2 PUSH1 0x3 PUSH2 0x10A9 DUP2 DUP4 DUP3 PUSH0 PUSH1 0x1 DUP3 DUP13 DUP3 DUP5 PUSH2 0x294B JUMP JUMPDEST DUP3 PUSH1 0x7 DUP2 MLOAD DUP2 LT PUSH2 0x13BC JUMPI PUSH2 0x13BC PUSH2 0x3C60 JUMP JUMPDEST PUSH1 0x20 SWAP1 DUP2 MUL SWAP2 SWAP1 SWAP2 ADD ADD MSTORE PUSH2 0x13E0 PUSH1 0x1 PUSH1 0x3 PUSH2 0x10A9 PUSH0 PUSH1 0x2 DUP3 DUP5 DUP7 DUP3 DUP13 DUP6 DUP8 PUSH2 0x294B JUMP JUMPDEST DUP3 PUSH1 0x8 DUP2 MLOAD DUP2 LT PUSH2 0x13F3 JUMPI PUSH2 0x13F3 PUSH2 0x3C60 JUMP JUMPDEST PUSH1 0x20 SWAP1 DUP2 MUL SWAP2 SWAP1 SWAP2 ADD ADD MSTORE PUSH2 0x1417 PUSH0 PUSH1 0x3 PUSH2 0x10A9 DUP3 PUSH1 0x2 DUP3 DUP2 PUSH1 0x1 DUP3 DUP13 DUP9 DUP8 PUSH2 0x294B JUMP JUMPDEST DUP3 PUSH1 0x9 DUP2 MLOAD DUP2 LT PUSH2 0x142A JUMPI PUSH2 0x142A PUSH2 0x3C60 JUMP JUMPDEST PUSH1 0x20 MUL PUSH1 0x20 ADD ADD DUP2 DUP2 MSTORE POP POP JUMPDEST PUSH0 ADDRESS PUSH1 0x1 PUSH1 0x1 PUSH1 0xA0 SHL SUB AND PUSH4 0xD27E5FA7 DUP11 DUP6 PUSH0 DUP2 MLOAD DUP2 LT PUSH2 0x145A JUMPI PUSH2 0x145A PUSH2 0x3C60 JUMP JUMPDEST PUSH1 0x20 SWAP1 DUP2 MUL SWAP2 SWAP1 SWAP2 ADD ADD MLOAD PUSH1 0x40 MLOAD PUSH1 0x1 PUSH1 0x1 PUSH1 0xE0 SHL SUB NOT PUSH1 0xE0 DUP6 SWAP1 SHL AND DUP2 MSTORE PUSH1 0x1 PUSH1 0x1 PUSH1 0xA0 SHL SUB SWAP1 SWAP3 AND PUSH1 0x4 DUP4 ADD MSTORE PUSH1 0x24 DUP3 ADD MSTORE PUSH1 0x2 DUP12 SWAP1 SIGNEXTEND PUSH1 0x44 DUP3 ADD MSTORE PUSH1 0x64 ADD PUSH1 0x20 PUSH1 0x40 MLOAD DUP1 DUP4 SUB DUP2 DUP7 GAS STATICCALL ISZERO DUP1 ISZERO PUSH2 0x14B6 JUMPI RETURNDATASIZE PUSH0 PUSH0 RETURNDATACOPY RETURNDATASIZE PUSH0 REVERT JUMPDEST POP POP POP POP PUSH1 0x40 MLOAD RETURNDATASIZE PUSH1 0x1F NOT PUSH1 0x1F DUP3 ADD AND DUP3 ADD DUP1 PUSH1 0x40 MSTORE POP DUP2 ADD SWAP1 PUSH2 0x14DA SWAP2 SWAP1 PUSH2 0x3D55 JUMP JUMPDEST SWAP1 POP PUSH0 DUP4 PUSH0 DUP2 MLOAD DUP2 LT PUSH2 0x14EF JUMPI PUSH2 0x14EF PUSH2 0x3C60 JUMP JUMPDEST PUSH1 0x20 MUL PUSH1 0x20 ADD ADD MLOAD SWAP1 POP PUSH0 PUSH1 0x1 SWAP1 POP JUMPDEST DUP4 DUP2 LT ISZERO PUSH2 0x15DA JUMPI ADDRESS PUSH1 0x1 PUSH1 0x1 PUSH1 0xA0 SHL SUB AND PUSH4 0xD27E5FA7 DUP13 DUP8 DUP5 DUP2 MLOAD DUP2 LT PUSH2 0x1529 JUMPI PUSH2 0x1529 PUSH2 0x3C60 JUMP JUMPDEST PUSH1 0x20 SWAP1 DUP2 MUL SWAP2 SWAP1 SWAP2 ADD ADD MLOAD PUSH1 0x40 MLOAD PUSH1 0x1 PUSH1 0x1 PUSH1 0xE0 SHL SUB NOT PUSH1 0xE0 DUP6 SWAP1 SHL AND DUP2 MSTORE PUSH1 0x1 PUSH1 0x1 PUSH1 0xA0 SHL SUB SWAP1 SWAP3 AND PUSH1 0x4 DUP4 ADD MSTORE PUSH1 0x24 DUP3 ADD MSTORE PUSH1 0x2 DUP14 SWAP1 SIGNEXTEND PUSH1 0x44 DUP3 ADD MSTORE PUSH1 0x64 ADD PUSH1 0x20 PUSH1 0x40 MLOAD DUP1 DUP4 SUB DUP2 DUP7 GAS STATICCALL SWAP3 POP POP POP DUP1 ISZERO PUSH2 0x15A3 JUMPI POP PUSH1 0x40 DUP1 MLOAD PUSH1 0x1F RETURNDATASIZE SWAP1 DUP2 ADD PUSH1 0x1F NOT AND DUP3 ADD SWAP1 SWAP3 MSTORE PUSH2 0x15A0 SWAP2 DUP2 ADD SWAP1 PUSH2 0x3D55 JUMP JUMPDEST PUSH1 0x1 JUMPDEST ISZERO PUSH2 0x15D2 JUMPI DUP4 DUP2 LT ISZERO PUSH2 0x15D0 JUMPI DUP6 DUP3 DUP2 MLOAD DUP2 LT PUSH2 0x15C2 JUMPI PUSH2 0x15C2 PUSH2 0x3C60 JUMP JUMPDEST PUSH1 0x20 MUL PUSH1 0x20 ADD ADD MLOAD SWAP3 POP DUP1 SWAP4 POP JUMPDEST POP JUMPDEST PUSH1 0x1 ADD PUSH2 0x14FF JUMP JUMPDEST POP SWAP6 POP PUSH2 0x15E8 SWAP5 POP POP POP POP POP JUMP JUMPDEST SWAP4 SWAP3 POP POP POP JUMP JUMPDEST PUSH1 0x60 PUSH0 PUSH2 0x15FB DUP4 PUSH2 0x2592 JUMP JUMPDEST SWAP1 POP PUSH0 DUP2 PUSH1 0x1 PUSH1 0x1 PUSH1 0x40 SHL SUB DUP2 GT ISZERO PUSH2 0x1616 JUMPI PUSH2 0x1616 PUSH2 0x3853 JUMP JUMPDEST PUSH1 0x40 MLOAD SWAP1 DUP1 DUP3 MSTORE DUP1 PUSH1 0x20 MUL PUSH1 0x20 ADD DUP3 ADD PUSH1 0x40 MSTORE DUP1 ISZERO PUSH2 0x16A5 JUMPI DUP2 PUSH1 0x20 ADD JUMPDEST PUSH2 0x1692 PUSH1 0x40 MLOAD DUP1 PUSH2 0x120 ADD PUSH1 0x40 MSTORE DUP1 PUSH0 PUSH1 0x1 PUSH1 0x1 PUSH1 0x40 SHL SUB AND DUP2 MSTORE PUSH1 0x20 ADD PUSH0 PUSH1 0x1 PUSH1 0x1 PUSH1 0xA0 SHL SUB AND DUP2 MSTORE PUSH1 0x20 ADD PUSH0 DUP2 MSTORE PUSH1 0x20 ADD PUSH0 DUP2 MSTORE PUSH1 0x20 ADD PUSH0 DUP2 MSTORE PUSH1 0x20 ADD PUSH0 DUP2 MSTORE PUSH1 0x20 ADD PUSH0 DUP2 MSTORE PUSH1 0x20 ADD PUSH0 PUSH1 0x2 SIGNEXTEND DUP2 MSTORE PUSH1 0x20 ADD PUSH0 PUSH1 0x2 SIGNEXTEND DUP2 MSTORE POP SWAP1 JUMP JUMPDEST DUP2 MSTORE PUSH1 0x20 ADD SWAP1 PUSH1 0x1 SWAP1 SUB SWAP1 DUP2 PUSH2 0x1634 JUMPI SWAP1 POP JUMPDEST POP SWAP1 POP PUSH0 DUP5 SWAP1 POP PUSH0 PUSH1 0x1 PUSH1 0x1 PUSH1 0xA0 SHL SUB PUSH32 0x0 AND PUSH4 0x3F8E156E DUP8 PUSH1 0x40 MLOAD PUSH1 0x1 PUSH1 0x1 PUSH1 0xE0 SHL SUB NOT PUSH1 0xE0 DUP5 SWAP1 SHL AND DUP2 MSTORE PUSH1 0x1 PUSH1 0x1 PUSH1 0x40 SHL SUB SWAP1 SWAP2 AND PUSH1 0x4 DUP3 ADD MSTORE PUSH1 0x24 ADD PUSH1 0x20 PUSH1 0x40 MLOAD DUP1 DUP4 SUB DUP2 DUP7 GAS STATICCALL ISZERO DUP1 ISZERO PUSH2 0x171F JUMPI RETURNDATASIZE PUSH0 PUSH0 RETURNDATACOPY RETURNDATASIZE PUSH0 REVERT JUMPDEST POP POP POP POP PUSH1 0x40 MLOAD RETURNDATASIZE PUSH1 0x1F NOT PUSH1 0x1F DUP3 ADD AND DUP3 ADD DUP1 PUSH1 0x40 MSTORE POP DUP2 ADD SWAP1 PUSH2 0x1743 SWAP2 SWAP1 PUSH2 0x3DCF JUMP JUMPDEST SWAP1 POP PUSH0 JUMPDEST DUP5 DUP2 LT ISZERO PUSH2 0x18FD JUMPI DUP3 DUP5 DUP3 DUP2 MLOAD DUP2 LT PUSH2 0x1762 JUMPI PUSH2 0x1762 PUSH2 0x3C60 JUMP JUMPDEST PUSH1 0x20 MUL PUSH1 0x20 ADD ADD MLOAD PUSH0 ADD SWAP1 PUSH1 0x1 PUSH1 0x1 PUSH1 0x40 SHL SUB AND SWAP1 DUP2 PUSH1 0x1 PUSH1 0x1 PUSH1 0x40 SHL SUB AND DUP2 MSTORE POP POP DUP2 DUP5 DUP3 DUP2 MLOAD DUP2 LT PUSH2 0x1798 JUMPI PUSH2 0x1798 PUSH2 0x3C60 JUMP JUMPDEST PUSH1 0x20 SWAP1 DUP2 MUL SWAP2 SWAP1 SWAP2 ADD DUP2 ADD MLOAD PUSH1 0x1 PUSH1 0x1 PUSH1 0xA0 SHL SUB SWAP1 SWAP3 AND SWAP2 ADD MSTORE PUSH2 0x17BC DUP8 DUP3 PUSH2 0x2965 JUMP JUMPDEST DUP5 DUP3 DUP2 MLOAD DUP2 LT PUSH2 0x17CE JUMPI PUSH2 0x17CE PUSH2 0x3C60 JUMP JUMPDEST PUSH1 0x20 SWAP1 DUP2 MUL SWAP2 SWAP1 SWAP2 ADD ADD MLOAD PUSH1 0x40 ADD MSTORE PUSH2 0x17E7 DUP8 DUP3 PUSH2 0x297B JUMP JUMPDEST DUP5 DUP3 DUP2 MLOAD DUP2 LT PUSH2 0x17F9 JUMPI PUSH2 0x17F9 PUSH2 0x3C60 JUMP JUMPDEST PUSH1 0x20 SWAP1 DUP2 MUL SWAP2 SWAP1 SWAP2 ADD ADD MLOAD PUSH1 0x60 ADD MSTORE PUSH2 0x1812 DUP8 DUP3 PUSH2 0x298D JUMP JUMPDEST DUP5 DUP3 DUP2 MLOAD DUP2 LT PUSH2 0x1824 JUMPI PUSH2 0x1824 PUSH2 0x3C60 JUMP JUMPDEST PUSH1 0x20 SWAP1 DUP2 MUL SWAP2 SWAP1 SWAP2 ADD ADD MLOAD PUSH1 0x80 ADD MSTORE PUSH2 0x183D DUP8 DUP3 PUSH2 0x299F JUMP JUMPDEST DUP5 DUP3 DUP2 MLOAD DUP2 LT PUSH2 0x184F JUMPI PUSH2 0x184F PUSH2 0x3C60 JUMP JUMPDEST PUSH1 0x20 SWAP1 DUP2 MUL SWAP2 SWAP1 SWAP2 ADD ADD MLOAD PUSH1 0xA0 ADD MSTORE PUSH2 0x1868 DUP8 DUP3 PUSH2 0x29B1 JUMP JUMPDEST DUP5 DUP3 DUP2 MLOAD DUP2 LT PUSH2 0x187A JUMPI PUSH2 0x187A PUSH2 0x3C60 JUMP JUMPDEST PUSH1 0x20 SWAP1 DUP2 MUL SWAP2 SWAP1 SWAP2 ADD ADD MLOAD PUSH1 0xC0 ADD MSTORE PUSH2 0x1898 DUP8 DUP3 PUSH1 0x30 MUL PUSH1 0x4C ADD SHR SWAP1 JUMP JUMPDEST DUP5 DUP3 DUP2 MLOAD DUP2 LT PUSH2 0x18AA JUMPI PUSH2 0x18AA PUSH2 0x3C60 JUMP JUMPDEST PUSH1 0x20 SWAP1 DUP2 MUL SWAP2 SWAP1 SWAP2 ADD ADD MLOAD PUSH1 0x2 SWAP2 SWAP1 SWAP2 SIGNEXTEND PUSH1 0xE0 SWAP1 SWAP2 ADD MSTORE PUSH2 0x18CB DUP8 DUP3 PUSH2 0x29CD JUMP JUMPDEST DUP5 DUP3 DUP2 MLOAD DUP2 LT PUSH2 0x18DD JUMPI PUSH2 0x18DD PUSH2 0x3C60 JUMP JUMPDEST PUSH1 0x20 SWAP1 DUP2 MUL SWAP2 SWAP1 SWAP2 ADD ADD MLOAD PUSH1 0x2 SWAP2 SWAP1 SWAP2 SIGNEXTEND PUSH2 0x100 SWAP1 SWAP2 ADD MSTORE PUSH1 0x1 ADD PUSH2 0x1747 JUMP JUMPDEST POP SWAP2 SWAP6 SWAP5 POP POP POP POP POP JUMP JUMPDEST PUSH1 0x60 PUSH0 DUP3 MLOAD PUSH1 0x1 PUSH1 0x1 PUSH1 0x40 SHL SUB DUP2 GT ISZERO PUSH2 0x1924 JUMPI PUSH2 0x1924 PUSH2 0x3853 JUMP JUMPDEST PUSH1 0x40 MLOAD SWAP1 DUP1 DUP3 MSTORE DUP1 PUSH1 0x20 MUL PUSH1 0x20 ADD DUP3 ADD PUSH1 0x40 MSTORE DUP1 ISZERO PUSH2 0x1957 JUMPI DUP2 PUSH1 0x20 ADD JUMPDEST PUSH1 0x60 DUP2 MSTORE PUSH1 0x20 ADD SWAP1 PUSH1 0x1 SWAP1 SUB SWAP1 DUP2 PUSH2 0x1942 JUMPI SWAP1 POP JUMPDEST POP SWAP1 POP PUSH0 JUMPDEST DUP4 MLOAD DUP2 LT ISZERO PUSH2 0x1CAE JUMPI PUSH1 0x40 DUP1 MLOAD PUSH1 0x4 DUP1 DUP3 MSTORE PUSH1 0xA0 DUP3 ADD SWAP1 SWAP3 MSTORE PUSH0 SWAP2 DUP2 PUSH1 0x20 ADD JUMPDEST PUSH1 0x60 DUP2 MSTORE PUSH1 0x20 ADD SWAP1 PUSH1 0x1 SWAP1 SUB SWAP1 DUP2 PUSH2 0x197C JUMPI SWAP1 POP POP SWAP1 POP PUSH0 JUMPDEST PUSH2 0x19B7 DUP7 DUP5 DUP2 MLOAD DUP2 LT PUSH2 0x19AA JUMPI PUSH2 0x19AA PUSH2 0x3C60 JUMP JUMPDEST PUSH1 0x20 MUL PUSH1 0x20 ADD ADD MLOAD PUSH2 0x2592 JUMP JUMPDEST DUP2 LT ISZERO PUSH2 0x1C86 JUMPI PUSH0 PUSH32 0x0 PUSH1 0x1 PUSH1 0x1 PUSH1 0xA0 SHL SUB AND PUSH4 0xE53DEC38 PUSH32 0x0 PUSH1 0x1 PUSH1 0x1 PUSH1 0xA0 SHL SUB AND PUSH4 0x3F8E156E PUSH2 0x1A3D DUP12 DUP10 DUP2 MLOAD DUP2 LT PUSH2 0x1A32 JUMPI PUSH2 0x1A32 PUSH2 0x3C60 JUMP JUMPDEST PUSH1 0x20 MUL PUSH1 0x20 ADD ADD MLOAD SWAP1 JUMP JUMPDEST PUSH1 0x40 MLOAD PUSH1 0x1 PUSH1 0x1 PUSH1 0xE0 SHL SUB NOT PUSH1 0xE0 DUP5 SWAP1 SHL AND DUP2 MSTORE PUSH1 0x1 PUSH1 0x1 PUSH1 0x40 SHL SUB SWAP1 SWAP2 AND PUSH1 0x4 DUP3 ADD MSTORE PUSH1 0x24 ADD PUSH1 0x20 PUSH1 0x40 MLOAD DUP1 DUP4 SUB DUP2 DUP7 GAS STATICCALL ISZERO DUP1 ISZERO PUSH2 0x1A7F JUMPI RETURNDATASIZE PUSH0 PUSH0 RETURNDATACOPY RETURNDATASIZE PUSH0 REVERT JUMPDEST POP POP POP POP PUSH1 0x40 MLOAD RETURNDATASIZE PUSH1 0x1F NOT PUSH1 0x1F DUP3 ADD AND DUP3 ADD DUP1 PUSH1 0x40 MSTORE POP DUP2 ADD SWAP1 PUSH2 0x1AA3 SWAP2 SWAP1 PUSH2 0x3DCF JUMP JUMPDEST DUP11 PUSH2 0x1AD0 DUP7 DUP13 DUP11 DUP2 MLOAD DUP2 LT PUSH2 0x1ABA JUMPI PUSH2 0x1ABA PUSH2 0x3C60 JUMP JUMPDEST PUSH1 0x20 MUL PUSH1 0x20 ADD ADD MLOAD PUSH2 0x298D SWAP1 SWAP2 SWAP1 PUSH4 0xFFFFFFFF AND JUMP JUMPDEST PUSH1 0x2 PUSH2 0x1AFE DUP9 DUP15 DUP13 DUP2 MLOAD DUP2 LT PUSH2 0x1AE8 JUMPI PUSH2 0x1AE8 PUSH2 0x3C60 JUMP JUMPDEST PUSH1 0x20 MUL PUSH1 0x20 ADD ADD MLOAD PUSH2 0x29CD SWAP1 SWAP2 SWAP1 PUSH4 0xFFFFFFFF AND JUMP JUMPDEST PUSH2 0x1B08 SWAP2 SWAP1 PUSH2 0x3C9C JUMP JUMPDEST PUSH2 0x1B34 DUP9 DUP15 DUP13 DUP2 MLOAD DUP2 LT PUSH2 0x1B1E JUMPI PUSH2 0x1B1E PUSH2 0x3C60 JUMP JUMPDEST PUSH1 0x20 MUL PUSH1 0x20 ADD ADD MLOAD PUSH2 0x29C3 SWAP1 SWAP2 SWAP1 PUSH4 0xFFFFFFFF AND JUMP JUMPDEST PUSH2 0x1B3E SWAP2 SWAP1 PUSH2 0x3CD4 JUMP JUMPDEST PUSH1 0x2 PUSH2 0x1B56 DUP10 DUP16 DUP14 DUP2 MLOAD DUP2 LT PUSH2 0x1AE8 JUMPI PUSH2 0x1AE8 PUSH2 0x3C60 JUMP JUMPDEST PUSH2 0x1B60 SWAP2 SWAP1 PUSH2 0x3C9C JUMP JUMPDEST PUSH2 0x1B76 DUP10 DUP16 DUP14 DUP2 MLOAD DUP2 LT PUSH2 0x1B1E JUMPI PUSH2 0x1B1E PUSH2 0x3C60 JUMP JUMPDEST PUSH2 0x1B80 SWAP2 SWAP1 PUSH2 0x3CF9 JUMP JUMPDEST PUSH1 0x40 MLOAD DUP7 PUSH4 0xFFFFFFFF AND PUSH1 0xE0 SHL DUP2 MSTORE PUSH1 0x4 ADD PUSH2 0x1BA0 SWAP6 SWAP5 SWAP4 SWAP3 SWAP2 SWAP1 PUSH2 0x3D1E JUMP JUMPDEST PUSH1 0x20 PUSH1 0x40 MLOAD DUP1 DUP4 SUB DUP2 DUP7 GAS STATICCALL ISZERO DUP1 ISZERO PUSH2 0x1BBB JUMPI RETURNDATASIZE PUSH0 PUSH0 RETURNDATACOPY RETURNDATASIZE PUSH0 REVERT JUMPDEST POP POP POP POP PUSH1 0x40 MLOAD RETURNDATASIZE PUSH1 0x1F NOT PUSH1 0x1F DUP3 ADD AND DUP3 ADD DUP1 PUSH1 0x40 MSTORE POP DUP2 ADD SWAP1 PUSH2 0x1BDF SWAP2 SWAP1 PUSH2 0x3D55 JUMP JUMPDEST PUSH1 0x40 DUP1 MLOAD PUSH1 0x2 DUP1 DUP3 MSTORE PUSH1 0x60 DUP3 ADD DUP4 MSTORE SWAP3 SWAP4 POP PUSH0 SWAP3 SWAP1 SWAP2 PUSH1 0x20 DUP4 ADD SWAP1 DUP1 CALLDATASIZE DUP4 CALLDATACOPY ADD SWAP1 POP POP SWAP1 POP DUP2 PUSH1 0x1 PUSH1 0x1 PUSH1 0x80 SHL SUB AND DUP2 PUSH0 DUP2 MLOAD DUP2 LT PUSH2 0x1C20 JUMPI PUSH2 0x1C20 PUSH2 0x3C60 JUMP JUMPDEST PUSH1 0x20 MUL PUSH1 0x20 ADD ADD DUP2 DUP2 MSTORE POP POP PUSH2 0x1C36 DUP3 PUSH1 0x80 SHR SWAP1 JUMP JUMPDEST PUSH1 0x1 PUSH1 0x1 PUSH1 0x80 SHL SUB AND DUP2 PUSH1 0x1 DUP2 MLOAD DUP2 LT PUSH2 0x1C52 JUMPI PUSH2 0x1C52 PUSH2 0x3C60 JUMP JUMPDEST PUSH1 0x20 MUL PUSH1 0x20 ADD ADD DUP2 DUP2 MSTORE POP POP DUP1 DUP5 DUP5 DUP2 MLOAD DUP2 LT PUSH2 0x1C71 JUMPI PUSH2 0x1C71 PUSH2 0x3C60 JUMP JUMPDEST PUSH1 0x20 SWAP1 DUP2 MUL SWAP2 SWAP1 SWAP2 ADD ADD MSTORE POP POP PUSH1 0x1 ADD PUSH2 0x1995 JUMP JUMPDEST POP DUP1 DUP4 DUP4 DUP2 MLOAD DUP2 LT PUSH2 0x1C9A JUMPI PUSH2 0x1C9A PUSH2 0x3C60 JUMP JUMPDEST PUSH1 0x20 SWAP1 DUP2 MUL SWAP2 SWAP1 SWAP2 ADD ADD MSTORE POP PUSH1 0x1 ADD PUSH2 0x195C JUMP JUMPDEST POP SWAP5 SWAP4 POP POP POP POP JUMP JUMPDEST PUSH1 0x40 DUP1 MLOAD PUSH1 0x1 DUP1 DUP3 MSTORE DUP2 DUP4 ADD SWAP1 SWAP3 MSTORE PUSH0 SWAP2 DUP3 SWAP2 DUP3 SWAP2 DUP3 SWAP2 SWAP1 PUSH1 0x20 DUP1 DUP4 ADD SWAP1 DUP1 CALLDATASIZE DUP4 CALLDATACOPY ADD SWAP1 POP POP SWAP1 POP DUP5 DUP2 PUSH0 DUP2 MLOAD DUP2 LT PUSH2 0x1CF2 JUMPI PUSH2 0x1CF2 PUSH2 0x3C60 JUMP JUMPDEST PUSH1 0x20 SWAP1 DUP2 MUL SWAP2 SWAP1 SWAP2 ADD ADD MSTORE PUSH1 0x40 MLOAD PUSH4 0x2CA8B091 PUSH1 0xE1 SHL DUP2 MSTORE PUSH0 SWAP1 PUSH1 0x1 PUSH1 0x1 PUSH1 0xA0 SHL SUB DUP10 AND SWAP1 PUSH4 0x59516122 SWAP1 PUSH2 0x1D2F SWAP1 DUP11 SWAP1 DUP6 SWAP1 DUP8 SWAP1 PUSH1 0x4 ADD PUSH2 0x3F17 JUMP JUMPDEST PUSH0 PUSH1 0x40 MLOAD DUP1 DUP4 SUB DUP2 DUP7 GAS STATICCALL ISZERO DUP1 ISZERO PUSH2 0x1D49 JUMPI RETURNDATASIZE PUSH0 PUSH0 RETURNDATACOPY RETURNDATASIZE PUSH0 REVERT JUMPDEST POP POP POP POP PUSH1 0x40 MLOAD RETURNDATASIZE PUSH0 DUP3 RETURNDATACOPY PUSH1 0x1F RETURNDATASIZE SWAP1 DUP2 ADD PUSH1 0x1F NOT AND DUP3 ADD PUSH1 0x40 MSTORE PUSH2 0x1D70 SWAP2 SWAP1 DUP2 ADD SWAP1 PUSH2 0x3F77 JUMP JUMPDEST SWAP3 POP POP POP PUSH0 DUP2 PUSH0 DUP2 MLOAD DUP2 LT PUSH2 0x1D87 JUMPI PUSH2 0x1D87 PUSH2 0x3C60 JUMP JUMPDEST PUSH1 0x20 MUL PUSH1 0x20 ADD ADD MLOAD PUSH1 0x1 PUSH1 0x2 DUP2 LT PUSH2 0x1DA1 JUMPI PUSH2 0x1DA1 PUSH2 0x3C60 JUMP JUMPDEST PUSH1 0x20 MUL ADD MLOAD SWAP1 POP DUP1 PUSH2 0x1DB3 DUP3 PUSH1 0x80 SHR SWAP1 JUMP JUMPDEST PUSH1 0x40 PUSH2 0x1DBF DUP5 PUSH1 0x80 SHR SWAP1 JUMP JUMPDEST PUSH1 0x1 PUSH1 0x1 PUSH1 0x80 SHL SUB AND SWAP1 SHR SWAP6 POP SWAP6 POP SWAP6 POP POP POP POP SWAP4 POP SWAP4 POP SWAP4 SWAP1 POP JUMP JUMPDEST PUSH0 PUSH2 0x1DEC DUP8 DUP8 DUP8 DUP8 DUP8 DUP8 PUSH0 PUSH2 0xEA0 JUMP JUMPDEST SWAP1 POP PUSH2 0x81F PUSH0 DUP8 DUP8 DUP8 DUP8 DUP8 PUSH1 0x2 PUSH2 0xE1B JUMP JUMPDEST PUSH1 0x40 MLOAD PUSH4 0xCAA9A08D PUSH1 0xE0 SHL DUP2 MSTORE PUSH1 0x1 PUSH1 0x1 PUSH1 0xA0 SHL SUB DUP10 DUP2 AND PUSH1 0x4 DUP4 ADD MSTORE PUSH0 SWAP2 PUSH2 0x1E52 SWAP2 PUSH32 0x0 AND SWAP1 PUSH4 0xCAA9A08D SWAP1 PUSH1 0x24 ADD PUSH2 0x76C JUMP JUMPDEST SWAP1 POP PUSH2 0x1E6E DUP2 DUP4 DUP6 DUP8 PUSH1 0x1 PUSH2 0x1E67 DUP5 DUP3 PUSH2 0x3DBC JUMP JUMPDEST DUP13 DUP16 PUSH2 0x260D JUMP JUMPDEST SWAP1 POP PUSH2 0xD39 DUP2 PUSH2 0x7E6 DUP5 PUSH1 0x1 PUSH2 0x3DBC JUMP JUMPDEST PUSH0 PUSH2 0x1E90 DUP7 DUP7 DUP6 DUP6 PUSH0 PUSH1 0x1 DUP1 PUSH2 0x250D JUMP JUMPDEST SWAP1 POP PUSH2 0x1EA4 DUP2 PUSH0 PUSH1 0x1 DUP6 PUSH1 0x1 PUSH0 DUP11 DUP13 PUSH2 0x260D JUMP JUMPDEST SWAP7 SWAP6 POP POP POP POP POP POP JUMP JUMPDEST PUSH1 0x40 MLOAD PUSH4 0x34600901 PUSH1 0xE0 SHL DUP2 MSTORE PUSH1 0x4 DUP2 ADD DUP4 SWAP1 MSTORE PUSH0 SWAP1 ADDRESS SWAP1 PUSH4 0x34600901 SWAP1 PUSH1 0x24 ADD PUSH0 PUSH1 0x40 MLOAD DUP1 DUP4 SUB DUP2 DUP7 DUP1 EXTCODESIZE ISZERO DUP1 ISZERO PUSH2 0x1EE5 JUMPI PUSH0 PUSH0 REVERT JUMPDEST POP GAS STATICCALL SWAP3 POP POP POP DUP1 ISZERO PUSH2 0x1EF6 JUMPI POP PUSH1 0x1 JUMPDEST PUSH2 0x1F08 JUMPI POP PUSH1 0x1 PUSH1 0x1 PUSH1 0x80 SHL SUB PUSH2 0x15E8 JUMP JUMPDEST PUSH1 0x40 DUP1 MLOAD PUSH1 0x1 DUP1 DUP3 MSTORE DUP2 DUP4 ADD SWAP1 SWAP3 MSTORE PUSH0 SWAP2 DUP2 PUSH1 0x20 ADD JUMPDEST PUSH2 0x1F26 PUSH2 0x3406 JUMP JUMPDEST DUP2 MSTORE PUSH1 0x20 ADD SWAP1 PUSH1 0x1 SWAP1 SUB SWAP1 DUP2 PUSH2 0x1F1E JUMPI SWAP1 POP POP SWAP1 POP DUP4 DUP2 PUSH0 DUP2 MLOAD DUP2 LT PUSH2 0x1F4E JUMPI PUSH2 0x1F4E PUSH2 0x3C60 JUMP JUMPDEST PUSH1 0x20 MUL PUSH1 0x20 ADD ADD MLOAD PUSH0 PUSH1 0x2 DUP2 LT PUSH2 0x1F67 JUMPI PUSH2 0x1F67 PUSH2 0x3C60 JUMP JUMPDEST PUSH1 0x20 MUL ADD MSTORE DUP1 MLOAD PUSH6 0xFFFFFFFFFFFF SWAP1 DUP3 SWAP1 PUSH0 SWAP1 PUSH2 0x1F86 JUMPI PUSH2 0x1F86 PUSH2 0x3C60 JUMP JUMPDEST PUSH1 0x20 MUL PUSH1 0x20 ADD ADD MLOAD PUSH1 0x1 PUSH1 0x2 DUP2 LT PUSH2 0x1FA0 JUMPI PUSH2 0x1FA0 PUSH2 0x3C60 JUMP JUMPDEST PUSH1 0x20 MUL ADD DUP2 DUP2 MSTORE POP POP PUSH2 0x1FE3 DUP5 DUP3 PUSH0 DUP2 MLOAD DUP2 LT PUSH2 0x1FBF JUMPI PUSH2 0x1FBF PUSH2 0x3C60 JUMP JUMPDEST PUSH1 0x20 MUL PUSH1 0x20 ADD ADD MLOAD PUSH1 0x1 PUSH1 0x2 DUP2 LT PUSH2 0x1FD9 JUMPI PUSH2 0x1FD9 PUSH2 0x3C60 JUMP JUMPDEST PUSH1 0x20 MUL ADD MLOAD PUSH2 0x29E0 JUMP JUMPDEST ISZERO PUSH2 0x21B0 JUMPI PUSH0 DUP6 PUSH1 0x1 PUSH1 0x1 PUSH1 0xA0 SHL SUB AND PUSH4 0x7594CDC3 PUSH1 0x40 MLOAD DUP2 PUSH4 0xFFFFFFFF AND PUSH1 0xE0 SHL DUP2 MSTORE PUSH1 0x4 ADD PUSH1 0x20 PUSH1 0x40 MLOAD DUP1 DUP4 SUB DUP2 DUP7 GAS STATICCALL ISZERO DUP1 ISZERO PUSH2 0x2025 JUMPI RETURNDATASIZE PUSH0 PUSH0 RETURNDATACOPY RETURNDATASIZE PUSH0 REVERT JUMPDEST POP POP POP POP PUSH1 0x40 MLOAD RETURNDATASIZE PUSH1 0x1F NOT PUSH1 0x1F DUP3 ADD AND DUP3 ADD DUP1 PUSH1 0x40 MSTORE POP DUP2 ADD SWAP1 PUSH2 0x2049 SWAP2 SWAP1 PUSH2 0x3DCF JUMP JUMPDEST PUSH1 0x1 PUSH1 0x1 PUSH1 0xA0 SHL SUB AND PUSH4 0x9E08510 PUSH2 0xDEAD DUP7 DUP6 PUSH0 PUSH0 PUSH1 0x40 MLOAD DUP7 PUSH4 0xFFFFFFFF AND PUSH1 0xE0 SHL DUP2 MSTORE PUSH1 0x4 ADD PUSH2 0x207E SWAP6 SWAP5 SWAP4 SWAP3 SWAP2 SWAP1 PUSH2 0x40B4 JUMP JUMPDEST PUSH1 0x20 PUSH1 0x40 MLOAD DUP1 DUP4 SUB DUP2 DUP7 GAS STATICCALL ISZERO DUP1 ISZERO PUSH2 0x2099 JUMPI RETURNDATASIZE PUSH0 PUSH0 RETURNDATACOPY RETURNDATASIZE PUSH0 REVERT JUMPDEST POP POP POP POP PUSH1 0x40 MLOAD RETURNDATASIZE PUSH1 0x1F NOT PUSH1 0x1F DUP3 ADD AND DUP3 ADD DUP1 PUSH1 0x40 MSTORE POP DUP2 ADD SWAP1 PUSH2 0x20BD SWAP2 SWAP1 PUSH2 0x3D55 JUMP JUMPDEST SWAP1 POP PUSH0 DUP7 PUSH1 0x1 PUSH1 0x1 PUSH1 0xA0 SHL SUB AND PUSH4 0x4D7B0900 PUSH1 0x40 MLOAD DUP2 PUSH4 0xFFFFFFFF AND PUSH1 0xE0 SHL DUP2 MSTORE PUSH1 0x4 ADD PUSH1 0x20 PUSH1 0x40 MLOAD DUP1 DUP4 SUB DUP2 DUP7 GAS STATICCALL ISZERO DUP1 ISZERO PUSH2 0x20FC JUMPI RETURNDATASIZE PUSH0 PUSH0 RETURNDATACOPY RETURNDATASIZE PUSH0 REVERT JUMPDEST POP POP POP POP PUSH1 0x40 MLOAD RETURNDATASIZE PUSH1 0x1F NOT PUSH1 0x1F DUP3 ADD AND DUP3 ADD DUP1 PUSH1 0x40 MSTORE POP DUP2 ADD SWAP1 PUSH2 0x2120 SWAP2 SWAP1 PUSH2 0x3DCF JUMP JUMPDEST PUSH1 0x1 PUSH1 0x1 PUSH1 0xA0 SHL SUB AND PUSH4 0x9E08510 PUSH2 0xDEAD DUP8 DUP7 PUSH0 PUSH0 PUSH1 0x40 MLOAD DUP7 PUSH4 0xFFFFFFFF AND PUSH1 0xE0 SHL DUP2 MSTORE PUSH1 0x4 ADD PUSH2 0x2155 SWAP6 SWAP5 SWAP4 SWAP3 SWAP2 SWAP1 PUSH2 0x40B4 JUMP JUMPDEST PUSH1 0x20 PUSH1 0x40 MLOAD DUP1 DUP4 SUB DUP2 DUP7 GAS STATICCALL ISZERO DUP1 ISZERO PUSH2 0x2170 JUMPI RETURNDATASIZE PUSH0 PUSH0 RETURNDATACOPY RETURNDATASIZE PUSH0 REVERT JUMPDEST POP POP POP POP PUSH1 0x40 MLOAD RETURNDATASIZE PUSH1 0x1F NOT PUSH1 0x1F DUP3 ADD AND DUP3 ADD DUP1 PUSH1 0x40 MSTORE POP DUP2 ADD SWAP1 PUSH2 0x2194 SWAP2 SWAP1 PUSH2 0x3D55 JUMP JUMPDEST SWAP1 POP PUSH0 PUSH2 0x21A3 DUP4 DUP4 PUSH0 DUP10 PUSH2 0x2B02 JUMP JUMPDEST SWAP6 POP PUSH2 0x15E8 SWAP5 POP POP POP POP POP JUMP JUMPDEST POP PUSH1 0x1 PUSH1 0x1 PUSH1 0x80 SHL SUB SWAP1 POP PUSH2 0x15E8 JUMP JUMPDEST PUSH0 PUSH0 PUSH0 PUSH0 PUSH0 DUP11 PUSH1 0x1 PUSH1 0x1 PUSH1 0xA0 SHL SUB AND PUSH4 0x59516122 DUP12 PUSH0 DUP11 DUP11 PUSH1 0x40 MLOAD DUP6 PUSH4 0xFFFFFFFF AND PUSH1 0xE0 SHL DUP2 MSTORE PUSH1 0x4 ADD PUSH2 0x21F7 SWAP5 SWAP4 SWAP3 SWAP2 SWAP1 PUSH2 0x40FF JUMP JUMPDEST PUSH0 PUSH1 0x40 MLOAD DUP1 DUP4 SUB DUP2 DUP7 GAS STATICCALL ISZERO DUP1 ISZERO PUSH2 0x2211 JUMPI RETURNDATASIZE PUSH0 PUSH0 RETURNDATACOPY RETURNDATASIZE PUSH0 REVERT JUMPDEST POP POP POP POP PUSH1 0x40 MLOAD RETURNDATASIZE PUSH0 DUP3 RETURNDATACOPY PUSH1 0x1F RETURNDATASIZE SWAP1 DUP2 ADD PUSH1 0x1F NOT AND DUP3 ADD PUSH1 0x40 MSTORE PUSH2 0x2238 SWAP2 SWAP1 DUP2 ADD SWAP1 PUSH2 0x3F77 JUMP JUMPDEST SWAP3 POP SWAP3 POP SWAP3 POP PUSH0 DUP12 PUSH1 0x1 PUSH1 0x1 PUSH1 0xA0 SHL SUB AND PUSH4 0x7594CDC3 PUSH1 0x40 MLOAD DUP2 PUSH4 0xFFFFFFFF AND PUSH1 0xE0 SHL DUP2 MSTORE PUSH1 0x4 ADD PUSH1 0x20 PUSH1 0x40 MLOAD DUP1 DUP4 SUB DUP2 DUP7 GAS STATICCALL ISZERO DUP1 ISZERO PUSH2 0x227B JUMPI RETURNDATASIZE PUSH0 PUSH0 RETURNDATACOPY RETURNDATASIZE PUSH0 REVERT JUMPDEST POP POP POP POP PUSH1 0x40 MLOAD RETURNDATASIZE PUSH1 0x1F NOT PUSH1 0x1F DUP3 ADD AND DUP3 ADD DUP1 PUSH1 0x40 MSTORE POP DUP2 ADD SWAP1 PUSH2 0x229F SWAP2 SWAP1 PUSH2 0x3DCF JUMP JUMPDEST PUSH1 0x1 PUSH1 0x1 PUSH1 0xA0 SHL SUB AND PUSH4 0x9E08510 DUP13 DUP13 DUP6 DUP9 DUP9 PUSH1 0x40 MLOAD DUP7 PUSH4 0xFFFFFFFF AND PUSH1 0xE0 SHL DUP2 MSTORE PUSH1 0x4 ADD PUSH2 0x22D2 SWAP6 SWAP5 SWAP4 SWAP3 SWAP2 SWAP1 PUSH2 0x40B4 JUMP JUMPDEST PUSH1 0x20 PUSH1 0x40 MLOAD DUP1 DUP4 SUB DUP2 DUP7 GAS STATICCALL ISZERO DUP1 ISZERO PUSH2 0x22ED JUMPI RETURNDATASIZE PUSH0 PUSH0 RETURNDATACOPY RETURNDATASIZE PUSH0 REVERT JUMPDEST POP POP POP POP PUSH1 0x40 MLOAD RETURNDATASIZE PUSH1 0x1F NOT PUSH1 0x1F DUP3 ADD AND DUP3 ADD DUP1 PUSH1 0x40 MSTORE POP DUP2 ADD SWAP1 PUSH2 0x2311 SWAP2 SWAP1 PUSH2 0x3D55 JUMP JUMPDEST SWAP1 POP PUSH0 DUP13 PUSH1 0x1 PUSH1 0x1 PUSH1 0xA0 SHL SUB AND PUSH4 0x4D7B0900 PUSH1 0x40 MLOAD DUP2 PUSH4 0xFFFFFFFF AND PUSH1 0xE0 SHL DUP2 MSTORE PUSH1 0x4 ADD PUSH1 0x20 PUSH1 0x40 MLOAD DUP1 DUP4 SUB DUP2 DUP7 GAS STATICCALL ISZERO DUP1 ISZERO PUSH2 0x2350 JUMPI RETURNDATASIZE PUSH0 PUSH0 RETURNDATACOPY RETURNDATASIZE PUSH0 REVERT JUMPDEST POP POP POP POP PUSH1 0x40 MLOAD RETURNDATASIZE PUSH1 0x1F NOT PUSH1 0x1F DUP3 ADD AND DUP3 ADD DUP1 PUSH1 0x40 MSTORE POP DUP2 ADD SWAP1 PUSH2 0x2374 SWAP2 SWAP1 PUSH2 0x3DCF JUMP JUMPDEST PUSH1 0x1 PUSH1 0x1 PUSH1 0xA0 SHL SUB AND PUSH4 0x9E08510 DUP14 DUP14 DUP7 PUSH2 0x238F DUP11 PUSH1 0x80 SHR SWAP1 JUMP JUMPDEST PUSH2 0x2399 DUP11 PUSH1 0x80 SHR SWAP1 JUMP JUMPDEST PUSH1 0x40 MLOAD DUP7 PUSH4 0xFFFFFFFF AND PUSH1 0xE0 SHL DUP2 MSTORE PUSH1 0x4 ADD PUSH2 0x23B9 SWAP6 SWAP5 SWAP4 SWAP3 SWAP2 SWAP1 PUSH2 0x40B4 JUMP JUMPDEST PUSH1 0x20 PUSH1 0x40 MLOAD DUP1 DUP4 SUB DUP2 DUP7 GAS STATICCALL ISZERO DUP1 ISZERO PUSH2 0x23D4 JUMPI RETURNDATASIZE PUSH0 PUSH0 RETURNDATACOPY RETURNDATASIZE PUSH0 REVERT JUMPDEST POP POP POP POP PUSH1 0x40 MLOAD RETURNDATASIZE PUSH1 0x1F NOT PUSH1 0x1F DUP3 ADD AND DUP3 ADD DUP1 PUSH1 0x40 MSTORE POP DUP2 ADD SWAP1 PUSH2 0x23F8 SWAP2 SWAP1 PUSH2 0x3D55 JUMP JUMPDEST SWAP1 POP PUSH2 0x2406 DUP3 DUP3 DUP13 DUP15 PUSH2 0x2B02 JUMP JUMPDEST SWAP7 POP SWAP7 POP POP POP POP POP POP SWAP7 POP SWAP7 SWAP5 POP POP POP POP POP JUMP JUMPDEST PUSH0 PUSH2 0x2434 DUP7 DUP7 DUP7 PUSH2 0x242B DUP8 DUP3 PUSH2 0x3CF9 JUMP JUMPDEST DUP7 PUSH1 0x1 PUSH0 PUSH2 0x71C JUMP JUMPDEST SWAP1 POP PUSH2 0x2450 PUSH0 DUP7 DUP7 PUSH2 0x2446 DUP8 DUP3 PUSH2 0x3CD4 JUMP JUMPDEST DUP7 PUSH1 0x1 PUSH1 0x2 PUSH2 0xF8A JUMP JUMPDEST PUSH2 0x1EA4 SWAP1 DUP3 PUSH2 0x3DBC JUMP JUMPDEST PUSH1 0x40 MLOAD PUSH4 0x2D60BEFD PUSH1 0xE1 SHL DUP2 MSTORE PUSH1 0x1 PUSH1 0x1 PUSH1 0xA0 SHL SUB DUP4 AND PUSH1 0x4 DUP3 ADD MSTORE PUSH4 0xFFFFFFFF DUP3 AND PUSH1 0x24 DUP3 ADD MSTORE PUSH0 SWAP1 PUSH20 0x0 SWAP1 PUSH4 0x5AC17DFA SWAP1 PUSH1 0x44 ADD PUSH1 0x20 PUSH1 0x40 MLOAD DUP1 DUP4 SUB DUP2 DUP7 GAS DELEGATECALL ISZERO DUP1 ISZERO PUSH2 0x24BE JUMPI RETURNDATASIZE PUSH0 PUSH0 RETURNDATACOPY RETURNDATASIZE PUSH0 REVERT JUMPDEST POP POP POP POP PUSH1 0x40 MLOAD RETURNDATASIZE PUSH1 0x1F NOT PUSH1 0x1F DUP3 ADD AND DUP3 ADD DUP1 PUSH1 0x40 MSTORE POP DUP2 ADD SWAP1 PUSH2 0x24E2 SWAP2 SWAP1 PUSH2 0x4153 JUMP JUMPDEST SWAP1 POP JUMPDEST SWAP3 SWAP2 POP POP JUMP JUMPDEST PUSH0 PUSH2 0x7F1 DUP9 DUP9 DUP9 DUP9 DUP10 DUP10 DUP10 DUP10 PUSH2 0xF09 JUMP JUMPDEST PUSH0 PUSH2 0x7F1 DUP9 DUP9 DUP9 DUP9 DUP10 DUP10 DUP10 DUP10 PUSH2 0x1DFE JUMP JUMPDEST PUSH1 0x40 MLOAD PUSH4 0xCAA9A08D PUSH1 0xE0 SHL DUP2 MSTORE PUSH1 0x1 PUSH1 0x1 PUSH1 0xA0 SHL SUB DUP9 DUP2 AND PUSH1 0x4 DUP4 ADD MSTORE PUSH0 SWAP2 PUSH2 0x2561 SWAP2 PUSH32 0x0 AND SWAP1 PUSH4 0xCAA9A08D SWAP1 PUSH1 0x24 ADD PUSH2 0x76C JUMP JUMPDEST SWAP1 POP PUSH2 0x2576 DUP2 DUP4 DUP6 DUP9 DUP9 PUSH2 0x7CE DUP5 PUSH1 0x1 PUSH2 0x3DBC JUMP JUMPDEST SWAP1 POP PUSH2 0x7F1 DUP2 PUSH2 0x2587 DUP5 PUSH1 0x1 PUSH2 0x3DBC JUMP JUMPDEST DUP6 DUP9 DUP9 DUP8 DUP13 DUP15 PUSH2 0x2938 JUMP JUMPDEST PUSH0 PUSH27 0xFE0000000000FE0000000000FE0000000000FE0000000000000000 DUP3 AND PUSH1 0x1 PUSH1 0x40 SHL DUP2 LT ISZERO PUSH2 0x25C5 JUMPI POP PUSH0 SWAP3 SWAP2 POP POP JUMP JUMPDEST PUSH1 0x1 PUSH1 0x70 SHL DUP2 LT ISZERO PUSH2 0x25DA JUMPI POP PUSH1 0x1 SWAP3 SWAP2 POP POP JUMP JUMPDEST PUSH1 0x1 PUSH1 0xA0 SHL DUP2 LT ISZERO PUSH2 0x25EF JUMPI POP PUSH1 0x2 SWAP3 SWAP2 POP POP JUMP JUMPDEST PUSH1 0x1 PUSH1 0xD0 SHL DUP2 LT ISZERO PUSH2 0x2604 JUMPI POP PUSH1 0x3 SWAP3 SWAP2 POP POP JUMP JUMPDEST POP PUSH1 0x4 SWAP3 SWAP2 POP POP JUMP JUMPDEST PUSH0 PUSH2 0xD39 DUP10 DUP10 DUP10 DUP10 DUP10 PUSH0 DUP11 DUP11 DUP11 PUSH2 0x2B26 JUMP JUMPDEST PUSH0 PUSH0 PUSH0 PUSH2 0x2630 DUP9 DUP9 DUP9 PUSH0 DUP10 DUP10 PUSH2 0x21C0 JUMP JUMPDEST SWAP1 SWAP3 POP SWAP1 POP PUSH2 0x7F1 DUP2 DUP4 PUSH2 0x3E96 JUMP JUMPDEST PUSH2 0x2649 DUP2 PUSH0 PUSH2 0x297B JUMP JUMPDEST PUSH0 SUB PUSH2 0x2670 JUMPI PUSH1 0x40 MLOAD PUSH4 0x93DB0263 PUSH1 0xE0 SHL DUP2 MSTORE PUSH1 0x1 PUSH1 0x4 DUP3 ADD MSTORE PUSH1 0x24 ADD JUMPDEST PUSH1 0x40 MLOAD DUP1 SWAP2 SUB SWAP1 REVERT JUMPDEST PUSH24 0xFFFFFFFFF200FFFFFFFFF200FFFFFFFFF200FFFFFFFFF200 PUSH1 0x40 DUP3 SWAP1 SHR AND PUSH0 JUMPDEST PUSH1 0x4 DUP2 LT ISZERO PUSH2 0x26D5 JUMPI PUSH2 0x26A4 DUP4 DUP3 PUSH2 0x297B JUMP JUMPDEST PUSH0 SUB PUSH2 0x26DA JUMPI PUSH1 0x40 PUSH1 0x30 DUP3 MUL ADD DUP4 SWAP1 SHR ISZERO PUSH2 0x26D5 JUMPI PUSH1 0x40 MLOAD PUSH4 0x93DB0263 PUSH1 0xE0 SHL DUP2 MSTORE PUSH1 0x1 PUSH1 0x4 DUP3 ADD MSTORE PUSH1 0x24 ADD PUSH2 0x2667 JUMP JUMPDEST POP POP POP JUMP JUMPDEST PUSH0 PUSH2 0x26E4 DUP5 PUSH2 0x2592 JUMP JUMPDEST SWAP1 POP PUSH1 0x1 DUP3 ADD JUMPDEST DUP2 DUP2 LT ISZERO PUSH2 0x273A JUMPI DUP1 PUSH1 0x30 MUL DUP5 SWAP1 SHR PUSH6 0xFFFFFFFFFFFF AND DUP4 PUSH1 0x30 MUL DUP6 SWAP1 SHR PUSH6 0xFFFFFFFFFFFF AND SUB PUSH2 0x2732 JUMPI PUSH1 0x40 MLOAD PUSH4 0x93DB0263 PUSH1 0xE0 SHL DUP2 MSTORE PUSH1 0x6 PUSH1 0x4 DUP3 ADD MSTORE PUSH1 0x24 ADD PUSH2 0x2667 JUMP JUMPDEST PUSH1 0x1 ADD PUSH2 0x26EB JUMP JUMPDEST POP PUSH2 0x2745 DUP5 DUP4 PUSH2 0x29CD JUMP JUMPDEST PUSH1 0x2 SIGNEXTEND PUSH0 SUB PUSH2 0x276A JUMPI PUSH1 0x40 MLOAD PUSH4 0x93DB0263 PUSH1 0xE0 SHL DUP2 MSTORE PUSH1 0x5 PUSH1 0x4 DUP3 ADD MSTORE PUSH1 0x24 ADD PUSH2 0x2667 JUMP JUMPDEST PUSH3 0xD89E7 NOT PUSH2 0x277E DUP6 DUP5 PUSH1 0x30 MUL PUSH1 0x4C ADD SHR SWAP1 JUMP JUMPDEST PUSH1 0x2 SIGNEXTEND EQ DUP1 PUSH2 0x27A0 JUMPI POP PUSH3 0xD89E8 PUSH2 0x279B DUP6 DUP5 PUSH1 0x30 MUL PUSH1 0x4C ADD SHR SWAP1 JUMP JUMPDEST PUSH1 0x2 SIGNEXTEND EQ JUMPDEST ISZERO PUSH2 0x27C0 JUMPI PUSH1 0x40 MLOAD PUSH4 0x93DB0263 PUSH1 0xE0 SHL DUP2 MSTORE PUSH1 0x4 DUP2 DUP2 ADD MSTORE PUSH1 0x24 ADD PUSH2 0x2667 JUMP JUMPDEST PUSH0 PUSH2 0x27CB DUP6 DUP5 PUSH2 0x29B1 JUMP JUMPDEST SWAP1 POP DUP3 DUP2 EQ PUSH2 0x28F7 JUMPI DUP3 PUSH2 0x27DF DUP7 DUP4 PUSH2 0x29B1 JUMP JUMPDEST EQ PUSH2 0x2800 JUMPI PUSH1 0x40 MLOAD PUSH4 0x93DB0263 PUSH1 0xE0 SHL DUP2 MSTORE PUSH1 0x3 PUSH1 0x4 DUP3 ADD MSTORE PUSH1 0x24 ADD PUSH2 0x2667 JUMP JUMPDEST PUSH2 0x280A DUP6 DUP5 PUSH2 0x2965 JUMP JUMPDEST PUSH2 0x2814 DUP7 DUP4 PUSH2 0x2965 JUMP JUMPDEST EQ ISZERO DUP1 PUSH2 0x2833 JUMPI POP PUSH2 0x2826 DUP6 DUP5 PUSH2 0x297B JUMP JUMPDEST PUSH2 0x2830 DUP7 DUP4 PUSH2 0x297B JUMP JUMPDEST EQ ISZERO JUMPDEST ISZERO PUSH2 0x2854 JUMPI PUSH1 0x40 MLOAD PUSH4 0x93DB0263 PUSH1 0xE0 SHL DUP2 MSTORE PUSH1 0x3 PUSH1 0x4 DUP3 ADD MSTORE PUSH1 0x24 ADD PUSH2 0x2667 JUMP JUMPDEST PUSH0 PUSH2 0x285F DUP7 DUP6 PUSH2 0x299F JUMP JUMPDEST SWAP1 POP PUSH0 PUSH2 0x286C DUP8 DUP5 PUSH2 0x299F JUMP JUMPDEST SWAP1 POP PUSH0 PUSH2 0x2879 DUP9 DUP8 PUSH2 0x298D JUMP JUMPDEST SWAP1 POP PUSH0 PUSH2 0x2886 DUP10 DUP7 PUSH2 0x298D JUMP JUMPDEST SWAP1 POP DUP3 DUP5 EQ DUP1 ISZERO PUSH2 0x2896 JUMPI POP DUP1 DUP3 EQ JUMPDEST ISZERO PUSH2 0x28B6 JUMPI PUSH1 0x40 MLOAD PUSH4 0x93DB0263 PUSH1 0xE0 SHL DUP2 MSTORE PUSH1 0x4 DUP2 DUP2 ADD MSTORE PUSH1 0x24 ADD PUSH2 0x2667 JUMP JUMPDEST DUP3 DUP5 EQ ISZERO DUP1 PUSH2 0x28C5 JUMPI POP DUP4 PUSH1 0x1 EQ JUMPDEST DUP1 ISZERO PUSH2 0x28D1 JUMPI POP DUP1 DUP3 EQ ISZERO JUMPDEST ISZERO PUSH2 0x28F2 JUMPI PUSH1 0x40 MLOAD PUSH4 0x93DB0263 PUSH1 0xE0 SHL DUP2 MSTORE PUSH1 0x5 PUSH1 0x4 DUP3 ADD MSTORE PUSH1 0x24 ADD PUSH2 0x2667 JUMP JUMPDEST POP POP POP POP JUMPDEST POP POP PUSH1 0x1 ADD PUSH2 0x2691 JUMP JUMPDEST PUSH0 DUP1 PUSH2 0x292D PUSH2 0x2915 DUP6 DUP6 PUSH1 0x30 MUL PUSH1 0x4C ADD SHR SWAP1 JUMP JUMPDEST PUSH2 0x291F DUP7 DUP7 PUSH2 0x29CD JUMP JUMPDEST PUSH1 0x30 DUP8 SWAP1 SHR PUSH2 0xFFFF AND PUSH2 0x2B97 JUMP JUMPDEST SWAP1 SWAP6 SWAP1 SWAP5 POP SWAP3 POP POP POP JUMP JUMPDEST PUSH0 PUSH2 0xD39 DUP10 DUP10 DUP10 DUP10 DUP10 PUSH1 0x1 DUP11 DUP11 DUP11 PUSH2 0x2B26 JUMP JUMPDEST PUSH0 PUSH1 0x4A PUSH1 0x30 DUP4 MUL ADD PUSH1 0x4 DUP5 JUMPDEST MOD SWAP1 SHL DUP5 ADD SWAP1 POP SWAP4 SWAP3 POP POP POP JUMP JUMPDEST PUSH0 PUSH1 0x2 PUSH1 0x40 PUSH1 0x30 DUP5 MUL ADD DUP5 SWAP1 SHR JUMPDEST MOD SWAP4 SWAP3 POP POP POP JUMP JUMPDEST PUSH0 PUSH1 0x80 PUSH1 0x41 PUSH1 0x30 DUP5 MUL ADD DUP5 SWAP1 SHR PUSH2 0x2973 JUMP JUMPDEST PUSH0 PUSH1 0x2 PUSH1 0x49 PUSH1 0x30 DUP5 MUL ADD DUP5 SWAP1 SHR PUSH2 0x2973 JUMP JUMPDEST PUSH0 PUSH1 0x2 PUSH1 0x48 PUSH1 0x30 DUP5 MUL ADD DUP5 SWAP1 SHR PUSH2 0x2973 JUMP JUMPDEST PUSH0 PUSH1 0x4 PUSH1 0x4A PUSH1 0x30 DUP5 MUL ADD DUP5 SWAP1 SHR PUSH2 0x2973 JUMP JUMPDEST PUSH1 0x30 MUL PUSH1 0x4C ADD SHR SWAP1 JUMP JUMPDEST PUSH0 PUSH2 0x1000 PUSH1 0x64 PUSH1 0x30 DUP5 MUL ADD DUP5 SWAP1 SHR PUSH2 0x2973 JUMP JUMPDEST PUSH0 PUSH0 JUMPDEST PUSH2 0x29EC DUP5 PUSH2 0x2592 JUMP JUMPDEST DUP2 LT ISZERO PUSH2 0x2AF8 JUMPI PUSH0 DUP1 DUP1 DUP1 PUSH2 0x2A01 DUP9 DUP7 PUSH2 0x2901 JUMP JUMPDEST SWAP2 POP SWAP2 POP PUSH0 PUSH2 0x2A32 PUSH2 0x2A12 DUP5 PUSH2 0x2C75 JUMP JUMPDEST PUSH1 0x1 PUSH1 0x1 PUSH1 0xA0 SHL SUB AND PUSH2 0x2A24 DUP5 PUSH2 0x2C75 JUMP JUMPDEST PUSH1 0x1 PUSH1 0x1 PUSH1 0xA0 SHL SUB AND PUSH2 0x2F90 JUMP JUMPDEST SWAP1 POP DUP1 PUSH0 SUB PUSH2 0x2A49 JUMPI PUSH0 SWAP7 POP POP POP POP POP POP POP PUSH2 0x24E5 JUMP JUMPDEST PUSH2 0x2A53 DUP10 DUP8 PUSH2 0x2965 JUMP JUMPDEST PUSH0 SUB PUSH2 0x2A89 JUMPI PUSH2 0x2A63 DUP10 DUP8 PUSH2 0x297B JUMP JUMPDEST PUSH2 0x2A6D SWAP1 DUP10 PUSH2 0x416E JUMP JUMPDEST PUSH1 0x1 PUSH1 0x1 PUSH1 0x80 SHL SUB AND SWAP5 POP PUSH2 0x2A82 DUP6 DUP3 PUSH2 0x2FEE JUMP JUMPDEST SWAP4 POP PUSH2 0x2ABA JUMP JUMPDEST PUSH2 0x2A93 DUP10 DUP8 PUSH2 0x297B JUMP JUMPDEST PUSH2 0x2A9D SWAP1 DUP10 PUSH2 0x416E JUMP JUMPDEST PUSH1 0x1 PUSH1 0x1 PUSH1 0x80 SHL SUB AND SWAP4 POP PUSH2 0x2AB7 DUP5 PUSH1 0x1 PUSH1 0x60 SHL DUP4 PUSH2 0x301F JUMP JUMPDEST SWAP5 POP JUMPDEST PUSH1 0x1 PUSH1 0x1 PUSH1 0x78 SHL SUB DUP6 GT DUP1 PUSH2 0x2AD5 JUMPI POP PUSH1 0x1 PUSH1 0x1 PUSH1 0x78 SHL SUB DUP5 GT JUMPDEST ISZERO PUSH2 0x2AE8 JUMPI PUSH0 SWAP7 POP POP POP POP POP POP POP PUSH2 0x24E5 JUMP JUMPDEST POP POP POP POP POP DUP1 PUSH1 0x1 ADD SWAP1 POP PUSH2 0x29E3 JUMP JUMPDEST POP PUSH1 0x1 SWAP4 SWAP3 POP POP POP JUMP JUMPDEST PUSH0 PUSH0 PUSH2 0x2B18 DUP7 DUP7 DUP7 PUSH2 0x2B13 DUP8 PUSH2 0x2C75 JUMP JUMPDEST PUSH2 0x305B JUMP JUMPDEST SWAP2 POP SWAP2 POP JUMPDEST SWAP5 POP SWAP5 SWAP3 POP POP POP JUMP JUMPDEST PUSH0 PUSH2 0x2B32 DUP11 DUP10 DUP12 PUSH2 0x3118 JUMP JUMPDEST SWAP1 POP PUSH2 0x2B3F DUP2 DUP9 DUP12 PUSH2 0x3128 JUMP JUMPDEST SWAP1 POP PUSH2 0x2B4C DUP2 DUP8 DUP12 PUSH2 0x3138 JUMP JUMPDEST SWAP1 POP PUSH2 0x2B59 DUP2 DUP7 DUP12 PUSH2 0x3148 JUMP JUMPDEST SWAP1 POP PUSH2 0x2B66 DUP2 DUP6 DUP12 PUSH2 0x294B JUMP JUMPDEST SWAP1 POP PUSH3 0xFFFFFF DUP4 AND PUSH1 0x4C PUSH1 0x30 DUP12 MUL ADD SHL DUP2 ADD SWAP1 POP PUSH2 0xFFF DUP3 AND PUSH1 0x64 PUSH1 0x30 DUP12 MUL ADD SHL DUP2 ADD SWAP11 SWAP10 POP POP POP POP POP POP POP POP POP POP JUMP JUMPDEST PUSH0 DUP1 DUP1 DUP4 PUSH1 0x2 DUP2 SWAP1 SIGNEXTEND PUSH3 0xD89E7 NOT DUP2 PUSH2 0x2BB2 JUMPI PUSH2 0x2BB2 PUSH2 0x3C74 JUMP JUMPDEST SDIV MUL SWAP1 POP PUSH0 DUP5 PUSH1 0x2 DUP2 SWAP1 SIGNEXTEND PUSH3 0xD89E8 DUP2 PUSH2 0x2BCE JUMPI PUSH2 0x2BCE PUSH2 0x3C74 JUMP JUMPDEST SDIV MUL SWAP1 POP PUSH0 PUSH0 PUSH2 0x2BDE DUP9 DUP9 PUSH2 0x3158 JUMP JUMPDEST DUP2 DUP12 SUB SWAP8 POP DUP11 DUP2 ADD SWAP7 POP SWAP1 SWAP3 POP SWAP1 POP PUSH1 0x2 DUP8 DUP2 SIGNEXTEND SWAP1 DUP8 SWAP1 SIGNEXTEND DUP2 PUSH2 0x2C03 JUMPI PUSH2 0x2C03 PUSH2 0x3C74 JUMP JUMPDEST SMOD PUSH1 0x2 SIGNEXTEND ISZERO ISZERO DUP1 PUSH2 0x2C2B JUMPI POP DUP7 PUSH1 0x2 SIGNEXTEND DUP6 PUSH1 0x2 SIGNEXTEND DUP2 PUSH2 0x2C24 JUMPI PUSH2 0x2C24 PUSH2 0x3C74 JUMP JUMPDEST SMOD PUSH1 0x2 SIGNEXTEND ISZERO ISZERO JUMPDEST DUP1 PUSH2 0x2C3B JUMPI POP DUP4 PUSH1 0x2 SIGNEXTEND DUP7 PUSH1 0x2 SIGNEXTEND SLT JUMPDEST DUP1 PUSH2 0x2C4B JUMPI POP DUP3 PUSH1 0x2 SIGNEXTEND DUP6 PUSH1 0x2 SIGNEXTEND SGT JUMPDEST ISZERO PUSH2 0x2C69 JUMPI PUSH1 0x40 MLOAD PUSH4 0xC82825F5 PUSH1 0xE0 SHL DUP2 MSTORE PUSH1 0x4 ADD PUSH1 0x40 MLOAD DUP1 SWAP2 SUB SWAP1 REVERT JUMPDEST POP POP POP POP SWAP4 POP SWAP4 SWAP2 POP POP JUMP JUMPDEST PUSH0 PUSH0 PUSH0 DUP4 PUSH1 0x2 SIGNEXTEND SLT PUSH2 0x2C8A JUMPI DUP3 PUSH1 0x2 SIGNEXTEND PUSH2 0x2C91 JUMP JUMPDEST DUP3 PUSH1 0x2 SIGNEXTEND PUSH0 SUB JUMPDEST SWAP1 POP PUSH3 0xD89E8 DUP2 GT ISZERO PUSH2 0x2CB7 JUMPI PUSH1 0x40 MLOAD PUSH4 0x33A3BDFF PUSH1 0xE2 SHL DUP2 MSTORE PUSH1 0x4 ADD PUSH1 0x40 MLOAD DUP1 SWAP2 SUB SWAP1 REVERT JUMPDEST PUSH0 DUP2 PUSH1 0x1 AND PUSH0 SUB PUSH2 0x2CCC JUMPI PUSH1 0x1 PUSH1 0x80 SHL PUSH2 0x2CDE JUMP JUMPDEST PUSH16 0xFFFCB933BD6FAD37AA2D162D1A594001 JUMPDEST PUSH17 0xFFFFFFFFFFFFFFFFFFFFFFFFFFFFFFFFFF AND SWAP1 POP PUSH1 0x2 DUP3 AND ISZERO PUSH2 0x2D12 JUMPI PUSH16 0xFFF97272373D413259A46990580E213A MUL PUSH1 0x80 SHR JUMPDEST PUSH1 0x4 DUP3 AND ISZERO PUSH2 0x2D31 JUMPI PUSH16 0xFFF2E50F5F656932EF12357CF3C7FDCC MUL PUSH1 0x80 SHR JUMPDEST PUSH1 0x8 DUP3 AND ISZERO PUSH2 0x2D50 JUMPI PUSH16 0xFFE5CACA7E10E4E61C3624EAA0941CD0 MUL PUSH1 0x80 SHR JUMPDEST PUSH1 0x10 DUP3 AND ISZERO PUSH2 0x2D6F JUMPI PUSH16 0xFFCB9843D60F6159C9DB58835C926644 MUL PUSH1 0x80 SHR JUMPDEST PUSH1 0x20 DUP3 AND ISZERO PUSH2 0x2D8E JUMPI PUSH16 0xFF973B41FA98C081472E6896DFB254C0 MUL PUSH1 0x80 SHR JUMPDEST PUSH1 0x40 DUP3 AND ISZERO PUSH2 0x2DAD JUMPI PUSH16 0xFF2EA16466C96A3843EC78B326B52861 MUL PUSH1 0x80 SHR JUMPDEST PUSH1 0x80 DUP3 AND ISZERO PUSH2 0x2DCC JUMPI PUSH16 0xFE5DEE046A99A2A811C461F1969C3053 MUL PUSH1 0x80 SHR JUMPDEST PUSH2 0x100 DUP3 AND ISZERO PUSH2 0x2DEC JUMPI PUSH16 0xFCBE86C7900A88AEDCFFC83B479AA3A4 MUL PUSH1 0x80 SHR JUMPDEST PUSH2 0x200 DUP3 AND ISZERO PUSH2 0x2E0C JUMPI PUSH16 0xF987A7253AC413176F2B074CF7815E54 MUL PUSH1 0x80 SHR JUMPDEST PUSH2 0x400 DUP3 AND ISZERO PUSH2 0x2E2C JUMPI PUSH16 0xF3392B0822B70005940C7A398E4B70F3 MUL PUSH1 0x80 SHR JUMPDEST PUSH2 0x800 DUP3 AND ISZERO PUSH2 0x2E4C JUMPI PUSH16 0xE7159475A2C29B7443B29C7FA6E889D9 MUL PUSH1 0x80 SHR JUMPDEST PUSH2 0x1000 DUP3 AND ISZERO PUSH2 0x2E6C JUMPI PUSH16 0xD097F3BDFD2022B8845AD8F792AA5825 MUL PUSH1 0x80 SHR JUMPDEST PUSH2 0x2000 DUP3 AND ISZERO PUSH2 0x2E8C JUMPI PUSH16 0xA9F746462D870FDF8A65DC1F90E061E5 MUL PUSH1 0x80 SHR JUMPDEST PUSH2 0x4000 DUP3 AND ISZERO PUSH2 0x2EAC JUMPI PUSH16 0x70D869A156D2A1B890BB3DF62BAF32F7 MUL PUSH1 0x80 SHR JUMPDEST PUSH2 0x8000 DUP3 AND ISZERO PUSH2 0x2ECC JUMPI PUSH16 0x31BE135F97D08FD981231505542FCFA6 MUL PUSH1 0x80 SHR JUMPDEST PUSH3 0x10000 DUP3 AND ISZERO PUSH2 0x2EED JUMPI PUSH16 0x9AA508B5B7A84E1C677DE54F3E99BC9 MUL PUSH1 0x80 SHR JUMPDEST PUSH3 0x20000 DUP3 AND ISZERO PUSH2 0x2F0D JUMPI PUSH15 0x5D6AF8DEDB81196699C329225EE604 MUL PUSH1 0x80 SHR JUMPDEST PUSH3 0x40000 DUP3 AND ISZERO PUSH2 0x2F2C JUMPI PUSH14 0x2216E584F5FA1EA926041BEDFE98 MUL PUSH1 0x80 SHR JUMPDEST PUSH3 0x80000 DUP3 AND ISZERO PUSH2 0x2F49 JUMPI PUSH12 0x48A170391F7DC42444E8FA2 MUL PUSH1 0x80 SHR JUMPDEST PUSH0 DUP5 PUSH1 0x2 SIGNEXTEND SGT ISZERO PUSH2 0x2F68 JUMPI DUP1 PUSH0 NOT DUP2 PUSH2 0x2F64 JUMPI PUSH2 0x2F64 PUSH2 0x3C74 JUMP JUMPDEST DIV SWAP1 POP JUMPDEST PUSH5 0x100000000 DUP2 MOD ISZERO PUSH2 0x2F7C JUMPI PUSH1 0x1 PUSH2 0x2F7E JUMP JUMPDEST PUSH0 JUMPDEST PUSH1 0xFF AND PUSH1 0x20 DUP3 SWAP1 SHR ADD SWAP3 POP POP POP SWAP2 SWAP1 POP JUMP JUMPDEST PUSH0 DUP1 DUP1 PUSH0 NOT DUP5 DUP7 MULMOD DUP5 DUP7 MUL SWAP3 POP DUP3 DUP2 LT DUP4 DUP3 SUB SUB SWAP2 POP POP DUP1 PUSH0 SUB PUSH2 0x2FB9 JUMPI POP PUSH1 0x60 SHR SWAP1 POP PUSH2 0x24E5 JUMP JUMPDEST DUP1 PUSH1 0x1 PUSH1 0x60 SHL GT PUSH2 0x2FC8 JUMPI PUSH0 PUSH0 REVERT JUMPDEST PUSH0 PUSH1 0x1 PUSH1 0x60 SHL DUP6 DUP8 MULMOD DUP1 DUP5 SUB PUSH1 0x60 SHR SWAP4 LT SWAP1 SWAP2 SUB PUSH1 0x1 PUSH1 0xA0 SHL MUL SWAP2 SWAP1 SWAP2 OR SWAP5 SWAP4 POP POP POP POP JUMP JUMPDEST PUSH0 PUSH2 0x2FF9 DUP4 DUP4 PUSH2 0x2F90 JUMP JUMPDEST SWAP1 POP PUSH0 PUSH1 0x1 PUSH1 0x60 SHL DUP4 DUP6 MULMOD GT ISZERO PUSH2 0x24E5 JUMPI PUSH0 NOT DUP2 LT PUSH2 0x3016 JUMPI PUSH0 PUSH0 REVERT JUMPDEST PUSH1 0x1 ADD SWAP3 SWAP2 POP POP JUMP JUMPDEST PUSH0 PUSH2 0x302B DUP5 DUP5 DUP5 PUSH2 0x319B JUMP JUMPDEST SWAP1 POP PUSH0 DUP3 DUP1 PUSH2 0x303C JUMPI PUSH2 0x303C PUSH2 0x3C74 JUMP JUMPDEST DUP5 DUP7 MULMOD GT ISZERO PUSH2 0x15E8 JUMPI PUSH0 NOT DUP2 LT PUSH2 0x3051 JUMPI PUSH0 PUSH0 REVERT JUMPDEST PUSH1 0x1 ADD SWAP4 SWAP3 POP POP POP JUMP JUMPDEST PUSH0 PUSH0 DUP4 PUSH0 SUB PUSH2 0x30CC JUMPI PUSH2 0x3077 DUP6 PUSH1 0x1 PUSH1 0x1 PUSH1 0x80 SHL SUB AND DUP5 PUSH2 0x3245 JUMP JUMPDEST PUSH2 0x308A SWAP1 PUSH1 0x1 PUSH1 0x1 PUSH1 0x80 SHL SUB DUP9 AND PUSH2 0x3DBC JUMP JUMPDEST PUSH2 0x30A6 PUSH2 0x3097 DUP8 PUSH1 0x80 SHR SWAP1 JUMP JUMPDEST PUSH1 0x1 PUSH1 0x1 PUSH1 0x80 SHL SUB AND DUP6 PUSH2 0x3245 JUMP JUMPDEST PUSH2 0x30B0 DUP9 PUSH1 0x80 SHR SWAP1 JUMP JUMPDEST PUSH1 0x1 PUSH1 0x1 PUSH1 0x80 SHL SUB AND PUSH2 0x30C3 SWAP2 SWAP1 PUSH2 0x3DBC JUMP JUMPDEST SWAP2 POP SWAP2 POP PUSH2 0x2B1D JUMP JUMPDEST PUSH2 0x30DF DUP7 PUSH1 0x1 PUSH1 0x1 PUSH1 0x80 SHL SUB AND DUP5 PUSH2 0x32A1 JUMP JUMPDEST PUSH2 0x30F2 SWAP1 PUSH1 0x1 PUSH1 0x1 PUSH1 0x80 SHL SUB DUP8 AND PUSH2 0x3DBC JUMP JUMPDEST PUSH2 0x310E PUSH2 0x30FF DUP9 PUSH1 0x80 SHR SWAP1 JUMP JUMPDEST PUSH1 0x1 PUSH1 0x1 PUSH1 0x80 SHL SUB AND DUP6 PUSH2 0x32A1 JUMP JUMPDEST PUSH2 0x30B0 DUP8 PUSH1 0x80 SHR SWAP1 JUMP JUMPDEST PUSH0 PUSH1 0x41 PUSH1 0x30 DUP4 MUL ADD PUSH1 0x80 DUP5 PUSH2 0x2957 JUMP JUMPDEST PUSH0 PUSH1 0x40 PUSH1 0x30 DUP4 MUL ADD PUSH1 0x2 DUP5 PUSH2 0x2957 JUMP JUMPDEST PUSH0 PUSH1 0x48 PUSH1 0x30 DUP4 MUL ADD PUSH1 0x2 DUP5 PUSH2 0x2957 JUMP JUMPDEST PUSH0 PUSH1 0x49 PUSH1 0x30 DUP4 MUL ADD PUSH1 0x2 DUP5 PUSH2 0x2957 JUMP JUMPDEST PUSH0 DUP1 PUSH1 0x2 PUSH2 0x3166 DUP5 DUP7 PUSH2 0x4190 JUMP JUMPDEST PUSH2 0x3170 SWAP2 SWAP1 PUSH2 0x3C9C JUMP JUMPDEST PUSH2 0x318F PUSH2 0x317D DUP6 DUP8 PUSH2 0x41AF JUMP JUMPDEST PUSH3 0xFFFFFF AND PUSH1 0x2 DUP1 DUP3 DIV SWAP2 MOD ISZERO ISZERO ADD SWAP1 JUMP JUMPDEST SWAP2 POP SWAP2 POP JUMPDEST SWAP3 POP SWAP3 SWAP1 POP JUMP JUMPDEST PUSH0 DUP1 DUP1 PUSH0 NOT DUP6 DUP8 MULMOD DUP6 DUP8 MUL SWAP3 POP DUP3 DUP2 LT DUP4 DUP3 SUB SUB SWAP2 POP POP DUP1 PUSH0 SUB PUSH2 0x31CF JUMPI PUSH0 DUP5 GT PUSH2 0x31C4 JUMPI PUSH0 PUSH0 REVERT JUMPDEST POP DUP3 SWAP1 DIV SWAP1 POP PUSH2 0x15E8 JUMP JUMPDEST DUP1 DUP5 GT PUSH2 0x31DA JUMPI PUSH0 PUSH0 REVERT JUMPDEST PUSH0 DUP5 DUP7 DUP9 MULMOD PUSH0 DUP7 DUP2 SUB DUP8 AND SWAP7 DUP8 SWAP1 DIV SWAP7 PUSH1 0x2 PUSH1 0x3 DUP10 MUL DUP2 XOR DUP1 DUP11 MUL DUP3 SUB MUL DUP1 DUP11 MUL DUP3 SUB MUL DUP1 DUP11 MUL DUP3 SUB MUL DUP1 DUP11 MUL DUP3 SUB MUL DUP1 DUP11 MUL DUP3 SUB MUL DUP1 DUP11 MUL SWAP1 SWAP2 SUB MUL SWAP2 DUP2 SWAP1 SUB DUP2 SWAP1 DIV PUSH1 0x1 ADD DUP7 DUP5 GT SWAP1 SWAP6 SUB SWAP5 SWAP1 SWAP5 MUL SWAP2 SWAP1 SWAP5 SUB SWAP3 SWAP1 SWAP3 DIV SWAP2 SWAP1 SWAP2 OR SWAP2 SWAP1 SWAP2 MUL SWAP2 POP POP SWAP4 SWAP3 POP POP POP JUMP JUMPDEST PUSH0 PUSH1 0x1 PUSH1 0x1 PUSH1 0x80 SHL SUB PUSH1 0x1 PUSH1 0x1 PUSH1 0xA0 SHL SUB DUP4 AND LT ISZERO PUSH2 0x3280 JUMPI PUSH2 0x3279 DUP4 PUSH1 0x1 PUSH1 0xC0 SHL PUSH1 0x2 DUP6 PUSH1 0x1 PUSH1 0x1 PUSH1 0xA0 SHL SUB AND EXP PUSH2 0x319B JUMP JUMPDEST SWAP1 POP PUSH2 0x24E5 JUMP JUMPDEST PUSH2 0x3279 DUP4 PUSH1 0x1 PUSH1 0x80 SHL PUSH2 0x329C PUSH1 0x1 PUSH1 0x1 PUSH1 0xA0 SHL SUB DUP7 AND DUP1 PUSH2 0x32EC JUMP JUMPDEST PUSH2 0x319B JUMP JUMPDEST PUSH0 PUSH1 0x1 PUSH1 0x1 PUSH1 0x80 SHL SUB PUSH1 0x1 PUSH1 0x1 PUSH1 0xA0 SHL SUB DUP4 AND LT ISZERO PUSH2 0x32D0 JUMPI PUSH2 0x3279 DUP4 PUSH1 0x2 DUP5 PUSH1 0x1 PUSH1 0x1 PUSH1 0xA0 SHL SUB AND EXP PUSH2 0x334A JUMP JUMPDEST PUSH2 0x3279 DUP4 PUSH2 0x32E7 PUSH1 0x1 PUSH1 0x1 PUSH1 0xA0 SHL SUB DUP6 AND DUP1 PUSH2 0x32EC JUMP JUMPDEST PUSH2 0x33A8 JUMP JUMPDEST PUSH0 DUP1 DUP1 PUSH0 NOT DUP5 DUP7 MULMOD DUP5 DUP7 MUL SWAP3 POP DUP3 DUP2 LT DUP4 DUP3 SUB SUB SWAP2 POP POP DUP1 PUSH0 SUB PUSH2 0x3315 JUMPI POP PUSH1 0x40 SHR SWAP1 POP PUSH2 0x24E5 JUMP JUMPDEST DUP1 PUSH1 0x1 PUSH1 0x40 SHL GT PUSH2 0x3324 JUMPI PUSH0 PUSH0 REVERT JUMPDEST PUSH0 PUSH1 0x1 PUSH1 0x40 SHL DUP6 DUP8 MULMOD DUP1 DUP5 SUB PUSH1 0x40 SHR SWAP4 LT SWAP1 SWAP2 SUB PUSH1 0x1 PUSH1 0xC0 SHL MUL SWAP2 SWAP1 SWAP2 OR SWAP5 SWAP4 POP POP POP POP JUMP JUMPDEST PUSH0 DUP1 DUP1 PUSH0 NOT DUP5 DUP7 MULMOD DUP5 DUP7 MUL SWAP3 POP DUP3 DUP2 LT DUP4 DUP3 SUB SUB SWAP2 POP POP DUP1 PUSH0 SUB PUSH2 0x3373 JUMPI POP PUSH1 0xC0 SHR SWAP1 POP PUSH2 0x24E5 JUMP JUMPDEST DUP1 PUSH1 0x1 PUSH1 0xC0 SHL GT PUSH2 0x3382 JUMPI PUSH0 PUSH0 REVERT JUMPDEST PUSH0 PUSH1 0x1 PUSH1 0xC0 SHL DUP6 DUP8 MULMOD DUP1 DUP5 SUB PUSH1 0xC0 SHR SWAP4 LT SWAP1 SWAP2 SUB PUSH1 0x1 PUSH1 0x40 SHL MUL SWAP2 SWAP1 SWAP2 OR SWAP5 SWAP4 POP POP POP POP JUMP JUMPDEST PUSH0 DUP1 DUP1 PUSH0 NOT DUP5 DUP7 MULMOD DUP5 DUP7 MUL SWAP3 POP DUP3 DUP2 LT DUP4 DUP3 SUB SUB SWAP2 POP POP DUP1 PUSH0 SUB PUSH2 0x33D1 JUMPI POP PUSH1 0x80 SHR SWAP1 POP PUSH2 0x24E5 JUMP JUMPDEST DUP1 PUSH1 0x1 PUSH1 0x80 SHL GT PUSH2 0x33E0 JUMPI PUSH0 PUSH0 REVERT JUMPDEST PUSH0 PUSH1 0x1 PUSH1 0x80 SHL DUP6 DUP8 MULMOD DUP1 DUP5 SUB PUSH1 0x80 SHR SWAP4 LT SWAP1 SWAP2 SUB PUSH1 0x1 PUSH1 0x80 SHL MUL SWAP2 SWAP1 SWAP2 OR SWAP5 SWAP4 POP POP POP POP JUMP JUMPDEST PUSH1 0x40 MLOAD DUP1 PUSH1 0x40 ADD PUSH1 0x40 MSTORE DUP1 PUSH1 0x2 SWAP1 PUSH1 0x20 DUP3 MUL DUP1 CALLDATASIZE DUP4 CALLDATACOPY POP SWAP2 SWAP3 SWAP2 POP POP JUMP JUMPDEST PUSH1 0x1 PUSH1 0x1 PUSH1 0xA0 SHL SUB DUP2 AND DUP2 EQ PUSH2 0x3438 JUMPI PUSH0 PUSH0 REVERT JUMPDEST POP JUMP JUMPDEST DUP1 PUSH1 0x2 SIGNEXTEND DUP2 EQ PUSH2 0x3438 JUMPI PUSH0 PUSH0 REVERT JUMPDEST PUSH0 PUSH0 PUSH0 PUSH0 PUSH0 PUSH0 PUSH0 PUSH1 0xE0 DUP9 DUP11 SUB SLT ISZERO PUSH2 0x345F JUMPI PUSH0 PUSH0 REVERT JUMPDEST DUP8 CALLDATALOAD PUSH2 0x346A DUP2 PUSH2 0x3424 JUMP JUMPDEST SWAP7 POP PUSH1 0x20 DUP9 ADD CALLDATALOAD PUSH2 0x347A DUP2 PUSH2 0x343B JUMP JUMPDEST SWAP6 POP PUSH1 0x40 DUP9 ADD CALLDATALOAD PUSH2 0x348A DUP2 PUSH2 0x343B JUMP JUMPDEST SWAP5 POP PUSH1 0x60 DUP9 ADD CALLDATALOAD PUSH2 0x349A DUP2 PUSH2 0x343B JUMP JUMPDEST SWAP7 SWAP10 SWAP6 SWAP9 POP SWAP4 SWAP7 PUSH1 0x80 DUP2 ADD CALLDATALOAD SWAP6 PUSH1 0xA0 DUP3 ADD CALLDATALOAD SWAP6 POP PUSH1 0xC0 SWAP1 SWAP2 ADD CALLDATALOAD SWAP4 POP SWAP2 POP POP JUMP JUMPDEST PUSH0 PUSH0 PUSH0 PUSH0 PUSH0 PUSH0 PUSH1 0xC0 DUP8 DUP10 SUB SLT ISZERO PUSH2 0x34D0 JUMPI PUSH0 PUSH0 REVERT JUMPDEST DUP7 CALLDATALOAD PUSH2 0x34DB DUP2 PUSH2 0x3424 JUMP JUMPDEST SWAP6 POP PUSH1 0x20 DUP8 ADD CALLDATALOAD PUSH2 0x34EB DUP2 PUSH2 0x343B JUMP JUMPDEST SWAP5 POP PUSH1 0x40 DUP8 ADD CALLDATALOAD PUSH2 0x34FB DUP2 PUSH2 0x343B JUMP JUMPDEST SWAP4 POP PUSH1 0x60 DUP8 ADD CALLDATALOAD PUSH2 0x350B DUP2 PUSH2 0x343B JUMP JUMPDEST SWAP6 SWAP9 SWAP5 SWAP8 POP SWAP3 SWAP6 PUSH1 0x80 DUP2 ADD CALLDATALOAD SWAP5 PUSH1 0xA0 SWAP1 SWAP2 ADD CALLDATALOAD SWAP4 POP SWAP2 POP POP JUMP JUMPDEST PUSH0 PUSH0 DUP4 PUSH1 0x1F DUP5 ADD SLT PUSH2 0x3535 JUMPI PUSH0 PUSH0 REVERT JUMPDEST POP DUP2 CALLDATALOAD PUSH1 0x1 PUSH1 0x1 PUSH1 0x40 SHL SUB DUP2 GT ISZERO PUSH2 0x354B JUMPI PUSH0 PUSH0 REVERT JUMPDEST PUSH1 0x20 DUP4 ADD SWAP2 POP DUP4 PUSH1 0x20 DUP3 PUSH1 0x5 SHL DUP6 ADD ADD GT ISZERO PUSH2 0x3194 JUMPI PUSH0 PUSH0 REVERT JUMPDEST PUSH0 PUSH0 PUSH0 PUSH0 PUSH1 0x60 DUP6 DUP8 SUB SLT ISZERO PUSH2 0x3578 JUMPI PUSH0 PUSH0 REVERT JUMPDEST DUP5 CALLDATALOAD PUSH2 0x3583 DUP2 PUSH2 0x3424 JUMP JUMPDEST SWAP4 POP PUSH1 0x20 DUP6 ADD CALLDATALOAD PUSH2 0x3593 DUP2 PUSH2 0x3424 JUMP JUMPDEST SWAP3 POP PUSH1 0x40 DUP6 ADD CALLDATALOAD PUSH1 0x1 PUSH1 0x1 PUSH1 0x40 SHL SUB DUP2 GT ISZERO PUSH2 0x35AD JUMPI PUSH0 PUSH0 REVERT JUMPDEST PUSH2 0x35B9 DUP8 DUP3 DUP9 ADD PUSH2 0x3525 JUMP JUMPDEST SWAP6 SWAP9 SWAP5 SWAP8 POP SWAP6 POP POP POP POP JUMP JUMPDEST PUSH0 PUSH1 0x20 DUP3 DUP5 SUB SLT ISZERO PUSH2 0x35D5 JUMPI PUSH0 PUSH0 REVERT JUMPDEST POP CALLDATALOAD SWAP2 SWAP1 POP JUMP JUMPDEST PUSH0 PUSH0 PUSH0 PUSH0 PUSH0 PUSH0 PUSH1 0xC0 DUP8 DUP10 SUB SLT ISZERO PUSH2 0x35F1 JUMPI PUSH0 PUSH0 REVERT JUMPDEST DUP7 CALLDATALOAD PUSH2 0x35FC DUP2 PUSH2 0x3424 JUMP JUMPDEST SWAP6 POP PUSH1 0x20 DUP8 ADD CALLDATALOAD PUSH2 0x360C DUP2 PUSH2 0x343B JUMP JUMPDEST SWAP5 POP PUSH1 0x40 DUP8 ADD CALLDATALOAD PUSH2 0x361C DUP2 PUSH2 0x343B JUMP JUMPDEST SWAP4 POP PUSH1 0x60 DUP8 ADD CALLDATALOAD PUSH2 0x362C DUP2 PUSH2 0x343B JUMP JUMPDEST SWAP3 POP PUSH1 0x80 DUP8 ADD CALLDATALOAD PUSH2 0x363C DUP2 PUSH2 0x343B JUMP JUMPDEST SWAP6 SWAP9 SWAP5 SWAP8 POP SWAP3 SWAP6 SWAP2 SWAP5 SWAP4 PUSH1 0xA0 SWAP1 SWAP3 ADD CALLDATALOAD SWAP3 POP POP JUMP JUMPDEST PUSH0 PUSH0 PUSH0 PUSH0 PUSH0 PUSH0 PUSH0 PUSH0 PUSH2 0x100 DUP10 DUP12 SUB SLT ISZERO PUSH2 0x3669 JUMPI PUSH0 PUSH0 REVERT JUMPDEST DUP9 CALLDATALOAD PUSH2 0x3674 DUP2 PUSH2 0x3424 JUMP JUMPDEST SWAP8 POP PUSH1 0x20 DUP10 ADD CALLDATALOAD PUSH2 0x3684 DUP2 PUSH2 0x343B JUMP JUMPDEST SWAP7 POP PUSH1 0x40 DUP10 ADD CALLDATALOAD PUSH2 0x3694 DUP2 PUSH2 0x343B JUMP JUMPDEST SWAP6 POP PUSH1 0x60 DUP10 ADD CALLDATALOAD PUSH2 0x36A4 DUP2 PUSH2 0x343B JUMP JUMPDEST SWAP8 SWAP11 SWAP7 SWAP10 POP SWAP5 SWAP8 PUSH1 0x80 DUP2 ADD CALLDATALOAD SWAP7 PUSH1 0xA0 DUP3 ADD CALLDATALOAD SWAP7 POP PUSH1 0xC0 DUP3 ADD CALLDATALOAD SWAP6 POP PUSH1 0xE0 SWAP1 SWAP2 ADD CALLDATALOAD SWAP4 POP SWAP2 POP POP JUMP JUMPDEST PUSH0 PUSH0 PUSH0 PUSH0 PUSH0 PUSH0 PUSH0 PUSH0 PUSH2 0x100 DUP10 DUP12 SUB SLT ISZERO PUSH2 0x36E4 JUMPI PUSH0 PUSH0 REVERT JUMPDEST DUP9 CALLDATALOAD PUSH2 0x36EF DUP2 PUSH2 0x3424 JUMP JUMPDEST SWAP8 POP PUSH1 0x20 DUP10 ADD CALLDATALOAD PUSH2 0x36FF DUP2 PUSH2 0x343B JUMP JUMPDEST SWAP7 POP PUSH1 0x40 DUP10 ADD CALLDATALOAD PUSH2 0x370F DUP2 PUSH2 0x343B JUMP JUMPDEST SWAP6 POP PUSH1 0x60 DUP10 ADD CALLDATALOAD PUSH2 0x371F DUP2 PUSH2 0x343B JUMP JUMPDEST SWAP5 POP PUSH1 0x80 DUP10 ADD CALLDATALOAD PUSH2 0x372F DUP2 PUSH2 0x343B JUMP JUMPDEST SWAP8 SWAP11 SWAP7 SWAP10 POP SWAP5 SWAP8 SWAP4 SWAP7 SWAP6 PUSH1 0xA0 DUP6 ADD CALLDATALOAD SWAP6 POP PUSH1 0xC0 DUP6 ADD CALLDATALOAD SWAP5 PUSH1 0xE0 ADD CALLDATALOAD SWAP4 POP SWAP2 POP POP JUMP JUMPDEST PUSH0 PUSH0 PUSH0 PUSH1 0x60 DUP5 DUP7 SUB SLT ISZERO PUSH2 0x3763 JUMPI PUSH0 PUSH0 REVERT JUMPDEST DUP4 CALLDATALOAD PUSH2 0x376E DUP2 PUSH2 0x3424 JUMP JUMPDEST SWAP3 POP PUSH1 0x20 DUP5 ADD CALLDATALOAD PUSH2 0x377E DUP2 PUSH2 0x343B JUMP JUMPDEST SWAP3 SWAP6 SWAP3 SWAP5 POP POP POP PUSH1 0x40 SWAP2 SWAP1 SWAP2 ADD CALLDATALOAD SWAP1 JUMP JUMPDEST PUSH1 0x20 DUP1 DUP3 MSTORE DUP3 MLOAD DUP3 DUP3 ADD DUP2 SWAP1 MSTORE PUSH0 SWAP2 DUP5 ADD SWAP1 PUSH1 0x40 DUP5 ADD SWAP1 DUP4 JUMPDEST DUP2 DUP2 LT ISZERO PUSH2 0x3848 JUMPI DUP4 MLOAD PUSH1 0x1 PUSH1 0x1 PUSH1 0x40 SHL SUB DUP2 MLOAD AND DUP5 MSTORE PUSH1 0x1 DUP1 PUSH1 0xA0 SHL SUB PUSH1 0x20 DUP3 ADD MLOAD AND PUSH1 0x20 DUP6 ADD MSTORE PUSH1 0x40 DUP2 ADD MLOAD PUSH1 0x40 DUP6 ADD MSTORE PUSH1 0x60 DUP2 ADD MLOAD PUSH1 0x60 DUP6 ADD MSTORE PUSH1 0x80 DUP2 ADD MLOAD PUSH1 0x80 DUP6 ADD MSTORE PUSH1 0xA0 DUP2 ADD MLOAD PUSH1 0xA0 DUP6 ADD MSTORE PUSH1 0xC0 DUP2 ADD MLOAD PUSH1 0xC0 DUP6 ADD MSTORE PUSH1 0xE0 DUP2 ADD MLOAD PUSH2 0x3817 PUSH1 0xE0 DUP7 ADD DUP3 PUSH1 0x2 SIGNEXTEND SWAP1 MSTORE JUMP JUMPDEST POP PUSH2 0x100 DUP2 ADD MLOAD SWAP1 POP PUSH2 0x3830 PUSH2 0x100 DUP6 ADD DUP3 PUSH1 0x2 SIGNEXTEND SWAP1 MSTORE JUMP JUMPDEST POP PUSH1 0x20 SWAP4 SWAP1 SWAP4 ADD SWAP3 PUSH2 0x120 SWAP3 SWAP1 SWAP3 ADD SWAP2 PUSH1 0x1 ADD PUSH2 0x37A8 JUMP JUMPDEST POP SWAP1 SWAP6 SWAP5 POP POP POP POP POP JUMP JUMPDEST PUSH4 0x4E487B71 PUSH1 0xE0 SHL PUSH0 MSTORE PUSH1 0x41 PUSH1 0x4 MSTORE PUSH1 0x24 PUSH0 REVERT JUMPDEST PUSH1 0x40 DUP1 MLOAD SWAP1 DUP2 ADD PUSH1 0x1 PUSH1 0x1 PUSH1 0x40 SHL SUB DUP2 GT DUP3 DUP3 LT OR ISZERO PUSH2 0x3889 JUMPI PUSH2 0x3889 PUSH2 0x3853 JUMP JUMPDEST PUSH1 0x40 MSTORE SWAP1 JUMP JUMPDEST PUSH1 0x40 MLOAD PUSH1 0x1F DUP3 ADD PUSH1 0x1F NOT AND DUP2 ADD PUSH1 0x1 PUSH1 0x1 PUSH1 0x40 SHL SUB DUP2 GT DUP3 DUP3 LT OR ISZERO PUSH2 0x38B7 JUMPI PUSH2 0x38B7 PUSH2 0x3853 JUMP JUMPDEST PUSH1 0x40 MSTORE SWAP2 SWAP1 POP JUMP JUMPDEST PUSH0 PUSH1 0x1 PUSH1 0x1 PUSH1 0x40 SHL SUB DUP3 GT ISZERO PUSH2 0x38D7 JUMPI PUSH2 0x38D7 PUSH2 0x3853 JUMP JUMPDEST POP PUSH1 0x5 SHL PUSH1 0x20 ADD SWAP1 JUMP JUMPDEST PUSH0 PUSH0 PUSH0 PUSH1 0x60 DUP5 DUP7 SUB SLT ISZERO PUSH2 0x38F3 JUMPI PUSH0 PUSH0 REVERT JUMPDEST DUP4 CALLDATALOAD PUSH2 0x38FE DUP2 PUSH2 0x3424 JUMP JUMPDEST SWAP3 POP PUSH1 0x20 DUP5 ADD CALLDATALOAD PUSH2 0x390E DUP2 PUSH2 0x3424 JUMP JUMPDEST SWAP2 POP PUSH1 0x40 DUP5 ADD CALLDATALOAD PUSH1 0x1 PUSH1 0x1 PUSH1 0x40 SHL SUB DUP2 GT ISZERO PUSH2 0x3928 JUMPI PUSH0 PUSH0 REVERT JUMPDEST DUP5 ADD PUSH1 0x1F DUP2 ADD DUP7 SGT PUSH2 0x3938 JUMPI PUSH0 PUSH0 REVERT JUMPDEST DUP1 CALLDATALOAD PUSH2 0x394B PUSH2 0x3946 DUP3 PUSH2 0x38BF JUMP JUMPDEST PUSH2 0x388F JUMP JUMPDEST DUP1 DUP3 DUP3 MSTORE PUSH1 0x20 DUP3 ADD SWAP2 POP PUSH1 0x20 DUP4 PUSH1 0x5 SHL DUP6 ADD ADD SWAP3 POP DUP9 DUP4 GT ISZERO PUSH2 0x396C JUMPI PUSH0 PUSH0 REVERT JUMPDEST PUSH1 0x20 DUP5 ADD SWAP4 POP JUMPDEST DUP3 DUP5 LT ISZERO PUSH2 0x398E JUMPI DUP4 CALLDATALOAD DUP3 MSTORE PUSH1 0x20 SWAP4 DUP5 ADD SWAP4 SWAP1 SWAP2 ADD SWAP1 PUSH2 0x3973 JUMP JUMPDEST DUP1 SWAP5 POP POP POP POP POP SWAP3 POP SWAP3 POP SWAP3 JUMP JUMPDEST PUSH0 PUSH1 0x20 DUP3 ADD PUSH1 0x20 DUP4 MSTORE DUP1 DUP5 MLOAD DUP1 DUP4 MSTORE PUSH1 0x40 DUP6 ADD SWAP2 POP PUSH1 0x40 DUP2 PUSH1 0x5 SHL DUP7 ADD ADD SWAP3 POP PUSH1 0x20 DUP7 ADD PUSH0 JUMPDEST DUP3 DUP2 LT ISZERO PUSH2 0x3A61 JUMPI DUP7 DUP6 SUB PUSH1 0x3F NOT ADD DUP5 MSTORE DUP2 MLOAD DUP1 MLOAD DUP1 DUP8 MSTORE PUSH1 0x20 SWAP2 DUP3 ADD SWAP2 DUP1 DUP9 ADD SWAP2 SWAP1 PUSH1 0x5 DUP3 SWAP1 SHL DUP10 ADD ADD PUSH0 JUMPDEST DUP3 DUP2 LT ISZERO PUSH2 0x3A48 JUMPI DUP10 DUP3 SUB PUSH1 0x1F NOT ADD DUP5 MSTORE DUP5 MLOAD DUP1 MLOAD DUP1 DUP5 MSTORE PUSH1 0x20 SWAP2 DUP3 ADD SWAP2 DUP5 ADD SWAP1 PUSH0 JUMPDEST DUP2 DUP2 LT ISZERO PUSH2 0x3A30 JUMPI DUP4 MLOAD DUP4 MSTORE PUSH1 0x20 SWAP4 DUP5 ADD SWAP4 SWAP1 SWAP3 ADD SWAP2 PUSH1 0x1 ADD PUSH2 0x3A12 JUMP JUMPDEST POP POP PUSH1 0x20 SWAP7 DUP8 ADD SWAP7 SWAP6 SWAP1 SWAP6 ADD SWAP5 SWAP3 POP POP PUSH1 0x1 ADD PUSH2 0x39EF JUMP JUMPDEST POP SWAP8 POP POP POP PUSH1 0x20 SWAP5 DUP6 ADD SWAP5 SWAP3 SWAP1 SWAP3 ADD SWAP2 POP PUSH1 0x1 ADD PUSH2 0x39C2 JUMP JUMPDEST POP SWAP3 SWAP7 SWAP6 POP POP POP POP POP POP JUMP JUMPDEST PUSH0 PUSH0 PUSH0 PUSH1 0x60 DUP5 DUP7 SUB SLT ISZERO PUSH2 0x3A7F JUMPI PUSH0 PUSH0 REVERT JUMPDEST DUP4 CALLDATALOAD PUSH2 0x3A8A DUP2 PUSH2 0x3424 JUMP JUMPDEST SWAP3 POP PUSH1 0x20 DUP5 ADD CALLDATALOAD PUSH2 0x377E DUP2 PUSH2 0x3424 JUMP JUMPDEST PUSH0 PUSH0 PUSH0 PUSH0 PUSH0 PUSH1 0xA0 DUP7 DUP9 SUB SLT ISZERO PUSH2 0x3AAE JUMPI PUSH0 PUSH0 REVERT JUMPDEST DUP6 CALLDATALOAD PUSH2 0x3AB9 DUP2 PUSH2 0x3424 JUMP JUMPDEST SWAP5 POP PUSH1 0x20 DUP7 ADD CALLDATALOAD PUSH2 0x3AC9 DUP2 PUSH2 0x343B JUMP JUMPDEST SWAP4 POP PUSH1 0x40 DUP7 ADD CALLDATALOAD PUSH2 0x3AD9 DUP2 PUSH2 0x343B JUMP JUMPDEST SWAP3 POP PUSH1 0x60 DUP7 ADD CALLDATALOAD PUSH2 0x3AE9 DUP2 PUSH2 0x343B JUMP JUMPDEST SWAP5 SWAP8 SWAP4 SWAP7 POP SWAP2 SWAP5 PUSH1 0x80 ADD CALLDATALOAD SWAP3 SWAP2 POP POP JUMP JUMPDEST PUSH0 PUSH0 PUSH0 PUSH1 0x60 DUP5 DUP7 SUB SLT ISZERO PUSH2 0x3B0C JUMPI PUSH0 PUSH0 REVERT JUMPDEST DUP4 CALLDATALOAD PUSH2 0x3B17 DUP2 PUSH2 0x3424 JUMP JUMPDEST SWAP3 POP PUSH1 0x20 DUP5 ADD CALLDATALOAD SWAP2 POP PUSH1 0x40 DUP5 ADD CALLDATALOAD PUSH2 0x3B2E DUP2 PUSH2 0x343B JUMP JUMPDEST DUP1 SWAP2 POP POP SWAP3 POP SWAP3 POP SWAP3 JUMP JUMPDEST PUSH0 PUSH0 PUSH0 PUSH0 PUSH0 PUSH0 PUSH1 0xA0 DUP8 DUP10 SUB SLT ISZERO PUSH2 0x3B4E JUMPI PUSH0 PUSH0 REVERT JUMPDEST DUP7 CALLDATALOAD PUSH2 0x3B59 DUP2 PUSH2 0x3424 JUMP JUMPDEST SWAP6 POP PUSH1 0x20 DUP8 ADD CALLDATALOAD PUSH2 0x3B69 DUP2 PUSH2 0x3424 JUMP JUMPDEST SWAP5 POP PUSH1 0x40 DUP8 ADD CALLDATALOAD PUSH2 0x3B79 DUP2 PUSH2 0x343B JUMP JUMPDEST SWAP4 POP PUSH1 0x60 DUP8 ADD CALLDATALOAD SWAP3 POP PUSH1 0x80 DUP8 ADD CALLDATALOAD PUSH1 0x1 PUSH1 0x1 PUSH1 0x40 SHL SUB DUP2 GT ISZERO PUSH2 0x3B9A JUMPI PUSH0 PUSH0 REVERT JUMPDEST PUSH2 0x3BA6 DUP10 DUP3 DUP11 ADD PUSH2 0x3525 JUMP JUMPDEST SWAP8 SWAP11 SWAP7 SWAP10 POP SWAP5 SWAP8 POP SWAP3 SWAP6 SWAP4 SWAP5 SWAP3 POP POP POP JUMP JUMPDEST PUSH0 PUSH0 PUSH1 0x40 DUP4 DUP6 SUB SLT ISZERO PUSH2 0x3BC9 JUMPI PUSH0 PUSH0 REVERT JUMPDEST DUP3 CALLDATALOAD PUSH2 0x3BD4 DUP2 PUSH2 0x3424 JUMP JUMPDEST SWAP2 POP PUSH1 0x20 DUP4 ADD CALLDATALOAD PUSH4 0xFFFFFFFF DUP2 AND DUP2 EQ PUSH2 0x3BEC JUMPI PUSH0 PUSH0 REVERT JUMPDEST DUP1 SWAP2 POP POP SWAP3 POP SWAP3 SWAP1 POP JUMP JUMPDEST PUSH0 PUSH0 PUSH0 PUSH0 PUSH0 PUSH0 PUSH0 PUSH1 0xE0 DUP9 DUP11 SUB SLT ISZERO PUSH2 0x3C0D JUMPI PUSH0 PUSH0 REVERT JUMPDEST DUP8 CALLDATALOAD PUSH2 0x3C18 DUP2 PUSH2 0x3424 JUMP JUMPDEST SWAP7 POP PUSH1 0x20 DUP9 ADD CALLDATALOAD PUSH2 0x3C28 DUP2 PUSH2 0x343B JUMP JUMPDEST SWAP6 POP PUSH1 0x40 DUP9 ADD CALLDATALOAD PUSH2 0x3C38 DUP2 PUSH2 0x343B JUMP JUMPDEST SWAP7 SWAP10 SWAP6 SWAP9 POP SWAP6 SWAP7 PUSH1 0x60 DUP2 ADD CALLDATALOAD SWAP7 POP PUSH1 0x80 DUP2 ADD CALLDATALOAD SWAP6 PUSH1 0xA0 DUP3 ADD CALLDATALOAD SWAP6 POP PUSH1 0xC0 SWAP1 SWAP2 ADD CALLDATALOAD SWAP4 POP SWAP2 POP POP JUMP JUMPDEST PUSH4 0x4E487B71 PUSH1 0xE0 SHL PUSH0 MSTORE PUSH1 0x32 PUSH1 0x4 MSTORE PUSH1 0x24 PUSH0 REVERT JUMPDEST PUSH4 0x4E487B71 PUSH1 0xE0 SHL PUSH0 MSTORE PUSH1 0x12 PUSH1 0x4 MSTORE PUSH1 0x24 PUSH0 REVERT JUMPDEST PUSH4 0x4E487B71 PUSH1 0xE0 SHL PUSH0 MSTORE PUSH1 0x11 PUSH1 0x4 MSTORE PUSH1 0x24 PUSH0 REVERT JUMPDEST PUSH0 DUP2 PUSH1 0x2 SIGNEXTEND DUP4 PUSH1 0x2 SIGNEXTEND DUP1 PUSH2 0x3CB2 JUMPI PUSH2 0x3CB2 PUSH2 0x3C74 JUMP JUMPDEST PUSH3 0x7FFFFF NOT DUP3 EQ PUSH0 NOT DUP3 EQ AND ISZERO PUSH2 0x3CCB JUMPI PUSH2 0x3CCB PUSH2 0x3C88 JUMP JUMPDEST SWAP1 SDIV SWAP4 SWAP3 POP POP POP JUMP JUMPDEST PUSH1 0x2 DUP3 DUP2 SIGNEXTEND SWAP1 DUP3 SWAP1 SIGNEXTEND SUB PUSH3 0x7FFFFF NOT DUP2 SLT PUSH3 0x7FFFFF DUP3 SGT OR ISZERO PUSH2 0x24E5 JUMPI PUSH2 0x24E5 PUSH2 0x3C88 JUMP JUMPDEST PUSH1 0x2 DUP2 DUP2 SIGNEXTEND SWAP1 DUP4 SWAP1 SIGNEXTEND ADD PUSH3 0x7FFFFF DUP2 SGT PUSH3 0x7FFFFF NOT DUP3 SLT OR ISZERO PUSH2 0x24E5 JUMPI PUSH2 0x24E5 PUSH2 0x3C88 JUMP JUMPDEST PUSH1 0x1 PUSH1 0x1 PUSH1 0xA0 SHL SUB SWAP6 DUP7 AND DUP2 MSTORE SWAP4 SWAP1 SWAP5 AND PUSH1 0x20 DUP5 ADD MSTORE PUSH1 0x40 DUP4 ADD SWAP2 SWAP1 SWAP2 MSTORE PUSH1 0x2 SWAP1 DUP2 SIGNEXTEND PUSH1 0x60 DUP4 ADD MSTORE SWAP2 SWAP1 SWAP2 SIGNEXTEND PUSH1 0x80 DUP3 ADD MSTORE PUSH1 0xA0 ADD SWAP1 JUMP JUMPDEST PUSH0 PUSH1 0x20 DUP3 DUP5 SUB SLT ISZERO PUSH2 0x3D65 JUMPI PUSH0 PUSH0 REVERT JUMPDEST POP MLOAD SWAP2 SWAP1 POP JUMP JUMPDEST DUP1 DUP3 MUL DUP2 ISZERO DUP3 DUP3 DIV DUP5 EQ OR PUSH2 0x24E5 JUMPI PUSH2 0x24E5 PUSH2 0x3C88 JUMP JUMPDEST PUSH0 DUP3 PUSH2 0x3D91 JUMPI PUSH2 0x3D91 PUSH2 0x3C74 JUMP JUMPDEST POP DIV SWAP1 JUMP JUMPDEST PUSH0 PUSH1 0x20 DUP3 DUP5 SUB SLT ISZERO PUSH2 0x3DA6 JUMPI PUSH0 PUSH0 REVERT JUMPDEST DUP2 MLOAD PUSH1 0x1 PUSH1 0x1 PUSH1 0x40 SHL SUB DUP2 AND DUP2 EQ PUSH2 0x15E8 JUMPI PUSH0 PUSH0 REVERT JUMPDEST DUP1 DUP3 ADD DUP1 DUP3 GT ISZERO PUSH2 0x24E5 JUMPI PUSH2 0x24E5 PUSH2 0x3C88 JUMP JUMPDEST PUSH0 PUSH1 0x20 DUP3 DUP5 SUB SLT ISZERO PUSH2 0x3DDF JUMPI PUSH0 PUSH0 REVERT JUMPDEST DUP2 MLOAD PUSH2 0x15E8 DUP2 PUSH2 0x3424 JUMP JUMPDEST DUP1 MLOAD PUSH2 0xFFFF DUP2 AND DUP2 EQ PUSH2 0x3DFB JUMPI PUSH0 PUSH0 REVERT JUMPDEST SWAP2 SWAP1 POP JUMP JUMPDEST PUSH0 PUSH0 PUSH0 PUSH0 PUSH0 PUSH0 PUSH0 PUSH1 0xE0 DUP9 DUP11 SUB SLT ISZERO PUSH2 0x3E16 JUMPI PUSH0 PUSH0 REVERT JUMPDEST DUP8 MLOAD PUSH2 0x3E21 DUP2 PUSH2 0x3424 JUMP JUMPDEST PUSH1 0x20 DUP10 ADD MLOAD SWAP1 SWAP8 POP PUSH2 0x3E32 DUP2 PUSH2 0x343B JUMP JUMPDEST SWAP6 POP PUSH2 0x3E40 PUSH1 0x40 DUP10 ADD PUSH2 0x3DEA JUMP JUMPDEST SWAP5 POP PUSH2 0x3E4E PUSH1 0x60 DUP10 ADD PUSH2 0x3DEA JUMP JUMPDEST SWAP4 POP PUSH2 0x3E5C PUSH1 0x80 DUP10 ADD PUSH2 0x3DEA JUMP JUMPDEST SWAP3 POP PUSH1 0xA0 DUP9 ADD MLOAD PUSH1 0xFF DUP2 AND DUP2 EQ PUSH2 0x3E71 JUMPI PUSH0 PUSH0 REVERT JUMPDEST PUSH1 0xC0 DUP10 ADD MLOAD SWAP1 SWAP3 POP DUP1 ISZERO ISZERO DUP2 EQ PUSH2 0x3E86 JUMPI PUSH0 PUSH0 REVERT JUMPDEST DUP1 SWAP2 POP POP SWAP3 SWAP6 SWAP9 SWAP2 SWAP5 SWAP8 POP SWAP3 SWAP6 POP JUMP JUMPDEST DUP2 DUP2 SUB PUSH0 DUP4 SLT DUP1 ISZERO DUP4 DUP4 SGT AND DUP4 DUP4 SLT DUP3 AND OR ISZERO PUSH2 0x3EB5 JUMPI PUSH2 0x3EB5 PUSH2 0x3C88 JUMP JUMPDEST POP SWAP3 SWAP2 POP POP JUMP JUMPDEST DUP1 DUP3 MUL PUSH0 DUP3 SLT PUSH1 0x1 PUSH1 0xFF SHL DUP5 EQ AND ISZERO PUSH2 0x3ED7 JUMPI PUSH2 0x3ED7 PUSH2 0x3C88 JUMP JUMPDEST DUP2 DUP2 SDIV DUP4 EQ DUP3 ISZERO OR PUSH2 0x24E5 JUMPI PUSH2 0x24E5 PUSH2 0x3C88 JUMP JUMPDEST PUSH0 DUP3 PUSH2 0x3EF9 JUMPI PUSH2 0x3EF9 PUSH2 0x3C74 JUMP JUMPDEST PUSH1 0x1 PUSH1 0xFF SHL DUP3 EQ PUSH0 NOT DUP5 EQ AND ISZERO PUSH2 0x3F12 JUMPI PUSH2 0x3F12 PUSH2 0x3C88 JUMP JUMPDEST POP SDIV SWAP1 JUMP JUMPDEST PUSH1 0x1 PUSH1 0x1 PUSH1 0xA0 SHL SUB DUP5 AND DUP2 MSTORE DUP3 ISZERO ISZERO PUSH1 0x20 DUP1 DUP4 ADD SWAP2 SWAP1 SWAP2 MSTORE PUSH1 0x60 PUSH1 0x40 DUP4 ADD DUP2 SWAP1 MSTORE DUP4 MLOAD SWAP1 DUP4 ADD DUP2 SWAP1 MSTORE PUSH0 SWAP2 DUP5 ADD SWAP1 PUSH1 0x80 DUP5 ADD SWAP1 DUP4 JUMPDEST DUP2 DUP2 LT ISZERO PUSH2 0x3F6A JUMPI DUP4 MLOAD DUP4 MSTORE PUSH1 0x20 SWAP4 DUP5 ADD SWAP4 SWAP1 SWAP3 ADD SWAP2 PUSH1 0x1 ADD PUSH2 0x3F4C JUMP JUMPDEST POP SWAP1 SWAP8 SWAP7 POP POP POP POP POP POP POP JUMP JUMPDEST PUSH0 PUSH0 PUSH0 PUSH1 0x60 DUP5 DUP7 SUB SLT ISZERO PUSH2 0x3F89 JUMPI PUSH0 PUSH0 REVERT JUMPDEST DUP4 MLOAD PUSH1 0x20 DUP6 ADD MLOAD PUSH1 0x40 DUP7 ADD MLOAD SWAP2 SWAP5 POP SWAP3 POP PUSH1 0x1 PUSH1 0x1 PUSH1 0x40 SHL SUB DUP2 GT ISZERO PUSH2 0x3FAD JUMPI PUSH0 PUSH0 REVERT JUMPDEST DUP5 ADD PUSH1 0x1F DUP2 ADD DUP7 SGT PUSH2 0x3FBD JUMPI PUSH0 PUSH0 REVERT JUMPDEST DUP1 MLOAD PUSH2 0x3FCB PUSH2 0x3946 DUP3 PUSH2 0x38BF JUMP JUMPDEST DUP1 DUP3 DUP3 MSTORE PUSH1 0x20 DUP3 ADD SWAP2 POP PUSH1 0x20 DUP4 PUSH1 0x6 SHL DUP6 ADD ADD SWAP3 POP DUP9 DUP4 GT ISZERO PUSH2 0x3FEC JUMPI PUSH0 PUSH0 REVERT JUMPDEST PUSH1 0x20 DUP5 ADD SWAP4 POP JUMPDEST DUP3 DUP5 LT ISZERO PUSH2 0x398E JUMPI DUP9 PUSH1 0x1F DUP6 ADD SLT PUSH2 0x4009 JUMPI PUSH0 PUSH0 REVERT JUMPDEST PUSH2 0x4011 PUSH2 0x3867 JUMP JUMPDEST DUP1 PUSH1 0x40 DUP7 ADD DUP12 DUP2 GT ISZERO PUSH2 0x4022 JUMPI PUSH0 PUSH0 REVERT JUMPDEST DUP7 JUMPDEST DUP2 DUP2 LT ISZERO PUSH2 0x403C JUMPI DUP1 MLOAD DUP5 MSTORE PUSH1 0x20 SWAP4 DUP5 ADD SWAP4 ADD PUSH2 0x4024 JUMP JUMPDEST POP POP DUP4 MSTORE POP PUSH1 0x40 SWAP4 SWAP1 SWAP4 ADD SWAP3 PUSH1 0x20 SWAP1 SWAP2 ADD SWAP1 PUSH2 0x3FF3 JUMP JUMPDEST PUSH0 DUP2 MLOAD DUP1 DUP5 MSTORE PUSH1 0x20 DUP5 ADD SWAP4 POP PUSH1 0x20 DUP4 ADD PUSH0 JUMPDEST DUP3 DUP2 LT ISZERO PUSH2 0x40AA JUMPI DUP2 MLOAD DUP7 PUSH0 JUMPDEST PUSH1 0x2 DUP2 LT ISZERO PUSH2 0x4091 JUMPI DUP3 MLOAD DUP3 MSTORE PUSH1 0x20 SWAP3 DUP4 ADD SWAP3 SWAP1 SWAP2 ADD SWAP1 PUSH1 0x1 ADD PUSH2 0x4072 JUMP JUMPDEST POP POP POP PUSH1 0x40 SWAP6 SWAP1 SWAP6 ADD SWAP5 PUSH1 0x20 SWAP2 SWAP1 SWAP2 ADD SWAP1 PUSH1 0x1 ADD PUSH2 0x4065 JUMP JUMPDEST POP SWAP4 SWAP5 SWAP4 POP POP POP POP JUMP JUMPDEST PUSH1 0x1 DUP1 PUSH1 0xA0 SHL SUB DUP7 AND DUP2 MSTORE DUP5 PUSH1 0x2 SIGNEXTEND PUSH1 0x20 DUP3 ADD MSTORE PUSH1 0xA0 PUSH1 0x40 DUP3 ADD MSTORE PUSH0 PUSH2 0x40DD PUSH1 0xA0 DUP4 ADD DUP7 PUSH2 0x4053 JUMP JUMPDEST PUSH1 0x1 PUSH1 0x1 PUSH1 0x80 SHL SUB SWAP5 DUP6 AND PUSH1 0x60 DUP5 ADD MSTORE SWAP3 SWAP1 SWAP4 AND PUSH1 0x80 SWAP1 SWAP2 ADD MSTORE SWAP5 SWAP4 POP POP POP POP JUMP JUMPDEST PUSH1 0x1 PUSH1 0x1 PUSH1 0xA0 SHL SUB DUP6 AND DUP2 MSTORE DUP4 ISZERO ISZERO PUSH1 0x20 DUP3 ADD MSTORE PUSH1 0x60 PUSH1 0x40 DUP3 ADD DUP2 SWAP1 MSTORE DUP2 ADD DUP3 SWAP1 MSTORE PUSH0 DUP4 PUSH1 0x80 DUP4 ADD DUP3 JUMPDEST DUP6 DUP2 LT ISZERO PUSH2 0x4147 JUMPI DUP3 CALLDATALOAD DUP3 MSTORE PUSH1 0x20 SWAP3 DUP4 ADD SWAP3 SWAP1 SWAP2 ADD SWAP1 PUSH1 0x1 ADD PUSH2 0x4129 JUMP JUMPDEST POP SWAP8 SWAP7 POP POP POP POP POP POP POP JUMP JUMPDEST PUSH0 PUSH1 0x20 DUP3 DUP5 SUB SLT ISZERO PUSH2 0x4163 JUMPI PUSH0 PUSH0 REVERT JUMPDEST DUP2 MLOAD PUSH2 0x15E8 DUP2 PUSH2 0x343B JUMP JUMPDEST PUSH1 0x1 PUSH1 0x1 PUSH1 0x80 SHL SUB DUP2 DUP2 AND DUP4 DUP3 AND MUL SWAP1 DUP2 AND SWAP1 DUP2 DUP2 EQ PUSH2 0x3EB5 JUMPI PUSH2 0x3EB5 PUSH2 0x3C88 JUMP JUMPDEST PUSH0 DUP3 PUSH1 0x2 SIGNEXTEND DUP3 PUSH1 0x2 SIGNEXTEND MUL DUP1 PUSH1 0x2 SIGNEXTEND SWAP2 POP DUP1 DUP3 EQ PUSH2 0x3EB5 JUMPI PUSH2 0x3EB5 PUSH2 0x3C88 JUMP JUMPDEST PUSH3 0xFFFFFF DUP2 DUP2 AND DUP4 DUP3 AND MUL SWAP1 DUP2 AND SWAP1 DUP2 DUP2 EQ PUSH2 0x3EB5 JUMPI PUSH2 0x3EB5 PUSH2 0x3C88 JUMP INVALID LOG2 PUSH5 0x6970667358 0x22 SLT KECCAK256 PREVRANDAO 0xF9 0xB5 DUP6 PUSH19 0x74FC5CF18CEBF5B31FA7A3B02FA0F0D8B1143C DUP2 0xE9 0xE6 SWAP16 0xC 0xAD 0xD8 SMOD PUSH5 0x736F6C6343 STOP ADDMOD SHL STOP CALLER "
		},
		"gasEstimates": {
			"creation": {
				"codeDepositCost": "3379800",
				"executionCost": "infinite",
				"totalCost": "infinite"
			},
			"external": {
				"checkCollateral(address,address,int24,uint256,uint256[])": "infinite",
				"createBATS(address,int24,int24,int24,uint256,uint256)": "infinite",
				"createBigLizard(address,int24,int24,int24,uint256)": "infinite",
				"createCallCalendarSpread(address,int24,int24,int24,uint256,uint256,uint256)": "infinite",
				"createCallDiagonalSpread(address,int24,int24,int24,int24,uint256,uint256,uint256)": "infinite",
				"createCallRatioSpread(address,int24,int24,int24,uint256,uint256,uint256)": "infinite",
				"createCallSpread(address,int24,int24,int24,uint256,uint256,uint256)": "infinite",
				"createCallZEBRASpread(address,int24,int24,int24,uint256,uint256,uint256)": "infinite",
				"createIronButterfly(address,int24,int24,int24,uint256)": "infinite",
				"createIronCondor(address,int24,int24,int24,int24,uint256)": "infinite",
				"createJadeLizard(address,int24,int24,int24,int24,uint256)": "infinite",
				"createPutCalendarSpread(address,int24,int24,int24,uint256,uint256,uint256)": "infinite",
				"createPutDiagonalSpread(address,int24,int24,int24,int24,uint256,uint256,uint256)": "infinite",
				"createPutRatioSpread(address,int24,int24,int24,uint256,uint256,uint256)": "infinite",
				"createPutSpread(address,int24,int24,int24,uint256,uint256,uint256)": "infinite",
				"createPutZEBRASpread(address,int24,int24,int24,uint256,uint256,uint256)": "infinite",
				"createStraddle(address,int24,int24,uint256,uint256,uint256,uint256)": "infinite",
				"createStrangle(address,int24,int24,int24,uint256,uint256,uint256,uint256)": "infinite",
				"createSuperBear(address,int24,int24,int24,int24,uint256)": "infinite",
				"createSuperBull(address,int24,int24,int24,int24,uint256)": "infinite",
				"createZEEHBS(address,int24,int24,int24,uint256,uint256)": "infinite",
				"findLiquidationPriceDown(address,address,uint256[])": "infinite",
				"findLiquidationPriceUp(address,address,uint256[])": "infinite",
				"getChunkData(address,address,uint256[])": "infinite",
				"getRequiredBase(address,uint256,int24)": "infinite",
				"optimizeRiskPartners(address,int24,uint256)": "infinite",
				"optionPositionInfo(address,address,uint256)": "infinite",
				"reducedSize()": "infinite",
				"twapFilter(address,uint32)": "infinite",
				"unwrapTokenId(uint256)": "infinite",
				"validateTokenId(uint256)": "infinite"
			},
			"internal": {
				"addCallLeg(TokenId,uint256,uint256,uint256,uint256,uint256,int24,int24)": "infinite",
				"addPutLeg(TokenId,uint256,uint256,uint256,uint256,uint256,int24,int24)": "infinite",
				"checkTokenId(TokenId,uint128)": "infinite",
				"netEquity(address,address,int24,TokenId[] calldata)": "infinite"
			}
		},
		"methodIdentifiers": {
			"checkCollateral(address,address,int24,uint256,uint256[])": "d88162e5",
			"createBATS(address,int24,int24,int24,uint256,uint256)": "ca64f419",
			"createBigLizard(address,int24,int24,int24,uint256)": "ced04c02",
			"createCallCalendarSpread(address,int24,int24,int24,uint256,uint256,uint256)": "fa80f8f5",
			"createCallDiagonalSpread(address,int24,int24,int24,int24,uint256,uint256,uint256)": "cd775a7e",
			"createCallRatioSpread(address,int24,int24,int24,uint256,uint256,uint256)": "71215b9c",
			"createCallSpread(address,int24,int24,int24,uint256,uint256,uint256)": "06158ed5",
			"createCallZEBRASpread(address,int24,int24,int24,uint256,uint256,uint256)": "321115d8",
			"createIronButterfly(address,int24,int24,int24,uint256)": "e0fb8ba3",
			"createIronCondor(address,int24,int24,int24,int24,uint256)": "9b82fff4",
			"createJadeLizard(address,int24,int24,int24,int24,uint256)": "42189dee",
			"createPutCalendarSpread(address,int24,int24,int24,uint256,uint256,uint256)": "f3220286",
			"createPutDiagonalSpread(address,int24,int24,int24,int24,uint256,uint256,uint256)": "7da845be",
			"createPutRatioSpread(address,int24,int24,int24,uint256,uint256,uint256)": "66deb402",
			"createPutSpread(address,int24,int24,int24,uint256,uint256,uint256)": "83b70335",
			"createPutZEBRASpread(address,int24,int24,int24,uint256,uint256,uint256)": "57fced97",
			"createStraddle(address,int24,int24,uint256,uint256,uint256,uint256)": "fd8c575e",
			"createStrangle(address,int24,int24,int24,uint256,uint256,uint256,uint256)": "42df787e",
			"createSuperBear(address,int24,int24,int24,int24,uint256)": "4804b3fb",
			"createSuperBull(address,int24,int24,int24,int24,uint256)": "45d6704d",
			"createZEEHBS(address,int24,int24,int24,uint256,uint256)": "0b69b2c6",
			"findLiquidationPriceDown(address,address,uint256[])": "2228f0fa",
			"findLiquidationPriceUp(address,address,uint256[])": "30da59f2",
			"getChunkData(address,address,uint256[])": "b8b551d6",
			"getRequiredBase(address,uint256,int24)": "d27e5fa7",
			"optimizeRiskPartners(address,int24,uint256)": "9bd25cad",
			"optionPositionInfo(address,address,uint256)": "c4cc192f",
			"reducedSize()": "02bcbf30",
			"twapFilter(address,uint32)": "e830adb9",
			"unwrapTokenId(uint256)": "ad65d5b0",
			"validateTokenId(uint256)": "34600901"
		}
	},
	"abi": [
		{
			"inputs": [
				{
					"internalType": "contract SemiFungiblePositionManager",
					"name": "_SFPM",
					"type": "address"
				}
			],
			"stateMutability": "payable",
			"type": "constructor"
		},
		{
			"inputs": [],
			"name": "InvalidTick",
			"type": "error"
		},
		{
			"inputs": [
				{
					"internalType": "uint256",
					"name": "parameterType",
					"type": "uint256"
				}
			],
			"name": "InvalidTokenIdParameter",
			"type": "error"
		},
		{
			"inputs": [],
			"name": "TicksNotInitializable",
			"type": "error"
		},
		{
			"inputs": [
				{
					"internalType": "contract PanopticPool",
					"name": "pool",
					"type": "address"
				},
				{
					"internalType": "address",
					"name": "account",
					"type": "address"
				},
				{
					"internalType": "int24",
					"name": "atTick",
					"type": "int24"
				},
				{
					"internalType": "uint256",
					"name": "tokenType",
					"type": "uint256"
				},
				{
					"internalType": "TokenId[]",
					"name": "positionIdList",
					"type": "uint256[]"
				}
			],
			"name": "checkCollateral",
			"outputs": [
				{
					"internalType": "uint256",
					"name": "",
					"type": "uint256"
				},
				{
					"internalType": "uint256",
					"name": "",
					"type": "uint256"
				}
			],
			"stateMutability": "view",
			"type": "function"
		},
		{
			"inputs": [
				{
					"internalType": "address",
					"name": "univ3pool",
					"type": "address"
				},
				{
					"internalType": "int24",
					"name": "width",
					"type": "int24"
				},
				{
					"internalType": "int24",
					"name": "longStrike",
					"type": "int24"
				},
				{
					"internalType": "int24",
					"name": "shortStrike",
					"type": "int24"
				},
				{
					"internalType": "uint256",
					"name": "asset",
					"type": "uint256"
				},
				{
					"internalType": "uint256",
					"name": "ratio",
					"type": "uint256"
				}
			],
			"name": "createBATS",
			"outputs": [
				{
					"internalType": "TokenId",
					"name": "tokenId",
					"type": "uint256"
				}
			],
			"stateMutability": "view",
			"type": "function"
		},
		{
			"inputs": [
				{
					"internalType": "address",
					"name": "univ3pool",
					"type": "address"
				},
				{
					"internalType": "int24",
					"name": "width",
					"type": "int24"
				},
				{
					"internalType": "int24",
					"name": "longCallStrike",
					"type": "int24"
				},
				{
					"internalType": "int24",
					"name": "straddleStrike",
					"type": "int24"
				},
				{
					"internalType": "uint256",
					"name": "asset",
					"type": "uint256"
				}
			],
			"name": "createBigLizard",
			"outputs": [
				{
					"internalType": "TokenId",
					"name": "tokenId",
					"type": "uint256"
				}
			],
			"stateMutability": "view",
			"type": "function"
		},
		{
			"inputs": [
				{
					"internalType": "address",
					"name": "univ3pool",
					"type": "address"
				},
				{
					"internalType": "int24",
					"name": "widthLong",
					"type": "int24"
				},
				{
					"internalType": "int24",
					"name": "widthShort",
					"type": "int24"
				},
				{
					"internalType": "int24",
					"name": "strike",
					"type": "int24"
				},
				{
					"internalType": "uint256",
					"name": "asset",
					"type": "uint256"
				},
				{
					"internalType": "uint256",
					"name": "optionRatio",
					"type": "uint256"
				},
				{
					"internalType": "uint256",
					"name": "start",
					"type": "uint256"
				}
			],
			"name": "createCallCalendarSpread",
			"outputs": [
				{
					"internalType": "TokenId",
					"name": "tokenId",
					"type": "uint256"
				}
			],
			"stateMutability": "view",
			"type": "function"
		},
		{
			"inputs": [
				{
					"internalType": "address",
					"name": "univ3pool",
					"type": "address"
				},
				{
					"internalType": "int24",
					"name": "widthLong",
					"type": "int24"
				},
				{
					"internalType": "int24",
					"name": "widthShort",
					"type": "int24"
				},
				{
					"internalType": "int24",
					"name": "strikeLong",
					"type": "int24"
				},
				{
					"internalType": "int24",
					"name": "strikeShort",
					"type": "int24"
				},
				{
					"internalType": "uint256",
					"name": "asset",
					"type": "uint256"
				},
				{
					"internalType": "uint256",
					"name": "optionRatio",
					"type": "uint256"
				},
				{
					"internalType": "uint256",
					"name": "start",
					"type": "uint256"
				}
			],
			"name": "createCallDiagonalSpread",
			"outputs": [
				{
					"internalType": "TokenId",
					"name": "tokenId",
					"type": "uint256"
				}
			],
			"stateMutability": "view",
			"type": "function"
		},
		{
			"inputs": [
				{
					"internalType": "address",
					"name": "univ3pool",
					"type": "address"
				},
				{
					"internalType": "int24",
					"name": "width",
					"type": "int24"
				},
				{
					"internalType": "int24",
					"name": "longStrike",
					"type": "int24"
				},
				{
					"internalType": "int24",
					"name": "shortStrike",
					"type": "int24"
				},
				{
					"internalType": "uint256",
					"name": "asset",
					"type": "uint256"
				},
				{
					"internalType": "uint256",
					"name": "ratio",
					"type": "uint256"
				},
				{
					"internalType": "uint256",
					"name": "start",
					"type": "uint256"
				}
			],
			"name": "createCallRatioSpread",
			"outputs": [
				{
					"internalType": "TokenId",
					"name": "tokenId",
					"type": "uint256"
				}
			],
			"stateMutability": "view",
			"type": "function"
		},
		{
			"inputs": [
				{
					"internalType": "address",
					"name": "univ3pool",
					"type": "address"
				},
				{
					"internalType": "int24",
					"name": "width",
					"type": "int24"
				},
				{
					"internalType": "int24",
					"name": "strikeLong",
					"type": "int24"
				},
				{
					"internalType": "int24",
					"name": "strikeShort",
					"type": "int24"
				},
				{
					"internalType": "uint256",
					"name": "asset",
					"type": "uint256"
				},
				{
					"internalType": "uint256",
					"name": "optionRatio",
					"type": "uint256"
				},
				{
					"internalType": "uint256",
					"name": "start",
					"type": "uint256"
				}
			],
			"name": "createCallSpread",
			"outputs": [
				{
					"internalType": "TokenId",
					"name": "tokenId",
					"type": "uint256"
				}
			],
			"stateMutability": "view",
			"type": "function"
		},
		{
			"inputs": [
				{
					"internalType": "address",
					"name": "univ3pool",
					"type": "address"
				},
				{
					"internalType": "int24",
					"name": "width",
					"type": "int24"
				},
				{
					"internalType": "int24",
					"name": "longStrike",
					"type": "int24"
				},
				{
					"internalType": "int24",
					"name": "shortStrike",
					"type": "int24"
				},
				{
					"internalType": "uint256",
					"name": "asset",
					"type": "uint256"
				},
				{
					"internalType": "uint256",
					"name": "ratio",
					"type": "uint256"
				},
				{
					"internalType": "uint256",
					"name": "start",
					"type": "uint256"
				}
			],
			"name": "createCallZEBRASpread",
			"outputs": [
				{
					"internalType": "TokenId",
					"name": "tokenId",
					"type": "uint256"
				}
			],
			"stateMutability": "view",
			"type": "function"
		},
		{
			"inputs": [
				{
					"internalType": "address",
					"name": "univ3pool",
					"type": "address"
				},
				{
					"internalType": "int24",
					"name": "width",
					"type": "int24"
				},
				{
					"internalType": "int24",
					"name": "strike",
					"type": "int24"
				},
				{
					"internalType": "int24",
					"name": "wingWidth",
					"type": "int24"
				},
				{
					"internalType": "uint256",
					"name": "asset",
					"type": "uint256"
				}
			],
			"name": "createIronButterfly",
			"outputs": [
				{
					"internalType": "TokenId",
					"name": "tokenId",
					"type": "uint256"
				}
			],
			"stateMutability": "view",
			"type": "function"
		},
		{
			"inputs": [
				{
					"internalType": "address",
					"name": "univ3pool",
					"type": "address"
				},
				{
					"internalType": "int24",
					"name": "width",
					"type": "int24"
				},
				{
					"internalType": "int24",
					"name": "callStrike",
					"type": "int24"
				},
				{
					"internalType": "int24",
					"name": "putStrike",
					"type": "int24"
				},
				{
					"internalType": "int24",
					"name": "wingWidth",
					"type": "int24"
				},
				{
					"internalType": "uint256",
					"name": "asset",
					"type": "uint256"
				}
			],
			"name": "createIronCondor",
			"outputs": [
				{
					"internalType": "TokenId",
					"name": "tokenId",
					"type": "uint256"
				}
			],
			"stateMutability": "view",
			"type": "function"
		},
		{
			"inputs": [
				{
					"internalType": "address",
					"name": "univ3pool",
					"type": "address"
				},
				{
					"internalType": "int24",
					"name": "width",
					"type": "int24"
				},
				{
					"internalType": "int24",
					"name": "longCallStrike",
					"type": "int24"
				},
				{
					"internalType": "int24",
					"name": "shortCallStrike",
					"type": "int24"
				},
				{
					"internalType": "int24",
					"name": "shortPutStrike",
					"type": "int24"
				},
				{
					"internalType": "uint256",
					"name": "asset",
					"type": "uint256"
				}
			],
			"name": "createJadeLizard",
			"outputs": [
				{
					"internalType": "TokenId",
					"name": "tokenId",
					"type": "uint256"
				}
			],
			"stateMutability": "view",
			"type": "function"
		},
		{
			"inputs": [
				{
					"internalType": "address",
					"name": "univ3pool",
					"type": "address"
				},
				{
					"internalType": "int24",
					"name": "widthLong",
					"type": "int24"
				},
				{
					"internalType": "int24",
					"name": "widthShort",
					"type": "int24"
				},
				{
					"internalType": "int24",
					"name": "strike",
					"type": "int24"
				},
				{
					"internalType": "uint256",
					"name": "asset",
					"type": "uint256"
				},
				{
					"internalType": "uint256",
					"name": "optionRatio",
					"type": "uint256"
				},
				{
					"internalType": "uint256",
					"name": "start",
					"type": "uint256"
				}
			],
			"name": "createPutCalendarSpread",
			"outputs": [
				{
					"internalType": "TokenId",
					"name": "tokenId",
					"type": "uint256"
				}
			],
			"stateMutability": "view",
			"type": "function"
		},
		{
			"inputs": [
				{
					"internalType": "address",
					"name": "univ3pool",
					"type": "address"
				},
				{
					"internalType": "int24",
					"name": "widthLong",
					"type": "int24"
				},
				{
					"internalType": "int24",
					"name": "widthShort",
					"type": "int24"
				},
				{
					"internalType": "int24",
					"name": "strikeLong",
					"type": "int24"
				},
				{
					"internalType": "int24",
					"name": "strikeShort",
					"type": "int24"
				},
				{
					"internalType": "uint256",
					"name": "asset",
					"type": "uint256"
				},
				{
					"internalType": "uint256",
					"name": "optionRatio",
					"type": "uint256"
				},
				{
					"internalType": "uint256",
					"name": "start",
					"type": "uint256"
				}
			],
			"name": "createPutDiagonalSpread",
			"outputs": [
				{
					"internalType": "TokenId",
					"name": "tokenId",
					"type": "uint256"
				}
			],
			"stateMutability": "view",
			"type": "function"
		},
		{
			"inputs": [
				{
					"internalType": "address",
					"name": "univ3pool",
					"type": "address"
				},
				{
					"internalType": "int24",
					"name": "width",
					"type": "int24"
				},
				{
					"internalType": "int24",
					"name": "longStrike",
					"type": "int24"
				},
				{
					"internalType": "int24",
					"name": "shortStrike",
					"type": "int24"
				},
				{
					"internalType": "uint256",
					"name": "asset",
					"type": "uint256"
				},
				{
					"internalType": "uint256",
					"name": "ratio",
					"type": "uint256"
				},
				{
					"internalType": "uint256",
					"name": "start",
					"type": "uint256"
				}
			],
			"name": "createPutRatioSpread",
			"outputs": [
				{
					"internalType": "TokenId",
					"name": "tokenId",
					"type": "uint256"
				}
			],
			"stateMutability": "view",
			"type": "function"
		},
		{
			"inputs": [
				{
					"internalType": "address",
					"name": "univ3pool",
					"type": "address"
				},
				{
					"internalType": "int24",
					"name": "width",
					"type": "int24"
				},
				{
					"internalType": "int24",
					"name": "strikeLong",
					"type": "int24"
				},
				{
					"internalType": "int24",
					"name": "strikeShort",
					"type": "int24"
				},
				{
					"internalType": "uint256",
					"name": "asset",
					"type": "uint256"
				},
				{
					"internalType": "uint256",
					"name": "optionRatio",
					"type": "uint256"
				},
				{
					"internalType": "uint256",
					"name": "start",
					"type": "uint256"
				}
			],
			"name": "createPutSpread",
			"outputs": [
				{
					"internalType": "TokenId",
					"name": "tokenId",
					"type": "uint256"
				}
			],
			"stateMutability": "view",
			"type": "function"
		},
		{
			"inputs": [
				{
					"internalType": "address",
					"name": "univ3pool",
					"type": "address"
				},
				{
					"internalType": "int24",
					"name": "width",
					"type": "int24"
				},
				{
					"internalType": "int24",
					"name": "longStrike",
					"type": "int24"
				},
				{
					"internalType": "int24",
					"name": "shortStrike",
					"type": "int24"
				},
				{
					"internalType": "uint256",
					"name": "asset",
					"type": "uint256"
				},
				{
					"internalType": "uint256",
					"name": "ratio",
					"type": "uint256"
				},
				{
					"internalType": "uint256",
					"name": "start",
					"type": "uint256"
				}
			],
			"name": "createPutZEBRASpread",
			"outputs": [
				{
					"internalType": "TokenId",
					"name": "tokenId",
					"type": "uint256"
				}
			],
			"stateMutability": "view",
			"type": "function"
		},
		{
			"inputs": [
				{
					"internalType": "address",
					"name": "univ3pool",
					"type": "address"
				},
				{
					"internalType": "int24",
					"name": "width",
					"type": "int24"
				},
				{
					"internalType": "int24",
					"name": "strike",
					"type": "int24"
				},
				{
					"internalType": "uint256",
					"name": "asset",
					"type": "uint256"
				},
				{
					"internalType": "uint256",
					"name": "isLong",
					"type": "uint256"
				},
				{
					"internalType": "uint256",
					"name": "optionRatio",
					"type": "uint256"
				},
				{
					"internalType": "uint256",
					"name": "start",
					"type": "uint256"
				}
			],
			"name": "createStraddle",
			"outputs": [
				{
					"internalType": "TokenId",
					"name": "tokenId",
					"type": "uint256"
				}
			],
			"stateMutability": "view",
			"type": "function"
		},
		{
			"inputs": [
				{
					"internalType": "address",
					"name": "univ3pool",
					"type": "address"
				},
				{
					"internalType": "int24",
					"name": "width",
					"type": "int24"
				},
				{
					"internalType": "int24",
					"name": "callStrike",
					"type": "int24"
				},
				{
					"internalType": "int24",
					"name": "putStrike",
					"type": "int24"
				},
				{
					"internalType": "uint256",
					"name": "asset",
					"type": "uint256"
				},
				{
					"internalType": "uint256",
					"name": "isLong",
					"type": "uint256"
				},
				{
					"internalType": "uint256",
					"name": "optionRatio",
					"type": "uint256"
				},
				{
					"internalType": "uint256",
					"name": "start",
					"type": "uint256"
				}
			],
			"name": "createStrangle",
			"outputs": [
				{
					"internalType": "TokenId",
					"name": "tokenId",
					"type": "uint256"
				}
			],
			"stateMutability": "view",
			"type": "function"
		},
		{
			"inputs": [
				{
					"internalType": "address",
					"name": "univ3pool",
					"type": "address"
				},
				{
					"internalType": "int24",
					"name": "width",
					"type": "int24"
				},
				{
					"internalType": "int24",
					"name": "longPutStrike",
					"type": "int24"
				},
				{
					"internalType": "int24",
					"name": "shortPutStrike",
					"type": "int24"
				},
				{
					"internalType": "int24",
					"name": "shortCallStrike",
					"type": "int24"
				},
				{
					"internalType": "uint256",
					"name": "asset",
					"type": "uint256"
				}
			],
			"name": "createSuperBear",
			"outputs": [
				{
					"internalType": "TokenId",
					"name": "tokenId",
					"type": "uint256"
				}
			],
			"stateMutability": "view",
			"type": "function"
		},
		{
			"inputs": [
				{
					"internalType": "address",
					"name": "univ3pool",
					"type": "address"
				},
				{
					"internalType": "int24",
					"name": "width",
					"type": "int24"
				},
				{
					"internalType": "int24",
					"name": "longCallStrike",
					"type": "int24"
				},
				{
					"internalType": "int24",
					"name": "shortCallStrike",
					"type": "int24"
				},
				{
					"internalType": "int24",
					"name": "shortPutStrike",
					"type": "int24"
				},
				{
					"internalType": "uint256",
					"name": "asset",
					"type": "uint256"
				}
			],
			"name": "createSuperBull",
			"outputs": [
				{
					"internalType": "TokenId",
					"name": "tokenId",
					"type": "uint256"
				}
			],
			"stateMutability": "view",
			"type": "function"
		},
		{
			"inputs": [
				{
					"internalType": "address",
					"name": "univ3pool",
					"type": "address"
				},
				{
					"internalType": "int24",
					"name": "width",
					"type": "int24"
				},
				{
					"internalType": "int24",
					"name": "longStrike",
					"type": "int24"
				},
				{
					"internalType": "int24",
					"name": "shortStrike",
					"type": "int24"
				},
				{
					"internalType": "uint256",
					"name": "asset",
					"type": "uint256"
				},
				{
					"internalType": "uint256",
					"name": "ratio",
					"type": "uint256"
				}
			],
			"name": "createZEEHBS",
			"outputs": [
				{
					"internalType": "TokenId",
					"name": "tokenId",
					"type": "uint256"
				}
			],
			"stateMutability": "view",
			"type": "function"
		},
		{
			"inputs": [
				{
					"internalType": "address",
					"name": "pool",
					"type": "address"
				},
				{
					"internalType": "address",
					"name": "account",
					"type": "address"
				},
				{
					"internalType": "TokenId[]",
					"name": "positionIdList",
					"type": "uint256[]"
				}
			],
			"name": "findLiquidationPriceDown",
			"outputs": [
				{
					"internalType": "int24",
					"name": "liquidationTick",
					"type": "int24"
				}
			],
			"stateMutability": "view",
			"type": "function"
		},
		{
			"inputs": [
				{
					"internalType": "address",
					"name": "pool",
					"type": "address"
				},
				{
					"internalType": "address",
					"name": "account",
					"type": "address"
				},
				{
					"internalType": "TokenId[]",
					"name": "positionIdList",
					"type": "uint256[]"
				}
			],
			"name": "findLiquidationPriceUp",
			"outputs": [
				{
					"internalType": "int24",
					"name": "liquidationTick",
					"type": "int24"
				}
			],
			"stateMutability": "view",
			"type": "function"
		},
		{
			"inputs": [
				{
					"internalType": "contract PanopticPool",
					"name": "pool",
					"type": "address"
				},
				{
					"internalType": "address",
					"name": "account",
					"type": "address"
				},
				{
					"internalType": "TokenId[]",
					"name": "positionIdList",
					"type": "uint256[]"
				}
			],
			"name": "getChunkData",
			"outputs": [
				{
					"internalType": "uint256[][][]",
					"name": "",
					"type": "uint256[][][]"
				}
			],
			"stateMutability": "view",
			"type": "function"
		},
		{
			"inputs": [
				{
					"internalType": "contract PanopticPool",
					"name": "pool",
					"type": "address"
				},
				{
					"internalType": "TokenId",
					"name": "tokenId",
					"type": "uint256"
				},
				{
					"internalType": "int24",
					"name": "atTick",
					"type": "int24"
				}
			],
			"name": "getRequiredBase",
			"outputs": [
				{
					"internalType": "uint256",
					"name": "",
					"type": "uint256"
				}
			],
			"stateMutability": "view",
			"type": "function"
		},
		{
			"inputs": [
				{
					"internalType": "contract PanopticPool",
					"name": "pool",
					"type": "address"
				},
				{
					"internalType": "int24",
					"name": "atTick",
					"type": "int24"
				},
				{
					"internalType": "TokenId",
					"name": "tokenId",
					"type": "uint256"
				}
			],
			"name": "optimizeRiskPartners",
			"outputs": [
				{
					"internalType": "TokenId",
					"name": "",
					"type": "uint256"
				}
			],
			"stateMutability": "view",
			"type": "function"
		},
		{
			"inputs": [
				{
					"internalType": "contract PanopticPool",
					"name": "pool",
					"type": "address"
				},
				{
					"internalType": "address",
					"name": "account",
					"type": "address"
				},
				{
					"internalType": "TokenId",
					"name": "tokenId",
					"type": "uint256"
				}
			],
			"name": "optionPositionInfo",
			"outputs": [
				{
					"internalType": "uint128",
					"name": "",
					"type": "uint128"
				},
				{
					"internalType": "uint64",
					"name": "",
					"type": "uint64"
				},
				{
					"internalType": "uint64",
					"name": "",
					"type": "uint64"
				}
			],
			"stateMutability": "view",
			"type": "function"
		},
		{
			"inputs": [],
			"name": "reducedSize",
			"outputs": [
				{
					"internalType": "TokenId",
					"name": "newTokenId",
					"type": "uint256"
				},
				{
					"internalType": "uint128",
					"name": "newPositionSize",
					"type": "uint128"
				}
			],
			"stateMutability": "view",
			"type": "function"
		},
		{
			"inputs": [
				{
					"internalType": "contract IUniswapV3Pool",
					"name": "univ3pool",
					"type": "address"
				},
				{
					"internalType": "uint32",
					"name": "twapWindow",
					"type": "uint32"
				}
			],
			"name": "twapFilter",
			"outputs": [
				{
					"internalType": "int24",
					"name": "",
					"type": "int24"
				}
			],
			"stateMutability": "view",
			"type": "function"
		},
		{
			"inputs": [
				{
					"internalType": "TokenId",
					"name": "tokenId",
					"type": "uint256"
				}
			],
			"name": "unwrapTokenId",
			"outputs": [
				{
					"components": [
						{
							"internalType": "uint64",
							"name": "poolId",
							"type": "uint64"
						},
						{
							"internalType": "address",
							"name": "UniswapV3Pool",
							"type": "address"
						},
						{
							"internalType": "uint256",
							"name": "asset",
							"type": "uint256"
						},
						{
							"internalType": "uint256",
							"name": "optionRatio",
							"type": "uint256"
						},
						{
							"internalType": "uint256",
							"name": "tokenType",
							"type": "uint256"
						},
						{
							"internalType": "uint256",
							"name": "isLong",
							"type": "uint256"
						},
						{
							"internalType": "uint256",
							"name": "riskPartner",
							"type": "uint256"
						},
						{
							"internalType": "int24",
							"name": "strike",
							"type": "int24"
						},
						{
							"internalType": "int24",
							"name": "width",
							"type": "int24"
						}
					],
					"internalType": "struct PanopticHelper.Leg[]",
					"name": "",
					"type": "tuple[]"
				}
			],
			"stateMutability": "view",
			"type": "function"
		},
		{
			"inputs": [
				{
					"internalType": "TokenId",
					"name": "self",
					"type": "uint256"
				}
			],
			"name": "validateTokenId",
			"outputs": [],
			"stateMutability": "pure",
			"type": "function"
		}
	]
}