{
	"data": {
		"bytecode": {
			"linkReferences": {
				"lib/panoptic-v1-core/contracts/libraries/PanopticMath.sol": {
					"PanopticMath": [
						{
							"length": 20,
							"start": 3893
						},
						{
							"length": 20,
							"start": 8411
						}
					]
				}
			},
			"object": "60a060405260405161417738038061417783398101604081905261002291610033565b6001600160a01b0316608052610060565b5f60208284031215610043575f5ffd5b81516001600160a01b0381168114610059575f5ffd5b9392505050565b6080516140b96100be5f395f81816104e50152818161099701528181610a7601528181610b5701528181610be401528181610c6901528181610cd201528181610d53015281816115fd015281816119ba01526120c901526140b95ff3fe608060405234801561000f575f5ffd5b50600436106101dc575f3560e01c80639b82fff411610109578063ced04c021161009e578063e830adb91161006e578063e830adb914610474578063f322028614610487578063fa80f8f51461049a578063fd8c575e146104ad575f5ffd5b8063ced04c0214610413578063d27e5fa714610426578063d88162e514610439578063e0fb8ba314610461575f5ffd5b8063ad65d5b0116100d9578063ad65d5b01461038b578063c4cc192f146103ab578063ca64f419146103ed578063cd775a7e14610400575f5ffd5b80639b82fff4146103255780639bbc0fed146103385780639bd25cad14610365578063a2ae7fdc14610378575f5ffd5b806342df787e1161017f57806366deb4021161014f57806366deb402146102d957806371215b9c146102ec5780637da845be146102ff57806383b7033514610312575f5ffd5b806342df787e1461028d57806345d6704d146102a05780634804b3fb146102b357806357fced97146102c6575f5ffd5b806330da59f2116101ba57806330da59f21461023f578063321115d814610252578063346009011461026557806342189dee1461027a575f5ffd5b806306158ed5146101e05780630b69b2c6146102065780632228f0fa14610219575b5f5ffd5b6101f36101ee3660046133ef565b6104c0565b6040519081526020015b60405180910390f35b6101f3610214366004613461565b6105a1565b61022c61022736600461350b565b6105d8565b60405160029190910b81526020016101fd565b61022c61024d36600461350b565b6107af565b6101f36102603660046133ef565b610972565b61027861027336600461356b565b6109f8565b005b6101f3610288366004613582565b610a2b565b6101f361029b3660046135f7565b610a51565b6101f36102ae366004613582565b610aea565b6101f36102c1366004613582565b610b0e565b6101f36102d43660046133ef565b610b32565b6101f36102e73660046133ef565b610bbf565b6101f36102fa3660046133ef565b610c44565b6101f361030d366004613672565b610cad565b6101f36103203660046133ef565b610d2e565b6101f3610333366004613582565b610d97565b61034b6103463660046136f7565b610dcd565b6040805160029390930b83526020830191909152016101fd565b6101f361037336600461372d565b610ee3565b61022c61038636600461376b565b6114a9565b61039e61039936600461356b565b611535565b6040516101fd919061379d565b6103be6103b9366004613861565b61184e565b604080516001600160801b0390941684526001600160401b0392831660208501529116908201526060016101fd565b6101f36103fb366004613461565b611973565b6101f361040e366004613672565b611995565b6101f361042136600461388e565b611a16565b6101f36104343660046138ee565b611a45565b61044c610447366004613922565b611d57565b604080519283526020830191909152016101fd565b6101f361046f36600461388e565b611fb1565b61022c6104823660046139b2565b611ff1565b6101f36104953660046133ef565b612082565b6101f36104a83660046133ef565b612093565b6101f36104bb3660046139e9565b6120a4565b60405163caa9a08d60e01b81526001600160a01b0388811660048301525f9161055d917f0000000000000000000000000000000000000000000000000000000000000000169063caa9a08d906024015b602060405180830381865afa15801561052b573d5f5f3e3d5ffd5b505050506040513d601f19601f8201168201806040525081019061054f9190613a52565b6001600160401b0316820190565b90506105798183858760016105728482613a8c565b8c8e612129565b90506105958161058a846001613a8c565b85875f878b8e612129565b98975050505050505050565b5f6105b18787878787875f610972565b90506105c35f87878787876002610b32565b6105cd9082613a8c565b979650505050505050565b5f5f856001600160a01b0316634f94c5306040518163ffffffff1660e01b8152600401602060405180830381865afa158015610616573d5f5f3e3d5ffd5b505050506040513d601f19601f8201168201806040525081019061063a9190613a9f565b6001600160a01b0316633850c7bd6040518163ffffffff1660e01b815260040160e060405180830381865afa158015610675573d5f5f3e3d5ffd5b505050506040513d601f19601f820116820180604052508101906106999190613adf565b50505050509150505f612710826106b09190613b6c565b905081620186a05b816106c68a8a868b8b61213b565b6106d38b8b868c8c61213b565b6106dd9190613b91565b6106e78585613b6c565b60020b6106f78c8c878d8d61213b565b6107019190613bb7565b61070b9190613bfa565b8360020b6107199190613b91565b90935091506107288185613c26565b60020b8260020b138061074957506107408185613b6c565b60020b8260020b125b1561075e57620d89e7199450505050506107a7565b5f6107768a8a61076f600187613b6c565b8b8b61213b565b13155f6107908b8b610789876001613c26565b8c8c61213b565b1215036107a2575092506107a7915050565b6106b8565b949350505050565b5f5f856001600160a01b0316634f94c5306040518163ffffffff1660e01b8152600401602060405180830381865afa1580156107ed573d5f5f3e3d5ffd5b505050506040513d601f19601f820116820180604052508101906108119190613a9f565b6001600160a01b0316633850c7bd6040518163ffffffff1660e01b815260040160e060405180830381865afa15801561084c573d5f5f3e3d5ffd5b505050506040513d601f19601f820116820180604052508101906108709190613adf565b50505050509150505f8190505f8261271061088b9190613c26565b9050620186a05b816108a08a8a868b8b61213b565b6108ad8b8b868c8c61213b565b6108b79190613b91565b6108c18585613b6c565b60020b6108d18c8c878d8d61213b565b6108db9190613bb7565b6108e59190613bfa565b8360020b6108f39190613b91565b90935091506109028185613c26565b60020b8260020b1380610923575061091a8185613b6c565b60020b8260020b125b1561093757620d89e89450505050506107a7565b5f6109488a8a61076f600187613b6c565b13155f61095b8b8b610789876001613c26565b12150361096d575092506107a7915050565b610892565b60405163caa9a08d60e01b81526001600160a01b0388811660048301525f916109c6917f0000000000000000000000000000000000000000000000000000000000000000169063caa9a08d90602401610510565b90506109db8183858760016105728482613a8c565b9050610595816109ec846001613a8c565b6001875f878b8e612129565b610a018161215b565b5f5b610a0c8261241d565b811015610a2757610a1d8282612498565b5050600101610a03565b5050565b5f610a3d87878686865f600180610a51565b90506105cd815f60018560015f8b8d612129565b60405163caa9a08d60e01b81526001600160a01b0389811660048301525f91610aa5917f0000000000000000000000000000000000000000000000000000000000000000169063caa9a08d90602401610510565b9050610ac18183858888610aba846001613a8c565b8d8f612129565b9050610add81610ad2846001613a8c565b858888878c8f6124cf565b9998505050505050505050565b5f610afb87878787866001806104c0565b90506105cd815f6001855f5f898d6124cf565b5f610b1f8787878786600180610d2e565b90506105cd815f6001855f5f898d612129565b60405163caa9a08d60e01b81526001600160a01b0388811660048301525f91610b86917f0000000000000000000000000000000000000000000000000000000000000000169063caa9a08d90602401610510565b9050610ba2818385876001610b9b8482613a8c565b8c8e6124cf565b905061059581610bb3846001613a8c565b6001875f878b8e6124cf565b60405163caa9a08d60e01b81526001600160a01b0388811660048301525f91610c13917f0000000000000000000000000000000000000000000000000000000000000000169063caa9a08d90602401610510565b9050610c28818360018781610b9b8482613a8c565b905061059581610c39846001613a8c565b85875f878b8e6124cf565b60405163caa9a08d60e01b81526001600160a01b0388811660048301525f91610c98917f0000000000000000000000000000000000000000000000000000000000000000169063caa9a08d90602401610510565b90506105798183600187816105728482613a8c565b60405163caa9a08d60e01b81526001600160a01b0389811660048301525f91610d01917f0000000000000000000000000000000000000000000000000000000000000000169063caa9a08d90602401610510565b9050610d1d818385876001610d168482613a8c565b8c8f6124cf565b9050610add81610c39846001613a8c565b60405163caa9a08d60e01b81526001600160a01b0388811660048301525f91610d82917f0000000000000000000000000000000000000000000000000000000000000000169063caa9a08d90602401610510565b9050610c28818385876001610b9b8482613a8c565b5f610db18787610da78689613c26565b888660015f6104c0565b90506105c35f87610dc28688613b6c565b878660016002610d2e565b5f5f5f5f846001600160a01b0316633850c7bd6040518163ffffffff1660e01b815260040160e060405180830381865afa158015610e0d573d5f5f3e3d5ffd5b505050506040513d601f19601f82011682018060405250810190610e319190613adf565b5050604051635601910160e01b815261ffff808516600483015283166024820152604481018d9052606481018c90526001600160a01b038b16608482015292965090945073__$456fadf283f3fd4e5988ce95e661c81a1f$__9350635601910192505060a4016040805180830381865af4158015610eb1573d5f5f3e3d5ffd5b505050506040513d601f19601f82011682018060405250810190610ed59190613c4b565b935093505050935093915050565b5f5f610eee8361241d565b905080600103610f0157829150506114a2565b7ffffffffff3fffffffffff3fffffffffff3fffffffffff3ffffffffffffffffff831660605f6002849003610fbc5750604080516002808252606082018352918290602083019080368337019050509150610f6a600180610f63865f806124e2565b91906124e2565b825f81518110610f7c57610f7c613c8b565b6020908102919091010152610f985f6001610f638682846124e2565b82600181518110610fab57610fab613c8b565b6020026020010181815250506112f1565b836003036110a6575060408051600480825260a082019092528160208201608080368337019050509150610ffb600280610f6360018082895f806124e2565b825f8151811061100d5761100d613c8b565b602090810291909101015261102d600280610f635f6001828982846124e2565b8260018151811061104057611040613c8b565b60209081029190910101526110605f6002610f63600180828985876124e2565b8260028151811061107357611073613c8b565b602090810291909101015261109360016002610f63818382895f806124e2565b82600381518110610fab57610fab613c8b565b5060408051600a80825261016082019092528160208201610140803683370190505091506110e3600380610f6360028082600180828c5f806124e2565b825f815181106110f5576110f5613c8b565b6020908102919091010152611119600380610f63600280825f6001828c82846124e2565b8260018151811061112c5761112c613c8b565b6020908102919091010152611150600380610f635f600282600180828c85876124e2565b8260028151811061116357611163613c8b565b60209081029190910101526111875f6003610f6360028082600180828c888a6124e2565b8260038151811061119a5761119a613c8b565b60209081029190910101526111be600380610f6360016002828183828c5f806124e2565b826004815181106111d1576111d1613c8b565b60209081029190910101526111f560016003610f63600280828486828c5f806124e2565b8260058151811061120857611208613c8b565b602090810291909101015261122c60026003610f63818382600180828c5f806124e2565b8260068151811061123f5761123f613c8b565b602090810291909101015261126360026003610f638183825f6001828c82846124e2565b8260078151811061127657611276613c8b565b602090810291909101015261129a60016003610f635f6002828486828c85876124e2565b826008815181106112ad576112ad613c8b565b60209081029190910101526112d15f6003610f6382600282816001828c88876124e2565b826009815181106112e4576112e4613c8b565b6020026020010181815250505b5f306001600160a01b031663d27e5fa78a855f8151811061131457611314613c8b565b60209081029190910101516040516001600160e01b031960e085901b1681526001600160a01b039092166004830152602482015260028b900b6044820152606401602060405180830381865afa158015611370573d5f5f3e3d5ffd5b505050506040513d601f19601f820116820180604052508101906113949190613c9f565b90505f835f815181106113a9576113a9613c8b565b602002602001015190505f600190505b8381101561149457306001600160a01b031663d27e5fa78c8784815181106113e3576113e3613c8b565b60209081029190910101516040516001600160e01b031960e085901b1681526001600160a01b039092166004830152602482015260028d900b6044820152606401602060405180830381865afa92505050801561145d575060408051601f3d908101601f1916820190925261145a91810190613c9f565b60015b1561148c578381101561148a5785828151811061147c5761147c613c8b565b602002602001015192508093505b505b6001016113b9565b5095506114a2945050505050565b9392505050565b5f5f5f856001600160a01b0316633850c7bd6040518163ffffffff1660e01b815260040160e060405180830381865afa1580156114e8573d5f5f3e3d5ffd5b505050506040513d601f19601f8201168201806040525081019061150c9190613adf565b50505093509350505061152a868361ffff168361ffff1688886124fc565b509695505050505050565b60605f6115418361241d565b90505f816001600160401b0381111561155c5761155c613c77565b6040519080825280602002602001820160405280156115eb57816020015b6115d86040518061012001604052805f6001600160401b031681526020015f6001600160a01b031681526020015f81526020015f81526020015f81526020015f81526020015f81526020015f60020b81526020015f60020b81525090565b81526020019060019003908161157a5790505b5090505f8490505f6001600160a01b037f000000000000000000000000000000000000000000000000000000000000000016633f8e156e876040516001600160e01b031960e084901b1681526001600160401b039091166004820152602401602060405180830381865afa158015611665573d5f5f3e3d5ffd5b505050506040513d601f19601f820116820180604052508101906116899190613a9f565b90505f5b8481101561184357828482815181106116a8576116a8613c8b565b60200260200101515f01906001600160401b031690816001600160401b031681525050818482815181106116de576116de613c8b565b6020908102919091018101516001600160a01b0390921691015261170287826127b5565b84828151811061171457611714613c8b565b60209081029190910101516040015261172d87826127cb565b84828151811061173f5761173f613c8b565b60209081029190910101516060015261175887826127dd565b84828151811061176a5761176a613c8b565b60209081029190910101516080015261178387826127ef565b84828151811061179557611795613c8b565b602090810291909101015160a001526117ae8782612801565b8482815181106117c0576117c0613c8b565b602090810291909101015160c001526117de8782603002604c011c90565b8482815181106117f0576117f0613c8b565b602090810291909101015160029190910b60e0909101526118118782612813565b84828151811061182357611823613c8b565b602090810291909101015160029190910b6101009091015260010161168d565b509195945050505050565b6040805160018082528183019092525f91829182918291906020808301908036833701905050905084815f8151811061188957611889613c8b565b6020908102919091010152604051632ca8b09160e11b81525f906001600160a01b038916906359516122906118c6908a9085908790600401613cb6565b5f60405180830381865afa1580156118e0573d5f5f3e3d5ffd5b505050506040513d5f823e601f3d908101601f191682016040526119079190810190613d6e565b925050505f815f8151811061191e5761191e613c8b565b602002602001015160016002811061193857611938613c8b565b602002015190508061194a8260801c90565b60406119568460801c90565b6001600160801b0316901c95509550955050505093509350939050565b5f6119838787878787875f610c44565b90506105c35f87878787876002610bbf565b60405163caa9a08d60e01b81526001600160a01b0389811660048301525f916119e9917f0000000000000000000000000000000000000000000000000000000000000000169063caa9a08d90602401610510565b9050611a058183858760016119fe8482613a8c565b8c8f612129565b9050610add8161058a846001613a8c565b5f611a27868685855f6001806120a4565b9050611a3b815f60018560015f8a8c612129565b9695505050505050565b604051633460090160e01b8152600481018390525f9030906334600901906024015f6040518083038186803b158015611a7c575f5ffd5b505afa925050508015611a8d575060015b611a9f57506001600160801b036114a2565b6040805160018082528183019092525f91816020015b611abd6133ac565b815260200190600190039081611ab557905050905083815f81518110611ae557611ae5613c8b565b60200260200101515f60028110611afe57611afe613c8b565b6020020152805165ffffffffffff9082905f90611b1d57611b1d613c8b565b6020026020010151600160028110611b3757611b37613c8b565b602002018181525050611b7a84825f81518110611b5657611b56613c8b565b6020026020010151600160028110611b7057611b70613c8b565b6020020151612826565b15611d47575f856001600160a01b0316637594cdc36040518163ffffffff1660e01b8152600401602060405180830381865afa158015611bbc573d5f5f3e3d5ffd5b505050506040513d601f19601f82011682018060405250810190611be09190613a9f565b6001600160a01b03166309e0851061dead86855f5f6040518663ffffffff1660e01b8152600401611c15959493929190613ed3565b602060405180830381865afa158015611c30573d5f5f3e3d5ffd5b505050506040513d601f19601f82011682018060405250810190611c549190613c9f565b90505f866001600160a01b0316634d7b09006040518163ffffffff1660e01b8152600401602060405180830381865afa158015611c93573d5f5f3e3d5ffd5b505050506040513d601f19601f82011682018060405250810190611cb79190613a9f565b6001600160a01b03166309e0851061dead87865f5f6040518663ffffffff1660e01b8152600401611cec959493929190613ed3565b602060405180830381865afa158015611d07573d5f5f3e3d5ffd5b505050506040513d601f19601f82011682018060405250810190611d2b9190613c9f565b90505f611d3a83835f89612948565b95506114a2945050505050565b506001600160801b0390506114a2565b5f5f5f5f5f8a6001600160a01b031663595161228b5f8a8a6040518563ffffffff1660e01b8152600401611d8e9493929190613f1e565b5f60405180830381865afa158015611da8573d5f5f3e3d5ffd5b505050506040513d5f823e601f3d908101601f19168201604052611dcf9190810190613d6e565b9250925092505f8b6001600160a01b0316637594cdc36040518163ffffffff1660e01b8152600401602060405180830381865afa158015611e12573d5f5f3e3d5ffd5b505050506040513d601f19601f82011682018060405250810190611e369190613a9f565b6001600160a01b03166309e085108c8c8588886040518663ffffffff1660e01b8152600401611e69959493929190613ed3565b602060405180830381865afa158015611e84573d5f5f3e3d5ffd5b505050506040513d601f19601f82011682018060405250810190611ea89190613c9f565b90505f8c6001600160a01b0316634d7b09006040518163ffffffff1660e01b8152600401602060405180830381865afa158015611ee7573d5f5f3e3d5ffd5b505050506040513d601f19601f82011682018060405250810190611f0b9190613a9f565b6001600160a01b03166309e085108d8d86611f268a60801c90565b611f308a60801c90565b6040518663ffffffff1660e01b8152600401611f50959493929190613ed3565b602060405180830381865afa158015611f6b573d5f5f3e3d5ffd5b505050506040513d601f19601f82011682018060405250810190611f8f9190613c9f565b9050611f9d82828c8e612948565b965096505050505050965096945050505050565b5f611fcb868686611fc28782613c26565b8660015f6104c0565b9050611fe75f8686611fdd8782613b6c565b8660016002610d2e565b611a3b9082613a8c565b604051632d60befd60e11b81526001600160a01b038316600482015263ffffffff821660248201525f9073__$456fadf283f3fd4e5988ce95e661c81a1f$__90635ac17dfa90604401602060405180830381865af4158015612055573d5f5f3e3d5ffd5b505050506040513d601f19601f820116820180604052508101906120799190613f72565b90505b92915050565b5f6105958888888889898989610cad565b5f6105958888888889898989611995565b60405163caa9a08d60e01b81526001600160a01b0388811660048301525f916120f8917f0000000000000000000000000000000000000000000000000000000000000000169063caa9a08d90602401610510565b905061210d8183858888610572846001613a8c565b90506105958161211e846001613a8c565b858888878c8e6124cf565b5f610add89898989895f8a8a8a61296c565b5f5f5f61214c8888885f8989611d57565b90925090506105958183613b91565b612165815f6127cb565b5f0361218c576040516393db026360e01b8152600160048201526024015b60405180910390fd5b77fffffffff200fffffffff200fffffffff200fffffffff200604082901c165f5b60048110156121f1576121c083826127cb565b5f036121f6576040603082020183901c156121f1576040516393db026360e01b815260016004820152602401612183565b505050565b5f6122008461241d565b9050600182015b81811015612256578060300284901c65ffffffffffff168360300285901c65ffffffffffff160361224e576040516393db026360e01b815260066004820152602401612183565b600101612207565b506122618483612813565b60020b5f03612286576040516393db026360e01b815260056004820152602401612183565b620d89e71961229a8584603002604c011c90565b60020b14806122bc5750620d89e86122b78584603002604c011c90565b60020b145b156122dc576040516393db026360e01b8152600481810152602401612183565b5f6122e78584612801565b905082811461241357826122fb8683612801565b1461231c576040516393db026360e01b815260036004820152602401612183565b61232685846127b5565b61233086836127b5565b14158061234f575061234285846127cb565b61234c86836127cb565b14155b15612370576040516393db026360e01b815260036004820152602401612183565b5f61237b86856127ef565b90505f61238887846127ef565b90505f61239588876127dd565b90505f6123a289866127dd565b905082841480156123b257508082145b156123d2576040516393db026360e01b8152600481810152602401612183565b82841415806123e15750836001145b80156123ed5750808214155b1561240e576040516393db026360e01b815260056004820152602401612183565b505050505b50506001016121ad565b5f7afe0000000000fe0000000000fe0000000000fe00000000000000008216600160401b81101561245057505f92915050565b600160701b8110156124655750600192915050565b600160a01b81101561247a5750600292915050565b600160d01b81101561248f5750600392915050565b50600492915050565b5f806124c46124ac8585603002604c011c90565b6124b68686612813565b603087901c61ffff166129dd565b909590945092505050565b5f610add898989898960018a8a8a61296c565b5f604a60308302016004845b06901b840190509392505050565b5f5f5f846001016001600160401b0381111561251a5761251a613c77565b604051908082528060200260200182016040528015612543578160200160208202803683370190505b5090505f856001016001600160401b0381111561256257612562613c77565b60405190808252806020026020018201604052801561258b578160200160208202803683370190505b5090505f5b8660010181101561267157896001600160a01b031663252c09d7898a8985028d0301816125bf576125bf613be6565b066040518263ffffffff1660e01b81526004016125de91815260200190565b608060405180830381865afa1580156125f9573d5f5f3e3d5ffd5b505050506040513d601f19601f8201168201806040525081019061261d9190613f8d565b8363ffffffff1693508260060b925090505083838151811061264157612641613c8b565b6020026020010185848151811061265a5761265a613c8b565b602090810291909101019190915252600101612590565b505f866001600160401b0381111561268b5761268b613c77565b6040519080825280602002602001820160405280156126b4578160200160208202803683370190505b5090505f5b87811015612764578281600101815181106126d6576126d6613c8b565b60200260200101518382815181106126f0576126f0613c8b565b60200260200101510384826001018151811061270e5761270e613c8b565b602002602001015185838151811061272857612728613c8b565b6020026020010151038161273e5761273e613be6565b0582828151811061275157612751613c8b565b60209081029190910101526001016126b9565b5061276e81612abb565b600288048151811061278257612782613c8b565b6020026020010151815f8151811061279c5761279c613c8b565b6020026020010151945094505050509550959350505050565b5f60026040603084020184901c5b069392505050565b5f60806041603084020184901c6127c3565b5f60026049603084020184901c6127c3565b5f60026048603084020184901c6127c3565b5f6004604a603084020184901c6127c3565b5f6110006064603084020184901c6127c3565b5f5f5b6128328461241d565b81101561293e575f8080806128478886612498565b915091505f61287861285884612ad0565b6001600160a01b031661286a84612ad0565b6001600160a01b0316612deb565b9050805f0361288f575f965050505050505061207c565b61289989876127b5565b5f036128cf576128a989876127cb565b6128b39089613fec565b6001600160801b031694506128c88582612e49565b9350612900565b6128d989876127cb565b6128e39089613fec565b6001600160801b031693506128fd84600160601b83612e7a565b94505b6001600160781b0385118061291b57506001600160781b0384115b1561292e575f965050505050505061207c565b5050505050806001019050612829565b5060019392505050565b5f5f61295e86868661295987612ad0565b612eb6565b915091505b94509492505050565b5f6129788a898b612f73565b905061298581888b612f83565b905061299281878b612f93565b905061299f81868b612fa3565b90506129ac81858b6124e2565b905062ffffff8316604c60308b02011b81019050610fff8216606460308b02011b81019a9950505050505050505050565b5f808083600281900b620d89e719816129f8576129f8613be6565b050290505f84600281900b620d89e881612a1457612a14613be6565b050290505f5f612a248888612fb3565b818b0397508a810196509092509050600287810b9087900b81612a4957612a49613be6565b0760020b151580612a7157508660020b8560020b81612a6a57612a6a613be6565b0760020b15155b80612a8157508360020b8660020b125b80612a9157508260020b8560020b135b15612aaf5760405163c82825f560e01b815260040160405180910390fd5b50505050935093915050565b6060612acc825f6001855103612ff6565b5090565b5f5f5f8360020b12612ae5578260020b612aec565b8260020b5f035b9050620d89e8811115612b12576040516333a3bdff60e21b815260040160405180910390fd5b5f816001165f03612b2757600160801b612b39565b6ffffcb933bd6fad37aa2d162d1a5940015b70ffffffffffffffffffffffffffffffffff1690506002821615612b6d576ffff97272373d413259a46990580e213a0260801c5b6004821615612b8c576ffff2e50f5f656932ef12357cf3c7fdcc0260801c5b6008821615612bab576fffe5caca7e10e4e61c3624eaa0941cd00260801c5b6010821615612bca576fffcb9843d60f6159c9db58835c9266440260801c5b6020821615612be9576fff973b41fa98c081472e6896dfb254c00260801c5b6040821615612c08576fff2ea16466c96a3843ec78b326b528610260801c5b6080821615612c27576ffe5dee046a99a2a811c461f1969c30530260801c5b610100821615612c47576ffcbe86c7900a88aedcffc83b479aa3a40260801c5b610200821615612c67576ff987a7253ac413176f2b074cf7815e540260801c5b610400821615612c87576ff3392b0822b70005940c7a398e4b70f30260801c5b610800821615612ca7576fe7159475a2c29b7443b29c7fa6e889d90260801c5b611000821615612cc7576fd097f3bdfd2022b8845ad8f792aa58250260801c5b612000821615612ce7576fa9f746462d870fdf8a65dc1f90e061e50260801c5b614000821615612d07576f70d869a156d2a1b890bb3df62baf32f70260801c5b618000821615612d27576f31be135f97d08fd981231505542fcfa60260801c5b62010000821615612d48576f09aa508b5b7a84e1c677de54f3e99bc90260801c5b62020000821615612d68576e5d6af8dedb81196699c329225ee6040260801c5b62040000821615612d87576d2216e584f5fa1ea926041bedfe980260801c5b62080000821615612da4576b048a170391f7dc42444e8fa20260801c5b5f8460020b1315612dc357805f1981612dbf57612dbf613be6565b0490505b640100000000810615612dd7576001612dd9565b5f5b60ff16602082901c0192505050919050565b5f80805f19848609848602925082811083820303915050805f03612e14575060601c905061207c565b80600160601b11612e23575f5ffd5b5f600160601b85870980840360601c9310909103600160a01b0291909117949350505050565b5f612e548383612deb565b90505f600160601b838509111561207c575f198110612e71575f5ffd5b60010192915050565b5f612e86848484613141565b90505f8280612e9757612e97613be6565b84860911156114a2575f198110612eac575f5ffd5b6001019392505050565b5f5f835f03612f2757612ed2856001600160801b0316846131eb565b612ee5906001600160801b038816613a8c565b612f01612ef28760801c90565b6001600160801b0316856131eb565b612f0b8860801c90565b6001600160801b0316612f1e9190613a8c565b91509150612963565b612f3a866001600160801b031684613247565b612f4d906001600160801b038716613a8c565b612f69612f5a8860801c90565b6001600160801b031685613247565b612f0b8760801c90565b5f604160308302016080846124ee565b5f604060308302016002846124ee565b5f604860308302016002846124ee565b5f604960308302016002846124ee565b5f806002612fc1848661400e565b612fcb919061402d565b612fea612fd88587614065565b62ffffff166002808204910615150190565b915091505b9250929050565b8181808203613006575050505050565b5f8560028686030586018151811061302057613020613c8b565b602002602001015190505b81831215613113575b8086848151811061304757613047613c8b565b6020026020010151121561306057600190920191613034565b85828151811061307257613072613c8b565b602002602001015181121561308c575f1990910190613060565b81831361310e578582815181106130a5576130a5613c8b565b60200260200101518684815181106130bf576130bf613c8b565b60200260200101518785815181106130d9576130d9613c8b565b602002602001018885815181106130f2576130f2613c8b565b6020908102919091010191909152526001909201915f19909101905b61302b565b8185121561312657613126868684612ff6565b8383121561313957613139868486612ff6565b505050505050565b5f80805f19858709858702925082811083820303915050805f03613175575f841161316a575f5ffd5b5082900490506114a2565b808411613180575f5ffd5b5f848688095f868103871696879004966002600389028118808a02820302808a02820302808a02820302808a02820302808a02820302808a02909103029181900381900460010186841190950394909402919094039290920491909117919091029150509392505050565b5f6001600160801b036001600160a01b03831610156132265761321f83600160c01b6002856001600160a01b03160a613141565b905061207c565b61321f83600160801b6132426001600160a01b03861680613292565b613141565b5f6001600160801b036001600160a01b03831610156132765761321f836002846001600160a01b03160a6132f0565b61321f8361328d6001600160a01b03851680613292565b61334e565b5f80805f19848609848602925082811083820303915050805f036132bb575060401c905061207c565b80600160401b116132ca575f5ffd5b5f600160401b85870980840360401c9310909103600160c01b0291909117949350505050565b5f80805f19848609848602925082811083820303915050805f03613319575060c01c905061207c565b80600160c01b11613328575f5ffd5b5f600160c01b85870980840360c01c9310909103600160401b0291909117949350505050565b5f80805f19848609848602925082811083820303915050805f03613377575060801c905061207c565b80600160801b11613386575f5ffd5b5f600160801b85870980840360801c9310909103600160801b0291909117949350505050565b60405180604001604052806002906020820280368337509192915050565b6001600160a01b03811681146133de575f5ffd5b50565b8060020b81146133de575f5ffd5b5f5f5f5f5f5f5f60e0888a031215613405575f5ffd5b8735613410816133ca565b96506020880135613420816133e1565b95506040880135613430816133e1565b94506060880135613440816133e1565b9699959850939660808101359560a0820135955060c0909101359350915050565b5f5f5f5f5f5f60c08789031215613476575f5ffd5b8635613481816133ca565b95506020870135613491816133e1565b945060408701356134a1816133e1565b935060608701356134b1816133e1565b9598949750929560808101359460a0909101359350915050565b5f5f83601f8401126134db575f5ffd5b5081356001600160401b038111156134f1575f5ffd5b6020830191508360208260051b8501011115612fef575f5ffd5b5f5f5f5f6060858703121561351e575f5ffd5b8435613529816133ca565b93506020850135613539816133ca565b925060408501356001600160401b03811115613553575f5ffd5b61355f878288016134cb565b95989497509550505050565b5f6020828403121561357b575f5ffd5b5035919050565b5f5f5f5f5f5f60c08789031215613597575f5ffd5b86356135a2816133ca565b955060208701356135b2816133e1565b945060408701356135c2816133e1565b935060608701356135d2816133e1565b925060808701356135e2816133e1565b9598949750929591949360a090920135925050565b5f5f5f5f5f5f5f5f610100898b03121561360f575f5ffd5b883561361a816133ca565b9750602089013561362a816133e1565b9650604089013561363a816133e1565b9550606089013561364a816133e1565b979a969950949760808101359660a0820135965060c0820135955060e0909101359350915050565b5f5f5f5f5f5f5f5f610100898b03121561368a575f5ffd5b8835613695816133ca565b975060208901356136a5816133e1565b965060408901356136b5816133e1565b955060608901356136c5816133e1565b945060808901356136d5816133e1565b979a969950949793969560a0850135955060c08501359460e001359350915050565b5f5f5f60608486031215613709575f5ffd5b83359250602084013591506040840135613722816133ca565b809150509250925092565b5f5f5f6060848603121561373f575f5ffd5b833561374a816133ca565b9250602084013561375a816133e1565b929592945050506040919091013590565b5f5f5f6060848603121561377d575f5ffd5b8335613788816133ca565b95602085013595506040909401359392505050565b602080825282518282018190525f918401906040840190835b818110156138565783516001600160401b03815116845260018060a01b03602082015116602085015260408101516040850152606081015160608501526080810151608085015260a081015160a085015260c081015160c085015260e081015161382560e086018260020b9052565b50610100810151905061383e61010085018260020b9052565b506020939093019261012092909201916001016137b6565b509095945050505050565b5f5f5f60608486031215613873575f5ffd5b833561387e816133ca565b9250602084013561375a816133ca565b5f5f5f5f5f60a086880312156138a2575f5ffd5b85356138ad816133ca565b945060208601356138bd816133e1565b935060408601356138cd816133e1565b925060608601356138dd816133e1565b949793965091946080013592915050565b5f5f5f60608486031215613900575f5ffd5b833561390b816133ca565b9250602084013591506040840135613722816133e1565b5f5f5f5f5f5f60a08789031215613937575f5ffd5b8635613942816133ca565b95506020870135613952816133ca565b94506040870135613962816133e1565b93506060870135925060808701356001600160401b03811115613983575f5ffd5b61398f89828a016134cb565b979a9699509497509295939492505050565b63ffffffff811681146133de575f5ffd5b5f5f604083850312156139c3575f5ffd5b82356139ce816133ca565b915060208301356139de816139a1565b809150509250929050565b5f5f5f5f5f5f5f60e0888a0312156139ff575f5ffd5b8735613a0a816133ca565b96506020880135613a1a816133e1565b95506040880135613a2a816133e1565b969995985095966060810135965060808101359560a0820135955060c0909101359350915050565b5f60208284031215613a62575f5ffd5b81516001600160401b03811681146114a2575f5ffd5b634e487b7160e01b5f52601160045260245ffd5b8082018082111561207c5761207c613a78565b5f60208284031215613aaf575f5ffd5b81516114a2816133ca565b805161ffff81168114613acb575f5ffd5b919050565b80518015158114613acb575f5ffd5b5f5f5f5f5f5f5f60e0888a031215613af5575f5ffd5b8751613b00816133ca565b6020890151909750613b11816133e1565b9550613b1f60408901613aba565b9450613b2d60608901613aba565b9350613b3b60808901613aba565b925060a088015160ff81168114613b50575f5ffd5b9150613b5e60c08901613ad0565b905092959891949750929550565b600282810b9082900b03627fffff198112627fffff8213171561207c5761207c613a78565b8181035f831280158383131683831282161715613bb057613bb0613a78565b5092915050565b8082025f8212600160ff1b84141615613bd257613bd2613a78565b818105831482151761207c5761207c613a78565b634e487b7160e01b5f52601260045260245ffd5b5f82613c0857613c08613be6565b600160ff1b82145f1984141615613c2157613c21613a78565b500590565b600281810b9083900b01627fffff8113627fffff198212171561207c5761207c613a78565b5f5f60408385031215613c5c575f5ffd5b8251613c67816133e1565b6020939093015192949293505050565b634e487b7160e01b5f52604160045260245ffd5b634e487b7160e01b5f52603260045260245ffd5b5f60208284031215613caf575f5ffd5b5051919050565b6001600160a01b038416815282151560208083019190915260606040830181905283519083018190525f918401906080840190835b81811015613d09578351835260209384019390920191600101613ceb565b5090979650505050505050565b604080519081016001600160401b0381118282101715613d3857613d38613c77565b60405290565b604051601f8201601f191681016001600160401b0381118282101715613d6657613d66613c77565b604052919050565b5f5f5f60608486031215613d80575f5ffd5b83516020850151604086015191945092506001600160401b03811115613da4575f5ffd5b8401601f81018613613db4575f5ffd5b80516001600160401b03811115613dcd57613dcd613c77565b613ddc60208260051b01613d3e565b8082825260208201915060208360061b850101925088831115613dfd575f5ffd5b6020840193505b82841015613e645788601f850112613e1a575f5ffd5b613e22613d16565b80604086018b811115613e33575f5ffd5b865b81811015613e4d578051845260209384019301613e35565b505083525060409390930192602090910190613e04565b809450505050509250925092565b5f8151808452602084019350602083015f5b82811015613ec9578151865f5b6002811015613eb0578251825260209283019290910190600101613e91565b5050506040959095019460209190910190600101613e84565b5093949350505050565b60018060a01b03861681528460020b602082015260a060408201525f613efc60a0830186613e72565b6001600160801b03948516606084015292909316608090910152949350505050565b6001600160a01b0385168152831515602082015260606040820181905281018290525f8360808301825b85811015613f66578235825260209283019290910190600101613f48565b50979650505050505050565b5f60208284031215613f82575f5ffd5b81516114a2816133e1565b5f5f5f5f60808587031215613fa0575f5ffd5b8451613fab816139a1565b8094505060208501518060060b8114613fc2575f5ffd5b6040860151909350613fd3816133ca565b9150613fe160608601613ad0565b905092959194509250565b6001600160801b038181168382160290811690818114613bb057613bb0613a78565b5f8260020b8260020b028060020b9150808214613bb057613bb0613a78565b5f8160020b8360020b8061404357614043613be6565b627fffff1982145f198214161561405c5761405c613a78565b90059392505050565b62ffffff8181168382160290811690818114613bb057613bb0613a7856fea264697066735822122074805d794ef25c0a58ce97e7f476c0b977f03bbf19724afa03aee3595f76947464736f6c634300081b0033",
			"opcodes": "PUSH1 0xA0 PUSH1 0x40 MSTORE PUSH1 0x40 MLOAD PUSH2 0x4177 CODESIZE SUB DUP1 PUSH2 0x4177 DUP4 CODECOPY DUP2 ADD PUSH1 0x40 DUP2 SWAP1 MSTORE PUSH2 0x22 SWAP2 PUSH2 0x33 JUMP JUMPDEST PUSH1 0x1 PUSH1 0x1 PUSH1 0xA0 SHL SUB AND PUSH1 0x80 MSTORE PUSH2 0x60 JUMP JUMPDEST PUSH0 PUSH1 0x20 DUP3 DUP5 SUB SLT ISZERO PUSH2 0x43 JUMPI PUSH0 PUSH0 REVERT JUMPDEST DUP2 MLOAD PUSH1 0x1 PUSH1 0x1 PUSH1 0xA0 SHL SUB DUP2 AND DUP2 EQ PUSH2 0x59 JUMPI PUSH0 PUSH0 REVERT JUMPDEST SWAP4 SWAP3 POP POP POP JUMP JUMPDEST PUSH1 0x80 MLOAD PUSH2 0x40B9 PUSH2 0xBE PUSH0 CODECOPY PUSH0 DUP2 DUP2 PUSH2 0x4E5 ADD MSTORE DUP2 DUP2 PUSH2 0x997 ADD MSTORE DUP2 DUP2 PUSH2 0xA76 ADD MSTORE DUP2 DUP2 PUSH2 0xB57 ADD MSTORE DUP2 DUP2 PUSH2 0xBE4 ADD MSTORE DUP2 DUP2 PUSH2 0xC69 ADD MSTORE DUP2 DUP2 PUSH2 0xCD2 ADD MSTORE DUP2 DUP2 PUSH2 0xD53 ADD MSTORE DUP2 DUP2 PUSH2 0x15FD ADD MSTORE DUP2 DUP2 PUSH2 0x19BA ADD MSTORE PUSH2 0x20C9 ADD MSTORE PUSH2 0x40B9 PUSH0 RETURN INVALID PUSH1 0x80 PUSH1 0x40 MSTORE CALLVALUE DUP1 ISZERO PUSH2 0xF JUMPI PUSH0 PUSH0 REVERT JUMPDEST POP PUSH1 0x4 CALLDATASIZE LT PUSH2 0x1DC JUMPI PUSH0 CALLDATALOAD PUSH1 0xE0 SHR DUP1 PUSH4 0x9B82FFF4 GT PUSH2 0x109 JUMPI DUP1 PUSH4 0xCED04C02 GT PUSH2 0x9E JUMPI DUP1 PUSH4 0xE830ADB9 GT PUSH2 0x6E JUMPI DUP1 PUSH4 0xE830ADB9 EQ PUSH2 0x474 JUMPI DUP1 PUSH4 0xF3220286 EQ PUSH2 0x487 JUMPI DUP1 PUSH4 0xFA80F8F5 EQ PUSH2 0x49A JUMPI DUP1 PUSH4 0xFD8C575E EQ PUSH2 0x4AD JUMPI PUSH0 PUSH0 REVERT JUMPDEST DUP1 PUSH4 0xCED04C02 EQ PUSH2 0x413 JUMPI DUP1 PUSH4 0xD27E5FA7 EQ PUSH2 0x426 JUMPI DUP1 PUSH4 0xD88162E5 EQ PUSH2 0x439 JUMPI DUP1 PUSH4 0xE0FB8BA3 EQ PUSH2 0x461 JUMPI PUSH0 PUSH0 REVERT JUMPDEST DUP1 PUSH4 0xAD65D5B0 GT PUSH2 0xD9 JUMPI DUP1 PUSH4 0xAD65D5B0 EQ PUSH2 0x38B JUMPI DUP1 PUSH4 0xC4CC192F EQ PUSH2 0x3AB JUMPI DUP1 PUSH4 0xCA64F419 EQ PUSH2 0x3ED JUMPI DUP1 PUSH4 0xCD775A7E EQ PUSH2 0x400 JUMPI PUSH0 PUSH0 REVERT JUMPDEST DUP1 PUSH4 0x9B82FFF4 EQ PUSH2 0x325 JUMPI DUP1 PUSH4 0x9BBC0FED EQ PUSH2 0x338 JUMPI DUP1 PUSH4 0x9BD25CAD EQ PUSH2 0x365 JUMPI DUP1 PUSH4 0xA2AE7FDC EQ PUSH2 0x378 JUMPI PUSH0 PUSH0 REVERT JUMPDEST DUP1 PUSH4 0x42DF787E GT PUSH2 0x17F JUMPI DUP1 PUSH4 0x66DEB402 GT PUSH2 0x14F JUMPI DUP1 PUSH4 0x66DEB402 EQ PUSH2 0x2D9 JUMPI DUP1 PUSH4 0x71215B9C EQ PUSH2 0x2EC JUMPI DUP1 PUSH4 0x7DA845BE EQ PUSH2 0x2FF JUMPI DUP1 PUSH4 0x83B70335 EQ PUSH2 0x312 JUMPI PUSH0 PUSH0 REVERT JUMPDEST DUP1 PUSH4 0x42DF787E EQ PUSH2 0x28D JUMPI DUP1 PUSH4 0x45D6704D EQ PUSH2 0x2A0 JUMPI DUP1 PUSH4 0x4804B3FB EQ PUSH2 0x2B3 JUMPI DUP1 PUSH4 0x57FCED97 EQ PUSH2 0x2C6 JUMPI PUSH0 PUSH0 REVERT JUMPDEST DUP1 PUSH4 0x30DA59F2 GT PUSH2 0x1BA JUMPI DUP1 PUSH4 0x30DA59F2 EQ PUSH2 0x23F JUMPI DUP1 PUSH4 0x321115D8 EQ PUSH2 0x252 JUMPI DUP1 PUSH4 0x34600901 EQ PUSH2 0x265 JUMPI DUP1 PUSH4 0x42189DEE EQ PUSH2 0x27A JUMPI PUSH0 PUSH0 REVERT JUMPDEST DUP1 PUSH4 0x6158ED5 EQ PUSH2 0x1E0 JUMPI DUP1 PUSH4 0xB69B2C6 EQ PUSH2 0x206 JUMPI DUP1 PUSH4 0x2228F0FA EQ PUSH2 0x219 JUMPI JUMPDEST PUSH0 PUSH0 REVERT JUMPDEST PUSH2 0x1F3 PUSH2 0x1EE CALLDATASIZE PUSH1 0x4 PUSH2 0x33EF JUMP JUMPDEST PUSH2 0x4C0 JUMP JUMPDEST PUSH1 0x40 MLOAD SWAP1 DUP2 MSTORE PUSH1 0x20 ADD JUMPDEST PUSH1 0x40 MLOAD DUP1 SWAP2 SUB SWAP1 RETURN JUMPDEST PUSH2 0x1F3 PUSH2 0x214 CALLDATASIZE PUSH1 0x4 PUSH2 0x3461 JUMP JUMPDEST PUSH2 0x5A1 JUMP JUMPDEST PUSH2 0x22C PUSH2 0x227 CALLDATASIZE PUSH1 0x4 PUSH2 0x350B JUMP JUMPDEST PUSH2 0x5D8 JUMP JUMPDEST PUSH1 0x40 MLOAD PUSH1 0x2 SWAP2 SWAP1 SWAP2 SIGNEXTEND DUP2 MSTORE PUSH1 0x20 ADD PUSH2 0x1FD JUMP JUMPDEST PUSH2 0x22C PUSH2 0x24D CALLDATASIZE PUSH1 0x4 PUSH2 0x350B JUMP JUMPDEST PUSH2 0x7AF JUMP JUMPDEST PUSH2 0x1F3 PUSH2 0x260 CALLDATASIZE PUSH1 0x4 PUSH2 0x33EF JUMP JUMPDEST PUSH2 0x972 JUMP JUMPDEST PUSH2 0x278 PUSH2 0x273 CALLDATASIZE PUSH1 0x4 PUSH2 0x356B JUMP JUMPDEST PUSH2 0x9F8 JUMP JUMPDEST STOP JUMPDEST PUSH2 0x1F3 PUSH2 0x288 CALLDATASIZE PUSH1 0x4 PUSH2 0x3582 JUMP JUMPDEST PUSH2 0xA2B JUMP JUMPDEST PUSH2 0x1F3 PUSH2 0x29B CALLDATASIZE PUSH1 0x4 PUSH2 0x35F7 JUMP JUMPDEST PUSH2 0xA51 JUMP JUMPDEST PUSH2 0x1F3 PUSH2 0x2AE CALLDATASIZE PUSH1 0x4 PUSH2 0x3582 JUMP JUMPDEST PUSH2 0xAEA JUMP JUMPDEST PUSH2 0x1F3 PUSH2 0x2C1 CALLDATASIZE PUSH1 0x4 PUSH2 0x3582 JUMP JUMPDEST PUSH2 0xB0E JUMP JUMPDEST PUSH2 0x1F3 PUSH2 0x2D4 CALLDATASIZE PUSH1 0x4 PUSH2 0x33EF JUMP JUMPDEST PUSH2 0xB32 JUMP JUMPDEST PUSH2 0x1F3 PUSH2 0x2E7 CALLDATASIZE PUSH1 0x4 PUSH2 0x33EF JUMP JUMPDEST PUSH2 0xBBF JUMP JUMPDEST PUSH2 0x1F3 PUSH2 0x2FA CALLDATASIZE PUSH1 0x4 PUSH2 0x33EF JUMP JUMPDEST PUSH2 0xC44 JUMP JUMPDEST PUSH2 0x1F3 PUSH2 0x30D CALLDATASIZE PUSH1 0x4 PUSH2 0x3672 JUMP JUMPDEST PUSH2 0xCAD JUMP JUMPDEST PUSH2 0x1F3 PUSH2 0x320 CALLDATASIZE PUSH1 0x4 PUSH2 0x33EF JUMP JUMPDEST PUSH2 0xD2E JUMP JUMPDEST PUSH2 0x1F3 PUSH2 0x333 CALLDATASIZE PUSH1 0x4 PUSH2 0x3582 JUMP JUMPDEST PUSH2 0xD97 JUMP JUMPDEST PUSH2 0x34B PUSH2 0x346 CALLDATASIZE PUSH1 0x4 PUSH2 0x36F7 JUMP JUMPDEST PUSH2 0xDCD JUMP JUMPDEST PUSH1 0x40 DUP1 MLOAD PUSH1 0x2 SWAP4 SWAP1 SWAP4 SIGNEXTEND DUP4 MSTORE PUSH1 0x20 DUP4 ADD SWAP2 SWAP1 SWAP2 MSTORE ADD PUSH2 0x1FD JUMP JUMPDEST PUSH2 0x1F3 PUSH2 0x373 CALLDATASIZE PUSH1 0x4 PUSH2 0x372D JUMP JUMPDEST PUSH2 0xEE3 JUMP JUMPDEST PUSH2 0x22C PUSH2 0x386 CALLDATASIZE PUSH1 0x4 PUSH2 0x376B JUMP JUMPDEST PUSH2 0x14A9 JUMP JUMPDEST PUSH2 0x39E PUSH2 0x399 CALLDATASIZE PUSH1 0x4 PUSH2 0x356B JUMP JUMPDEST PUSH2 0x1535 JUMP JUMPDEST PUSH1 0x40 MLOAD PUSH2 0x1FD SWAP2 SWAP1 PUSH2 0x379D JUMP JUMPDEST PUSH2 0x3BE PUSH2 0x3B9 CALLDATASIZE PUSH1 0x4 PUSH2 0x3861 JUMP JUMPDEST PUSH2 0x184E JUMP JUMPDEST PUSH1 0x40 DUP1 MLOAD PUSH1 0x1 PUSH1 0x1 PUSH1 0x80 SHL SUB SWAP1 SWAP5 AND DUP5 MSTORE PUSH1 0x1 PUSH1 0x1 PUSH1 0x40 SHL SUB SWAP3 DUP4 AND PUSH1 0x20 DUP6 ADD MSTORE SWAP2 AND SWAP1 DUP3 ADD MSTORE PUSH1 0x60 ADD PUSH2 0x1FD JUMP JUMPDEST PUSH2 0x1F3 PUSH2 0x3FB CALLDATASIZE PUSH1 0x4 PUSH2 0x3461 JUMP JUMPDEST PUSH2 0x1973 JUMP JUMPDEST PUSH2 0x1F3 PUSH2 0x40E CALLDATASIZE PUSH1 0x4 PUSH2 0x3672 JUMP JUMPDEST PUSH2 0x1995 JUMP JUMPDEST PUSH2 0x1F3 PUSH2 0x421 CALLDATASIZE PUSH1 0x4 PUSH2 0x388E JUMP JUMPDEST PUSH2 0x1A16 JUMP JUMPDEST PUSH2 0x1F3 PUSH2 0x434 CALLDATASIZE PUSH1 0x4 PUSH2 0x38EE JUMP JUMPDEST PUSH2 0x1A45 JUMP JUMPDEST PUSH2 0x44C PUSH2 0x447 CALLDATASIZE PUSH1 0x4 PUSH2 0x3922 JUMP JUMPDEST PUSH2 0x1D57 JUMP JUMPDEST PUSH1 0x40 DUP1 MLOAD SWAP3 DUP4 MSTORE PUSH1 0x20 DUP4 ADD SWAP2 SWAP1 SWAP2 MSTORE ADD PUSH2 0x1FD JUMP JUMPDEST PUSH2 0x1F3 PUSH2 0x46F CALLDATASIZE PUSH1 0x4 PUSH2 0x388E JUMP JUMPDEST PUSH2 0x1FB1 JUMP JUMPDEST PUSH2 0x22C PUSH2 0x482 CALLDATASIZE PUSH1 0x4 PUSH2 0x39B2 JUMP JUMPDEST PUSH2 0x1FF1 JUMP JUMPDEST PUSH2 0x1F3 PUSH2 0x495 CALLDATASIZE PUSH1 0x4 PUSH2 0x33EF JUMP JUMPDEST PUSH2 0x2082 JUMP JUMPDEST PUSH2 0x1F3 PUSH2 0x4A8 CALLDATASIZE PUSH1 0x4 PUSH2 0x33EF JUMP JUMPDEST PUSH2 0x2093 JUMP JUMPDEST PUSH2 0x1F3 PUSH2 0x4BB CALLDATASIZE PUSH1 0x4 PUSH2 0x39E9 JUMP JUMPDEST PUSH2 0x20A4 JUMP JUMPDEST PUSH1 0x40 MLOAD PUSH4 0xCAA9A08D PUSH1 0xE0 SHL DUP2 MSTORE PUSH1 0x1 PUSH1 0x1 PUSH1 0xA0 SHL SUB DUP9 DUP2 AND PUSH1 0x4 DUP4 ADD MSTORE PUSH0 SWAP2 PUSH2 0x55D SWAP2 PUSH32 0x0 AND SWAP1 PUSH4 0xCAA9A08D SWAP1 PUSH1 0x24 ADD JUMPDEST PUSH1 0x20 PUSH1 0x40 MLOAD DUP1 DUP4 SUB DUP2 DUP7 GAS STATICCALL ISZERO DUP1 ISZERO PUSH2 0x52B JUMPI RETURNDATASIZE PUSH0 PUSH0 RETURNDATACOPY RETURNDATASIZE PUSH0 REVERT JUMPDEST POP POP POP POP PUSH1 0x40 MLOAD RETURNDATASIZE PUSH1 0x1F NOT PUSH1 0x1F DUP3 ADD AND DUP3 ADD DUP1 PUSH1 0x40 MSTORE POP DUP2 ADD SWAP1 PUSH2 0x54F SWAP2 SWAP1 PUSH2 0x3A52 JUMP JUMPDEST PUSH1 0x1 PUSH1 0x1 PUSH1 0x40 SHL SUB AND DUP3 ADD SWAP1 JUMP JUMPDEST SWAP1 POP PUSH2 0x579 DUP2 DUP4 DUP6 DUP8 PUSH1 0x1 PUSH2 0x572 DUP5 DUP3 PUSH2 0x3A8C JUMP JUMPDEST DUP13 DUP15 PUSH2 0x2129 JUMP JUMPDEST SWAP1 POP PUSH2 0x595 DUP2 PUSH2 0x58A DUP5 PUSH1 0x1 PUSH2 0x3A8C JUMP JUMPDEST DUP6 DUP8 PUSH0 DUP8 DUP12 DUP15 PUSH2 0x2129 JUMP JUMPDEST SWAP9 SWAP8 POP POP POP POP POP POP POP POP JUMP JUMPDEST PUSH0 PUSH2 0x5B1 DUP8 DUP8 DUP8 DUP8 DUP8 DUP8 PUSH0 PUSH2 0x972 JUMP JUMPDEST SWAP1 POP PUSH2 0x5C3 PUSH0 DUP8 DUP8 DUP8 DUP8 DUP8 PUSH1 0x2 PUSH2 0xB32 JUMP JUMPDEST PUSH2 0x5CD SWAP1 DUP3 PUSH2 0x3A8C JUMP JUMPDEST SWAP8 SWAP7 POP POP POP POP POP POP POP JUMP JUMPDEST PUSH0 PUSH0 DUP6 PUSH1 0x1 PUSH1 0x1 PUSH1 0xA0 SHL SUB AND PUSH4 0x4F94C530 PUSH1 0x40 MLOAD DUP2 PUSH4 0xFFFFFFFF AND PUSH1 0xE0 SHL DUP2 MSTORE PUSH1 0x4 ADD PUSH1 0x20 PUSH1 0x40 MLOAD DUP1 DUP4 SUB DUP2 DUP7 GAS STATICCALL ISZERO DUP1 ISZERO PUSH2 0x616 JUMPI RETURNDATASIZE PUSH0 PUSH0 RETURNDATACOPY RETURNDATASIZE PUSH0 REVERT JUMPDEST POP POP POP POP PUSH1 0x40 MLOAD RETURNDATASIZE PUSH1 0x1F NOT PUSH1 0x1F DUP3 ADD AND DUP3 ADD DUP1 PUSH1 0x40 MSTORE POP DUP2 ADD SWAP1 PUSH2 0x63A SWAP2 SWAP1 PUSH2 0x3A9F JUMP JUMPDEST PUSH1 0x1 PUSH1 0x1 PUSH1 0xA0 SHL SUB AND PUSH4 0x3850C7BD PUSH1 0x40 MLOAD DUP2 PUSH4 0xFFFFFFFF AND PUSH1 0xE0 SHL DUP2 MSTORE PUSH1 0x4 ADD PUSH1 0xE0 PUSH1 0x40 MLOAD DUP1 DUP4 SUB DUP2 DUP7 GAS STATICCALL ISZERO DUP1 ISZERO PUSH2 0x675 JUMPI RETURNDATASIZE PUSH0 PUSH0 RETURNDATACOPY RETURNDATASIZE PUSH0 REVERT JUMPDEST POP POP POP POP PUSH1 0x40 MLOAD RETURNDATASIZE PUSH1 0x1F NOT PUSH1 0x1F DUP3 ADD AND DUP3 ADD DUP1 PUSH1 0x40 MSTORE POP DUP2 ADD SWAP1 PUSH2 0x699 SWAP2 SWAP1 PUSH2 0x3ADF JUMP JUMPDEST POP POP POP POP POP SWAP2 POP POP PUSH0 PUSH2 0x2710 DUP3 PUSH2 0x6B0 SWAP2 SWAP1 PUSH2 0x3B6C JUMP JUMPDEST SWAP1 POP DUP2 PUSH3 0x186A0 JUMPDEST DUP2 PUSH2 0x6C6 DUP11 DUP11 DUP7 DUP12 DUP12 PUSH2 0x213B JUMP JUMPDEST PUSH2 0x6D3 DUP12 DUP12 DUP7 DUP13 DUP13 PUSH2 0x213B JUMP JUMPDEST PUSH2 0x6DD SWAP2 SWAP1 PUSH2 0x3B91 JUMP JUMPDEST PUSH2 0x6E7 DUP6 DUP6 PUSH2 0x3B6C JUMP JUMPDEST PUSH1 0x2 SIGNEXTEND PUSH2 0x6F7 DUP13 DUP13 DUP8 DUP14 DUP14 PUSH2 0x213B JUMP JUMPDEST PUSH2 0x701 SWAP2 SWAP1 PUSH2 0x3BB7 JUMP JUMPDEST PUSH2 0x70B SWAP2 SWAP1 PUSH2 0x3BFA JUMP JUMPDEST DUP4 PUSH1 0x2 SIGNEXTEND PUSH2 0x719 SWAP2 SWAP1 PUSH2 0x3B91 JUMP JUMPDEST SWAP1 SWAP4 POP SWAP2 POP PUSH2 0x728 DUP2 DUP6 PUSH2 0x3C26 JUMP JUMPDEST PUSH1 0x2 SIGNEXTEND DUP3 PUSH1 0x2 SIGNEXTEND SGT DUP1 PUSH2 0x749 JUMPI POP PUSH2 0x740 DUP2 DUP6 PUSH2 0x3B6C JUMP JUMPDEST PUSH1 0x2 SIGNEXTEND DUP3 PUSH1 0x2 SIGNEXTEND SLT JUMPDEST ISZERO PUSH2 0x75E JUMPI PUSH3 0xD89E7 NOT SWAP5 POP POP POP POP POP PUSH2 0x7A7 JUMP JUMPDEST PUSH0 PUSH2 0x776 DUP11 DUP11 PUSH2 0x76F PUSH1 0x1 DUP8 PUSH2 0x3B6C JUMP JUMPDEST DUP12 DUP12 PUSH2 0x213B JUMP JUMPDEST SGT ISZERO PUSH0 PUSH2 0x790 DUP12 DUP12 PUSH2 0x789 DUP8 PUSH1 0x1 PUSH2 0x3C26 JUMP JUMPDEST DUP13 DUP13 PUSH2 0x213B JUMP JUMPDEST SLT ISZERO SUB PUSH2 0x7A2 JUMPI POP SWAP3 POP PUSH2 0x7A7 SWAP2 POP POP JUMP JUMPDEST PUSH2 0x6B8 JUMP JUMPDEST SWAP5 SWAP4 POP POP POP POP JUMP JUMPDEST PUSH0 PUSH0 DUP6 PUSH1 0x1 PUSH1 0x1 PUSH1 0xA0 SHL SUB AND PUSH4 0x4F94C530 PUSH1 0x40 MLOAD DUP2 PUSH4 0xFFFFFFFF AND PUSH1 0xE0 SHL DUP2 MSTORE PUSH1 0x4 ADD PUSH1 0x20 PUSH1 0x40 MLOAD DUP1 DUP4 SUB DUP2 DUP7 GAS STATICCALL ISZERO DUP1 ISZERO PUSH2 0x7ED JUMPI RETURNDATASIZE PUSH0 PUSH0 RETURNDATACOPY RETURNDATASIZE PUSH0 REVERT JUMPDEST POP POP POP POP PUSH1 0x40 MLOAD RETURNDATASIZE PUSH1 0x1F NOT PUSH1 0x1F DUP3 ADD AND DUP3 ADD DUP1 PUSH1 0x40 MSTORE POP DUP2 ADD SWAP1 PUSH2 0x811 SWAP2 SWAP1 PUSH2 0x3A9F JUMP JUMPDEST PUSH1 0x1 PUSH1 0x1 PUSH1 0xA0 SHL SUB AND PUSH4 0x3850C7BD PUSH1 0x40 MLOAD DUP2 PUSH4 0xFFFFFFFF AND PUSH1 0xE0 SHL DUP2 MSTORE PUSH1 0x4 ADD PUSH1 0xE0 PUSH1 0x40 MLOAD DUP1 DUP4 SUB DUP2 DUP7 GAS STATICCALL ISZERO DUP1 ISZERO PUSH2 0x84C JUMPI RETURNDATASIZE PUSH0 PUSH0 RETURNDATACOPY RETURNDATASIZE PUSH0 REVERT JUMPDEST POP POP POP POP PUSH1 0x40 MLOAD RETURNDATASIZE PUSH1 0x1F NOT PUSH1 0x1F DUP3 ADD AND DUP3 ADD DUP1 PUSH1 0x40 MSTORE POP DUP2 ADD SWAP1 PUSH2 0x870 SWAP2 SWAP1 PUSH2 0x3ADF JUMP JUMPDEST POP POP POP POP POP SWAP2 POP POP PUSH0 DUP2 SWAP1 POP PUSH0 DUP3 PUSH2 0x2710 PUSH2 0x88B SWAP2 SWAP1 PUSH2 0x3C26 JUMP JUMPDEST SWAP1 POP PUSH3 0x186A0 JUMPDEST DUP2 PUSH2 0x8A0 DUP11 DUP11 DUP7 DUP12 DUP12 PUSH2 0x213B JUMP JUMPDEST PUSH2 0x8AD DUP12 DUP12 DUP7 DUP13 DUP13 PUSH2 0x213B JUMP JUMPDEST PUSH2 0x8B7 SWAP2 SWAP1 PUSH2 0x3B91 JUMP JUMPDEST PUSH2 0x8C1 DUP6 DUP6 PUSH2 0x3B6C JUMP JUMPDEST PUSH1 0x2 SIGNEXTEND PUSH2 0x8D1 DUP13 DUP13 DUP8 DUP14 DUP14 PUSH2 0x213B JUMP JUMPDEST PUSH2 0x8DB SWAP2 SWAP1 PUSH2 0x3BB7 JUMP JUMPDEST PUSH2 0x8E5 SWAP2 SWAP1 PUSH2 0x3BFA JUMP JUMPDEST DUP4 PUSH1 0x2 SIGNEXTEND PUSH2 0x8F3 SWAP2 SWAP1 PUSH2 0x3B91 JUMP JUMPDEST SWAP1 SWAP4 POP SWAP2 POP PUSH2 0x902 DUP2 DUP6 PUSH2 0x3C26 JUMP JUMPDEST PUSH1 0x2 SIGNEXTEND DUP3 PUSH1 0x2 SIGNEXTEND SGT DUP1 PUSH2 0x923 JUMPI POP PUSH2 0x91A DUP2 DUP6 PUSH2 0x3B6C JUMP JUMPDEST PUSH1 0x2 SIGNEXTEND DUP3 PUSH1 0x2 SIGNEXTEND SLT JUMPDEST ISZERO PUSH2 0x937 JUMPI PUSH3 0xD89E8 SWAP5 POP POP POP POP POP PUSH2 0x7A7 JUMP JUMPDEST PUSH0 PUSH2 0x948 DUP11 DUP11 PUSH2 0x76F PUSH1 0x1 DUP8 PUSH2 0x3B6C JUMP JUMPDEST SGT ISZERO PUSH0 PUSH2 0x95B DUP12 DUP12 PUSH2 0x789 DUP8 PUSH1 0x1 PUSH2 0x3C26 JUMP JUMPDEST SLT ISZERO SUB PUSH2 0x96D JUMPI POP SWAP3 POP PUSH2 0x7A7 SWAP2 POP POP JUMP JUMPDEST PUSH2 0x892 JUMP JUMPDEST PUSH1 0x40 MLOAD PUSH4 0xCAA9A08D PUSH1 0xE0 SHL DUP2 MSTORE PUSH1 0x1 PUSH1 0x1 PUSH1 0xA0 SHL SUB DUP9 DUP2 AND PUSH1 0x4 DUP4 ADD MSTORE PUSH0 SWAP2 PUSH2 0x9C6 SWAP2 PUSH32 0x0 AND SWAP1 PUSH4 0xCAA9A08D SWAP1 PUSH1 0x24 ADD PUSH2 0x510 JUMP JUMPDEST SWAP1 POP PUSH2 0x9DB DUP2 DUP4 DUP6 DUP8 PUSH1 0x1 PUSH2 0x572 DUP5 DUP3 PUSH2 0x3A8C JUMP JUMPDEST SWAP1 POP PUSH2 0x595 DUP2 PUSH2 0x9EC DUP5 PUSH1 0x1 PUSH2 0x3A8C JUMP JUMPDEST PUSH1 0x1 DUP8 PUSH0 DUP8 DUP12 DUP15 PUSH2 0x2129 JUMP JUMPDEST PUSH2 0xA01 DUP2 PUSH2 0x215B JUMP JUMPDEST PUSH0 JUMPDEST PUSH2 0xA0C DUP3 PUSH2 0x241D JUMP JUMPDEST DUP2 LT ISZERO PUSH2 0xA27 JUMPI PUSH2 0xA1D DUP3 DUP3 PUSH2 0x2498 JUMP JUMPDEST POP POP PUSH1 0x1 ADD PUSH2 0xA03 JUMP JUMPDEST POP POP JUMP JUMPDEST PUSH0 PUSH2 0xA3D DUP8 DUP8 DUP7 DUP7 DUP7 PUSH0 PUSH1 0x1 DUP1 PUSH2 0xA51 JUMP JUMPDEST SWAP1 POP PUSH2 0x5CD DUP2 PUSH0 PUSH1 0x1 DUP6 PUSH1 0x1 PUSH0 DUP12 DUP14 PUSH2 0x2129 JUMP JUMPDEST PUSH1 0x40 MLOAD PUSH4 0xCAA9A08D PUSH1 0xE0 SHL DUP2 MSTORE PUSH1 0x1 PUSH1 0x1 PUSH1 0xA0 SHL SUB DUP10 DUP2 AND PUSH1 0x4 DUP4 ADD MSTORE PUSH0 SWAP2 PUSH2 0xAA5 SWAP2 PUSH32 0x0 AND SWAP1 PUSH4 0xCAA9A08D SWAP1 PUSH1 0x24 ADD PUSH2 0x510 JUMP JUMPDEST SWAP1 POP PUSH2 0xAC1 DUP2 DUP4 DUP6 DUP9 DUP9 PUSH2 0xABA DUP5 PUSH1 0x1 PUSH2 0x3A8C JUMP JUMPDEST DUP14 DUP16 PUSH2 0x2129 JUMP JUMPDEST SWAP1 POP PUSH2 0xADD DUP2 PUSH2 0xAD2 DUP5 PUSH1 0x1 PUSH2 0x3A8C JUMP JUMPDEST DUP6 DUP9 DUP9 DUP8 DUP13 DUP16 PUSH2 0x24CF JUMP JUMPDEST SWAP10 SWAP9 POP POP POP POP POP POP POP POP POP JUMP JUMPDEST PUSH0 PUSH2 0xAFB DUP8 DUP8 DUP8 DUP8 DUP7 PUSH1 0x1 DUP1 PUSH2 0x4C0 JUMP JUMPDEST SWAP1 POP PUSH2 0x5CD DUP2 PUSH0 PUSH1 0x1 DUP6 PUSH0 PUSH0 DUP10 DUP14 PUSH2 0x24CF JUMP JUMPDEST PUSH0 PUSH2 0xB1F DUP8 DUP8 DUP8 DUP8 DUP7 PUSH1 0x1 DUP1 PUSH2 0xD2E JUMP JUMPDEST SWAP1 POP PUSH2 0x5CD DUP2 PUSH0 PUSH1 0x1 DUP6 PUSH0 PUSH0 DUP10 DUP14 PUSH2 0x2129 JUMP JUMPDEST PUSH1 0x40 MLOAD PUSH4 0xCAA9A08D PUSH1 0xE0 SHL DUP2 MSTORE PUSH1 0x1 PUSH1 0x1 PUSH1 0xA0 SHL SUB DUP9 DUP2 AND PUSH1 0x4 DUP4 ADD MSTORE PUSH0 SWAP2 PUSH2 0xB86 SWAP2 PUSH32 0x0 AND SWAP1 PUSH4 0xCAA9A08D SWAP1 PUSH1 0x24 ADD PUSH2 0x510 JUMP JUMPDEST SWAP1 POP PUSH2 0xBA2 DUP2 DUP4 DUP6 DUP8 PUSH1 0x1 PUSH2 0xB9B DUP5 DUP3 PUSH2 0x3A8C JUMP JUMPDEST DUP13 DUP15 PUSH2 0x24CF JUMP JUMPDEST SWAP1 POP PUSH2 0x595 DUP2 PUSH2 0xBB3 DUP5 PUSH1 0x1 PUSH2 0x3A8C JUMP JUMPDEST PUSH1 0x1 DUP8 PUSH0 DUP8 DUP12 DUP15 PUSH2 0x24CF JUMP JUMPDEST PUSH1 0x40 MLOAD PUSH4 0xCAA9A08D PUSH1 0xE0 SHL DUP2 MSTORE PUSH1 0x1 PUSH1 0x1 PUSH1 0xA0 SHL SUB DUP9 DUP2 AND PUSH1 0x4 DUP4 ADD MSTORE PUSH0 SWAP2 PUSH2 0xC13 SWAP2 PUSH32 0x0 AND SWAP1 PUSH4 0xCAA9A08D SWAP1 PUSH1 0x24 ADD PUSH2 0x510 JUMP JUMPDEST SWAP1 POP PUSH2 0xC28 DUP2 DUP4 PUSH1 0x1 DUP8 DUP2 PUSH2 0xB9B DUP5 DUP3 PUSH2 0x3A8C JUMP JUMPDEST SWAP1 POP PUSH2 0x595 DUP2 PUSH2 0xC39 DUP5 PUSH1 0x1 PUSH2 0x3A8C JUMP JUMPDEST DUP6 DUP8 PUSH0 DUP8 DUP12 DUP15 PUSH2 0x24CF JUMP JUMPDEST PUSH1 0x40 MLOAD PUSH4 0xCAA9A08D PUSH1 0xE0 SHL DUP2 MSTORE PUSH1 0x1 PUSH1 0x1 PUSH1 0xA0 SHL SUB DUP9 DUP2 AND PUSH1 0x4 DUP4 ADD MSTORE PUSH0 SWAP2 PUSH2 0xC98 SWAP2 PUSH32 0x0 AND SWAP1 PUSH4 0xCAA9A08D SWAP1 PUSH1 0x24 ADD PUSH2 0x510 JUMP JUMPDEST SWAP1 POP PUSH2 0x579 DUP2 DUP4 PUSH1 0x1 DUP8 DUP2 PUSH2 0x572 DUP5 DUP3 PUSH2 0x3A8C JUMP JUMPDEST PUSH1 0x40 MLOAD PUSH4 0xCAA9A08D PUSH1 0xE0 SHL DUP2 MSTORE PUSH1 0x1 PUSH1 0x1 PUSH1 0xA0 SHL SUB DUP10 DUP2 AND PUSH1 0x4 DUP4 ADD MSTORE PUSH0 SWAP2 PUSH2 0xD01 SWAP2 PUSH32 0x0 AND SWAP1 PUSH4 0xCAA9A08D SWAP1 PUSH1 0x24 ADD PUSH2 0x510 JUMP JUMPDEST SWAP1 POP PUSH2 0xD1D DUP2 DUP4 DUP6 DUP8 PUSH1 0x1 PUSH2 0xD16 DUP5 DUP3 PUSH2 0x3A8C JUMP JUMPDEST DUP13 DUP16 PUSH2 0x24CF JUMP JUMPDEST SWAP1 POP PUSH2 0xADD DUP2 PUSH2 0xC39 DUP5 PUSH1 0x1 PUSH2 0x3A8C JUMP JUMPDEST PUSH1 0x40 MLOAD PUSH4 0xCAA9A08D PUSH1 0xE0 SHL DUP2 MSTORE PUSH1 0x1 PUSH1 0x1 PUSH1 0xA0 SHL SUB DUP9 DUP2 AND PUSH1 0x4 DUP4 ADD MSTORE PUSH0 SWAP2 PUSH2 0xD82 SWAP2 PUSH32 0x0 AND SWAP1 PUSH4 0xCAA9A08D SWAP1 PUSH1 0x24 ADD PUSH2 0x510 JUMP JUMPDEST SWAP1 POP PUSH2 0xC28 DUP2 DUP4 DUP6 DUP8 PUSH1 0x1 PUSH2 0xB9B DUP5 DUP3 PUSH2 0x3A8C JUMP JUMPDEST PUSH0 PUSH2 0xDB1 DUP8 DUP8 PUSH2 0xDA7 DUP7 DUP10 PUSH2 0x3C26 JUMP JUMPDEST DUP9 DUP7 PUSH1 0x1 PUSH0 PUSH2 0x4C0 JUMP JUMPDEST SWAP1 POP PUSH2 0x5C3 PUSH0 DUP8 PUSH2 0xDC2 DUP7 DUP9 PUSH2 0x3B6C JUMP JUMPDEST DUP8 DUP7 PUSH1 0x1 PUSH1 0x2 PUSH2 0xD2E JUMP JUMPDEST PUSH0 PUSH0 PUSH0 PUSH0 DUP5 PUSH1 0x1 PUSH1 0x1 PUSH1 0xA0 SHL SUB AND PUSH4 0x3850C7BD PUSH1 0x40 MLOAD DUP2 PUSH4 0xFFFFFFFF AND PUSH1 0xE0 SHL DUP2 MSTORE PUSH1 0x4 ADD PUSH1 0xE0 PUSH1 0x40 MLOAD DUP1 DUP4 SUB DUP2 DUP7 GAS STATICCALL ISZERO DUP1 ISZERO PUSH2 0xE0D JUMPI RETURNDATASIZE PUSH0 PUSH0 RETURNDATACOPY RETURNDATASIZE PUSH0 REVERT JUMPDEST POP POP POP POP PUSH1 0x40 MLOAD RETURNDATASIZE PUSH1 0x1F NOT PUSH1 0x1F DUP3 ADD AND DUP3 ADD DUP1 PUSH1 0x40 MSTORE POP DUP2 ADD SWAP1 PUSH2 0xE31 SWAP2 SWAP1 PUSH2 0x3ADF JUMP JUMPDEST POP POP PUSH1 0x40 MLOAD PUSH4 0x56019101 PUSH1 0xE0 SHL DUP2 MSTORE PUSH2 0xFFFF DUP1 DUP6 AND PUSH1 0x4 DUP4 ADD MSTORE DUP4 AND PUSH1 0x24 DUP3 ADD MSTORE PUSH1 0x44 DUP2 ADD DUP14 SWAP1 MSTORE PUSH1 0x64 DUP2 ADD DUP13 SWAP1 MSTORE PUSH1 0x1 PUSH1 0x1 PUSH1 0xA0 SHL SUB DUP12 AND PUSH1 0x84 DUP3 ADD MSTORE SWAP3 SWAP7 POP SWAP1 SWAP5 POP PUSH20 0x0 SWAP4 POP PUSH4 0x56019101 SWAP3 POP POP PUSH1 0xA4 ADD PUSH1 0x40 DUP1 MLOAD DUP1 DUP4 SUB DUP2 DUP7 GAS DELEGATECALL ISZERO DUP1 ISZERO PUSH2 0xEB1 JUMPI RETURNDATASIZE PUSH0 PUSH0 RETURNDATACOPY RETURNDATASIZE PUSH0 REVERT JUMPDEST POP POP POP POP PUSH1 0x40 MLOAD RETURNDATASIZE PUSH1 0x1F NOT PUSH1 0x1F DUP3 ADD AND DUP3 ADD DUP1 PUSH1 0x40 MSTORE POP DUP2 ADD SWAP1 PUSH2 0xED5 SWAP2 SWAP1 PUSH2 0x3C4B JUMP JUMPDEST SWAP4 POP SWAP4 POP POP POP SWAP4 POP SWAP4 SWAP2 POP POP JUMP JUMPDEST PUSH0 PUSH0 PUSH2 0xEEE DUP4 PUSH2 0x241D JUMP JUMPDEST SWAP1 POP DUP1 PUSH1 0x1 SUB PUSH2 0xF01 JUMPI DUP3 SWAP2 POP POP PUSH2 0x14A2 JUMP JUMPDEST PUSH32 0xFFFFFFFFF3FFFFFFFFFFF3FFFFFFFFFFF3FFFFFFFFFFF3FFFFFFFFFFFFFFFFFF DUP4 AND PUSH1 0x60 PUSH0 PUSH1 0x2 DUP5 SWAP1 SUB PUSH2 0xFBC JUMPI POP PUSH1 0x40 DUP1 MLOAD PUSH1 0x2 DUP1 DUP3 MSTORE PUSH1 0x60 DUP3 ADD DUP4 MSTORE SWAP2 DUP3 SWAP1 PUSH1 0x20 DUP4 ADD SWAP1 DUP1 CALLDATASIZE DUP4 CALLDATACOPY ADD SWAP1 POP POP SWAP2 POP PUSH2 0xF6A PUSH1 0x1 DUP1 PUSH2 0xF63 DUP7 PUSH0 DUP1 PUSH2 0x24E2 JUMP JUMPDEST SWAP2 SWAP1 PUSH2 0x24E2 JUMP JUMPDEST DUP3 PUSH0 DUP2 MLOAD DUP2 LT PUSH2 0xF7C JUMPI PUSH2 0xF7C PUSH2 0x3C8B JUMP JUMPDEST PUSH1 0x20 SWAP1 DUP2 MUL SWAP2 SWAP1 SWAP2 ADD ADD MSTORE PUSH2 0xF98 PUSH0 PUSH1 0x1 PUSH2 0xF63 DUP7 DUP3 DUP5 PUSH2 0x24E2 JUMP JUMPDEST DUP3 PUSH1 0x1 DUP2 MLOAD DUP2 LT PUSH2 0xFAB JUMPI PUSH2 0xFAB PUSH2 0x3C8B JUMP JUMPDEST PUSH1 0x20 MUL PUSH1 0x20 ADD ADD DUP2 DUP2 MSTORE POP POP PUSH2 0x12F1 JUMP JUMPDEST DUP4 PUSH1 0x3 SUB PUSH2 0x10A6 JUMPI POP PUSH1 0x40 DUP1 MLOAD PUSH1 0x4 DUP1 DUP3 MSTORE PUSH1 0xA0 DUP3 ADD SWAP1 SWAP3 MSTORE DUP2 PUSH1 0x20 DUP3 ADD PUSH1 0x80 DUP1 CALLDATASIZE DUP4 CALLDATACOPY ADD SWAP1 POP POP SWAP2 POP PUSH2 0xFFB PUSH1 0x2 DUP1 PUSH2 0xF63 PUSH1 0x1 DUP1 DUP3 DUP10 PUSH0 DUP1 PUSH2 0x24E2 JUMP JUMPDEST DUP3 PUSH0 DUP2 MLOAD DUP2 LT PUSH2 0x100D JUMPI PUSH2 0x100D PUSH2 0x3C8B JUMP JUMPDEST PUSH1 0x20 SWAP1 DUP2 MUL SWAP2 SWAP1 SWAP2 ADD ADD MSTORE PUSH2 0x102D PUSH1 0x2 DUP1 PUSH2 0xF63 PUSH0 PUSH1 0x1 DUP3 DUP10 DUP3 DUP5 PUSH2 0x24E2 JUMP JUMPDEST DUP3 PUSH1 0x1 DUP2 MLOAD DUP2 LT PUSH2 0x1040 JUMPI PUSH2 0x1040 PUSH2 0x3C8B JUMP JUMPDEST PUSH1 0x20 SWAP1 DUP2 MUL SWAP2 SWAP1 SWAP2 ADD ADD MSTORE PUSH2 0x1060 PUSH0 PUSH1 0x2 PUSH2 0xF63 PUSH1 0x1 DUP1 DUP3 DUP10 DUP6 DUP8 PUSH2 0x24E2 JUMP JUMPDEST DUP3 PUSH1 0x2 DUP2 MLOAD DUP2 LT PUSH2 0x1073 JUMPI PUSH2 0x1073 PUSH2 0x3C8B JUMP JUMPDEST PUSH1 0x20 SWAP1 DUP2 MUL SWAP2 SWAP1 SWAP2 ADD ADD MSTORE PUSH2 0x1093 PUSH1 0x1 PUSH1 0x2 PUSH2 0xF63 DUP2 DUP4 DUP3 DUP10 PUSH0 DUP1 PUSH2 0x24E2 JUMP JUMPDEST DUP3 PUSH1 0x3 DUP2 MLOAD DUP2 LT PUSH2 0xFAB JUMPI PUSH2 0xFAB PUSH2 0x3C8B JUMP JUMPDEST POP PUSH1 0x40 DUP1 MLOAD PUSH1 0xA DUP1 DUP3 MSTORE PUSH2 0x160 DUP3 ADD SWAP1 SWAP3 MSTORE DUP2 PUSH1 0x20 DUP3 ADD PUSH2 0x140 DUP1 CALLDATASIZE DUP4 CALLDATACOPY ADD SWAP1 POP POP SWAP2 POP PUSH2 0x10E3 PUSH1 0x3 DUP1 PUSH2 0xF63 PUSH1 0x2 DUP1 DUP3 PUSH1 0x1 DUP1 DUP3 DUP13 PUSH0 DUP1 PUSH2 0x24E2 JUMP JUMPDEST DUP3 PUSH0 DUP2 MLOAD DUP2 LT PUSH2 0x10F5 JUMPI PUSH2 0x10F5 PUSH2 0x3C8B JUMP JUMPDEST PUSH1 0x20 SWAP1 DUP2 MUL SWAP2 SWAP1 SWAP2 ADD ADD MSTORE PUSH2 0x1119 PUSH1 0x3 DUP1 PUSH2 0xF63 PUSH1 0x2 DUP1 DUP3 PUSH0 PUSH1 0x1 DUP3 DUP13 DUP3 DUP5 PUSH2 0x24E2 JUMP JUMPDEST DUP3 PUSH1 0x1 DUP2 MLOAD DUP2 LT PUSH2 0x112C JUMPI PUSH2 0x112C PUSH2 0x3C8B JUMP JUMPDEST PUSH1 0x20 SWAP1 DUP2 MUL SWAP2 SWAP1 SWAP2 ADD ADD MSTORE PUSH2 0x1150 PUSH1 0x3 DUP1 PUSH2 0xF63 PUSH0 PUSH1 0x2 DUP3 PUSH1 0x1 DUP1 DUP3 DUP13 DUP6 DUP8 PUSH2 0x24E2 JUMP JUMPDEST DUP3 PUSH1 0x2 DUP2 MLOAD DUP2 LT PUSH2 0x1163 JUMPI PUSH2 0x1163 PUSH2 0x3C8B JUMP JUMPDEST PUSH1 0x20 SWAP1 DUP2 MUL SWAP2 SWAP1 SWAP2 ADD ADD MSTORE PUSH2 0x1187 PUSH0 PUSH1 0x3 PUSH2 0xF63 PUSH1 0x2 DUP1 DUP3 PUSH1 0x1 DUP1 DUP3 DUP13 DUP9 DUP11 PUSH2 0x24E2 JUMP JUMPDEST DUP3 PUSH1 0x3 DUP2 MLOAD DUP2 LT PUSH2 0x119A JUMPI PUSH2 0x119A PUSH2 0x3C8B JUMP JUMPDEST PUSH1 0x20 SWAP1 DUP2 MUL SWAP2 SWAP1 SWAP2 ADD ADD MSTORE PUSH2 0x11BE PUSH1 0x3 DUP1 PUSH2 0xF63 PUSH1 0x1 PUSH1 0x2 DUP3 DUP2 DUP4 DUP3 DUP13 PUSH0 DUP1 PUSH2 0x24E2 JUMP JUMPDEST DUP3 PUSH1 0x4 DUP2 MLOAD DUP2 LT PUSH2 0x11D1 JUMPI PUSH2 0x11D1 PUSH2 0x3C8B JUMP JUMPDEST PUSH1 0x20 SWAP1 DUP2 MUL SWAP2 SWAP1 SWAP2 ADD ADD MSTORE PUSH2 0x11F5 PUSH1 0x1 PUSH1 0x3 PUSH2 0xF63 PUSH1 0x2 DUP1 DUP3 DUP5 DUP7 DUP3 DUP13 PUSH0 DUP1 PUSH2 0x24E2 JUMP JUMPDEST DUP3 PUSH1 0x5 DUP2 MLOAD DUP2 LT PUSH2 0x1208 JUMPI PUSH2 0x1208 PUSH2 0x3C8B JUMP JUMPDEST PUSH1 0x20 SWAP1 DUP2 MUL SWAP2 SWAP1 SWAP2 ADD ADD MSTORE PUSH2 0x122C PUSH1 0x2 PUSH1 0x3 PUSH2 0xF63 DUP2 DUP4 DUP3 PUSH1 0x1 DUP1 DUP3 DUP13 PUSH0 DUP1 PUSH2 0x24E2 JUMP JUMPDEST DUP3 PUSH1 0x6 DUP2 MLOAD DUP2 LT PUSH2 0x123F JUMPI PUSH2 0x123F PUSH2 0x3C8B JUMP JUMPDEST PUSH1 0x20 SWAP1 DUP2 MUL SWAP2 SWAP1 SWAP2 ADD ADD MSTORE PUSH2 0x1263 PUSH1 0x2 PUSH1 0x3 PUSH2 0xF63 DUP2 DUP4 DUP3 PUSH0 PUSH1 0x1 DUP3 DUP13 DUP3 DUP5 PUSH2 0x24E2 JUMP JUMPDEST DUP3 PUSH1 0x7 DUP2 MLOAD DUP2 LT PUSH2 0x1276 JUMPI PUSH2 0x1276 PUSH2 0x3C8B JUMP JUMPDEST PUSH1 0x20 SWAP1 DUP2 MUL SWAP2 SWAP1 SWAP2 ADD ADD MSTORE PUSH2 0x129A PUSH1 0x1 PUSH1 0x3 PUSH2 0xF63 PUSH0 PUSH1 0x2 DUP3 DUP5 DUP7 DUP3 DUP13 DUP6 DUP8 PUSH2 0x24E2 JUMP JUMPDEST DUP3 PUSH1 0x8 DUP2 MLOAD DUP2 LT PUSH2 0x12AD JUMPI PUSH2 0x12AD PUSH2 0x3C8B JUMP JUMPDEST PUSH1 0x20 SWAP1 DUP2 MUL SWAP2 SWAP1 SWAP2 ADD ADD MSTORE PUSH2 0x12D1 PUSH0 PUSH1 0x3 PUSH2 0xF63 DUP3 PUSH1 0x2 DUP3 DUP2 PUSH1 0x1 DUP3 DUP13 DUP9 DUP8 PUSH2 0x24E2 JUMP JUMPDEST DUP3 PUSH1 0x9 DUP2 MLOAD DUP2 LT PUSH2 0x12E4 JUMPI PUSH2 0x12E4 PUSH2 0x3C8B JUMP JUMPDEST PUSH1 0x20 MUL PUSH1 0x20 ADD ADD DUP2 DUP2 MSTORE POP POP JUMPDEST PUSH0 ADDRESS PUSH1 0x1 PUSH1 0x1 PUSH1 0xA0 SHL SUB AND PUSH4 0xD27E5FA7 DUP11 DUP6 PUSH0 DUP2 MLOAD DUP2 LT PUSH2 0x1314 JUMPI PUSH2 0x1314 PUSH2 0x3C8B JUMP JUMPDEST PUSH1 0x20 SWAP1 DUP2 MUL SWAP2 SWAP1 SWAP2 ADD ADD MLOAD PUSH1 0x40 MLOAD PUSH1 0x1 PUSH1 0x1 PUSH1 0xE0 SHL SUB NOT PUSH1 0xE0 DUP6 SWAP1 SHL AND DUP2 MSTORE PUSH1 0x1 PUSH1 0x1 PUSH1 0xA0 SHL SUB SWAP1 SWAP3 AND PUSH1 0x4 DUP4 ADD MSTORE PUSH1 0x24 DUP3 ADD MSTORE PUSH1 0x2 DUP12 SWAP1 SIGNEXTEND PUSH1 0x44 DUP3 ADD MSTORE PUSH1 0x64 ADD PUSH1 0x20 PUSH1 0x40 MLOAD DUP1 DUP4 SUB DUP2 DUP7 GAS STATICCALL ISZERO DUP1 ISZERO PUSH2 0x1370 JUMPI RETURNDATASIZE PUSH0 PUSH0 RETURNDATACOPY RETURNDATASIZE PUSH0 REVERT JUMPDEST POP POP POP POP PUSH1 0x40 MLOAD RETURNDATASIZE PUSH1 0x1F NOT PUSH1 0x1F DUP3 ADD AND DUP3 ADD DUP1 PUSH1 0x40 MSTORE POP DUP2 ADD SWAP1 PUSH2 0x1394 SWAP2 SWAP1 PUSH2 0x3C9F JUMP JUMPDEST SWAP1 POP PUSH0 DUP4 PUSH0 DUP2 MLOAD DUP2 LT PUSH2 0x13A9 JUMPI PUSH2 0x13A9 PUSH2 0x3C8B JUMP JUMPDEST PUSH1 0x20 MUL PUSH1 0x20 ADD ADD MLOAD SWAP1 POP PUSH0 PUSH1 0x1 SWAP1 POP JUMPDEST DUP4 DUP2 LT ISZERO PUSH2 0x1494 JUMPI ADDRESS PUSH1 0x1 PUSH1 0x1 PUSH1 0xA0 SHL SUB AND PUSH4 0xD27E5FA7 DUP13 DUP8 DUP5 DUP2 MLOAD DUP2 LT PUSH2 0x13E3 JUMPI PUSH2 0x13E3 PUSH2 0x3C8B JUMP JUMPDEST PUSH1 0x20 SWAP1 DUP2 MUL SWAP2 SWAP1 SWAP2 ADD ADD MLOAD PUSH1 0x40 MLOAD PUSH1 0x1 PUSH1 0x1 PUSH1 0xE0 SHL SUB NOT PUSH1 0xE0 DUP6 SWAP1 SHL AND DUP2 MSTORE PUSH1 0x1 PUSH1 0x1 PUSH1 0xA0 SHL SUB SWAP1 SWAP3 AND PUSH1 0x4 DUP4 ADD MSTORE PUSH1 0x24 DUP3 ADD MSTORE PUSH1 0x2 DUP14 SWAP1 SIGNEXTEND PUSH1 0x44 DUP3 ADD MSTORE PUSH1 0x64 ADD PUSH1 0x20 PUSH1 0x40 MLOAD DUP1 DUP4 SUB DUP2 DUP7 GAS STATICCALL SWAP3 POP POP POP DUP1 ISZERO PUSH2 0x145D JUMPI POP PUSH1 0x40 DUP1 MLOAD PUSH1 0x1F RETURNDATASIZE SWAP1 DUP2 ADD PUSH1 0x1F NOT AND DUP3 ADD SWAP1 SWAP3 MSTORE PUSH2 0x145A SWAP2 DUP2 ADD SWAP1 PUSH2 0x3C9F JUMP JUMPDEST PUSH1 0x1 JUMPDEST ISZERO PUSH2 0x148C JUMPI DUP4 DUP2 LT ISZERO PUSH2 0x148A JUMPI DUP6 DUP3 DUP2 MLOAD DUP2 LT PUSH2 0x147C JUMPI PUSH2 0x147C PUSH2 0x3C8B JUMP JUMPDEST PUSH1 0x20 MUL PUSH1 0x20 ADD ADD MLOAD SWAP3 POP DUP1 SWAP4 POP JUMPDEST POP JUMPDEST PUSH1 0x1 ADD PUSH2 0x13B9 JUMP JUMPDEST POP SWAP6 POP PUSH2 0x14A2 SWAP5 POP POP POP POP POP JUMP JUMPDEST SWAP4 SWAP3 POP POP POP JUMP JUMPDEST PUSH0 PUSH0 PUSH0 DUP6 PUSH1 0x1 PUSH1 0x1 PUSH1 0xA0 SHL SUB AND PUSH4 0x3850C7BD PUSH1 0x40 MLOAD DUP2 PUSH4 0xFFFFFFFF AND PUSH1 0xE0 SHL DUP2 MSTORE PUSH1 0x4 ADD PUSH1 0xE0 PUSH1 0x40 MLOAD DUP1 DUP4 SUB DUP2 DUP7 GAS STATICCALL ISZERO DUP1 ISZERO PUSH2 0x14E8 JUMPI RETURNDATASIZE PUSH0 PUSH0 RETURNDATACOPY RETURNDATASIZE PUSH0 REVERT JUMPDEST POP POP POP POP PUSH1 0x40 MLOAD RETURNDATASIZE PUSH1 0x1F NOT PUSH1 0x1F DUP3 ADD AND DUP3 ADD DUP1 PUSH1 0x40 MSTORE POP DUP2 ADD SWAP1 PUSH2 0x150C SWAP2 SWAP1 PUSH2 0x3ADF JUMP JUMPDEST POP POP POP SWAP4 POP SWAP4 POP POP POP PUSH2 0x152A DUP7 DUP4 PUSH2 0xFFFF AND DUP4 PUSH2 0xFFFF AND DUP9 DUP9 PUSH2 0x24FC JUMP JUMPDEST POP SWAP7 SWAP6 POP POP POP POP POP POP JUMP JUMPDEST PUSH1 0x60 PUSH0 PUSH2 0x1541 DUP4 PUSH2 0x241D JUMP JUMPDEST SWAP1 POP PUSH0 DUP2 PUSH1 0x1 PUSH1 0x1 PUSH1 0x40 SHL SUB DUP2 GT ISZERO PUSH2 0x155C JUMPI PUSH2 0x155C PUSH2 0x3C77 JUMP JUMPDEST PUSH1 0x40 MLOAD SWAP1 DUP1 DUP3 MSTORE DUP1 PUSH1 0x20 MUL PUSH1 0x20 ADD DUP3 ADD PUSH1 0x40 MSTORE DUP1 ISZERO PUSH2 0x15EB JUMPI DUP2 PUSH1 0x20 ADD JUMPDEST PUSH2 0x15D8 PUSH1 0x40 MLOAD DUP1 PUSH2 0x120 ADD PUSH1 0x40 MSTORE DUP1 PUSH0 PUSH1 0x1 PUSH1 0x1 PUSH1 0x40 SHL SUB AND DUP2 MSTORE PUSH1 0x20 ADD PUSH0 PUSH1 0x1 PUSH1 0x1 PUSH1 0xA0 SHL SUB AND DUP2 MSTORE PUSH1 0x20 ADD PUSH0 DUP2 MSTORE PUSH1 0x20 ADD PUSH0 DUP2 MSTORE PUSH1 0x20 ADD PUSH0 DUP2 MSTORE PUSH1 0x20 ADD PUSH0 DUP2 MSTORE PUSH1 0x20 ADD PUSH0 DUP2 MSTORE PUSH1 0x20 ADD PUSH0 PUSH1 0x2 SIGNEXTEND DUP2 MSTORE PUSH1 0x20 ADD PUSH0 PUSH1 0x2 SIGNEXTEND DUP2 MSTORE POP SWAP1 JUMP JUMPDEST DUP2 MSTORE PUSH1 0x20 ADD SWAP1 PUSH1 0x1 SWAP1 SUB SWAP1 DUP2 PUSH2 0x157A JUMPI SWAP1 POP JUMPDEST POP SWAP1 POP PUSH0 DUP5 SWAP1 POP PUSH0 PUSH1 0x1 PUSH1 0x1 PUSH1 0xA0 SHL SUB PUSH32 0x0 AND PUSH4 0x3F8E156E DUP8 PUSH1 0x40 MLOAD PUSH1 0x1 PUSH1 0x1 PUSH1 0xE0 SHL SUB NOT PUSH1 0xE0 DUP5 SWAP1 SHL AND DUP2 MSTORE PUSH1 0x1 PUSH1 0x1 PUSH1 0x40 SHL SUB SWAP1 SWAP2 AND PUSH1 0x4 DUP3 ADD MSTORE PUSH1 0x24 ADD PUSH1 0x20 PUSH1 0x40 MLOAD DUP1 DUP4 SUB DUP2 DUP7 GAS STATICCALL ISZERO DUP1 ISZERO PUSH2 0x1665 JUMPI RETURNDATASIZE PUSH0 PUSH0 RETURNDATACOPY RETURNDATASIZE PUSH0 REVERT JUMPDEST POP POP POP POP PUSH1 0x40 MLOAD RETURNDATASIZE PUSH1 0x1F NOT PUSH1 0x1F DUP3 ADD AND DUP3 ADD DUP1 PUSH1 0x40 MSTORE POP DUP2 ADD SWAP1 PUSH2 0x1689 SWAP2 SWAP1 PUSH2 0x3A9F JUMP JUMPDEST SWAP1 POP PUSH0 JUMPDEST DUP5 DUP2 LT ISZERO PUSH2 0x1843 JUMPI DUP3 DUP5 DUP3 DUP2 MLOAD DUP2 LT PUSH2 0x16A8 JUMPI PUSH2 0x16A8 PUSH2 0x3C8B JUMP JUMPDEST PUSH1 0x20 MUL PUSH1 0x20 ADD ADD MLOAD PUSH0 ADD SWAP1 PUSH1 0x1 PUSH1 0x1 PUSH1 0x40 SHL SUB AND SWAP1 DUP2 PUSH1 0x1 PUSH1 0x1 PUSH1 0x40 SHL SUB AND DUP2 MSTORE POP POP DUP2 DUP5 DUP3 DUP2 MLOAD DUP2 LT PUSH2 0x16DE JUMPI PUSH2 0x16DE PUSH2 0x3C8B JUMP JUMPDEST PUSH1 0x20 SWAP1 DUP2 MUL SWAP2 SWAP1 SWAP2 ADD DUP2 ADD MLOAD PUSH1 0x1 PUSH1 0x1 PUSH1 0xA0 SHL SUB SWAP1 SWAP3 AND SWAP2 ADD MSTORE PUSH2 0x1702 DUP8 DUP3 PUSH2 0x27B5 JUMP JUMPDEST DUP5 DUP3 DUP2 MLOAD DUP2 LT PUSH2 0x1714 JUMPI PUSH2 0x1714 PUSH2 0x3C8B JUMP JUMPDEST PUSH1 0x20 SWAP1 DUP2 MUL SWAP2 SWAP1 SWAP2 ADD ADD MLOAD PUSH1 0x40 ADD MSTORE PUSH2 0x172D DUP8 DUP3 PUSH2 0x27CB JUMP JUMPDEST DUP5 DUP3 DUP2 MLOAD DUP2 LT PUSH2 0x173F JUMPI PUSH2 0x173F PUSH2 0x3C8B JUMP JUMPDEST PUSH1 0x20 SWAP1 DUP2 MUL SWAP2 SWAP1 SWAP2 ADD ADD MLOAD PUSH1 0x60 ADD MSTORE PUSH2 0x1758 DUP8 DUP3 PUSH2 0x27DD JUMP JUMPDEST DUP5 DUP3 DUP2 MLOAD DUP2 LT PUSH2 0x176A JUMPI PUSH2 0x176A PUSH2 0x3C8B JUMP JUMPDEST PUSH1 0x20 SWAP1 DUP2 MUL SWAP2 SWAP1 SWAP2 ADD ADD MLOAD PUSH1 0x80 ADD MSTORE PUSH2 0x1783 DUP8 DUP3 PUSH2 0x27EF JUMP JUMPDEST DUP5 DUP3 DUP2 MLOAD DUP2 LT PUSH2 0x1795 JUMPI PUSH2 0x1795 PUSH2 0x3C8B JUMP JUMPDEST PUSH1 0x20 SWAP1 DUP2 MUL SWAP2 SWAP1 SWAP2 ADD ADD MLOAD PUSH1 0xA0 ADD MSTORE PUSH2 0x17AE DUP8 DUP3 PUSH2 0x2801 JUMP JUMPDEST DUP5 DUP3 DUP2 MLOAD DUP2 LT PUSH2 0x17C0 JUMPI PUSH2 0x17C0 PUSH2 0x3C8B JUMP JUMPDEST PUSH1 0x20 SWAP1 DUP2 MUL SWAP2 SWAP1 SWAP2 ADD ADD MLOAD PUSH1 0xC0 ADD MSTORE PUSH2 0x17DE DUP8 DUP3 PUSH1 0x30 MUL PUSH1 0x4C ADD SHR SWAP1 JUMP JUMPDEST DUP5 DUP3 DUP2 MLOAD DUP2 LT PUSH2 0x17F0 JUMPI PUSH2 0x17F0 PUSH2 0x3C8B JUMP JUMPDEST PUSH1 0x20 SWAP1 DUP2 MUL SWAP2 SWAP1 SWAP2 ADD ADD MLOAD PUSH1 0x2 SWAP2 SWAP1 SWAP2 SIGNEXTEND PUSH1 0xE0 SWAP1 SWAP2 ADD MSTORE PUSH2 0x1811 DUP8 DUP3 PUSH2 0x2813 JUMP JUMPDEST DUP5 DUP3 DUP2 MLOAD DUP2 LT PUSH2 0x1823 JUMPI PUSH2 0x1823 PUSH2 0x3C8B JUMP JUMPDEST PUSH1 0x20 SWAP1 DUP2 MUL SWAP2 SWAP1 SWAP2 ADD ADD MLOAD PUSH1 0x2 SWAP2 SWAP1 SWAP2 SIGNEXTEND PUSH2 0x100 SWAP1 SWAP2 ADD MSTORE PUSH1 0x1 ADD PUSH2 0x168D JUMP JUMPDEST POP SWAP2 SWAP6 SWAP5 POP POP POP POP POP JUMP JUMPDEST PUSH1 0x40 DUP1 MLOAD PUSH1 0x1 DUP1 DUP3 MSTORE DUP2 DUP4 ADD SWAP1 SWAP3 MSTORE PUSH0 SWAP2 DUP3 SWAP2 DUP3 SWAP2 DUP3 SWAP2 SWAP1 PUSH1 0x20 DUP1 DUP4 ADD SWAP1 DUP1 CALLDATASIZE DUP4 CALLDATACOPY ADD SWAP1 POP POP SWAP1 POP DUP5 DUP2 PUSH0 DUP2 MLOAD DUP2 LT PUSH2 0x1889 JUMPI PUSH2 0x1889 PUSH2 0x3C8B JUMP JUMPDEST PUSH1 0x20 SWAP1 DUP2 MUL SWAP2 SWAP1 SWAP2 ADD ADD MSTORE PUSH1 0x40 MLOAD PUSH4 0x2CA8B091 PUSH1 0xE1 SHL DUP2 MSTORE PUSH0 SWAP1 PUSH1 0x1 PUSH1 0x1 PUSH1 0xA0 SHL SUB DUP10 AND SWAP1 PUSH4 0x59516122 SWAP1 PUSH2 0x18C6 SWAP1 DUP11 SWAP1 DUP6 SWAP1 DUP8 SWAP1 PUSH1 0x4 ADD PUSH2 0x3CB6 JUMP JUMPDEST PUSH0 PUSH1 0x40 MLOAD DUP1 DUP4 SUB DUP2 DUP7 GAS STATICCALL ISZERO DUP1 ISZERO PUSH2 0x18E0 JUMPI RETURNDATASIZE PUSH0 PUSH0 RETURNDATACOPY RETURNDATASIZE PUSH0 REVERT JUMPDEST POP POP POP POP PUSH1 0x40 MLOAD RETURNDATASIZE PUSH0 DUP3 RETURNDATACOPY PUSH1 0x1F RETURNDATASIZE SWAP1 DUP2 ADD PUSH1 0x1F NOT AND DUP3 ADD PUSH1 0x40 MSTORE PUSH2 0x1907 SWAP2 SWAP1 DUP2 ADD SWAP1 PUSH2 0x3D6E JUMP JUMPDEST SWAP3 POP POP POP PUSH0 DUP2 PUSH0 DUP2 MLOAD DUP2 LT PUSH2 0x191E JUMPI PUSH2 0x191E PUSH2 0x3C8B JUMP JUMPDEST PUSH1 0x20 MUL PUSH1 0x20 ADD ADD MLOAD PUSH1 0x1 PUSH1 0x2 DUP2 LT PUSH2 0x1938 JUMPI PUSH2 0x1938 PUSH2 0x3C8B JUMP JUMPDEST PUSH1 0x20 MUL ADD MLOAD SWAP1 POP DUP1 PUSH2 0x194A DUP3 PUSH1 0x80 SHR SWAP1 JUMP JUMPDEST PUSH1 0x40 PUSH2 0x1956 DUP5 PUSH1 0x80 SHR SWAP1 JUMP JUMPDEST PUSH1 0x1 PUSH1 0x1 PUSH1 0x80 SHL SUB AND SWAP1 SHR SWAP6 POP SWAP6 POP SWAP6 POP POP POP POP SWAP4 POP SWAP4 POP SWAP4 SWAP1 POP JUMP JUMPDEST PUSH0 PUSH2 0x1983 DUP8 DUP8 DUP8 DUP8 DUP8 DUP8 PUSH0 PUSH2 0xC44 JUMP JUMPDEST SWAP1 POP PUSH2 0x5C3 PUSH0 DUP8 DUP8 DUP8 DUP8 DUP8 PUSH1 0x2 PUSH2 0xBBF JUMP JUMPDEST PUSH1 0x40 MLOAD PUSH4 0xCAA9A08D PUSH1 0xE0 SHL DUP2 MSTORE PUSH1 0x1 PUSH1 0x1 PUSH1 0xA0 SHL SUB DUP10 DUP2 AND PUSH1 0x4 DUP4 ADD MSTORE PUSH0 SWAP2 PUSH2 0x19E9 SWAP2 PUSH32 0x0 AND SWAP1 PUSH4 0xCAA9A08D SWAP1 PUSH1 0x24 ADD PUSH2 0x510 JUMP JUMPDEST SWAP1 POP PUSH2 0x1A05 DUP2 DUP4 DUP6 DUP8 PUSH1 0x1 PUSH2 0x19FE DUP5 DUP3 PUSH2 0x3A8C JUMP JUMPDEST DUP13 DUP16 PUSH2 0x2129 JUMP JUMPDEST SWAP1 POP PUSH2 0xADD DUP2 PUSH2 0x58A DUP5 PUSH1 0x1 PUSH2 0x3A8C JUMP JUMPDEST PUSH0 PUSH2 0x1A27 DUP7 DUP7 DUP6 DUP6 PUSH0 PUSH1 0x1 DUP1 PUSH2 0x20A4 JUMP JUMPDEST SWAP1 POP PUSH2 0x1A3B DUP2 PUSH0 PUSH1 0x1 DUP6 PUSH1 0x1 PUSH0 DUP11 DUP13 PUSH2 0x2129 JUMP JUMPDEST SWAP7 SWAP6 POP POP POP POP POP POP JUMP JUMPDEST PUSH1 0x40 MLOAD PUSH4 0x34600901 PUSH1 0xE0 SHL DUP2 MSTORE PUSH1 0x4 DUP2 ADD DUP4 SWAP1 MSTORE PUSH0 SWAP1 ADDRESS SWAP1 PUSH4 0x34600901 SWAP1 PUSH1 0x24 ADD PUSH0 PUSH1 0x40 MLOAD DUP1 DUP4 SUB DUP2 DUP7 DUP1 EXTCODESIZE ISZERO DUP1 ISZERO PUSH2 0x1A7C JUMPI PUSH0 PUSH0 REVERT JUMPDEST POP GAS STATICCALL SWAP3 POP POP POP DUP1 ISZERO PUSH2 0x1A8D JUMPI POP PUSH1 0x1 JUMPDEST PUSH2 0x1A9F JUMPI POP PUSH1 0x1 PUSH1 0x1 PUSH1 0x80 SHL SUB PUSH2 0x14A2 JUMP JUMPDEST PUSH1 0x40 DUP1 MLOAD PUSH1 0x1 DUP1 DUP3 MSTORE DUP2 DUP4 ADD SWAP1 SWAP3 MSTORE PUSH0 SWAP2 DUP2 PUSH1 0x20 ADD JUMPDEST PUSH2 0x1ABD PUSH2 0x33AC JUMP JUMPDEST DUP2 MSTORE PUSH1 0x20 ADD SWAP1 PUSH1 0x1 SWAP1 SUB SWAP1 DUP2 PUSH2 0x1AB5 JUMPI SWAP1 POP POP SWAP1 POP DUP4 DUP2 PUSH0 DUP2 MLOAD DUP2 LT PUSH2 0x1AE5 JUMPI PUSH2 0x1AE5 PUSH2 0x3C8B JUMP JUMPDEST PUSH1 0x20 MUL PUSH1 0x20 ADD ADD MLOAD PUSH0 PUSH1 0x2 DUP2 LT PUSH2 0x1AFE JUMPI PUSH2 0x1AFE PUSH2 0x3C8B JUMP JUMPDEST PUSH1 0x20 MUL ADD MSTORE DUP1 MLOAD PUSH6 0xFFFFFFFFFFFF SWAP1 DUP3 SWAP1 PUSH0 SWAP1 PUSH2 0x1B1D JUMPI PUSH2 0x1B1D PUSH2 0x3C8B JUMP JUMPDEST PUSH1 0x20 MUL PUSH1 0x20 ADD ADD MLOAD PUSH1 0x1 PUSH1 0x2 DUP2 LT PUSH2 0x1B37 JUMPI PUSH2 0x1B37 PUSH2 0x3C8B JUMP JUMPDEST PUSH1 0x20 MUL ADD DUP2 DUP2 MSTORE POP POP PUSH2 0x1B7A DUP5 DUP3 PUSH0 DUP2 MLOAD DUP2 LT PUSH2 0x1B56 JUMPI PUSH2 0x1B56 PUSH2 0x3C8B JUMP JUMPDEST PUSH1 0x20 MUL PUSH1 0x20 ADD ADD MLOAD PUSH1 0x1 PUSH1 0x2 DUP2 LT PUSH2 0x1B70 JUMPI PUSH2 0x1B70 PUSH2 0x3C8B JUMP JUMPDEST PUSH1 0x20 MUL ADD MLOAD PUSH2 0x2826 JUMP JUMPDEST ISZERO PUSH2 0x1D47 JUMPI PUSH0 DUP6 PUSH1 0x1 PUSH1 0x1 PUSH1 0xA0 SHL SUB AND PUSH4 0x7594CDC3 PUSH1 0x40 MLOAD DUP2 PUSH4 0xFFFFFFFF AND PUSH1 0xE0 SHL DUP2 MSTORE PUSH1 0x4 ADD PUSH1 0x20 PUSH1 0x40 MLOAD DUP1 DUP4 SUB DUP2 DUP7 GAS STATICCALL ISZERO DUP1 ISZERO PUSH2 0x1BBC JUMPI RETURNDATASIZE PUSH0 PUSH0 RETURNDATACOPY RETURNDATASIZE PUSH0 REVERT JUMPDEST POP POP POP POP PUSH1 0x40 MLOAD RETURNDATASIZE PUSH1 0x1F NOT PUSH1 0x1F DUP3 ADD AND DUP3 ADD DUP1 PUSH1 0x40 MSTORE POP DUP2 ADD SWAP1 PUSH2 0x1BE0 SWAP2 SWAP1 PUSH2 0x3A9F JUMP JUMPDEST PUSH1 0x1 PUSH1 0x1 PUSH1 0xA0 SHL SUB AND PUSH4 0x9E08510 PUSH2 0xDEAD DUP7 DUP6 PUSH0 PUSH0 PUSH1 0x40 MLOAD DUP7 PUSH4 0xFFFFFFFF AND PUSH1 0xE0 SHL DUP2 MSTORE PUSH1 0x4 ADD PUSH2 0x1C15 SWAP6 SWAP5 SWAP4 SWAP3 SWAP2 SWAP1 PUSH2 0x3ED3 JUMP JUMPDEST PUSH1 0x20 PUSH1 0x40 MLOAD DUP1 DUP4 SUB DUP2 DUP7 GAS STATICCALL ISZERO DUP1 ISZERO PUSH2 0x1C30 JUMPI RETURNDATASIZE PUSH0 PUSH0 RETURNDATACOPY RETURNDATASIZE PUSH0 REVERT JUMPDEST POP POP POP POP PUSH1 0x40 MLOAD RETURNDATASIZE PUSH1 0x1F NOT PUSH1 0x1F DUP3 ADD AND DUP3 ADD DUP1 PUSH1 0x40 MSTORE POP DUP2 ADD SWAP1 PUSH2 0x1C54 SWAP2 SWAP1 PUSH2 0x3C9F JUMP JUMPDEST SWAP1 POP PUSH0 DUP7 PUSH1 0x1 PUSH1 0x1 PUSH1 0xA0 SHL SUB AND PUSH4 0x4D7B0900 PUSH1 0x40 MLOAD DUP2 PUSH4 0xFFFFFFFF AND PUSH1 0xE0 SHL DUP2 MSTORE PUSH1 0x4 ADD PUSH1 0x20 PUSH1 0x40 MLOAD DUP1 DUP4 SUB DUP2 DUP7 GAS STATICCALL ISZERO DUP1 ISZERO PUSH2 0x1C93 JUMPI RETURNDATASIZE PUSH0 PUSH0 RETURNDATACOPY RETURNDATASIZE PUSH0 REVERT JUMPDEST POP POP POP POP PUSH1 0x40 MLOAD RETURNDATASIZE PUSH1 0x1F NOT PUSH1 0x1F DUP3 ADD AND DUP3 ADD DUP1 PUSH1 0x40 MSTORE POP DUP2 ADD SWAP1 PUSH2 0x1CB7 SWAP2 SWAP1 PUSH2 0x3A9F JUMP JUMPDEST PUSH1 0x1 PUSH1 0x1 PUSH1 0xA0 SHL SUB AND PUSH4 0x9E08510 PUSH2 0xDEAD DUP8 DUP7 PUSH0 PUSH0 PUSH1 0x40 MLOAD DUP7 PUSH4 0xFFFFFFFF AND PUSH1 0xE0 SHL DUP2 MSTORE PUSH1 0x4 ADD PUSH2 0x1CEC SWAP6 SWAP5 SWAP4 SWAP3 SWAP2 SWAP1 PUSH2 0x3ED3 JUMP JUMPDEST PUSH1 0x20 PUSH1 0x40 MLOAD DUP1 DUP4 SUB DUP2 DUP7 GAS STATICCALL ISZERO DUP1 ISZERO PUSH2 0x1D07 JUMPI RETURNDATASIZE PUSH0 PUSH0 RETURNDATACOPY RETURNDATASIZE PUSH0 REVERT JUMPDEST POP POP POP POP PUSH1 0x40 MLOAD RETURNDATASIZE PUSH1 0x1F NOT PUSH1 0x1F DUP3 ADD AND DUP3 ADD DUP1 PUSH1 0x40 MSTORE POP DUP2 ADD SWAP1 PUSH2 0x1D2B SWAP2 SWAP1 PUSH2 0x3C9F JUMP JUMPDEST SWAP1 POP PUSH0 PUSH2 0x1D3A DUP4 DUP4 PUSH0 DUP10 PUSH2 0x2948 JUMP JUMPDEST SWAP6 POP PUSH2 0x14A2 SWAP5 POP POP POP POP POP JUMP JUMPDEST POP PUSH1 0x1 PUSH1 0x1 PUSH1 0x80 SHL SUB SWAP1 POP PUSH2 0x14A2 JUMP JUMPDEST PUSH0 PUSH0 PUSH0 PUSH0 PUSH0 DUP11 PUSH1 0x1 PUSH1 0x1 PUSH1 0xA0 SHL SUB AND PUSH4 0x59516122 DUP12 PUSH0 DUP11 DUP11 PUSH1 0x40 MLOAD DUP6 PUSH4 0xFFFFFFFF AND PUSH1 0xE0 SHL DUP2 MSTORE PUSH1 0x4 ADD PUSH2 0x1D8E SWAP5 SWAP4 SWAP3 SWAP2 SWAP1 PUSH2 0x3F1E JUMP JUMPDEST PUSH0 PUSH1 0x40 MLOAD DUP1 DUP4 SUB DUP2 DUP7 GAS STATICCALL ISZERO DUP1 ISZERO PUSH2 0x1DA8 JUMPI RETURNDATASIZE PUSH0 PUSH0 RETURNDATACOPY RETURNDATASIZE PUSH0 REVERT JUMPDEST POP POP POP POP PUSH1 0x40 MLOAD RETURNDATASIZE PUSH0 DUP3 RETURNDATACOPY PUSH1 0x1F RETURNDATASIZE SWAP1 DUP2 ADD PUSH1 0x1F NOT AND DUP3 ADD PUSH1 0x40 MSTORE PUSH2 0x1DCF SWAP2 SWAP1 DUP2 ADD SWAP1 PUSH2 0x3D6E JUMP JUMPDEST SWAP3 POP SWAP3 POP SWAP3 POP PUSH0 DUP12 PUSH1 0x1 PUSH1 0x1 PUSH1 0xA0 SHL SUB AND PUSH4 0x7594CDC3 PUSH1 0x40 MLOAD DUP2 PUSH4 0xFFFFFFFF AND PUSH1 0xE0 SHL DUP2 MSTORE PUSH1 0x4 ADD PUSH1 0x20 PUSH1 0x40 MLOAD DUP1 DUP4 SUB DUP2 DUP7 GAS STATICCALL ISZERO DUP1 ISZERO PUSH2 0x1E12 JUMPI RETURNDATASIZE PUSH0 PUSH0 RETURNDATACOPY RETURNDATASIZE PUSH0 REVERT JUMPDEST POP POP POP POP PUSH1 0x40 MLOAD RETURNDATASIZE PUSH1 0x1F NOT PUSH1 0x1F DUP3 ADD AND DUP3 ADD DUP1 PUSH1 0x40 MSTORE POP DUP2 ADD SWAP1 PUSH2 0x1E36 SWAP2 SWAP1 PUSH2 0x3A9F JUMP JUMPDEST PUSH1 0x1 PUSH1 0x1 PUSH1 0xA0 SHL SUB AND PUSH4 0x9E08510 DUP13 DUP13 DUP6 DUP9 DUP9 PUSH1 0x40 MLOAD DUP7 PUSH4 0xFFFFFFFF AND PUSH1 0xE0 SHL DUP2 MSTORE PUSH1 0x4 ADD PUSH2 0x1E69 SWAP6 SWAP5 SWAP4 SWAP3 SWAP2 SWAP1 PUSH2 0x3ED3 JUMP JUMPDEST PUSH1 0x20 PUSH1 0x40 MLOAD DUP1 DUP4 SUB DUP2 DUP7 GAS STATICCALL ISZERO DUP1 ISZERO PUSH2 0x1E84 JUMPI RETURNDATASIZE PUSH0 PUSH0 RETURNDATACOPY RETURNDATASIZE PUSH0 REVERT JUMPDEST POP POP POP POP PUSH1 0x40 MLOAD RETURNDATASIZE PUSH1 0x1F NOT PUSH1 0x1F DUP3 ADD AND DUP3 ADD DUP1 PUSH1 0x40 MSTORE POP DUP2 ADD SWAP1 PUSH2 0x1EA8 SWAP2 SWAP1 PUSH2 0x3C9F JUMP JUMPDEST SWAP1 POP PUSH0 DUP13 PUSH1 0x1 PUSH1 0x1 PUSH1 0xA0 SHL SUB AND PUSH4 0x4D7B0900 PUSH1 0x40 MLOAD DUP2 PUSH4 0xFFFFFFFF AND PUSH1 0xE0 SHL DUP2 MSTORE PUSH1 0x4 ADD PUSH1 0x20 PUSH1 0x40 MLOAD DUP1 DUP4 SUB DUP2 DUP7 GAS STATICCALL ISZERO DUP1 ISZERO PUSH2 0x1EE7 JUMPI RETURNDATASIZE PUSH0 PUSH0 RETURNDATACOPY RETURNDATASIZE PUSH0 REVERT JUMPDEST POP POP POP POP PUSH1 0x40 MLOAD RETURNDATASIZE PUSH1 0x1F NOT PUSH1 0x1F DUP3 ADD AND DUP3 ADD DUP1 PUSH1 0x40 MSTORE POP DUP2 ADD SWAP1 PUSH2 0x1F0B SWAP2 SWAP1 PUSH2 0x3A9F JUMP JUMPDEST PUSH1 0x1 PUSH1 0x1 PUSH1 0xA0 SHL SUB AND PUSH4 0x9E08510 DUP14 DUP14 DUP7 PUSH2 0x1F26 DUP11 PUSH1 0x80 SHR SWAP1 JUMP JUMPDEST PUSH2 0x1F30 DUP11 PUSH1 0x80 SHR SWAP1 JUMP JUMPDEST PUSH1 0x40 MLOAD DUP7 PUSH4 0xFFFFFFFF AND PUSH1 0xE0 SHL DUP2 MSTORE PUSH1 0x4 ADD PUSH2 0x1F50 SWAP6 SWAP5 SWAP4 SWAP3 SWAP2 SWAP1 PUSH2 0x3ED3 JUMP JUMPDEST PUSH1 0x20 PUSH1 0x40 MLOAD DUP1 DUP4 SUB DUP2 DUP7 GAS STATICCALL ISZERO DUP1 ISZERO PUSH2 0x1F6B JUMPI RETURNDATASIZE PUSH0 PUSH0 RETURNDATACOPY RETURNDATASIZE PUSH0 REVERT JUMPDEST POP POP POP POP PUSH1 0x40 MLOAD RETURNDATASIZE PUSH1 0x1F NOT PUSH1 0x1F DUP3 ADD AND DUP3 ADD DUP1 PUSH1 0x40 MSTORE POP DUP2 ADD SWAP1 PUSH2 0x1F8F SWAP2 SWAP1 PUSH2 0x3C9F JUMP JUMPDEST SWAP1 POP PUSH2 0x1F9D DUP3 DUP3 DUP13 DUP15 PUSH2 0x2948 JUMP JUMPDEST SWAP7 POP SWAP7 POP POP POP POP POP POP SWAP7 POP SWAP7 SWAP5 POP POP POP POP POP JUMP JUMPDEST PUSH0 PUSH2 0x1FCB DUP7 DUP7 DUP7 PUSH2 0x1FC2 DUP8 DUP3 PUSH2 0x3C26 JUMP JUMPDEST DUP7 PUSH1 0x1 PUSH0 PUSH2 0x4C0 JUMP JUMPDEST SWAP1 POP PUSH2 0x1FE7 PUSH0 DUP7 DUP7 PUSH2 0x1FDD DUP8 DUP3 PUSH2 0x3B6C JUMP JUMPDEST DUP7 PUSH1 0x1 PUSH1 0x2 PUSH2 0xD2E JUMP JUMPDEST PUSH2 0x1A3B SWAP1 DUP3 PUSH2 0x3A8C JUMP JUMPDEST PUSH1 0x40 MLOAD PUSH4 0x2D60BEFD PUSH1 0xE1 SHL DUP2 MSTORE PUSH1 0x1 PUSH1 0x1 PUSH1 0xA0 SHL SUB DUP4 AND PUSH1 0x4 DUP3 ADD MSTORE PUSH4 0xFFFFFFFF DUP3 AND PUSH1 0x24 DUP3 ADD MSTORE PUSH0 SWAP1 PUSH20 0x0 SWAP1 PUSH4 0x5AC17DFA SWAP1 PUSH1 0x44 ADD PUSH1 0x20 PUSH1 0x40 MLOAD DUP1 DUP4 SUB DUP2 DUP7 GAS DELEGATECALL ISZERO DUP1 ISZERO PUSH2 0x2055 JUMPI RETURNDATASIZE PUSH0 PUSH0 RETURNDATACOPY RETURNDATASIZE PUSH0 REVERT JUMPDEST POP POP POP POP PUSH1 0x40 MLOAD RETURNDATASIZE PUSH1 0x1F NOT PUSH1 0x1F DUP3 ADD AND DUP3 ADD DUP1 PUSH1 0x40 MSTORE POP DUP2 ADD SWAP1 PUSH2 0x2079 SWAP2 SWAP1 PUSH2 0x3F72 JUMP JUMPDEST SWAP1 POP JUMPDEST SWAP3 SWAP2 POP POP JUMP JUMPDEST PUSH0 PUSH2 0x595 DUP9 DUP9 DUP9 DUP9 DUP10 DUP10 DUP10 DUP10 PUSH2 0xCAD JUMP JUMPDEST PUSH0 PUSH2 0x595 DUP9 DUP9 DUP9 DUP9 DUP10 DUP10 DUP10 DUP10 PUSH2 0x1995 JUMP JUMPDEST PUSH1 0x40 MLOAD PUSH4 0xCAA9A08D PUSH1 0xE0 SHL DUP2 MSTORE PUSH1 0x1 PUSH1 0x1 PUSH1 0xA0 SHL SUB DUP9 DUP2 AND PUSH1 0x4 DUP4 ADD MSTORE PUSH0 SWAP2 PUSH2 0x20F8 SWAP2 PUSH32 0x0 AND SWAP1 PUSH4 0xCAA9A08D SWAP1 PUSH1 0x24 ADD PUSH2 0x510 JUMP JUMPDEST SWAP1 POP PUSH2 0x210D DUP2 DUP4 DUP6 DUP9 DUP9 PUSH2 0x572 DUP5 PUSH1 0x1 PUSH2 0x3A8C JUMP JUMPDEST SWAP1 POP PUSH2 0x595 DUP2 PUSH2 0x211E DUP5 PUSH1 0x1 PUSH2 0x3A8C JUMP JUMPDEST DUP6 DUP9 DUP9 DUP8 DUP13 DUP15 PUSH2 0x24CF JUMP JUMPDEST PUSH0 PUSH2 0xADD DUP10 DUP10 DUP10 DUP10 DUP10 PUSH0 DUP11 DUP11 DUP11 PUSH2 0x296C JUMP JUMPDEST PUSH0 PUSH0 PUSH0 PUSH2 0x214C DUP9 DUP9 DUP9 PUSH0 DUP10 DUP10 PUSH2 0x1D57 JUMP JUMPDEST SWAP1 SWAP3 POP SWAP1 POP PUSH2 0x595 DUP2 DUP4 PUSH2 0x3B91 JUMP JUMPDEST PUSH2 0x2165 DUP2 PUSH0 PUSH2 0x27CB JUMP JUMPDEST PUSH0 SUB PUSH2 0x218C JUMPI PUSH1 0x40 MLOAD PUSH4 0x93DB0263 PUSH1 0xE0 SHL DUP2 MSTORE PUSH1 0x1 PUSH1 0x4 DUP3 ADD MSTORE PUSH1 0x24 ADD JUMPDEST PUSH1 0x40 MLOAD DUP1 SWAP2 SUB SWAP1 REVERT JUMPDEST PUSH24 0xFFFFFFFFF200FFFFFFFFF200FFFFFFFFF200FFFFFFFFF200 PUSH1 0x40 DUP3 SWAP1 SHR AND PUSH0 JUMPDEST PUSH1 0x4 DUP2 LT ISZERO PUSH2 0x21F1 JUMPI PUSH2 0x21C0 DUP4 DUP3 PUSH2 0x27CB JUMP JUMPDEST PUSH0 SUB PUSH2 0x21F6 JUMPI PUSH1 0x40 PUSH1 0x30 DUP3 MUL ADD DUP4 SWAP1 SHR ISZERO PUSH2 0x21F1 JUMPI PUSH1 0x40 MLOAD PUSH4 0x93DB0263 PUSH1 0xE0 SHL DUP2 MSTORE PUSH1 0x1 PUSH1 0x4 DUP3 ADD MSTORE PUSH1 0x24 ADD PUSH2 0x2183 JUMP JUMPDEST POP POP POP JUMP JUMPDEST PUSH0 PUSH2 0x2200 DUP5 PUSH2 0x241D JUMP JUMPDEST SWAP1 POP PUSH1 0x1 DUP3 ADD JUMPDEST DUP2 DUP2 LT ISZERO PUSH2 0x2256 JUMPI DUP1 PUSH1 0x30 MUL DUP5 SWAP1 SHR PUSH6 0xFFFFFFFFFFFF AND DUP4 PUSH1 0x30 MUL DUP6 SWAP1 SHR PUSH6 0xFFFFFFFFFFFF AND SUB PUSH2 0x224E JUMPI PUSH1 0x40 MLOAD PUSH4 0x93DB0263 PUSH1 0xE0 SHL DUP2 MSTORE PUSH1 0x6 PUSH1 0x4 DUP3 ADD MSTORE PUSH1 0x24 ADD PUSH2 0x2183 JUMP JUMPDEST PUSH1 0x1 ADD PUSH2 0x2207 JUMP JUMPDEST POP PUSH2 0x2261 DUP5 DUP4 PUSH2 0x2813 JUMP JUMPDEST PUSH1 0x2 SIGNEXTEND PUSH0 SUB PUSH2 0x2286 JUMPI PUSH1 0x40 MLOAD PUSH4 0x93DB0263 PUSH1 0xE0 SHL DUP2 MSTORE PUSH1 0x5 PUSH1 0x4 DUP3 ADD MSTORE PUSH1 0x24 ADD PUSH2 0x2183 JUMP JUMPDEST PUSH3 0xD89E7 NOT PUSH2 0x229A DUP6 DUP5 PUSH1 0x30 MUL PUSH1 0x4C ADD SHR SWAP1 JUMP JUMPDEST PUSH1 0x2 SIGNEXTEND EQ DUP1 PUSH2 0x22BC JUMPI POP PUSH3 0xD89E8 PUSH2 0x22B7 DUP6 DUP5 PUSH1 0x30 MUL PUSH1 0x4C ADD SHR SWAP1 JUMP JUMPDEST PUSH1 0x2 SIGNEXTEND EQ JUMPDEST ISZERO PUSH2 0x22DC JUMPI PUSH1 0x40 MLOAD PUSH4 0x93DB0263 PUSH1 0xE0 SHL DUP2 MSTORE PUSH1 0x4 DUP2 DUP2 ADD MSTORE PUSH1 0x24 ADD PUSH2 0x2183 JUMP JUMPDEST PUSH0 PUSH2 0x22E7 DUP6 DUP5 PUSH2 0x2801 JUMP JUMPDEST SWAP1 POP DUP3 DUP2 EQ PUSH2 0x2413 JUMPI DUP3 PUSH2 0x22FB DUP7 DUP4 PUSH2 0x2801 JUMP JUMPDEST EQ PUSH2 0x231C JUMPI PUSH1 0x40 MLOAD PUSH4 0x93DB0263 PUSH1 0xE0 SHL DUP2 MSTORE PUSH1 0x3 PUSH1 0x4 DUP3 ADD MSTORE PUSH1 0x24 ADD PUSH2 0x2183 JUMP JUMPDEST PUSH2 0x2326 DUP6 DUP5 PUSH2 0x27B5 JUMP JUMPDEST PUSH2 0x2330 DUP7 DUP4 PUSH2 0x27B5 JUMP JUMPDEST EQ ISZERO DUP1 PUSH2 0x234F JUMPI POP PUSH2 0x2342 DUP6 DUP5 PUSH2 0x27CB JUMP JUMPDEST PUSH2 0x234C DUP7 DUP4 PUSH2 0x27CB JUMP JUMPDEST EQ ISZERO JUMPDEST ISZERO PUSH2 0x2370 JUMPI PUSH1 0x40 MLOAD PUSH4 0x93DB0263 PUSH1 0xE0 SHL DUP2 MSTORE PUSH1 0x3 PUSH1 0x4 DUP3 ADD MSTORE PUSH1 0x24 ADD PUSH2 0x2183 JUMP JUMPDEST PUSH0 PUSH2 0x237B DUP7 DUP6 PUSH2 0x27EF JUMP JUMPDEST SWAP1 POP PUSH0 PUSH2 0x2388 DUP8 DUP5 PUSH2 0x27EF JUMP JUMPDEST SWAP1 POP PUSH0 PUSH2 0x2395 DUP9 DUP8 PUSH2 0x27DD JUMP JUMPDEST SWAP1 POP PUSH0 PUSH2 0x23A2 DUP10 DUP7 PUSH2 0x27DD JUMP JUMPDEST SWAP1 POP DUP3 DUP5 EQ DUP1 ISZERO PUSH2 0x23B2 JUMPI POP DUP1 DUP3 EQ JUMPDEST ISZERO PUSH2 0x23D2 JUMPI PUSH1 0x40 MLOAD PUSH4 0x93DB0263 PUSH1 0xE0 SHL DUP2 MSTORE PUSH1 0x4 DUP2 DUP2 ADD MSTORE PUSH1 0x24 ADD PUSH2 0x2183 JUMP JUMPDEST DUP3 DUP5 EQ ISZERO DUP1 PUSH2 0x23E1 JUMPI POP DUP4 PUSH1 0x1 EQ JUMPDEST DUP1 ISZERO PUSH2 0x23ED JUMPI POP DUP1 DUP3 EQ ISZERO JUMPDEST ISZERO PUSH2 0x240E JUMPI PUSH1 0x40 MLOAD PUSH4 0x93DB0263 PUSH1 0xE0 SHL DUP2 MSTORE PUSH1 0x5 PUSH1 0x4 DUP3 ADD MSTORE PUSH1 0x24 ADD PUSH2 0x2183 JUMP JUMPDEST POP POP POP POP JUMPDEST POP POP PUSH1 0x1 ADD PUSH2 0x21AD JUMP JUMPDEST PUSH0 PUSH27 0xFE0000000000FE0000000000FE0000000000FE0000000000000000 DUP3 AND PUSH1 0x1 PUSH1 0x40 SHL DUP2 LT ISZERO PUSH2 0x2450 JUMPI POP PUSH0 SWAP3 SWAP2 POP POP JUMP JUMPDEST PUSH1 0x1 PUSH1 0x70 SHL DUP2 LT ISZERO PUSH2 0x2465 JUMPI POP PUSH1 0x1 SWAP3 SWAP2 POP POP JUMP JUMPDEST PUSH1 0x1 PUSH1 0xA0 SHL DUP2 LT ISZERO PUSH2 0x247A JUMPI POP PUSH1 0x2 SWAP3 SWAP2 POP POP JUMP JUMPDEST PUSH1 0x1 PUSH1 0xD0 SHL DUP2 LT ISZERO PUSH2 0x248F JUMPI POP PUSH1 0x3 SWAP3 SWAP2 POP POP JUMP JUMPDEST POP PUSH1 0x4 SWAP3 SWAP2 POP POP JUMP JUMPDEST PUSH0 DUP1 PUSH2 0x24C4 PUSH2 0x24AC DUP6 DUP6 PUSH1 0x30 MUL PUSH1 0x4C ADD SHR SWAP1 JUMP JUMPDEST PUSH2 0x24B6 DUP7 DUP7 PUSH2 0x2813 JUMP JUMPDEST PUSH1 0x30 DUP8 SWAP1 SHR PUSH2 0xFFFF AND PUSH2 0x29DD JUMP JUMPDEST SWAP1 SWAP6 SWAP1 SWAP5 POP SWAP3 POP POP POP JUMP JUMPDEST PUSH0 PUSH2 0xADD DUP10 DUP10 DUP10 DUP10 DUP10 PUSH1 0x1 DUP11 DUP11 DUP11 PUSH2 0x296C JUMP JUMPDEST PUSH0 PUSH1 0x4A PUSH1 0x30 DUP4 MUL ADD PUSH1 0x4 DUP5 JUMPDEST MOD SWAP1 SHL DUP5 ADD SWAP1 POP SWAP4 SWAP3 POP POP POP JUMP JUMPDEST PUSH0 PUSH0 PUSH0 DUP5 PUSH1 0x1 ADD PUSH1 0x1 PUSH1 0x1 PUSH1 0x40 SHL SUB DUP2 GT ISZERO PUSH2 0x251A JUMPI PUSH2 0x251A PUSH2 0x3C77 JUMP JUMPDEST PUSH1 0x40 MLOAD SWAP1 DUP1 DUP3 MSTORE DUP1 PUSH1 0x20 MUL PUSH1 0x20 ADD DUP3 ADD PUSH1 0x40 MSTORE DUP1 ISZERO PUSH2 0x2543 JUMPI DUP2 PUSH1 0x20 ADD PUSH1 0x20 DUP3 MUL DUP1 CALLDATASIZE DUP4 CALLDATACOPY ADD SWAP1 POP JUMPDEST POP SWAP1 POP PUSH0 DUP6 PUSH1 0x1 ADD PUSH1 0x1 PUSH1 0x1 PUSH1 0x40 SHL SUB DUP2 GT ISZERO PUSH2 0x2562 JUMPI PUSH2 0x2562 PUSH2 0x3C77 JUMP JUMPDEST PUSH1 0x40 MLOAD SWAP1 DUP1 DUP3 MSTORE DUP1 PUSH1 0x20 MUL PUSH1 0x20 ADD DUP3 ADD PUSH1 0x40 MSTORE DUP1 ISZERO PUSH2 0x258B JUMPI DUP2 PUSH1 0x20 ADD PUSH1 0x20 DUP3 MUL DUP1 CALLDATASIZE DUP4 CALLDATACOPY ADD SWAP1 POP JUMPDEST POP SWAP1 POP PUSH0 JUMPDEST DUP7 PUSH1 0x1 ADD DUP2 LT ISZERO PUSH2 0x2671 JUMPI DUP10 PUSH1 0x1 PUSH1 0x1 PUSH1 0xA0 SHL SUB AND PUSH4 0x252C09D7 DUP10 DUP11 DUP10 DUP6 MUL DUP14 SUB ADD DUP2 PUSH2 0x25BF JUMPI PUSH2 0x25BF PUSH2 0x3BE6 JUMP JUMPDEST MOD PUSH1 0x40 MLOAD DUP3 PUSH4 0xFFFFFFFF AND PUSH1 0xE0 SHL DUP2 MSTORE PUSH1 0x4 ADD PUSH2 0x25DE SWAP2 DUP2 MSTORE PUSH1 0x20 ADD SWAP1 JUMP JUMPDEST PUSH1 0x80 PUSH1 0x40 MLOAD DUP1 DUP4 SUB DUP2 DUP7 GAS STATICCALL ISZERO DUP1 ISZERO PUSH2 0x25F9 JUMPI RETURNDATASIZE PUSH0 PUSH0 RETURNDATACOPY RETURNDATASIZE PUSH0 REVERT JUMPDEST POP POP POP POP PUSH1 0x40 MLOAD RETURNDATASIZE PUSH1 0x1F NOT PUSH1 0x1F DUP3 ADD AND DUP3 ADD DUP1 PUSH1 0x40 MSTORE POP DUP2 ADD SWAP1 PUSH2 0x261D SWAP2 SWAP1 PUSH2 0x3F8D JUMP JUMPDEST DUP4 PUSH4 0xFFFFFFFF AND SWAP4 POP DUP3 PUSH1 0x6 SIGNEXTEND SWAP3 POP SWAP1 POP POP DUP4 DUP4 DUP2 MLOAD DUP2 LT PUSH2 0x2641 JUMPI PUSH2 0x2641 PUSH2 0x3C8B JUMP JUMPDEST PUSH1 0x20 MUL PUSH1 0x20 ADD ADD DUP6 DUP5 DUP2 MLOAD DUP2 LT PUSH2 0x265A JUMPI PUSH2 0x265A PUSH2 0x3C8B JUMP JUMPDEST PUSH1 0x20 SWAP1 DUP2 MUL SWAP2 SWAP1 SWAP2 ADD ADD SWAP2 SWAP1 SWAP2 MSTORE MSTORE PUSH1 0x1 ADD PUSH2 0x2590 JUMP JUMPDEST POP PUSH0 DUP7 PUSH1 0x1 PUSH1 0x1 PUSH1 0x40 SHL SUB DUP2 GT ISZERO PUSH2 0x268B JUMPI PUSH2 0x268B PUSH2 0x3C77 JUMP JUMPDEST PUSH1 0x40 MLOAD SWAP1 DUP1 DUP3 MSTORE DUP1 PUSH1 0x20 MUL PUSH1 0x20 ADD DUP3 ADD PUSH1 0x40 MSTORE DUP1 ISZERO PUSH2 0x26B4 JUMPI DUP2 PUSH1 0x20 ADD PUSH1 0x20 DUP3 MUL DUP1 CALLDATASIZE DUP4 CALLDATACOPY ADD SWAP1 POP JUMPDEST POP SWAP1 POP PUSH0 JUMPDEST DUP8 DUP2 LT ISZERO PUSH2 0x2764 JUMPI DUP3 DUP2 PUSH1 0x1 ADD DUP2 MLOAD DUP2 LT PUSH2 0x26D6 JUMPI PUSH2 0x26D6 PUSH2 0x3C8B JUMP JUMPDEST PUSH1 0x20 MUL PUSH1 0x20 ADD ADD MLOAD DUP4 DUP3 DUP2 MLOAD DUP2 LT PUSH2 0x26F0 JUMPI PUSH2 0x26F0 PUSH2 0x3C8B JUMP JUMPDEST PUSH1 0x20 MUL PUSH1 0x20 ADD ADD MLOAD SUB DUP5 DUP3 PUSH1 0x1 ADD DUP2 MLOAD DUP2 LT PUSH2 0x270E JUMPI PUSH2 0x270E PUSH2 0x3C8B JUMP JUMPDEST PUSH1 0x20 MUL PUSH1 0x20 ADD ADD MLOAD DUP6 DUP4 DUP2 MLOAD DUP2 LT PUSH2 0x2728 JUMPI PUSH2 0x2728 PUSH2 0x3C8B JUMP JUMPDEST PUSH1 0x20 MUL PUSH1 0x20 ADD ADD MLOAD SUB DUP2 PUSH2 0x273E JUMPI PUSH2 0x273E PUSH2 0x3BE6 JUMP JUMPDEST SDIV DUP3 DUP3 DUP2 MLOAD DUP2 LT PUSH2 0x2751 JUMPI PUSH2 0x2751 PUSH2 0x3C8B JUMP JUMPDEST PUSH1 0x20 SWAP1 DUP2 MUL SWAP2 SWAP1 SWAP2 ADD ADD MSTORE PUSH1 0x1 ADD PUSH2 0x26B9 JUMP JUMPDEST POP PUSH2 0x276E DUP2 PUSH2 0x2ABB JUMP JUMPDEST PUSH1 0x2 DUP9 DIV DUP2 MLOAD DUP2 LT PUSH2 0x2782 JUMPI PUSH2 0x2782 PUSH2 0x3C8B JUMP JUMPDEST PUSH1 0x20 MUL PUSH1 0x20 ADD ADD MLOAD DUP2 PUSH0 DUP2 MLOAD DUP2 LT PUSH2 0x279C JUMPI PUSH2 0x279C PUSH2 0x3C8B JUMP JUMPDEST PUSH1 0x20 MUL PUSH1 0x20 ADD ADD MLOAD SWAP5 POP SWAP5 POP POP POP POP SWAP6 POP SWAP6 SWAP4 POP POP POP POP JUMP JUMPDEST PUSH0 PUSH1 0x2 PUSH1 0x40 PUSH1 0x30 DUP5 MUL ADD DUP5 SWAP1 SHR JUMPDEST MOD SWAP4 SWAP3 POP POP POP JUMP JUMPDEST PUSH0 PUSH1 0x80 PUSH1 0x41 PUSH1 0x30 DUP5 MUL ADD DUP5 SWAP1 SHR PUSH2 0x27C3 JUMP JUMPDEST PUSH0 PUSH1 0x2 PUSH1 0x49 PUSH1 0x30 DUP5 MUL ADD DUP5 SWAP1 SHR PUSH2 0x27C3 JUMP JUMPDEST PUSH0 PUSH1 0x2 PUSH1 0x48 PUSH1 0x30 DUP5 MUL ADD DUP5 SWAP1 SHR PUSH2 0x27C3 JUMP JUMPDEST PUSH0 PUSH1 0x4 PUSH1 0x4A PUSH1 0x30 DUP5 MUL ADD DUP5 SWAP1 SHR PUSH2 0x27C3 JUMP JUMPDEST PUSH0 PUSH2 0x1000 PUSH1 0x64 PUSH1 0x30 DUP5 MUL ADD DUP5 SWAP1 SHR PUSH2 0x27C3 JUMP JUMPDEST PUSH0 PUSH0 JUMPDEST PUSH2 0x2832 DUP5 PUSH2 0x241D JUMP JUMPDEST DUP2 LT ISZERO PUSH2 0x293E JUMPI PUSH0 DUP1 DUP1 DUP1 PUSH2 0x2847 DUP9 DUP7 PUSH2 0x2498 JUMP JUMPDEST SWAP2 POP SWAP2 POP PUSH0 PUSH2 0x2878 PUSH2 0x2858 DUP5 PUSH2 0x2AD0 JUMP JUMPDEST PUSH1 0x1 PUSH1 0x1 PUSH1 0xA0 SHL SUB AND PUSH2 0x286A DUP5 PUSH2 0x2AD0 JUMP JUMPDEST PUSH1 0x1 PUSH1 0x1 PUSH1 0xA0 SHL SUB AND PUSH2 0x2DEB JUMP JUMPDEST SWAP1 POP DUP1 PUSH0 SUB PUSH2 0x288F JUMPI PUSH0 SWAP7 POP POP POP POP POP POP POP PUSH2 0x207C JUMP JUMPDEST PUSH2 0x2899 DUP10 DUP8 PUSH2 0x27B5 JUMP JUMPDEST PUSH0 SUB PUSH2 0x28CF JUMPI PUSH2 0x28A9 DUP10 DUP8 PUSH2 0x27CB JUMP JUMPDEST PUSH2 0x28B3 SWAP1 DUP10 PUSH2 0x3FEC JUMP JUMPDEST PUSH1 0x1 PUSH1 0x1 PUSH1 0x80 SHL SUB AND SWAP5 POP PUSH2 0x28C8 DUP6 DUP3 PUSH2 0x2E49 JUMP JUMPDEST SWAP4 POP PUSH2 0x2900 JUMP JUMPDEST PUSH2 0x28D9 DUP10 DUP8 PUSH2 0x27CB JUMP JUMPDEST PUSH2 0x28E3 SWAP1 DUP10 PUSH2 0x3FEC JUMP JUMPDEST PUSH1 0x1 PUSH1 0x1 PUSH1 0x80 SHL SUB AND SWAP4 POP PUSH2 0x28FD DUP5 PUSH1 0x1 PUSH1 0x60 SHL DUP4 PUSH2 0x2E7A JUMP JUMPDEST SWAP5 POP JUMPDEST PUSH1 0x1 PUSH1 0x1 PUSH1 0x78 SHL SUB DUP6 GT DUP1 PUSH2 0x291B JUMPI POP PUSH1 0x1 PUSH1 0x1 PUSH1 0x78 SHL SUB DUP5 GT JUMPDEST ISZERO PUSH2 0x292E JUMPI PUSH0 SWAP7 POP POP POP POP POP POP POP PUSH2 0x207C JUMP JUMPDEST POP POP POP POP POP DUP1 PUSH1 0x1 ADD SWAP1 POP PUSH2 0x2829 JUMP JUMPDEST POP PUSH1 0x1 SWAP4 SWAP3 POP POP POP JUMP JUMPDEST PUSH0 PUSH0 PUSH2 0x295E DUP7 DUP7 DUP7 PUSH2 0x2959 DUP8 PUSH2 0x2AD0 JUMP JUMPDEST PUSH2 0x2EB6 JUMP JUMPDEST SWAP2 POP SWAP2 POP JUMPDEST SWAP5 POP SWAP5 SWAP3 POP POP POP JUMP JUMPDEST PUSH0 PUSH2 0x2978 DUP11 DUP10 DUP12 PUSH2 0x2F73 JUMP JUMPDEST SWAP1 POP PUSH2 0x2985 DUP2 DUP9 DUP12 PUSH2 0x2F83 JUMP JUMPDEST SWAP1 POP PUSH2 0x2992 DUP2 DUP8 DUP12 PUSH2 0x2F93 JUMP JUMPDEST SWAP1 POP PUSH2 0x299F DUP2 DUP7 DUP12 PUSH2 0x2FA3 JUMP JUMPDEST SWAP1 POP PUSH2 0x29AC DUP2 DUP6 DUP12 PUSH2 0x24E2 JUMP JUMPDEST SWAP1 POP PUSH3 0xFFFFFF DUP4 AND PUSH1 0x4C PUSH1 0x30 DUP12 MUL ADD SHL DUP2 ADD SWAP1 POP PUSH2 0xFFF DUP3 AND PUSH1 0x64 PUSH1 0x30 DUP12 MUL ADD SHL DUP2 ADD SWAP11 SWAP10 POP POP POP POP POP POP POP POP POP POP JUMP JUMPDEST PUSH0 DUP1 DUP1 DUP4 PUSH1 0x2 DUP2 SWAP1 SIGNEXTEND PUSH3 0xD89E7 NOT DUP2 PUSH2 0x29F8 JUMPI PUSH2 0x29F8 PUSH2 0x3BE6 JUMP JUMPDEST SDIV MUL SWAP1 POP PUSH0 DUP5 PUSH1 0x2 DUP2 SWAP1 SIGNEXTEND PUSH3 0xD89E8 DUP2 PUSH2 0x2A14 JUMPI PUSH2 0x2A14 PUSH2 0x3BE6 JUMP JUMPDEST SDIV MUL SWAP1 POP PUSH0 PUSH0 PUSH2 0x2A24 DUP9 DUP9 PUSH2 0x2FB3 JUMP JUMPDEST DUP2 DUP12 SUB SWAP8 POP DUP11 DUP2 ADD SWAP7 POP SWAP1 SWAP3 POP SWAP1 POP PUSH1 0x2 DUP8 DUP2 SIGNEXTEND SWAP1 DUP8 SWAP1 SIGNEXTEND DUP2 PUSH2 0x2A49 JUMPI PUSH2 0x2A49 PUSH2 0x3BE6 JUMP JUMPDEST SMOD PUSH1 0x2 SIGNEXTEND ISZERO ISZERO DUP1 PUSH2 0x2A71 JUMPI POP DUP7 PUSH1 0x2 SIGNEXTEND DUP6 PUSH1 0x2 SIGNEXTEND DUP2 PUSH2 0x2A6A JUMPI PUSH2 0x2A6A PUSH2 0x3BE6 JUMP JUMPDEST SMOD PUSH1 0x2 SIGNEXTEND ISZERO ISZERO JUMPDEST DUP1 PUSH2 0x2A81 JUMPI POP DUP4 PUSH1 0x2 SIGNEXTEND DUP7 PUSH1 0x2 SIGNEXTEND SLT JUMPDEST DUP1 PUSH2 0x2A91 JUMPI POP DUP3 PUSH1 0x2 SIGNEXTEND DUP6 PUSH1 0x2 SIGNEXTEND SGT JUMPDEST ISZERO PUSH2 0x2AAF JUMPI PUSH1 0x40 MLOAD PUSH4 0xC82825F5 PUSH1 0xE0 SHL DUP2 MSTORE PUSH1 0x4 ADD PUSH1 0x40 MLOAD DUP1 SWAP2 SUB SWAP1 REVERT JUMPDEST POP POP POP POP SWAP4 POP SWAP4 SWAP2 POP POP JUMP JUMPDEST PUSH1 0x60 PUSH2 0x2ACC DUP3 PUSH0 PUSH1 0x1 DUP6 MLOAD SUB PUSH2 0x2FF6 JUMP JUMPDEST POP SWAP1 JUMP JUMPDEST PUSH0 PUSH0 PUSH0 DUP4 PUSH1 0x2 SIGNEXTEND SLT PUSH2 0x2AE5 JUMPI DUP3 PUSH1 0x2 SIGNEXTEND PUSH2 0x2AEC JUMP JUMPDEST DUP3 PUSH1 0x2 SIGNEXTEND PUSH0 SUB JUMPDEST SWAP1 POP PUSH3 0xD89E8 DUP2 GT ISZERO PUSH2 0x2B12 JUMPI PUSH1 0x40 MLOAD PUSH4 0x33A3BDFF PUSH1 0xE2 SHL DUP2 MSTORE PUSH1 0x4 ADD PUSH1 0x40 MLOAD DUP1 SWAP2 SUB SWAP1 REVERT JUMPDEST PUSH0 DUP2 PUSH1 0x1 AND PUSH0 SUB PUSH2 0x2B27 JUMPI PUSH1 0x1 PUSH1 0x80 SHL PUSH2 0x2B39 JUMP JUMPDEST PUSH16 0xFFFCB933BD6FAD37AA2D162D1A594001 JUMPDEST PUSH17 0xFFFFFFFFFFFFFFFFFFFFFFFFFFFFFFFFFF AND SWAP1 POP PUSH1 0x2 DUP3 AND ISZERO PUSH2 0x2B6D JUMPI PUSH16 0xFFF97272373D413259A46990580E213A MUL PUSH1 0x80 SHR JUMPDEST PUSH1 0x4 DUP3 AND ISZERO PUSH2 0x2B8C JUMPI PUSH16 0xFFF2E50F5F656932EF12357CF3C7FDCC MUL PUSH1 0x80 SHR JUMPDEST PUSH1 0x8 DUP3 AND ISZERO PUSH2 0x2BAB JUMPI PUSH16 0xFFE5CACA7E10E4E61C3624EAA0941CD0 MUL PUSH1 0x80 SHR JUMPDEST PUSH1 0x10 DUP3 AND ISZERO PUSH2 0x2BCA JUMPI PUSH16 0xFFCB9843D60F6159C9DB58835C926644 MUL PUSH1 0x80 SHR JUMPDEST PUSH1 0x20 DUP3 AND ISZERO PUSH2 0x2BE9 JUMPI PUSH16 0xFF973B41FA98C081472E6896DFB254C0 MUL PUSH1 0x80 SHR JUMPDEST PUSH1 0x40 DUP3 AND ISZERO PUSH2 0x2C08 JUMPI PUSH16 0xFF2EA16466C96A3843EC78B326B52861 MUL PUSH1 0x80 SHR JUMPDEST PUSH1 0x80 DUP3 AND ISZERO PUSH2 0x2C27 JUMPI PUSH16 0xFE5DEE046A99A2A811C461F1969C3053 MUL PUSH1 0x80 SHR JUMPDEST PUSH2 0x100 DUP3 AND ISZERO PUSH2 0x2C47 JUMPI PUSH16 0xFCBE86C7900A88AEDCFFC83B479AA3A4 MUL PUSH1 0x80 SHR JUMPDEST PUSH2 0x200 DUP3 AND ISZERO PUSH2 0x2C67 JUMPI PUSH16 0xF987A7253AC413176F2B074CF7815E54 MUL PUSH1 0x80 SHR JUMPDEST PUSH2 0x400 DUP3 AND ISZERO PUSH2 0x2C87 JUMPI PUSH16 0xF3392B0822B70005940C7A398E4B70F3 MUL PUSH1 0x80 SHR JUMPDEST PUSH2 0x800 DUP3 AND ISZERO PUSH2 0x2CA7 JUMPI PUSH16 0xE7159475A2C29B7443B29C7FA6E889D9 MUL PUSH1 0x80 SHR JUMPDEST PUSH2 0x1000 DUP3 AND ISZERO PUSH2 0x2CC7 JUMPI PUSH16 0xD097F3BDFD2022B8845AD8F792AA5825 MUL PUSH1 0x80 SHR JUMPDEST PUSH2 0x2000 DUP3 AND ISZERO PUSH2 0x2CE7 JUMPI PUSH16 0xA9F746462D870FDF8A65DC1F90E061E5 MUL PUSH1 0x80 SHR JUMPDEST PUSH2 0x4000 DUP3 AND ISZERO PUSH2 0x2D07 JUMPI PUSH16 0x70D869A156D2A1B890BB3DF62BAF32F7 MUL PUSH1 0x80 SHR JUMPDEST PUSH2 0x8000 DUP3 AND ISZERO PUSH2 0x2D27 JUMPI PUSH16 0x31BE135F97D08FD981231505542FCFA6 MUL PUSH1 0x80 SHR JUMPDEST PUSH3 0x10000 DUP3 AND ISZERO PUSH2 0x2D48 JUMPI PUSH16 0x9AA508B5B7A84E1C677DE54F3E99BC9 MUL PUSH1 0x80 SHR JUMPDEST PUSH3 0x20000 DUP3 AND ISZERO PUSH2 0x2D68 JUMPI PUSH15 0x5D6AF8DEDB81196699C329225EE604 MUL PUSH1 0x80 SHR JUMPDEST PUSH3 0x40000 DUP3 AND ISZERO PUSH2 0x2D87 JUMPI PUSH14 0x2216E584F5FA1EA926041BEDFE98 MUL PUSH1 0x80 SHR JUMPDEST PUSH3 0x80000 DUP3 AND ISZERO PUSH2 0x2DA4 JUMPI PUSH12 0x48A170391F7DC42444E8FA2 MUL PUSH1 0x80 SHR JUMPDEST PUSH0 DUP5 PUSH1 0x2 SIGNEXTEND SGT ISZERO PUSH2 0x2DC3 JUMPI DUP1 PUSH0 NOT DUP2 PUSH2 0x2DBF JUMPI PUSH2 0x2DBF PUSH2 0x3BE6 JUMP JUMPDEST DIV SWAP1 POP JUMPDEST PUSH5 0x100000000 DUP2 MOD ISZERO PUSH2 0x2DD7 JUMPI PUSH1 0x1 PUSH2 0x2DD9 JUMP JUMPDEST PUSH0 JUMPDEST PUSH1 0xFF AND PUSH1 0x20 DUP3 SWAP1 SHR ADD SWAP3 POP POP POP SWAP2 SWAP1 POP JUMP JUMPDEST PUSH0 DUP1 DUP1 PUSH0 NOT DUP5 DUP7 MULMOD DUP5 DUP7 MUL SWAP3 POP DUP3 DUP2 LT DUP4 DUP3 SUB SUB SWAP2 POP POP DUP1 PUSH0 SUB PUSH2 0x2E14 JUMPI POP PUSH1 0x60 SHR SWAP1 POP PUSH2 0x207C JUMP JUMPDEST DUP1 PUSH1 0x1 PUSH1 0x60 SHL GT PUSH2 0x2E23 JUMPI PUSH0 PUSH0 REVERT JUMPDEST PUSH0 PUSH1 0x1 PUSH1 0x60 SHL DUP6 DUP8 MULMOD DUP1 DUP5 SUB PUSH1 0x60 SHR SWAP4 LT SWAP1 SWAP2 SUB PUSH1 0x1 PUSH1 0xA0 SHL MUL SWAP2 SWAP1 SWAP2 OR SWAP5 SWAP4 POP POP POP POP JUMP JUMPDEST PUSH0 PUSH2 0x2E54 DUP4 DUP4 PUSH2 0x2DEB JUMP JUMPDEST SWAP1 POP PUSH0 PUSH1 0x1 PUSH1 0x60 SHL DUP4 DUP6 MULMOD GT ISZERO PUSH2 0x207C JUMPI PUSH0 NOT DUP2 LT PUSH2 0x2E71 JUMPI PUSH0 PUSH0 REVERT JUMPDEST PUSH1 0x1 ADD SWAP3 SWAP2 POP POP JUMP JUMPDEST PUSH0 PUSH2 0x2E86 DUP5 DUP5 DUP5 PUSH2 0x3141 JUMP JUMPDEST SWAP1 POP PUSH0 DUP3 DUP1 PUSH2 0x2E97 JUMPI PUSH2 0x2E97 PUSH2 0x3BE6 JUMP JUMPDEST DUP5 DUP7 MULMOD GT ISZERO PUSH2 0x14A2 JUMPI PUSH0 NOT DUP2 LT PUSH2 0x2EAC JUMPI PUSH0 PUSH0 REVERT JUMPDEST PUSH1 0x1 ADD SWAP4 SWAP3 POP POP POP JUMP JUMPDEST PUSH0 PUSH0 DUP4 PUSH0 SUB PUSH2 0x2F27 JUMPI PUSH2 0x2ED2 DUP6 PUSH1 0x1 PUSH1 0x1 PUSH1 0x80 SHL SUB AND DUP5 PUSH2 0x31EB JUMP JUMPDEST PUSH2 0x2EE5 SWAP1 PUSH1 0x1 PUSH1 0x1 PUSH1 0x80 SHL SUB DUP9 AND PUSH2 0x3A8C JUMP JUMPDEST PUSH2 0x2F01 PUSH2 0x2EF2 DUP8 PUSH1 0x80 SHR SWAP1 JUMP JUMPDEST PUSH1 0x1 PUSH1 0x1 PUSH1 0x80 SHL SUB AND DUP6 PUSH2 0x31EB JUMP JUMPDEST PUSH2 0x2F0B DUP9 PUSH1 0x80 SHR SWAP1 JUMP JUMPDEST PUSH1 0x1 PUSH1 0x1 PUSH1 0x80 SHL SUB AND PUSH2 0x2F1E SWAP2 SWAP1 PUSH2 0x3A8C JUMP JUMPDEST SWAP2 POP SWAP2 POP PUSH2 0x2963 JUMP JUMPDEST PUSH2 0x2F3A DUP7 PUSH1 0x1 PUSH1 0x1 PUSH1 0x80 SHL SUB AND DUP5 PUSH2 0x3247 JUMP JUMPDEST PUSH2 0x2F4D SWAP1 PUSH1 0x1 PUSH1 0x1 PUSH1 0x80 SHL SUB DUP8 AND PUSH2 0x3A8C JUMP JUMPDEST PUSH2 0x2F69 PUSH2 0x2F5A DUP9 PUSH1 0x80 SHR SWAP1 JUMP JUMPDEST PUSH1 0x1 PUSH1 0x1 PUSH1 0x80 SHL SUB AND DUP6 PUSH2 0x3247 JUMP JUMPDEST PUSH2 0x2F0B DUP8 PUSH1 0x80 SHR SWAP1 JUMP JUMPDEST PUSH0 PUSH1 0x41 PUSH1 0x30 DUP4 MUL ADD PUSH1 0x80 DUP5 PUSH2 0x24EE JUMP JUMPDEST PUSH0 PUSH1 0x40 PUSH1 0x30 DUP4 MUL ADD PUSH1 0x2 DUP5 PUSH2 0x24EE JUMP JUMPDEST PUSH0 PUSH1 0x48 PUSH1 0x30 DUP4 MUL ADD PUSH1 0x2 DUP5 PUSH2 0x24EE JUMP JUMPDEST PUSH0 PUSH1 0x49 PUSH1 0x30 DUP4 MUL ADD PUSH1 0x2 DUP5 PUSH2 0x24EE JUMP JUMPDEST PUSH0 DUP1 PUSH1 0x2 PUSH2 0x2FC1 DUP5 DUP7 PUSH2 0x400E JUMP JUMPDEST PUSH2 0x2FCB SWAP2 SWAP1 PUSH2 0x402D JUMP JUMPDEST PUSH2 0x2FEA PUSH2 0x2FD8 DUP6 DUP8 PUSH2 0x4065 JUMP JUMPDEST PUSH3 0xFFFFFF AND PUSH1 0x2 DUP1 DUP3 DIV SWAP2 MOD ISZERO ISZERO ADD SWAP1 JUMP JUMPDEST SWAP2 POP SWAP2 POP JUMPDEST SWAP3 POP SWAP3 SWAP1 POP JUMP JUMPDEST DUP2 DUP2 DUP1 DUP3 SUB PUSH2 0x3006 JUMPI POP POP POP POP POP JUMP JUMPDEST PUSH0 DUP6 PUSH1 0x2 DUP7 DUP7 SUB SDIV DUP7 ADD DUP2 MLOAD DUP2 LT PUSH2 0x3020 JUMPI PUSH2 0x3020 PUSH2 0x3C8B JUMP JUMPDEST PUSH1 0x20 MUL PUSH1 0x20 ADD ADD MLOAD SWAP1 POP JUMPDEST DUP2 DUP4 SLT ISZERO PUSH2 0x3113 JUMPI JUMPDEST DUP1 DUP7 DUP5 DUP2 MLOAD DUP2 LT PUSH2 0x3047 JUMPI PUSH2 0x3047 PUSH2 0x3C8B JUMP JUMPDEST PUSH1 0x20 MUL PUSH1 0x20 ADD ADD MLOAD SLT ISZERO PUSH2 0x3060 JUMPI PUSH1 0x1 SWAP1 SWAP3 ADD SWAP2 PUSH2 0x3034 JUMP JUMPDEST DUP6 DUP3 DUP2 MLOAD DUP2 LT PUSH2 0x3072 JUMPI PUSH2 0x3072 PUSH2 0x3C8B JUMP JUMPDEST PUSH1 0x20 MUL PUSH1 0x20 ADD ADD MLOAD DUP2 SLT ISZERO PUSH2 0x308C JUMPI PUSH0 NOT SWAP1 SWAP2 ADD SWAP1 PUSH2 0x3060 JUMP JUMPDEST DUP2 DUP4 SGT PUSH2 0x310E JUMPI DUP6 DUP3 DUP2 MLOAD DUP2 LT PUSH2 0x30A5 JUMPI PUSH2 0x30A5 PUSH2 0x3C8B JUMP JUMPDEST PUSH1 0x20 MUL PUSH1 0x20 ADD ADD MLOAD DUP7 DUP5 DUP2 MLOAD DUP2 LT PUSH2 0x30BF JUMPI PUSH2 0x30BF PUSH2 0x3C8B JUMP JUMPDEST PUSH1 0x20 MUL PUSH1 0x20 ADD ADD MLOAD DUP8 DUP6 DUP2 MLOAD DUP2 LT PUSH2 0x30D9 JUMPI PUSH2 0x30D9 PUSH2 0x3C8B JUMP JUMPDEST PUSH1 0x20 MUL PUSH1 0x20 ADD ADD DUP9 DUP6 DUP2 MLOAD DUP2 LT PUSH2 0x30F2 JUMPI PUSH2 0x30F2 PUSH2 0x3C8B JUMP JUMPDEST PUSH1 0x20 SWAP1 DUP2 MUL SWAP2 SWAP1 SWAP2 ADD ADD SWAP2 SWAP1 SWAP2 MSTORE MSTORE PUSH1 0x1 SWAP1 SWAP3 ADD SWAP2 PUSH0 NOT SWAP1 SWAP2 ADD SWAP1 JUMPDEST PUSH2 0x302B JUMP JUMPDEST DUP2 DUP6 SLT ISZERO PUSH2 0x3126 JUMPI PUSH2 0x3126 DUP7 DUP7 DUP5 PUSH2 0x2FF6 JUMP JUMPDEST DUP4 DUP4 SLT ISZERO PUSH2 0x3139 JUMPI PUSH2 0x3139 DUP7 DUP5 DUP7 PUSH2 0x2FF6 JUMP JUMPDEST POP POP POP POP POP POP JUMP JUMPDEST PUSH0 DUP1 DUP1 PUSH0 NOT DUP6 DUP8 MULMOD DUP6 DUP8 MUL SWAP3 POP DUP3 DUP2 LT DUP4 DUP3 SUB SUB SWAP2 POP POP DUP1 PUSH0 SUB PUSH2 0x3175 JUMPI PUSH0 DUP5 GT PUSH2 0x316A JUMPI PUSH0 PUSH0 REVERT JUMPDEST POP DUP3 SWAP1 DIV SWAP1 POP PUSH2 0x14A2 JUMP JUMPDEST DUP1 DUP5 GT PUSH2 0x3180 JUMPI PUSH0 PUSH0 REVERT JUMPDEST PUSH0 DUP5 DUP7 DUP9 MULMOD PUSH0 DUP7 DUP2 SUB DUP8 AND SWAP7 DUP8 SWAP1 DIV SWAP7 PUSH1 0x2 PUSH1 0x3 DUP10 MUL DUP2 XOR DUP1 DUP11 MUL DUP3 SUB MUL DUP1 DUP11 MUL DUP3 SUB MUL DUP1 DUP11 MUL DUP3 SUB MUL DUP1 DUP11 MUL DUP3 SUB MUL DUP1 DUP11 MUL DUP3 SUB MUL DUP1 DUP11 MUL SWAP1 SWAP2 SUB MUL SWAP2 DUP2 SWAP1 SUB DUP2 SWAP1 DIV PUSH1 0x1 ADD DUP7 DUP5 GT SWAP1 SWAP6 SUB SWAP5 SWAP1 SWAP5 MUL SWAP2 SWAP1 SWAP5 SUB SWAP3 SWAP1 SWAP3 DIV SWAP2 SWAP1 SWAP2 OR SWAP2 SWAP1 SWAP2 MUL SWAP2 POP POP SWAP4 SWAP3 POP POP POP JUMP JUMPDEST PUSH0 PUSH1 0x1 PUSH1 0x1 PUSH1 0x80 SHL SUB PUSH1 0x1 PUSH1 0x1 PUSH1 0xA0 SHL SUB DUP4 AND LT ISZERO PUSH2 0x3226 JUMPI PUSH2 0x321F DUP4 PUSH1 0x1 PUSH1 0xC0 SHL PUSH1 0x2 DUP6 PUSH1 0x1 PUSH1 0x1 PUSH1 0xA0 SHL SUB AND EXP PUSH2 0x3141 JUMP JUMPDEST SWAP1 POP PUSH2 0x207C JUMP JUMPDEST PUSH2 0x321F DUP4 PUSH1 0x1 PUSH1 0x80 SHL PUSH2 0x3242 PUSH1 0x1 PUSH1 0x1 PUSH1 0xA0 SHL SUB DUP7 AND DUP1 PUSH2 0x3292 JUMP JUMPDEST PUSH2 0x3141 JUMP JUMPDEST PUSH0 PUSH1 0x1 PUSH1 0x1 PUSH1 0x80 SHL SUB PUSH1 0x1 PUSH1 0x1 PUSH1 0xA0 SHL SUB DUP4 AND LT ISZERO PUSH2 0x3276 JUMPI PUSH2 0x321F DUP4 PUSH1 0x2 DUP5 PUSH1 0x1 PUSH1 0x1 PUSH1 0xA0 SHL SUB AND EXP PUSH2 0x32F0 JUMP JUMPDEST PUSH2 0x321F DUP4 PUSH2 0x328D PUSH1 0x1 PUSH1 0x1 PUSH1 0xA0 SHL SUB DUP6 AND DUP1 PUSH2 0x3292 JUMP JUMPDEST PUSH2 0x334E JUMP JUMPDEST PUSH0 DUP1 DUP1 PUSH0 NOT DUP5 DUP7 MULMOD DUP5 DUP7 MUL SWAP3 POP DUP3 DUP2 LT DUP4 DUP3 SUB SUB SWAP2 POP POP DUP1 PUSH0 SUB PUSH2 0x32BB JUMPI POP PUSH1 0x40 SHR SWAP1 POP PUSH2 0x207C JUMP JUMPDEST DUP1 PUSH1 0x1 PUSH1 0x40 SHL GT PUSH2 0x32CA JUMPI PUSH0 PUSH0 REVERT JUMPDEST PUSH0 PUSH1 0x1 PUSH1 0x40 SHL DUP6 DUP8 MULMOD DUP1 DUP5 SUB PUSH1 0x40 SHR SWAP4 LT SWAP1 SWAP2 SUB PUSH1 0x1 PUSH1 0xC0 SHL MUL SWAP2 SWAP1 SWAP2 OR SWAP5 SWAP4 POP POP POP POP JUMP JUMPDEST PUSH0 DUP1 DUP1 PUSH0 NOT DUP5 DUP7 MULMOD DUP5 DUP7 MUL SWAP3 POP DUP3 DUP2 LT DUP4 DUP3 SUB SUB SWAP2 POP POP DUP1 PUSH0 SUB PUSH2 0x3319 JUMPI POP PUSH1 0xC0 SHR SWAP1 POP PUSH2 0x207C JUMP JUMPDEST DUP1 PUSH1 0x1 PUSH1 0xC0 SHL GT PUSH2 0x3328 JUMPI PUSH0 PUSH0 REVERT JUMPDEST PUSH0 PUSH1 0x1 PUSH1 0xC0 SHL DUP6 DUP8 MULMOD DUP1 DUP5 SUB PUSH1 0xC0 SHR SWAP4 LT SWAP1 SWAP2 SUB PUSH1 0x1 PUSH1 0x40 SHL MUL SWAP2 SWAP1 SWAP2 OR SWAP5 SWAP4 POP POP POP POP JUMP JUMPDEST PUSH0 DUP1 DUP1 PUSH0 NOT DUP5 DUP7 MULMOD DUP5 DUP7 MUL SWAP3 POP DUP3 DUP2 LT DUP4 DUP3 SUB SUB SWAP2 POP POP DUP1 PUSH0 SUB PUSH2 0x3377 JUMPI POP PUSH1 0x80 SHR SWAP1 POP PUSH2 0x207C JUMP JUMPDEST DUP1 PUSH1 0x1 PUSH1 0x80 SHL GT PUSH2 0x3386 JUMPI PUSH0 PUSH0 REVERT JUMPDEST PUSH0 PUSH1 0x1 PUSH1 0x80 SHL DUP6 DUP8 MULMOD DUP1 DUP5 SUB PUSH1 0x80 SHR SWAP4 LT SWAP1 SWAP2 SUB PUSH1 0x1 PUSH1 0x80 SHL MUL SWAP2 SWAP1 SWAP2 OR SWAP5 SWAP4 POP POP POP POP JUMP JUMPDEST PUSH1 0x40 MLOAD DUP1 PUSH1 0x40 ADD PUSH1 0x40 MSTORE DUP1 PUSH1 0x2 SWAP1 PUSH1 0x20 DUP3 MUL DUP1 CALLDATASIZE DUP4 CALLDATACOPY POP SWAP2 SWAP3 SWAP2 POP POP JUMP JUMPDEST PUSH1 0x1 PUSH1 0x1 PUSH1 0xA0 SHL SUB DUP2 AND DUP2 EQ PUSH2 0x33DE JUMPI PUSH0 PUSH0 REVERT JUMPDEST POP JUMP JUMPDEST DUP1 PUSH1 0x2 SIGNEXTEND DUP2 EQ PUSH2 0x33DE JUMPI PUSH0 PUSH0 REVERT JUMPDEST PUSH0 PUSH0 PUSH0 PUSH0 PUSH0 PUSH0 PUSH0 PUSH1 0xE0 DUP9 DUP11 SUB SLT ISZERO PUSH2 0x3405 JUMPI PUSH0 PUSH0 REVERT JUMPDEST DUP8 CALLDATALOAD PUSH2 0x3410 DUP2 PUSH2 0x33CA JUMP JUMPDEST SWAP7 POP PUSH1 0x20 DUP9 ADD CALLDATALOAD PUSH2 0x3420 DUP2 PUSH2 0x33E1 JUMP JUMPDEST SWAP6 POP PUSH1 0x40 DUP9 ADD CALLDATALOAD PUSH2 0x3430 DUP2 PUSH2 0x33E1 JUMP JUMPDEST SWAP5 POP PUSH1 0x60 DUP9 ADD CALLDATALOAD PUSH2 0x3440 DUP2 PUSH2 0x33E1 JUMP JUMPDEST SWAP7 SWAP10 SWAP6 SWAP9 POP SWAP4 SWAP7 PUSH1 0x80 DUP2 ADD CALLDATALOAD SWAP6 PUSH1 0xA0 DUP3 ADD CALLDATALOAD SWAP6 POP PUSH1 0xC0 SWAP1 SWAP2 ADD CALLDATALOAD SWAP4 POP SWAP2 POP POP JUMP JUMPDEST PUSH0 PUSH0 PUSH0 PUSH0 PUSH0 PUSH0 PUSH1 0xC0 DUP8 DUP10 SUB SLT ISZERO PUSH2 0x3476 JUMPI PUSH0 PUSH0 REVERT JUMPDEST DUP7 CALLDATALOAD PUSH2 0x3481 DUP2 PUSH2 0x33CA JUMP JUMPDEST SWAP6 POP PUSH1 0x20 DUP8 ADD CALLDATALOAD PUSH2 0x3491 DUP2 PUSH2 0x33E1 JUMP JUMPDEST SWAP5 POP PUSH1 0x40 DUP8 ADD CALLDATALOAD PUSH2 0x34A1 DUP2 PUSH2 0x33E1 JUMP JUMPDEST SWAP4 POP PUSH1 0x60 DUP8 ADD CALLDATALOAD PUSH2 0x34B1 DUP2 PUSH2 0x33E1 JUMP JUMPDEST SWAP6 SWAP9 SWAP5 SWAP8 POP SWAP3 SWAP6 PUSH1 0x80 DUP2 ADD CALLDATALOAD SWAP5 PUSH1 0xA0 SWAP1 SWAP2 ADD CALLDATALOAD SWAP4 POP SWAP2 POP POP JUMP JUMPDEST PUSH0 PUSH0 DUP4 PUSH1 0x1F DUP5 ADD SLT PUSH2 0x34DB JUMPI PUSH0 PUSH0 REVERT JUMPDEST POP DUP2 CALLDATALOAD PUSH1 0x1 PUSH1 0x1 PUSH1 0x40 SHL SUB DUP2 GT ISZERO PUSH2 0x34F1 JUMPI PUSH0 PUSH0 REVERT JUMPDEST PUSH1 0x20 DUP4 ADD SWAP2 POP DUP4 PUSH1 0x20 DUP3 PUSH1 0x5 SHL DUP6 ADD ADD GT ISZERO PUSH2 0x2FEF JUMPI PUSH0 PUSH0 REVERT JUMPDEST PUSH0 PUSH0 PUSH0 PUSH0 PUSH1 0x60 DUP6 DUP8 SUB SLT ISZERO PUSH2 0x351E JUMPI PUSH0 PUSH0 REVERT JUMPDEST DUP5 CALLDATALOAD PUSH2 0x3529 DUP2 PUSH2 0x33CA JUMP JUMPDEST SWAP4 POP PUSH1 0x20 DUP6 ADD CALLDATALOAD PUSH2 0x3539 DUP2 PUSH2 0x33CA JUMP JUMPDEST SWAP3 POP PUSH1 0x40 DUP6 ADD CALLDATALOAD PUSH1 0x1 PUSH1 0x1 PUSH1 0x40 SHL SUB DUP2 GT ISZERO PUSH2 0x3553 JUMPI PUSH0 PUSH0 REVERT JUMPDEST PUSH2 0x355F DUP8 DUP3 DUP9 ADD PUSH2 0x34CB JUMP JUMPDEST SWAP6 SWAP9 SWAP5 SWAP8 POP SWAP6 POP POP POP POP JUMP JUMPDEST PUSH0 PUSH1 0x20 DUP3 DUP5 SUB SLT ISZERO PUSH2 0x357B JUMPI PUSH0 PUSH0 REVERT JUMPDEST POP CALLDATALOAD SWAP2 SWAP1 POP JUMP JUMPDEST PUSH0 PUSH0 PUSH0 PUSH0 PUSH0 PUSH0 PUSH1 0xC0 DUP8 DUP10 SUB SLT ISZERO PUSH2 0x3597 JUMPI PUSH0 PUSH0 REVERT JUMPDEST DUP7 CALLDATALOAD PUSH2 0x35A2 DUP2 PUSH2 0x33CA JUMP JUMPDEST SWAP6 POP PUSH1 0x20 DUP8 ADD CALLDATALOAD PUSH2 0x35B2 DUP2 PUSH2 0x33E1 JUMP JUMPDEST SWAP5 POP PUSH1 0x40 DUP8 ADD CALLDATALOAD PUSH2 0x35C2 DUP2 PUSH2 0x33E1 JUMP JUMPDEST SWAP4 POP PUSH1 0x60 DUP8 ADD CALLDATALOAD PUSH2 0x35D2 DUP2 PUSH2 0x33E1 JUMP JUMPDEST SWAP3 POP PUSH1 0x80 DUP8 ADD CALLDATALOAD PUSH2 0x35E2 DUP2 PUSH2 0x33E1 JUMP JUMPDEST SWAP6 SWAP9 SWAP5 SWAP8 POP SWAP3 SWAP6 SWAP2 SWAP5 SWAP4 PUSH1 0xA0 SWAP1 SWAP3 ADD CALLDATALOAD SWAP3 POP POP JUMP JUMPDEST PUSH0 PUSH0 PUSH0 PUSH0 PUSH0 PUSH0 PUSH0 PUSH0 PUSH2 0x100 DUP10 DUP12 SUB SLT ISZERO PUSH2 0x360F JUMPI PUSH0 PUSH0 REVERT JUMPDEST DUP9 CALLDATALOAD PUSH2 0x361A DUP2 PUSH2 0x33CA JUMP JUMPDEST SWAP8 POP PUSH1 0x20 DUP10 ADD CALLDATALOAD PUSH2 0x362A DUP2 PUSH2 0x33E1 JUMP JUMPDEST SWAP7 POP PUSH1 0x40 DUP10 ADD CALLDATALOAD PUSH2 0x363A DUP2 PUSH2 0x33E1 JUMP JUMPDEST SWAP6 POP PUSH1 0x60 DUP10 ADD CALLDATALOAD PUSH2 0x364A DUP2 PUSH2 0x33E1 JUMP JUMPDEST SWAP8 SWAP11 SWAP7 SWAP10 POP SWAP5 SWAP8 PUSH1 0x80 DUP2 ADD CALLDATALOAD SWAP7 PUSH1 0xA0 DUP3 ADD CALLDATALOAD SWAP7 POP PUSH1 0xC0 DUP3 ADD CALLDATALOAD SWAP6 POP PUSH1 0xE0 SWAP1 SWAP2 ADD CALLDATALOAD SWAP4 POP SWAP2 POP POP JUMP JUMPDEST PUSH0 PUSH0 PUSH0 PUSH0 PUSH0 PUSH0 PUSH0 PUSH0 PUSH2 0x100 DUP10 DUP12 SUB SLT ISZERO PUSH2 0x368A JUMPI PUSH0 PUSH0 REVERT JUMPDEST DUP9 CALLDATALOAD PUSH2 0x3695 DUP2 PUSH2 0x33CA JUMP JUMPDEST SWAP8 POP PUSH1 0x20 DUP10 ADD CALLDATALOAD PUSH2 0x36A5 DUP2 PUSH2 0x33E1 JUMP JUMPDEST SWAP7 POP PUSH1 0x40 DUP10 ADD CALLDATALOAD PUSH2 0x36B5 DUP2 PUSH2 0x33E1 JUMP JUMPDEST SWAP6 POP PUSH1 0x60 DUP10 ADD CALLDATALOAD PUSH2 0x36C5 DUP2 PUSH2 0x33E1 JUMP JUMPDEST SWAP5 POP PUSH1 0x80 DUP10 ADD CALLDATALOAD PUSH2 0x36D5 DUP2 PUSH2 0x33E1 JUMP JUMPDEST SWAP8 SWAP11 SWAP7 SWAP10 POP SWAP5 SWAP8 SWAP4 SWAP7 SWAP6 PUSH1 0xA0 DUP6 ADD CALLDATALOAD SWAP6 POP PUSH1 0xC0 DUP6 ADD CALLDATALOAD SWAP5 PUSH1 0xE0 ADD CALLDATALOAD SWAP4 POP SWAP2 POP POP JUMP JUMPDEST PUSH0 PUSH0 PUSH0 PUSH1 0x60 DUP5 DUP7 SUB SLT ISZERO PUSH2 0x3709 JUMPI PUSH0 PUSH0 REVERT JUMPDEST DUP4 CALLDATALOAD SWAP3 POP PUSH1 0x20 DUP5 ADD CALLDATALOAD SWAP2 POP PUSH1 0x40 DUP5 ADD CALLDATALOAD PUSH2 0x3722 DUP2 PUSH2 0x33CA JUMP JUMPDEST DUP1 SWAP2 POP POP SWAP3 POP SWAP3 POP SWAP3 JUMP JUMPDEST PUSH0 PUSH0 PUSH0 PUSH1 0x60 DUP5 DUP7 SUB SLT ISZERO PUSH2 0x373F JUMPI PUSH0 PUSH0 REVERT JUMPDEST DUP4 CALLDATALOAD PUSH2 0x374A DUP2 PUSH2 0x33CA JUMP JUMPDEST SWAP3 POP PUSH1 0x20 DUP5 ADD CALLDATALOAD PUSH2 0x375A DUP2 PUSH2 0x33E1 JUMP JUMPDEST SWAP3 SWAP6 SWAP3 SWAP5 POP POP POP PUSH1 0x40 SWAP2 SWAP1 SWAP2 ADD CALLDATALOAD SWAP1 JUMP JUMPDEST PUSH0 PUSH0 PUSH0 PUSH1 0x60 DUP5 DUP7 SUB SLT ISZERO PUSH2 0x377D JUMPI PUSH0 PUSH0 REVERT JUMPDEST DUP4 CALLDATALOAD PUSH2 0x3788 DUP2 PUSH2 0x33CA JUMP JUMPDEST SWAP6 PUSH1 0x20 DUP6 ADD CALLDATALOAD SWAP6 POP PUSH1 0x40 SWAP1 SWAP5 ADD CALLDATALOAD SWAP4 SWAP3 POP POP POP JUMP JUMPDEST PUSH1 0x20 DUP1 DUP3 MSTORE DUP3 MLOAD DUP3 DUP3 ADD DUP2 SWAP1 MSTORE PUSH0 SWAP2 DUP5 ADD SWAP1 PUSH1 0x40 DUP5 ADD SWAP1 DUP4 JUMPDEST DUP2 DUP2 LT ISZERO PUSH2 0x3856 JUMPI DUP4 MLOAD PUSH1 0x1 PUSH1 0x1 PUSH1 0x40 SHL SUB DUP2 MLOAD AND DUP5 MSTORE PUSH1 0x1 DUP1 PUSH1 0xA0 SHL SUB PUSH1 0x20 DUP3 ADD MLOAD AND PUSH1 0x20 DUP6 ADD MSTORE PUSH1 0x40 DUP2 ADD MLOAD PUSH1 0x40 DUP6 ADD MSTORE PUSH1 0x60 DUP2 ADD MLOAD PUSH1 0x60 DUP6 ADD MSTORE PUSH1 0x80 DUP2 ADD MLOAD PUSH1 0x80 DUP6 ADD MSTORE PUSH1 0xA0 DUP2 ADD MLOAD PUSH1 0xA0 DUP6 ADD MSTORE PUSH1 0xC0 DUP2 ADD MLOAD PUSH1 0xC0 DUP6 ADD MSTORE PUSH1 0xE0 DUP2 ADD MLOAD PUSH2 0x3825 PUSH1 0xE0 DUP7 ADD DUP3 PUSH1 0x2 SIGNEXTEND SWAP1 MSTORE JUMP JUMPDEST POP PUSH2 0x100 DUP2 ADD MLOAD SWAP1 POP PUSH2 0x383E PUSH2 0x100 DUP6 ADD DUP3 PUSH1 0x2 SIGNEXTEND SWAP1 MSTORE JUMP JUMPDEST POP PUSH1 0x20 SWAP4 SWAP1 SWAP4 ADD SWAP3 PUSH2 0x120 SWAP3 SWAP1 SWAP3 ADD SWAP2 PUSH1 0x1 ADD PUSH2 0x37B6 JUMP JUMPDEST POP SWAP1 SWAP6 SWAP5 POP POP POP POP POP JUMP JUMPDEST PUSH0 PUSH0 PUSH0 PUSH1 0x60 DUP5 DUP7 SUB SLT ISZERO PUSH2 0x3873 JUMPI PUSH0 PUSH0 REVERT JUMPDEST DUP4 CALLDATALOAD PUSH2 0x387E DUP2 PUSH2 0x33CA JUMP JUMPDEST SWAP3 POP PUSH1 0x20 DUP5 ADD CALLDATALOAD PUSH2 0x375A DUP2 PUSH2 0x33CA JUMP JUMPDEST PUSH0 PUSH0 PUSH0 PUSH0 PUSH0 PUSH1 0xA0 DUP7 DUP9 SUB SLT ISZERO PUSH2 0x38A2 JUMPI PUSH0 PUSH0 REVERT JUMPDEST DUP6 CALLDATALOAD PUSH2 0x38AD DUP2 PUSH2 0x33CA JUMP JUMPDEST SWAP5 POP PUSH1 0x20 DUP7 ADD CALLDATALOAD PUSH2 0x38BD DUP2 PUSH2 0x33E1 JUMP JUMPDEST SWAP4 POP PUSH1 0x40 DUP7 ADD CALLDATALOAD PUSH2 0x38CD DUP2 PUSH2 0x33E1 JUMP JUMPDEST SWAP3 POP PUSH1 0x60 DUP7 ADD CALLDATALOAD PUSH2 0x38DD DUP2 PUSH2 0x33E1 JUMP JUMPDEST SWAP5 SWAP8 SWAP4 SWAP7 POP SWAP2 SWAP5 PUSH1 0x80 ADD CALLDATALOAD SWAP3 SWAP2 POP POP JUMP JUMPDEST PUSH0 PUSH0 PUSH0 PUSH1 0x60 DUP5 DUP7 SUB SLT ISZERO PUSH2 0x3900 JUMPI PUSH0 PUSH0 REVERT JUMPDEST DUP4 CALLDATALOAD PUSH2 0x390B DUP2 PUSH2 0x33CA JUMP JUMPDEST SWAP3 POP PUSH1 0x20 DUP5 ADD CALLDATALOAD SWAP2 POP PUSH1 0x40 DUP5 ADD CALLDATALOAD PUSH2 0x3722 DUP2 PUSH2 0x33E1 JUMP JUMPDEST PUSH0 PUSH0 PUSH0 PUSH0 PUSH0 PUSH0 PUSH1 0xA0 DUP8 DUP10 SUB SLT ISZERO PUSH2 0x3937 JUMPI PUSH0 PUSH0 REVERT JUMPDEST DUP7 CALLDATALOAD PUSH2 0x3942 DUP2 PUSH2 0x33CA JUMP JUMPDEST SWAP6 POP PUSH1 0x20 DUP8 ADD CALLDATALOAD PUSH2 0x3952 DUP2 PUSH2 0x33CA JUMP JUMPDEST SWAP5 POP PUSH1 0x40 DUP8 ADD CALLDATALOAD PUSH2 0x3962 DUP2 PUSH2 0x33E1 JUMP JUMPDEST SWAP4 POP PUSH1 0x60 DUP8 ADD CALLDATALOAD SWAP3 POP PUSH1 0x80 DUP8 ADD CALLDATALOAD PUSH1 0x1 PUSH1 0x1 PUSH1 0x40 SHL SUB DUP2 GT ISZERO PUSH2 0x3983 JUMPI PUSH0 PUSH0 REVERT JUMPDEST PUSH2 0x398F DUP10 DUP3 DUP11 ADD PUSH2 0x34CB JUMP JUMPDEST SWAP8 SWAP11 SWAP7 SWAP10 POP SWAP5 SWAP8 POP SWAP3 SWAP6 SWAP4 SWAP5 SWAP3 POP POP POP JUMP JUMPDEST PUSH4 0xFFFFFFFF DUP2 AND DUP2 EQ PUSH2 0x33DE JUMPI PUSH0 PUSH0 REVERT JUMPDEST PUSH0 PUSH0 PUSH1 0x40 DUP4 DUP6 SUB SLT ISZERO PUSH2 0x39C3 JUMPI PUSH0 PUSH0 REVERT JUMPDEST DUP3 CALLDATALOAD PUSH2 0x39CE DUP2 PUSH2 0x33CA JUMP JUMPDEST SWAP2 POP PUSH1 0x20 DUP4 ADD CALLDATALOAD PUSH2 0x39DE DUP2 PUSH2 0x39A1 JUMP JUMPDEST DUP1 SWAP2 POP POP SWAP3 POP SWAP3 SWAP1 POP JUMP JUMPDEST PUSH0 PUSH0 PUSH0 PUSH0 PUSH0 PUSH0 PUSH0 PUSH1 0xE0 DUP9 DUP11 SUB SLT ISZERO PUSH2 0x39FF JUMPI PUSH0 PUSH0 REVERT JUMPDEST DUP8 CALLDATALOAD PUSH2 0x3A0A DUP2 PUSH2 0x33CA JUMP JUMPDEST SWAP7 POP PUSH1 0x20 DUP9 ADD CALLDATALOAD PUSH2 0x3A1A DUP2 PUSH2 0x33E1 JUMP JUMPDEST SWAP6 POP PUSH1 0x40 DUP9 ADD CALLDATALOAD PUSH2 0x3A2A DUP2 PUSH2 0x33E1 JUMP JUMPDEST SWAP7 SWAP10 SWAP6 SWAP9 POP SWAP6 SWAP7 PUSH1 0x60 DUP2 ADD CALLDATALOAD SWAP7 POP PUSH1 0x80 DUP2 ADD CALLDATALOAD SWAP6 PUSH1 0xA0 DUP3 ADD CALLDATALOAD SWAP6 POP PUSH1 0xC0 SWAP1 SWAP2 ADD CALLDATALOAD SWAP4 POP SWAP2 POP POP JUMP JUMPDEST PUSH0 PUSH1 0x20 DUP3 DUP5 SUB SLT ISZERO PUSH2 0x3A62 JUMPI PUSH0 PUSH0 REVERT JUMPDEST DUP2 MLOAD PUSH1 0x1 PUSH1 0x1 PUSH1 0x40 SHL SUB DUP2 AND DUP2 EQ PUSH2 0x14A2 JUMPI PUSH0 PUSH0 REVERT JUMPDEST PUSH4 0x4E487B71 PUSH1 0xE0 SHL PUSH0 MSTORE PUSH1 0x11 PUSH1 0x4 MSTORE PUSH1 0x24 PUSH0 REVERT JUMPDEST DUP1 DUP3 ADD DUP1 DUP3 GT ISZERO PUSH2 0x207C JUMPI PUSH2 0x207C PUSH2 0x3A78 JUMP JUMPDEST PUSH0 PUSH1 0x20 DUP3 DUP5 SUB SLT ISZERO PUSH2 0x3AAF JUMPI PUSH0 PUSH0 REVERT JUMPDEST DUP2 MLOAD PUSH2 0x14A2 DUP2 PUSH2 0x33CA JUMP JUMPDEST DUP1 MLOAD PUSH2 0xFFFF DUP2 AND DUP2 EQ PUSH2 0x3ACB JUMPI PUSH0 PUSH0 REVERT JUMPDEST SWAP2 SWAP1 POP JUMP JUMPDEST DUP1 MLOAD DUP1 ISZERO ISZERO DUP2 EQ PUSH2 0x3ACB JUMPI PUSH0 PUSH0 REVERT JUMPDEST PUSH0 PUSH0 PUSH0 PUSH0 PUSH0 PUSH0 PUSH0 PUSH1 0xE0 DUP9 DUP11 SUB SLT ISZERO PUSH2 0x3AF5 JUMPI PUSH0 PUSH0 REVERT JUMPDEST DUP8 MLOAD PUSH2 0x3B00 DUP2 PUSH2 0x33CA JUMP JUMPDEST PUSH1 0x20 DUP10 ADD MLOAD SWAP1 SWAP8 POP PUSH2 0x3B11 DUP2 PUSH2 0x33E1 JUMP JUMPDEST SWAP6 POP PUSH2 0x3B1F PUSH1 0x40 DUP10 ADD PUSH2 0x3ABA JUMP JUMPDEST SWAP5 POP PUSH2 0x3B2D PUSH1 0x60 DUP10 ADD PUSH2 0x3ABA JUMP JUMPDEST SWAP4 POP PUSH2 0x3B3B PUSH1 0x80 DUP10 ADD PUSH2 0x3ABA JUMP JUMPDEST SWAP3 POP PUSH1 0xA0 DUP9 ADD MLOAD PUSH1 0xFF DUP2 AND DUP2 EQ PUSH2 0x3B50 JUMPI PUSH0 PUSH0 REVERT JUMPDEST SWAP2 POP PUSH2 0x3B5E PUSH1 0xC0 DUP10 ADD PUSH2 0x3AD0 JUMP JUMPDEST SWAP1 POP SWAP3 SWAP6 SWAP9 SWAP2 SWAP5 SWAP8 POP SWAP3 SWAP6 POP JUMP JUMPDEST PUSH1 0x2 DUP3 DUP2 SIGNEXTEND SWAP1 DUP3 SWAP1 SIGNEXTEND SUB PUSH3 0x7FFFFF NOT DUP2 SLT PUSH3 0x7FFFFF DUP3 SGT OR ISZERO PUSH2 0x207C JUMPI PUSH2 0x207C PUSH2 0x3A78 JUMP JUMPDEST DUP2 DUP2 SUB PUSH0 DUP4 SLT DUP1 ISZERO DUP4 DUP4 SGT AND DUP4 DUP4 SLT DUP3 AND OR ISZERO PUSH2 0x3BB0 JUMPI PUSH2 0x3BB0 PUSH2 0x3A78 JUMP JUMPDEST POP SWAP3 SWAP2 POP POP JUMP JUMPDEST DUP1 DUP3 MUL PUSH0 DUP3 SLT PUSH1 0x1 PUSH1 0xFF SHL DUP5 EQ AND ISZERO PUSH2 0x3BD2 JUMPI PUSH2 0x3BD2 PUSH2 0x3A78 JUMP JUMPDEST DUP2 DUP2 SDIV DUP4 EQ DUP3 ISZERO OR PUSH2 0x207C JUMPI PUSH2 0x207C PUSH2 0x3A78 JUMP JUMPDEST PUSH4 0x4E487B71 PUSH1 0xE0 SHL PUSH0 MSTORE PUSH1 0x12 PUSH1 0x4 MSTORE PUSH1 0x24 PUSH0 REVERT JUMPDEST PUSH0 DUP3 PUSH2 0x3C08 JUMPI PUSH2 0x3C08 PUSH2 0x3BE6 JUMP JUMPDEST PUSH1 0x1 PUSH1 0xFF SHL DUP3 EQ PUSH0 NOT DUP5 EQ AND ISZERO PUSH2 0x3C21 JUMPI PUSH2 0x3C21 PUSH2 0x3A78 JUMP JUMPDEST POP SDIV SWAP1 JUMP JUMPDEST PUSH1 0x2 DUP2 DUP2 SIGNEXTEND SWAP1 DUP4 SWAP1 SIGNEXTEND ADD PUSH3 0x7FFFFF DUP2 SGT PUSH3 0x7FFFFF NOT DUP3 SLT OR ISZERO PUSH2 0x207C JUMPI PUSH2 0x207C PUSH2 0x3A78 JUMP JUMPDEST PUSH0 PUSH0 PUSH1 0x40 DUP4 DUP6 SUB SLT ISZERO PUSH2 0x3C5C JUMPI PUSH0 PUSH0 REVERT JUMPDEST DUP3 MLOAD PUSH2 0x3C67 DUP2 PUSH2 0x33E1 JUMP JUMPDEST PUSH1 0x20 SWAP4 SWAP1 SWAP4 ADD MLOAD SWAP3 SWAP5 SWAP3 SWAP4 POP POP POP JUMP JUMPDEST PUSH4 0x4E487B71 PUSH1 0xE0 SHL PUSH0 MSTORE PUSH1 0x41 PUSH1 0x4 MSTORE PUSH1 0x24 PUSH0 REVERT JUMPDEST PUSH4 0x4E487B71 PUSH1 0xE0 SHL PUSH0 MSTORE PUSH1 0x32 PUSH1 0x4 MSTORE PUSH1 0x24 PUSH0 REVERT JUMPDEST PUSH0 PUSH1 0x20 DUP3 DUP5 SUB SLT ISZERO PUSH2 0x3CAF JUMPI PUSH0 PUSH0 REVERT JUMPDEST POP MLOAD SWAP2 SWAP1 POP JUMP JUMPDEST PUSH1 0x1 PUSH1 0x1 PUSH1 0xA0 SHL SUB DUP5 AND DUP2 MSTORE DUP3 ISZERO ISZERO PUSH1 0x20 DUP1 DUP4 ADD SWAP2 SWAP1 SWAP2 MSTORE PUSH1 0x60 PUSH1 0x40 DUP4 ADD DUP2 SWAP1 MSTORE DUP4 MLOAD SWAP1 DUP4 ADD DUP2 SWAP1 MSTORE PUSH0 SWAP2 DUP5 ADD SWAP1 PUSH1 0x80 DUP5 ADD SWAP1 DUP4 JUMPDEST DUP2 DUP2 LT ISZERO PUSH2 0x3D09 JUMPI DUP4 MLOAD DUP4 MSTORE PUSH1 0x20 SWAP4 DUP5 ADD SWAP4 SWAP1 SWAP3 ADD SWAP2 PUSH1 0x1 ADD PUSH2 0x3CEB JUMP JUMPDEST POP SWAP1 SWAP8 SWAP7 POP POP POP POP POP POP POP JUMP JUMPDEST PUSH1 0x40 DUP1 MLOAD SWAP1 DUP2 ADD PUSH1 0x1 PUSH1 0x1 PUSH1 0x40 SHL SUB DUP2 GT DUP3 DUP3 LT OR ISZERO PUSH2 0x3D38 JUMPI PUSH2 0x3D38 PUSH2 0x3C77 JUMP JUMPDEST PUSH1 0x40 MSTORE SWAP1 JUMP JUMPDEST PUSH1 0x40 MLOAD PUSH1 0x1F DUP3 ADD PUSH1 0x1F NOT AND DUP2 ADD PUSH1 0x1 PUSH1 0x1 PUSH1 0x40 SHL SUB DUP2 GT DUP3 DUP3 LT OR ISZERO PUSH2 0x3D66 JUMPI PUSH2 0x3D66 PUSH2 0x3C77 JUMP JUMPDEST PUSH1 0x40 MSTORE SWAP2 SWAP1 POP JUMP JUMPDEST PUSH0 PUSH0 PUSH0 PUSH1 0x60 DUP5 DUP7 SUB SLT ISZERO PUSH2 0x3D80 JUMPI PUSH0 PUSH0 REVERT JUMPDEST DUP4 MLOAD PUSH1 0x20 DUP6 ADD MLOAD PUSH1 0x40 DUP7 ADD MLOAD SWAP2 SWAP5 POP SWAP3 POP PUSH1 0x1 PUSH1 0x1 PUSH1 0x40 SHL SUB DUP2 GT ISZERO PUSH2 0x3DA4 JUMPI PUSH0 PUSH0 REVERT JUMPDEST DUP5 ADD PUSH1 0x1F DUP2 ADD DUP7 SGT PUSH2 0x3DB4 JUMPI PUSH0 PUSH0 REVERT JUMPDEST DUP1 MLOAD PUSH1 0x1 PUSH1 0x1 PUSH1 0x40 SHL SUB DUP2 GT ISZERO PUSH2 0x3DCD JUMPI PUSH2 0x3DCD PUSH2 0x3C77 JUMP JUMPDEST PUSH2 0x3DDC PUSH1 0x20 DUP3 PUSH1 0x5 SHL ADD PUSH2 0x3D3E JUMP JUMPDEST DUP1 DUP3 DUP3 MSTORE PUSH1 0x20 DUP3 ADD SWAP2 POP PUSH1 0x20 DUP4 PUSH1 0x6 SHL DUP6 ADD ADD SWAP3 POP DUP9 DUP4 GT ISZERO PUSH2 0x3DFD JUMPI PUSH0 PUSH0 REVERT JUMPDEST PUSH1 0x20 DUP5 ADD SWAP4 POP JUMPDEST DUP3 DUP5 LT ISZERO PUSH2 0x3E64 JUMPI DUP9 PUSH1 0x1F DUP6 ADD SLT PUSH2 0x3E1A JUMPI PUSH0 PUSH0 REVERT JUMPDEST PUSH2 0x3E22 PUSH2 0x3D16 JUMP JUMPDEST DUP1 PUSH1 0x40 DUP7 ADD DUP12 DUP2 GT ISZERO PUSH2 0x3E33 JUMPI PUSH0 PUSH0 REVERT JUMPDEST DUP7 JUMPDEST DUP2 DUP2 LT ISZERO PUSH2 0x3E4D JUMPI DUP1 MLOAD DUP5 MSTORE PUSH1 0x20 SWAP4 DUP5 ADD SWAP4 ADD PUSH2 0x3E35 JUMP JUMPDEST POP POP DUP4 MSTORE POP PUSH1 0x40 SWAP4 SWAP1 SWAP4 ADD SWAP3 PUSH1 0x20 SWAP1 SWAP2 ADD SWAP1 PUSH2 0x3E04 JUMP JUMPDEST DUP1 SWAP5 POP POP POP POP POP SWAP3 POP SWAP3 POP SWAP3 JUMP JUMPDEST PUSH0 DUP2 MLOAD DUP1 DUP5 MSTORE PUSH1 0x20 DUP5 ADD SWAP4 POP PUSH1 0x20 DUP4 ADD PUSH0 JUMPDEST DUP3 DUP2 LT ISZERO PUSH2 0x3EC9 JUMPI DUP2 MLOAD DUP7 PUSH0 JUMPDEST PUSH1 0x2 DUP2 LT ISZERO PUSH2 0x3EB0 JUMPI DUP3 MLOAD DUP3 MSTORE PUSH1 0x20 SWAP3 DUP4 ADD SWAP3 SWAP1 SWAP2 ADD SWAP1 PUSH1 0x1 ADD PUSH2 0x3E91 JUMP JUMPDEST POP POP POP PUSH1 0x40 SWAP6 SWAP1 SWAP6 ADD SWAP5 PUSH1 0x20 SWAP2 SWAP1 SWAP2 ADD SWAP1 PUSH1 0x1 ADD PUSH2 0x3E84 JUMP JUMPDEST POP SWAP4 SWAP5 SWAP4 POP POP POP POP JUMP JUMPDEST PUSH1 0x1 DUP1 PUSH1 0xA0 SHL SUB DUP7 AND DUP2 MSTORE DUP5 PUSH1 0x2 SIGNEXTEND PUSH1 0x20 DUP3 ADD MSTORE PUSH1 0xA0 PUSH1 0x40 DUP3 ADD MSTORE PUSH0 PUSH2 0x3EFC PUSH1 0xA0 DUP4 ADD DUP7 PUSH2 0x3E72 JUMP JUMPDEST PUSH1 0x1 PUSH1 0x1 PUSH1 0x80 SHL SUB SWAP5 DUP6 AND PUSH1 0x60 DUP5 ADD MSTORE SWAP3 SWAP1 SWAP4 AND PUSH1 0x80 SWAP1 SWAP2 ADD MSTORE SWAP5 SWAP4 POP POP POP POP JUMP JUMPDEST PUSH1 0x1 PUSH1 0x1 PUSH1 0xA0 SHL SUB DUP6 AND DUP2 MSTORE DUP4 ISZERO ISZERO PUSH1 0x20 DUP3 ADD MSTORE PUSH1 0x60 PUSH1 0x40 DUP3 ADD DUP2 SWAP1 MSTORE DUP2 ADD DUP3 SWAP1 MSTORE PUSH0 DUP4 PUSH1 0x80 DUP4 ADD DUP3 JUMPDEST DUP6 DUP2 LT ISZERO PUSH2 0x3F66 JUMPI DUP3 CALLDATALOAD DUP3 MSTORE PUSH1 0x20 SWAP3 DUP4 ADD SWAP3 SWAP1 SWAP2 ADD SWAP1 PUSH1 0x1 ADD PUSH2 0x3F48 JUMP JUMPDEST POP SWAP8 SWAP7 POP POP POP POP POP POP POP JUMP JUMPDEST PUSH0 PUSH1 0x20 DUP3 DUP5 SUB SLT ISZERO PUSH2 0x3F82 JUMPI PUSH0 PUSH0 REVERT JUMPDEST DUP2 MLOAD PUSH2 0x14A2 DUP2 PUSH2 0x33E1 JUMP JUMPDEST PUSH0 PUSH0 PUSH0 PUSH0 PUSH1 0x80 DUP6 DUP8 SUB SLT ISZERO PUSH2 0x3FA0 JUMPI PUSH0 PUSH0 REVERT JUMPDEST DUP5 MLOAD PUSH2 0x3FAB DUP2 PUSH2 0x39A1 JUMP JUMPDEST DUP1 SWAP5 POP POP PUSH1 0x20 DUP6 ADD MLOAD DUP1 PUSH1 0x6 SIGNEXTEND DUP2 EQ PUSH2 0x3FC2 JUMPI PUSH0 PUSH0 REVERT JUMPDEST PUSH1 0x40 DUP7 ADD MLOAD SWAP1 SWAP4 POP PUSH2 0x3FD3 DUP2 PUSH2 0x33CA JUMP JUMPDEST SWAP2 POP PUSH2 0x3FE1 PUSH1 0x60 DUP7 ADD PUSH2 0x3AD0 JUMP JUMPDEST SWAP1 POP SWAP3 SWAP6 SWAP2 SWAP5 POP SWAP3 POP JUMP JUMPDEST PUSH1 0x1 PUSH1 0x1 PUSH1 0x80 SHL SUB DUP2 DUP2 AND DUP4 DUP3 AND MUL SWAP1 DUP2 AND SWAP1 DUP2 DUP2 EQ PUSH2 0x3BB0 JUMPI PUSH2 0x3BB0 PUSH2 0x3A78 JUMP JUMPDEST PUSH0 DUP3 PUSH1 0x2 SIGNEXTEND DUP3 PUSH1 0x2 SIGNEXTEND MUL DUP1 PUSH1 0x2 SIGNEXTEND SWAP2 POP DUP1 DUP3 EQ PUSH2 0x3BB0 JUMPI PUSH2 0x3BB0 PUSH2 0x3A78 JUMP JUMPDEST PUSH0 DUP2 PUSH1 0x2 SIGNEXTEND DUP4 PUSH1 0x2 SIGNEXTEND DUP1 PUSH2 0x4043 JUMPI PUSH2 0x4043 PUSH2 0x3BE6 JUMP JUMPDEST PUSH3 0x7FFFFF NOT DUP3 EQ PUSH0 NOT DUP3 EQ AND ISZERO PUSH2 0x405C JUMPI PUSH2 0x405C PUSH2 0x3A78 JUMP JUMPDEST SWAP1 SDIV SWAP4 SWAP3 POP POP POP JUMP JUMPDEST PUSH3 0xFFFFFF DUP2 DUP2 AND DUP4 DUP3 AND MUL SWAP1 DUP2 AND SWAP1 DUP2 DUP2 EQ PUSH2 0x3BB0 JUMPI PUSH2 0x3BB0 PUSH2 0x3A78 JUMP INVALID LOG2 PUSH5 0x6970667358 0x22 SLT KECCAK256 PUSH21 0x805D794EF25C0A58CE97E7F476C0B977F03BBF1972 BLOBBASEFEE STATICCALL SUB 0xAE 0xE3 MSIZE PUSH0 PUSH23 0x947464736F6C634300081B003300000000000000000000 "
		},
		"gasEstimates": {
			"creation": {
				"codeDepositCost": "3313800",
				"executionCost": "infinite",
				"totalCost": "infinite"
			},
			"external": {
				"checkCollateral(address,address,int24,uint256,uint256[])": "infinite",
				"computeInternalMedian(uint256,uint256,address)": "infinite",
				"computeMedianObservedPrice(address,uint256,uint256)": "infinite",
				"createBATS(address,int24,int24,int24,uint256,uint256)": "infinite",
				"createBigLizard(address,int24,int24,int24,uint256)": "infinite",
				"createCallCalendarSpread(address,int24,int24,int24,uint256,uint256,uint256)": "infinite",
				"createCallDiagonalSpread(address,int24,int24,int24,int24,uint256,uint256,uint256)": "infinite",
				"createCallRatioSpread(address,int24,int24,int24,uint256,uint256,uint256)": "infinite",
				"createCallSpread(address,int24,int24,int24,uint256,uint256,uint256)": "infinite",
				"createCallZEBRASpread(address,int24,int24,int24,uint256,uint256,uint256)": "infinite",
				"createIronButterfly(address,int24,int24,int24,uint256)": "infinite",
				"createIronCondor(address,int24,int24,int24,int24,uint256)": "infinite",
				"createJadeLizard(address,int24,int24,int24,int24,uint256)": "infinite",
				"createPutCalendarSpread(address,int24,int24,int24,uint256,uint256,uint256)": "infinite",
				"createPutDiagonalSpread(address,int24,int24,int24,int24,uint256,uint256,uint256)": "infinite",
				"createPutRatioSpread(address,int24,int24,int24,uint256,uint256,uint256)": "infinite",
				"createPutSpread(address,int24,int24,int24,uint256,uint256,uint256)": "infinite",
				"createPutZEBRASpread(address,int24,int24,int24,uint256,uint256,uint256)": "infinite",
				"createStraddle(address,int24,int24,uint256,uint256,uint256,uint256)": "infinite",
				"createStrangle(address,int24,int24,int24,uint256,uint256,uint256,uint256)": "infinite",
				"createSuperBear(address,int24,int24,int24,int24,uint256)": "infinite",
				"createSuperBull(address,int24,int24,int24,int24,uint256)": "infinite",
				"createZEEHBS(address,int24,int24,int24,uint256,uint256)": "infinite",
				"findLiquidationPriceDown(address,address,uint256[])": "infinite",
				"findLiquidationPriceUp(address,address,uint256[])": "infinite",
				"getRequiredBase(address,uint256,int24)": "infinite",
				"optimizeRiskPartners(address,int24,uint256)": "infinite",
				"optionPositionInfo(address,address,uint256)": "infinite",
				"twapFilter(address,uint32)": "infinite",
				"unwrapTokenId(uint256)": "infinite",
				"validateTokenId(uint256)": "infinite"
			},
			"internal": {
				"addCallLeg(TokenId,uint256,uint256,uint256,uint256,uint256,int24,int24)": "infinite",
				"addPutLeg(TokenId,uint256,uint256,uint256,uint256,uint256,int24,int24)": "infinite",
				"checkTokenId(TokenId,uint128)": "infinite",
				"netEquity(address,address,int24,TokenId[] calldata)": "infinite"
			}
		},
		"methodIdentifiers": {
			"checkCollateral(address,address,int24,uint256,uint256[])": "d88162e5",
			"computeInternalMedian(uint256,uint256,address)": "9bbc0fed",
			"computeMedianObservedPrice(address,uint256,uint256)": "a2ae7fdc",
			"createBATS(address,int24,int24,int24,uint256,uint256)": "ca64f419",
			"createBigLizard(address,int24,int24,int24,uint256)": "ced04c02",
			"createCallCalendarSpread(address,int24,int24,int24,uint256,uint256,uint256)": "fa80f8f5",
			"createCallDiagonalSpread(address,int24,int24,int24,int24,uint256,uint256,uint256)": "cd775a7e",
			"createCallRatioSpread(address,int24,int24,int24,uint256,uint256,uint256)": "71215b9c",
			"createCallSpread(address,int24,int24,int24,uint256,uint256,uint256)": "06158ed5",
			"createCallZEBRASpread(address,int24,int24,int24,uint256,uint256,uint256)": "321115d8",
			"createIronButterfly(address,int24,int24,int24,uint256)": "e0fb8ba3",
			"createIronCondor(address,int24,int24,int24,int24,uint256)": "9b82fff4",
			"createJadeLizard(address,int24,int24,int24,int24,uint256)": "42189dee",
			"createPutCalendarSpread(address,int24,int24,int24,uint256,uint256,uint256)": "f3220286",
			"createPutDiagonalSpread(address,int24,int24,int24,int24,uint256,uint256,uint256)": "7da845be",
			"createPutRatioSpread(address,int24,int24,int24,uint256,uint256,uint256)": "66deb402",
			"createPutSpread(address,int24,int24,int24,uint256,uint256,uint256)": "83b70335",
			"createPutZEBRASpread(address,int24,int24,int24,uint256,uint256,uint256)": "57fced97",
			"createStraddle(address,int24,int24,uint256,uint256,uint256,uint256)": "fd8c575e",
			"createStrangle(address,int24,int24,int24,uint256,uint256,uint256,uint256)": "42df787e",
			"createSuperBear(address,int24,int24,int24,int24,uint256)": "4804b3fb",
			"createSuperBull(address,int24,int24,int24,int24,uint256)": "45d6704d",
			"createZEEHBS(address,int24,int24,int24,uint256,uint256)": "0b69b2c6",
			"findLiquidationPriceDown(address,address,uint256[])": "2228f0fa",
			"findLiquidationPriceUp(address,address,uint256[])": "30da59f2",
			"getRequiredBase(address,uint256,int24)": "d27e5fa7",
			"optimizeRiskPartners(address,int24,uint256)": "9bd25cad",
			"optionPositionInfo(address,address,uint256)": "c4cc192f",
			"twapFilter(address,uint32)": "e830adb9",
			"unwrapTokenId(uint256)": "ad65d5b0",
			"validateTokenId(uint256)": "34600901"
		}
	},
	"abi": [
		{
			"inputs": [
				{
					"internalType": "contract SemiFungiblePositionManager",
					"name": "_SFPM",
					"type": "address"
				}
			],
			"stateMutability": "payable",
			"type": "constructor"
		},
		{
			"inputs": [],
			"name": "InvalidTick",
			"type": "error"
		},
		{
			"inputs": [
				{
					"internalType": "uint256",
					"name": "parameterType",
					"type": "uint256"
				}
			],
			"name": "InvalidTokenIdParameter",
			"type": "error"
		},
		{
			"inputs": [],
			"name": "TicksNotInitializable",
			"type": "error"
		},
		{
			"inputs": [
				{
					"internalType": "contract PanopticPool",
					"name": "pool",
					"type": "address"
				},
				{
					"internalType": "address",
					"name": "account",
					"type": "address"
				},
				{
					"internalType": "int24",
					"name": "atTick",
					"type": "int24"
				},
				{
					"internalType": "uint256",
					"name": "tokenType",
					"type": "uint256"
				},
				{
					"internalType": "TokenId[]",
					"name": "positionIdList",
					"type": "uint256[]"
				}
			],
			"name": "checkCollateral",
			"outputs": [
				{
					"internalType": "uint256",
					"name": "",
					"type": "uint256"
				},
				{
					"internalType": "uint256",
					"name": "",
					"type": "uint256"
				}
			],
			"stateMutability": "view",
			"type": "function"
		},
		{
			"inputs": [
				{
					"internalType": "uint256",
					"name": "period",
					"type": "uint256"
				},
				{
					"internalType": "uint256",
					"name": "medianData",
					"type": "uint256"
				},
				{
					"internalType": "contract IUniswapV3Pool",
					"name": "univ3pool",
					"type": "address"
				}
			],
			"name": "computeInternalMedian",
			"outputs": [
				{
					"internalType": "int24",
					"name": "",
					"type": "int24"
				},
				{
					"internalType": "uint256",
					"name": "",
					"type": "uint256"
				}
			],
			"stateMutability": "view",
			"type": "function"
		},
		{
			"inputs": [
				{
					"internalType": "contract IUniswapV3Pool",
					"name": "univ3pool",
					"type": "address"
				},
				{
					"internalType": "uint256",
					"name": "cardinality",
					"type": "uint256"
				},
				{
					"internalType": "uint256",
					"name": "period",
					"type": "uint256"
				}
			],
			"name": "computeMedianObservedPrice",
			"outputs": [
				{
					"internalType": "int24",
					"name": "medianTick",
					"type": "int24"
				}
			],
			"stateMutability": "view",
			"type": "function"
		},
		{
			"inputs": [
				{
					"internalType": "address",
					"name": "univ3pool",
					"type": "address"
				},
				{
					"internalType": "int24",
					"name": "width",
					"type": "int24"
				},
				{
					"internalType": "int24",
					"name": "longStrike",
					"type": "int24"
				},
				{
					"internalType": "int24",
					"name": "shortStrike",
					"type": "int24"
				},
				{
					"internalType": "uint256",
					"name": "asset",
					"type": "uint256"
				},
				{
					"internalType": "uint256",
					"name": "ratio",
					"type": "uint256"
				}
			],
			"name": "createBATS",
			"outputs": [
				{
					"internalType": "TokenId",
					"name": "tokenId",
					"type": "uint256"
				}
			],
			"stateMutability": "view",
			"type": "function"
		},
		{
			"inputs": [
				{
					"internalType": "address",
					"name": "univ3pool",
					"type": "address"
				},
				{
					"internalType": "int24",
					"name": "width",
					"type": "int24"
				},
				{
					"internalType": "int24",
					"name": "longCallStrike",
					"type": "int24"
				},
				{
					"internalType": "int24",
					"name": "straddleStrike",
					"type": "int24"
				},
				{
					"internalType": "uint256",
					"name": "asset",
					"type": "uint256"
				}
			],
			"name": "createBigLizard",
			"outputs": [
				{
					"internalType": "TokenId",
					"name": "tokenId",
					"type": "uint256"
				}
			],
			"stateMutability": "view",
			"type": "function"
		},
		{
			"inputs": [
				{
					"internalType": "address",
					"name": "univ3pool",
					"type": "address"
				},
				{
					"internalType": "int24",
					"name": "widthLong",
					"type": "int24"
				},
				{
					"internalType": "int24",
					"name": "widthShort",
					"type": "int24"
				},
				{
					"internalType": "int24",
					"name": "strike",
					"type": "int24"
				},
				{
					"internalType": "uint256",
					"name": "asset",
					"type": "uint256"
				},
				{
					"internalType": "uint256",
					"name": "optionRatio",
					"type": "uint256"
				},
				{
					"internalType": "uint256",
					"name": "start",
					"type": "uint256"
				}
			],
			"name": "createCallCalendarSpread",
			"outputs": [
				{
					"internalType": "TokenId",
					"name": "tokenId",
					"type": "uint256"
				}
			],
			"stateMutability": "view",
			"type": "function"
		},
		{
			"inputs": [
				{
					"internalType": "address",
					"name": "univ3pool",
					"type": "address"
				},
				{
					"internalType": "int24",
					"name": "widthLong",
					"type": "int24"
				},
				{
					"internalType": "int24",
					"name": "widthShort",
					"type": "int24"
				},
				{
					"internalType": "int24",
					"name": "strikeLong",
					"type": "int24"
				},
				{
					"internalType": "int24",
					"name": "strikeShort",
					"type": "int24"
				},
				{
					"internalType": "uint256",
					"name": "asset",
					"type": "uint256"
				},
				{
					"internalType": "uint256",
					"name": "optionRatio",
					"type": "uint256"
				},
				{
					"internalType": "uint256",
					"name": "start",
					"type": "uint256"
				}
			],
			"name": "createCallDiagonalSpread",
			"outputs": [
				{
					"internalType": "TokenId",
					"name": "tokenId",
					"type": "uint256"
				}
			],
			"stateMutability": "view",
			"type": "function"
		},
		{
			"inputs": [
				{
					"internalType": "address",
					"name": "univ3pool",
					"type": "address"
				},
				{
					"internalType": "int24",
					"name": "width",
					"type": "int24"
				},
				{
					"internalType": "int24",
					"name": "longStrike",
					"type": "int24"
				},
				{
					"internalType": "int24",
					"name": "shortStrike",
					"type": "int24"
				},
				{
					"internalType": "uint256",
					"name": "asset",
					"type": "uint256"
				},
				{
					"internalType": "uint256",
					"name": "ratio",
					"type": "uint256"
				},
				{
					"internalType": "uint256",
					"name": "start",
					"type": "uint256"
				}
			],
			"name": "createCallRatioSpread",
			"outputs": [
				{
					"internalType": "TokenId",
					"name": "tokenId",
					"type": "uint256"
				}
			],
			"stateMutability": "view",
			"type": "function"
		},
		{
			"inputs": [
				{
					"internalType": "address",
					"name": "univ3pool",
					"type": "address"
				},
				{
					"internalType": "int24",
					"name": "width",
					"type": "int24"
				},
				{
					"internalType": "int24",
					"name": "strikeLong",
					"type": "int24"
				},
				{
					"internalType": "int24",
					"name": "strikeShort",
					"type": "int24"
				},
				{
					"internalType": "uint256",
					"name": "asset",
					"type": "uint256"
				},
				{
					"internalType": "uint256",
					"name": "optionRatio",
					"type": "uint256"
				},
				{
					"internalType": "uint256",
					"name": "start",
					"type": "uint256"
				}
			],
			"name": "createCallSpread",
			"outputs": [
				{
					"internalType": "TokenId",
					"name": "tokenId",
					"type": "uint256"
				}
			],
			"stateMutability": "view",
			"type": "function"
		},
		{
			"inputs": [
				{
					"internalType": "address",
					"name": "univ3pool",
					"type": "address"
				},
				{
					"internalType": "int24",
					"name": "width",
					"type": "int24"
				},
				{
					"internalType": "int24",
					"name": "longStrike",
					"type": "int24"
				},
				{
					"internalType": "int24",
					"name": "shortStrike",
					"type": "int24"
				},
				{
					"internalType": "uint256",
					"name": "asset",
					"type": "uint256"
				},
				{
					"internalType": "uint256",
					"name": "ratio",
					"type": "uint256"
				},
				{
					"internalType": "uint256",
					"name": "start",
					"type": "uint256"
				}
			],
			"name": "createCallZEBRASpread",
			"outputs": [
				{
					"internalType": "TokenId",
					"name": "tokenId",
					"type": "uint256"
				}
			],
			"stateMutability": "view",
			"type": "function"
		},
		{
			"inputs": [
				{
					"internalType": "address",
					"name": "univ3pool",
					"type": "address"
				},
				{
					"internalType": "int24",
					"name": "width",
					"type": "int24"
				},
				{
					"internalType": "int24",
					"name": "strike",
					"type": "int24"
				},
				{
					"internalType": "int24",
					"name": "wingWidth",
					"type": "int24"
				},
				{
					"internalType": "uint256",
					"name": "asset",
					"type": "uint256"
				}
			],
			"name": "createIronButterfly",
			"outputs": [
				{
					"internalType": "TokenId",
					"name": "tokenId",
					"type": "uint256"
				}
			],
			"stateMutability": "view",
			"type": "function"
		},
		{
			"inputs": [
				{
					"internalType": "address",
					"name": "univ3pool",
					"type": "address"
				},
				{
					"internalType": "int24",
					"name": "width",
					"type": "int24"
				},
				{
					"internalType": "int24",
					"name": "callStrike",
					"type": "int24"
				},
				{
					"internalType": "int24",
					"name": "putStrike",
					"type": "int24"
				},
				{
					"internalType": "int24",
					"name": "wingWidth",
					"type": "int24"
				},
				{
					"internalType": "uint256",
					"name": "asset",
					"type": "uint256"
				}
			],
			"name": "createIronCondor",
			"outputs": [
				{
					"internalType": "TokenId",
					"name": "tokenId",
					"type": "uint256"
				}
			],
			"stateMutability": "view",
			"type": "function"
		},
		{
			"inputs": [
				{
					"internalType": "address",
					"name": "univ3pool",
					"type": "address"
				},
				{
					"internalType": "int24",
					"name": "width",
					"type": "int24"
				},
				{
					"internalType": "int24",
					"name": "longCallStrike",
					"type": "int24"
				},
				{
					"internalType": "int24",
					"name": "shortCallStrike",
					"type": "int24"
				},
				{
					"internalType": "int24",
					"name": "shortPutStrike",
					"type": "int24"
				},
				{
					"internalType": "uint256",
					"name": "asset",
					"type": "uint256"
				}
			],
			"name": "createJadeLizard",
			"outputs": [
				{
					"internalType": "TokenId",
					"name": "tokenId",
					"type": "uint256"
				}
			],
			"stateMutability": "view",
			"type": "function"
		},
		{
			"inputs": [
				{
					"internalType": "address",
					"name": "univ3pool",
					"type": "address"
				},
				{
					"internalType": "int24",
					"name": "widthLong",
					"type": "int24"
				},
				{
					"internalType": "int24",
					"name": "widthShort",
					"type": "int24"
				},
				{
					"internalType": "int24",
					"name": "strike",
					"type": "int24"
				},
				{
					"internalType": "uint256",
					"name": "asset",
					"type": "uint256"
				},
				{
					"internalType": "uint256",
					"name": "optionRatio",
					"type": "uint256"
				},
				{
					"internalType": "uint256",
					"name": "start",
					"type": "uint256"
				}
			],
			"name": "createPutCalendarSpread",
			"outputs": [
				{
					"internalType": "TokenId",
					"name": "tokenId",
					"type": "uint256"
				}
			],
			"stateMutability": "view",
			"type": "function"
		},
		{
			"inputs": [
				{
					"internalType": "address",
					"name": "univ3pool",
					"type": "address"
				},
				{
					"internalType": "int24",
					"name": "widthLong",
					"type": "int24"
				},
				{
					"internalType": "int24",
					"name": "widthShort",
					"type": "int24"
				},
				{
					"internalType": "int24",
					"name": "strikeLong",
					"type": "int24"
				},
				{
					"internalType": "int24",
					"name": "strikeShort",
					"type": "int24"
				},
				{
					"internalType": "uint256",
					"name": "asset",
					"type": "uint256"
				},
				{
					"internalType": "uint256",
					"name": "optionRatio",
					"type": "uint256"
				},
				{
					"internalType": "uint256",
					"name": "start",
					"type": "uint256"
				}
			],
			"name": "createPutDiagonalSpread",
			"outputs": [
				{
					"internalType": "TokenId",
					"name": "tokenId",
					"type": "uint256"
				}
			],
			"stateMutability": "view",
			"type": "function"
		},
		{
			"inputs": [
				{
					"internalType": "address",
					"name": "univ3pool",
					"type": "address"
				},
				{
					"internalType": "int24",
					"name": "width",
					"type": "int24"
				},
				{
					"internalType": "int24",
					"name": "longStrike",
					"type": "int24"
				},
				{
					"internalType": "int24",
					"name": "shortStrike",
					"type": "int24"
				},
				{
					"internalType": "uint256",
					"name": "asset",
					"type": "uint256"
				},
				{
					"internalType": "uint256",
					"name": "ratio",
					"type": "uint256"
				},
				{
					"internalType": "uint256",
					"name": "start",
					"type": "uint256"
				}
			],
			"name": "createPutRatioSpread",
			"outputs": [
				{
					"internalType": "TokenId",
					"name": "tokenId",
					"type": "uint256"
				}
			],
			"stateMutability": "view",
			"type": "function"
		},
		{
			"inputs": [
				{
					"internalType": "address",
					"name": "univ3pool",
					"type": "address"
				},
				{
					"internalType": "int24",
					"name": "width",
					"type": "int24"
				},
				{
					"internalType": "int24",
					"name": "strikeLong",
					"type": "int24"
				},
				{
					"internalType": "int24",
					"name": "strikeShort",
					"type": "int24"
				},
				{
					"internalType": "uint256",
					"name": "asset",
					"type": "uint256"
				},
				{
					"internalType": "uint256",
					"name": "optionRatio",
					"type": "uint256"
				},
				{
					"internalType": "uint256",
					"name": "start",
					"type": "uint256"
				}
			],
			"name": "createPutSpread",
			"outputs": [
				{
					"internalType": "TokenId",
					"name": "tokenId",
					"type": "uint256"
				}
			],
			"stateMutability": "view",
			"type": "function"
		},
		{
			"inputs": [
				{
					"internalType": "address",
					"name": "univ3pool",
					"type": "address"
				},
				{
					"internalType": "int24",
					"name": "width",
					"type": "int24"
				},
				{
					"internalType": "int24",
					"name": "longStrike",
					"type": "int24"
				},
				{
					"internalType": "int24",
					"name": "shortStrike",
					"type": "int24"
				},
				{
					"internalType": "uint256",
					"name": "asset",
					"type": "uint256"
				},
				{
					"internalType": "uint256",
					"name": "ratio",
					"type": "uint256"
				},
				{
					"internalType": "uint256",
					"name": "start",
					"type": "uint256"
				}
			],
			"name": "createPutZEBRASpread",
			"outputs": [
				{
					"internalType": "TokenId",
					"name": "tokenId",
					"type": "uint256"
				}
			],
			"stateMutability": "view",
			"type": "function"
		},
		{
			"inputs": [
				{
					"internalType": "address",
					"name": "univ3pool",
					"type": "address"
				},
				{
					"internalType": "int24",
					"name": "width",
					"type": "int24"
				},
				{
					"internalType": "int24",
					"name": "strike",
					"type": "int24"
				},
				{
					"internalType": "uint256",
					"name": "asset",
					"type": "uint256"
				},
				{
					"internalType": "uint256",
					"name": "isLong",
					"type": "uint256"
				},
				{
					"internalType": "uint256",
					"name": "optionRatio",
					"type": "uint256"
				},
				{
					"internalType": "uint256",
					"name": "start",
					"type": "uint256"
				}
			],
			"name": "createStraddle",
			"outputs": [
				{
					"internalType": "TokenId",
					"name": "tokenId",
					"type": "uint256"
				}
			],
			"stateMutability": "view",
			"type": "function"
		},
		{
			"inputs": [
				{
					"internalType": "address",
					"name": "univ3pool",
					"type": "address"
				},
				{
					"internalType": "int24",
					"name": "width",
					"type": "int24"
				},
				{
					"internalType": "int24",
					"name": "callStrike",
					"type": "int24"
				},
				{
					"internalType": "int24",
					"name": "putStrike",
					"type": "int24"
				},
				{
					"internalType": "uint256",
					"name": "asset",
					"type": "uint256"
				},
				{
					"internalType": "uint256",
					"name": "isLong",
					"type": "uint256"
				},
				{
					"internalType": "uint256",
					"name": "optionRatio",
					"type": "uint256"
				},
				{
					"internalType": "uint256",
					"name": "start",
					"type": "uint256"
				}
			],
			"name": "createStrangle",
			"outputs": [
				{
					"internalType": "TokenId",
					"name": "tokenId",
					"type": "uint256"
				}
			],
			"stateMutability": "view",
			"type": "function"
		},
		{
			"inputs": [
				{
					"internalType": "address",
					"name": "univ3pool",
					"type": "address"
				},
				{
					"internalType": "int24",
					"name": "width",
					"type": "int24"
				},
				{
					"internalType": "int24",
					"name": "longPutStrike",
					"type": "int24"
				},
				{
					"internalType": "int24",
					"name": "shortPutStrike",
					"type": "int24"
				},
				{
					"internalType": "int24",
					"name": "shortCallStrike",
					"type": "int24"
				},
				{
					"internalType": "uint256",
					"name": "asset",
					"type": "uint256"
				}
			],
			"name": "createSuperBear",
			"outputs": [
				{
					"internalType": "TokenId",
					"name": "tokenId",
					"type": "uint256"
				}
			],
			"stateMutability": "view",
			"type": "function"
		},
		{
			"inputs": [
				{
					"internalType": "address",
					"name": "univ3pool",
					"type": "address"
				},
				{
					"internalType": "int24",
					"name": "width",
					"type": "int24"
				},
				{
					"internalType": "int24",
					"name": "longCallStrike",
					"type": "int24"
				},
				{
					"internalType": "int24",
					"name": "shortCallStrike",
					"type": "int24"
				},
				{
					"internalType": "int24",
					"name": "shortPutStrike",
					"type": "int24"
				},
				{
					"internalType": "uint256",
					"name": "asset",
					"type": "uint256"
				}
			],
			"name": "createSuperBull",
			"outputs": [
				{
					"internalType": "TokenId",
					"name": "tokenId",
					"type": "uint256"
				}
			],
			"stateMutability": "view",
			"type": "function"
		},
		{
			"inputs": [
				{
					"internalType": "address",
					"name": "univ3pool",
					"type": "address"
				},
				{
					"internalType": "int24",
					"name": "width",
					"type": "int24"
				},
				{
					"internalType": "int24",
					"name": "longStrike",
					"type": "int24"
				},
				{
					"internalType": "int24",
					"name": "shortStrike",
					"type": "int24"
				},
				{
					"internalType": "uint256",
					"name": "asset",
					"type": "uint256"
				},
				{
					"internalType": "uint256",
					"name": "ratio",
					"type": "uint256"
				}
			],
			"name": "createZEEHBS",
			"outputs": [
				{
					"internalType": "TokenId",
					"name": "tokenId",
					"type": "uint256"
				}
			],
			"stateMutability": "view",
			"type": "function"
		},
		{
			"inputs": [
				{
					"internalType": "address",
					"name": "pool",
					"type": "address"
				},
				{
					"internalType": "address",
					"name": "account",
					"type": "address"
				},
				{
					"internalType": "TokenId[]",
					"name": "positionIdList",
					"type": "uint256[]"
				}
			],
			"name": "findLiquidationPriceDown",
			"outputs": [
				{
					"internalType": "int24",
					"name": "liquidationTick",
					"type": "int24"
				}
			],
			"stateMutability": "view",
			"type": "function"
		},
		{
			"inputs": [
				{
					"internalType": "address",
					"name": "pool",
					"type": "address"
				},
				{
					"internalType": "address",
					"name": "account",
					"type": "address"
				},
				{
					"internalType": "TokenId[]",
					"name": "positionIdList",
					"type": "uint256[]"
				}
			],
			"name": "findLiquidationPriceUp",
			"outputs": [
				{
					"internalType": "int24",
					"name": "liquidationTick",
					"type": "int24"
				}
			],
			"stateMutability": "view",
			"type": "function"
		},
		{
			"inputs": [
				{
					"internalType": "contract PanopticPool",
					"name": "pool",
					"type": "address"
				},
				{
					"internalType": "TokenId",
					"name": "tokenId",
					"type": "uint256"
				},
				{
					"internalType": "int24",
					"name": "atTick",
					"type": "int24"
				}
			],
			"name": "getRequiredBase",
			"outputs": [
				{
					"internalType": "uint256",
					"name": "",
					"type": "uint256"
				}
			],
			"stateMutability": "view",
			"type": "function"
		},
		{
			"inputs": [
				{
					"internalType": "contract PanopticPool",
					"name": "pool",
					"type": "address"
				},
				{
					"internalType": "int24",
					"name": "atTick",
					"type": "int24"
				},
				{
					"internalType": "TokenId",
					"name": "tokenId",
					"type": "uint256"
				}
			],
			"name": "optimizeRiskPartners",
			"outputs": [
				{
					"internalType": "TokenId",
					"name": "",
					"type": "uint256"
				}
			],
			"stateMutability": "view",
			"type": "function"
		},
		{
			"inputs": [
				{
					"internalType": "contract PanopticPool",
					"name": "pool",
					"type": "address"
				},
				{
					"internalType": "address",
					"name": "account",
					"type": "address"
				},
				{
					"internalType": "TokenId",
					"name": "tokenId",
					"type": "uint256"
				}
			],
			"name": "optionPositionInfo",
			"outputs": [
				{
					"internalType": "uint128",
					"name": "",
					"type": "uint128"
				},
				{
					"internalType": "uint64",
					"name": "",
					"type": "uint64"
				},
				{
					"internalType": "uint64",
					"name": "",
					"type": "uint64"
				}
			],
			"stateMutability": "view",
			"type": "function"
		},
		{
			"inputs": [
				{
					"internalType": "contract IUniswapV3Pool",
					"name": "univ3pool",
					"type": "address"
				},
				{
					"internalType": "uint32",
					"name": "twapWindow",
					"type": "uint32"
				}
			],
			"name": "twapFilter",
			"outputs": [
				{
					"internalType": "int24",
					"name": "",
					"type": "int24"
				}
			],
			"stateMutability": "view",
			"type": "function"
		},
		{
			"inputs": [
				{
					"internalType": "TokenId",
					"name": "tokenId",
					"type": "uint256"
				}
			],
			"name": "unwrapTokenId",
			"outputs": [
				{
					"components": [
						{
							"internalType": "uint64",
							"name": "poolId",
							"type": "uint64"
						},
						{
							"internalType": "address",
							"name": "UniswapV3Pool",
							"type": "address"
						},
						{
							"internalType": "uint256",
							"name": "asset",
							"type": "uint256"
						},
						{
							"internalType": "uint256",
							"name": "optionRatio",
							"type": "uint256"
						},
						{
							"internalType": "uint256",
							"name": "tokenType",
							"type": "uint256"
						},
						{
							"internalType": "uint256",
							"name": "isLong",
							"type": "uint256"
						},
						{
							"internalType": "uint256",
							"name": "riskPartner",
							"type": "uint256"
						},
						{
							"internalType": "int24",
							"name": "strike",
							"type": "int24"
						},
						{
							"internalType": "int24",
							"name": "width",
							"type": "int24"
						}
					],
					"internalType": "struct PanopticHelper.Leg[]",
					"name": "",
					"type": "tuple[]"
				}
			],
			"stateMutability": "view",
			"type": "function"
		},
		{
			"inputs": [
				{
					"internalType": "TokenId",
					"name": "self",
					"type": "uint256"
				}
			],
			"name": "validateTokenId",
			"outputs": [],
			"stateMutability": "pure",
			"type": "function"
		}
	]
}